:020000041006E4
:1000000000C00208639106100D000000C1910610A7
:1000100000000000000000000000000000000000E0
:10002000000000000000000000000000BD9106106C
:100030000000000000000000BD910610BD910610F8
:10004000BD910610BD910610BD910610BD91061020
:10005000BD910610BD910610BD910610BD91061010
:10006000BD910610BD910610BD910610BD91061000
:10007000BD910610BD910610BD910610BD910610F0
:1000800010B5064C2378002B07D1054B002B02D06E
:10009000044800E000BF0123237010BDB8A600088B
:1000A000000000005CB40610044B10B5002B03D018
:1000B0000349044800E000BF10BDC0460000000036
:1000C000BCA600085CB40610F7B5684D2B68403339
:1000D0001B78002B00D101BEE02201206449920070
:1000E0008B589B069B0F98402B68019040331B78E0
:1000F000002B00D101BE0F238A5813402A683E32DC
:100100001278934200D301BE2A683E32127893429D
:1001100000D301BE2A683E321278934200D301BE5A
:10012000534A9C00A418D02207209200A2580240F3
:10013000042A07D1C0229200A25818301040802211
:10014000520002438820400082425ED005D8002A37
:100150000DD0022A50D000260AE01220FF30824241
:1001600058D01420FF308242F5D1424A4EE0424E30
:10017000002B57D1B0248020E4000A594004970393
:10018000024094463D4A3E4D885804328A584D59A3
:100190000C59C004BF0BC00C1900002C04DA9100EC
:1001A000890F02394C1EA1416246531E9A41013209
:1001B00000291AD0002818D0002A16D000231900D0
:1001C0000AF07AF900230C0005003A00300019000B
:1001D0000AF072F9E6076A08324363088018594149
:1001E0002A0023000AF048F90600019B58088019EC
:1001F00019000AF0B5F8FEBDA620C0000A58002676
:10020000D2439207B4D00A58B2E71E4A8E58F60F6E
:10021000F603ADE704201C4A16690640A8D08026E4
:100220003602A5E72A683F3212789342DDD8013BB7
:10023000164D9A4213D97F271F226159080A0B0CC9
:100240000F4089001040890F1A40002364599C42D6
:1002500003DA02390B00591E8B411900A8E701BED1
:1002600000210A0008000F00EFE7C046D8A60008EA
:10027000000026403C05000000127A0084050000C2
:100280008C0500000C05000000002740FC05000064
:10029000074B9B68DB681A68002A06D05B68186801
:1002A00001231840034BC01870470348FCE7C046C1
:1002B000D8A600080001880004018A00437802786B
:1002C0001B021A438378C0781B04134300061843AB
:1002D0007047F7B500258C79C0B20134E400019471
:1002E0002F0008248446085D84450BD10E19F0794F
:1002F000FF2807D17078B84204D3B678012E01D117
:1003000007002500019808348442ECD9002D0BD059
:1003100049190879907048795070887910700020D8
:10032000CA7892001A60FEBD0048FCE78000B20067
:10033000074A136833331B78834200D801BE136821
:100340001A00BA3212881B6A5043C0187047C04660
:10035000D8A6000870B504000020FFF7E9FF144B91
:1003600014491B68BC331A68002382180568002DE5
:1003700006DB8B4202D18420404270BD0133F5E799
:100380008B42F8D00123C460836000230A491068BF
:10039000002803DA8B42EED00133F8E78B42EAD033
:1003A000A0222368120600209342E6D01800E4E75A
:1003B000D8A60008983A0000009435771FB5084B7E
:1003C000002402936B4602A8039301AB01940093AF
:1003D000FFF7C0FFA04200D00194019804B010BD07
:1003E000001B0035002803D00378013B1F2B00D9E8
:1003F00070470130F6E7002210B504001000A15C40
:100400000B00303B092B09D830380818531C032A3D
:1004100003D000011A00042BF1D110BD0B00413BA9
:10042000052B01D83738F0E70B00613B052B01D8CD
:100430005738EAE70020F0E7F0B50B7885B0039075
:1004400017004D1C222B17D0116000202AE05C2AD7
:1004500007D1019A5278002AF7D0019A013301326C
:100460000192019A01320192019A1278222A00D156
:10047000A7E0002AEBD1E8E701950023F4E72B7809
:100480005C2B11D0237001350134019B9D42F6D3C2
:100490000023039A23700833D36013000198029A53
:1004A00001301A6105B0F0BD6B78662B63D014D8AB
:1004B0002F2B61D007D8222B5ED0484B3D605B6864
:1004C00002989847C1E75C2B56D0622BF5D10823E0
:1004D00023700134063BED18D7E7722B50D006D8B5
:1004E0006E2BEAD10A2323700134083BF3E7742B07
:1004F00048D0752BE1D1019B5B1B052BDDDDA81CD2
:10050000FFF779FF364B374AC31806009342D4D918
:100510000028D2D0344B334AC318934234D8019ABE
:10052000AB1DD31A052BC8DDAB795C2BC5D1EB799C
:10053000752BC2D128000830FFF75DFF284B294AF0
:10054000C3189342B9D8294BB6021E4080238005B8
:10055000800D5B020643F6180C23254A96421FD9EC
:10056000244A9642A9D83F2030408026764206434E
:10057000E670042212E00C23237001340223AAE760
:100580000D23F9E70923F7E77F2804D91A4B98428E
:100590000ED90623E1E7062301222070A4189AE76A
:1005A0003F203040802676420643A6700322F5E7BE
:1005B0003F20802306405B421E4366708633022242
:1005C000ECE7019A501AC01A044B04301B68984794
:1005D0000290041E00D058E737E7C04680A000080C
:1005E0000024FFFFFF0300000028FFFF00FC0F00B6
:1005F000FFFF0000FFFF1000FF070000F8B5802696
:1006000004007600002C00D1F8BDE368276833426F
:1006100004D1A068002801D0FFF7F0FFE3680B4D7C
:10062000334204D12069002801D06B6898478022AA
:10063000E3689200134204D1206A002801D06B685D
:10064000984720006B6898473C00DBE780A00008D3
:1006500070B5056804000020FFF76AFE0023164904
:100660000268002A05DB8B4201D1FF2070BD0133F7
:10067000F6E78B42F9D0012223002A4000D02368FC
:100680000E4C2468BC342468C360012383600023BB
:1006900005192D68002D03DA8B42E6D00133F7E708
:1006A0008B42E2D0C068002A00D10068A0231B065C
:1006B0009842DBD10020D9E7983A0000D8A600087C
:1006C000002210B5094B86B00193039003AB0400E0
:1006D00001A8029304920591FFF7BAFF43425841E3
:1006E00040420440200006B010BDC0460022003544
:1006F000034B1B68BC331B68C0180068C00F7047F1
:10070000D8A60008DC23F0B5002487B09B0504932D
:1007100004AE02AB736002902000039401911700B5
:10072000FFF706FE05002300144C2A68002A07DBA9
:10073000A34203D10120404207B0F0BD0133F4E7EA
:10074000A342F7D00123EE600026AB602800FFF73C
:10075000CFFF002803D0A642ECD00136F6E7A64230
:10076000E8D0A023049A1B069A4201D00498E3E73C
:10077000029B019A3B60039B1360DDE7983A0000FF
:1007800070B5FFF7A1FC002822D0124B1B681A009D
:10079000883212681B689B1819681C68090E0131A1
:1007A000240A09F0DDFDE1B2013109F0D9FD451E51
:1007B0000949280009F0D4FDFA21084C01302072C3
:1007C0008900280009F0CCFD0130E060C003206101
:1007D00070BDC046D8A6000840420F0080A00008A7
:1007E000C0228020064952008B58C0059B009B0800
:1007F00003438B50802388581B0603438B5070475C
:1008000000002640174A30B513681C002C342478A9
:100810001F2C16D8820807241500A5432C1E0FD1C3
:1008200003342040A04081401B68920020339B1875
:100830000A00FF2181401C6862401140614019603C
:1008400030BD9B8F8B4200D101BE13681A6807230D
:10085000184080231B06184380239B01C918890078
:100860008850EDE7D8A600080A4B10B51B681A009F
:100870002C3212781F2A03D8998FFFF7C3FF10BDBF
:1008800080221B688900C91812028B585B005B0824
:100890008B50F4E7D8A60008F8B5436805000C00B3
:1008A000032B00D901BE0023E85E00282CDB6988F9
:1008B000FFF7A8FF0020FF27032639000023EA5E88
:1008C0006D6893B21E40F600B140AD013D40C94392
:1008D000B540002A1ADB134E93089B009B19C026D3
:1008E000B6009F5939400D439D510F490F4B8D68FC
:1008F0009D4208D189688B4205D1002C00D101BEF0
:10090000103292009C50F8BD0948D4E70F263340BE
:10091000083B054E9B089B009B19DE6931400D4347
:10092000DD61E2E700E100E000ED00E000A000088A
:100930000100560010B5FFF7C7FB0C4B1B681A00EF
:10094000883212681B689B1819681C68090E0131EF
:100950004B08181809F004FD240AE4B201346308B6
:10096000C018210009F0FCFC10BDC046D8A6000844
:10097000F0B58C46002800D101BE836958689042CA
:1009800019D91D6D002D03D00020DF6C874201D1E5
:100990000A480DE08300EC582668B24209D3E368A8
:1009A00061684B439B199A4203D2634600201C6046
:1009B000F0BD0130EAE70248FAE7C0460600B2009F
:1009C0000400B20000290CD00722436C1340032B13
:1009D00009D8C023013989B21B03194301650020DE
:1009E00070470248FCE70248FAE7C0460400B2003C
:1009F0000100B200F7B50200C4324C690D00CB68AB
:100A0000019211680F220A40A24200D92200070079
:100A10000100D437D8310097002A12D1EB606C6105
:100A2000002C0CD1F9220221D20083588B43835031
:100A30000320A8612B6A002B01D02B6A98476C61B8
:100A4000F7BD082A19D10E68370A1E705F70370C7F
:100A5000360E9F70DE700E68370A1E715F71370C9C
:100A6000360E9F71DE710F269B18A41A019A126828
:100A70003240A242D0D92200CEE7012A04D106009A
:100A8000D03636681E70EEE7022A05D1009E366821
:100A90001E70360A5E70E6E7032A09D1009E3668AA
:100AA0001E70360A5E700600D03636689E70DAE731
:100AB000042A08D10E68370A1E705F70370C360E94
:100AC0009F70DE70CFE7052A0CD10E68370A1E70C2
:100AD0005F70370C360EDE7006009F70D0363668B9
:100AE0001E71C0E7062A0DD10E68370A1E705F70AE
:100AF000370C360EDE70009E9F7036681E71360A07
:100B00005E71B0E7072A11D10E68370A1E705F7058
:100B1000370C360EDE70009E9F7036681E71360AE6
:100B20005E710600D03636689E719CE70A68160A28
:100B30001A705E70160C120E9E70DA700A68160A31
:100B40001A715E71160C120EDA719E7108228AE714
:100B5000F0B58B6885B00193030008330D680393EB
:100B6000DC6F0F231C40073B1C1B019B00900F00F8
:100B70009C4200D91C00009B009E9433983602933F
:100B8000002C14D1019B3D60BB60002B0DD1F922DC
:100B90000120009BD2009B58009983438B50B86181
:100BA000FB69002B01D0FB69984705B0F0BD082C0C
:100BB00016D12800FFF782FB3060281DFFF77EFB6F
:100BC0003060019B2D191B1B0193039BDC6F0F23CE
:100BD0001C40073B1C1B019B9C42D1D91C00CFE74A
:100BE000012C04D12A78009B90331A60E9E7022C8B
:100BF00006D12A786B781B021343029A1360E0E750
:100C0000032C07D16B782A781B021343029A1360D6
:100C1000AA78E8E72800FFF751FB042CD0D0306019
:100C2000052C01D12A79DEE7062C02D12A796B79CD
:100C3000E1E7072C07D16B792A791B021343029A4B
:100C40001360AA79CFE7281DFFF738FB082430602E
:100C5000B7E7F0B5490085B0019199000C230AACC3
:100C600019402478093B1A400A4361426141002639
:100C70001F2709010A4303900292019D9900CD406C
:100C80000F2200241540039A51180A6801200542DA
:100C900005D03800A04082430298A04002430834A7
:100CA0006D08202CF2D10A605C1E002B07D10B6866
:100CB0005A401F239A4309D1300005B0F0BD0B689C
:100CC000934205D12300621CD7D1F5E7014EF3E72B
:100CD000004EF7E70300C20010B5002800D101BEA6
:100CE0004B89DB0B00D001BE02238A799A43012A8B
:100CF00000D001BECA799A43012A00D001BE4A89B8
:100D00007F2314009C4322D107248B795202234075
:100D100013434A7A313492071343CA79097AD200CD
:100D20002240134301224A40920113431A00094909
:100D30000A409A420BD14262406A0840801A4342FC
:100D40005841054B40421840044BC01810BD0448A0
:100D5000FCE7C046DBFEFFE0FDFF3DFF0300C200F5
:100D60000100C200F8B51E4D17002A690E00002AC6
:100D700000D101BE2C24FF21444318002A690840F9
:100D800014191A0A0A401B0CA36020606260FFF766
:100D9000CFFA2B682061343361681B78994200D305
:100DA00001BE0F4B1B681A6A0B0080335B01D3181E
:100DB0006361A368180C01D001BE01BE49011B0488
:100DC00052180849180C0343521813600023A361FA
:100DD000069BE7612662002B01D01B88A381F8BD2A
:100DE000D8A600080810000070B504000D00FFF739
:100DF0007FFC002802D00020656070BD0048FCE741
:100E000001008A00F8B5264B1A69002A00D101BEFC
:100E10001C69002C00D101BE2369002B00D101BE4A
:100E20006369002B00D101BE236A002B00D101BEF3
:100E30006269D5682B0C1ED01B04136020691368EF
:100E4000FFF756FC002816D027693800FFF750FC42
:100E5000061E0CD0F868E26903681E0CDBB29342F0
:100E600005D2226A9B009B58002B00D09847310086
:100E70002069FFF7B9FFADB2002D09D063691D608D
:100E800000251B68636AAB4205D098476562A5617F
:100E900063691B68F8BDA36A002BF8D09847F6E792
:100EA000D8A6000810B5072900D901BE1F231400D9
:100EB0009C4300D001BE0E4B1B689C695B69001B04
:100EC000C0090001C0181F231A40032907D8C90010
:100ED0008B408A4004689C432243026010BD043961
:100EE000C9008B408A4044689C4322434260F5E736
:100EF000D8A60008F0B5060085B00D001400002843
:100F000000D1F2E0072900D901BE2368012B00D9E6
:100F100001BE0F2362689A4300D001BE1F22237ACC
:100F2000934300D001BEE368032B00D901BE2369BF
:100F3000012B00D901BE6369012B00D901BE236AD0
:100F4000012B00D901BE636A012B00D901BEA36A3F
:100F5000012B00D901BEE36A032B00D901BE236B2C
:100F6000072B00D901BEE369032B00D901BEA36999
:100F7000012B00D901BE01231A00AA405C4F019247
:100F80006A000292103294463A68E169833210781E
:100F9000801902680292A2691340AB4003220393B6
:100FA000634611409940039B0B4361468A40019977
:100FB0000A43029991430B4303606368072D00D9EC
:100FC00001BE0F221900914300D001BE0F20AA00DC
:100FD00002923A680700813212780340B218116811
:100FE000A8008C46A9008F4061468340B9430B435B
:100FF0001360227A29003000FFF754FFE368082DC0
:1010000000D901BE032B00D901BE0320384A0700D6
:1010100012680340803212786800B2181168834069
:101020008C4669008F406146B9430B4313602369C6
:10103000082D00D901BE012B00D901BE0199B2696A
:10104000CF4301210B40AB403A401343B361626987
:10105000072D00D901BE012A00D901BE244B196811
:101060000B0082331878843130180368029301230F
:101070001A40AA409C46029B1F4017430222076069
:101080000427636A09785B001340A26A7118920012
:101090003A4067461343226A08681740E26A3B43B6
:1010A000D70018223A40FF271A43236BB8435B014D
:1010B0003B401343FE229C469200AB0013401A00B3
:1010C00063469340184308602068072D00D901BE8D
:1010D000012804D901BE019B0020B36003E0002871
:1010E000F9D1019B736005B0F0BD0248FBE7C04633
:1010F000D8A6000801005A0010B50020FFF718F923
:10110000FFF7F6FA002844D1234A244953698B4259
:101110000FD010D8402B36D005D8002B37D0102B4D
:101120002FD01F481FE0802B2FD0802149008B42F9
:10113000F7D11A4817E01B498B421CD009D8A021CF
:1011400009068B4223D01849A0208B42E9D1C00365
:1011500009E016498B4210D015498B420FD0154932
:101160008B42DED11448136801225B689A609A684A
:10117000002AFCD110BDA420E9E71048F3E710488D
:10118000F1E71048EFE71048EDE71048EBE70020E3
:10119000E9E70D48EEE7C046D8A600080600520071
:1011A000FF005200010000F0090000A0040000F060
:1011B000050000F0030000F00100520002005200A0
:1011C00003005200010050000200500005005200D0
:1011D000024B80005B6A5B68C0587047D8A6000865
:1011E000034A5369591C01DA013B53617047C046F9
:1011F00080A0000810B5144C63695A1C23D0002B42
:101200001ED1200011491830FFF746FB1822A35EBB
:10121000002B06DB1F2213401E3A9A4013000C4A93
:10122000136000220B4B9A62DA621A639A635A6364
:10123000DA631A648023084A1B0611680B431360A3
:1012400063690133636110BD80A000085D12061060
:1012500000E100E0D8A600080000424070B501257A
:101260001B4C1C4BE3582B4209D01B492000283152
:10127000FFF76EFCF823DB00E550E35870BD022554
:101280002B4205D0144920002831FFF7B3FBF1E7CA
:101290000422134206D005210F4B1964F823DB000A
:1012A000E250EAE70822134202D00B4B0621F4E792
:1012B00010210B4206D00722074B1A64F823DB00EB
:1012C000E150DAE720210B42D8D0034BF5E7C046C6
:1012D00000004240CC070000D8A6000810B5002846
:1012E00004D043787F2B01D9FFF77AFF10BD10B5EA
:1012F0000B4B34331A68002A02D10124644205E002
:10130000147804338442F5D100240A600B68002B62
:1013100004D05B787F2B01D9FFF76CFF200010BD54
:1013200008A806100223002803D00433012800D0A7
:10133000F93318007047F7B5294E05003300FF3325
:101340005F7E0123002F03D0FE33012F00D1FA3B33
:10135000AB420FD15820784333185B6A2830019391
:10136000204B361834331F68002F10D101246442FB
:101370002000FEBD3800FFF7D5FF01248542F7D1DC
:101380005820784333181B6D54300193E8E73A78BE
:1013900004339542E7D17B78BC687E2B02D9802547
:1013A000AD0001E00024012528190138290008F0CA
:1013B000D7FF0300C0208000834200D96D000023C6
:1013C0007968019A002C03D18342CFD83360CFE7EC
:1013D000116055604919641B01330832F2E7C046B9
:1013E000A0F3010808A8061010B5020001290DD0CD
:1013F0000320022909D00438002906D10120002A3F
:1014000003D00430012A00D0FA3010BDFFF78AFF64
:10141000FBE703780422190000209143012905D03D
:101420000130022B02D0062B00D00238704703781F
:1014300000205A1E012A05D90130052B02D0062BA7
:1014400000D00238704770B504000800FFF7EFFFC6
:1014500000282ADB642319004143154A5118CD6B3B
:10146000096CA54202D84919A14208D8584310185E
:10147000426C836CD318944217D39C4215D2F0234C
:101480000C4A1B06E318002093420DD90A4B9C42DC
:101490000BD9C022094B52055B6A1B689B695B68CC
:1014A0009B189C424041404270BD0120FBE7C04672
:1014B00050EF0108FFFF0500FFFFFF1780A00008A5
:1014C00010B5FFF78DF9E0230121044ADB00D05865
:1014D000084201D0D150D35810BDC046000026406C
:1014E00010B504002422002107F0BBFE200010BD2F
:1014F00070B590B007AE050030000C00FFF7F0FFAC
:1015000080230D4A9B005232039210220A930B4B08
:101510001C340B930A4B01A807930A4B04960193C2
:1015200003AB029305940692FEF714FF002801D145
:1015300001232B7610B070BDD8A600080100C004AE
:10154000002480000009003510B50A7804780123D2
:1015500094420BD80CD344784A78944206D807D3E7
:1015600040884A88904201D890429B41180010BDA3
:1015700001235B42FAE710B50400FFF701F90D4BB8
:101580000D4A5A6100229C61DA611A621B68543369
:10159000187890420BD0FFF7CDF9FA21890008F0B6
:1015A000DFFE0100054808F0DBFE054BC01809F01E
:1015B00013F910BDD8A600080001001C60F59000CA
:1015C00098080000064B10B51B6828209847041E99
:1015D00003D02822002107F044FE200010BDC046A1
:1015E00080A0000870B5144B144E3360FFF7C8F8A4
:1015F0008023134D03202B602B0008336B60FEF714
:1016000097FE04002B68B060DA080021686807F0D4
:1016100028FE00212000FFF7E7FB2368002B05DAF6
:101620000021E5602000A160FFF7DEFB3369002B9D
:1016300001D1044B336170BD4CAB0610D8A6000835
:1016400000000008F0A9000810B5010004000B48D4
:1016500008F0C2F8002398420DD02100084808F095
:10166000BBF80123002806D02100064808F0B4F892
:10167000434243415B00180010BDC046ECAD06106C
:10168000F5AD061001AE061010B5010004000B48C0
:1016900008F0A2F8002398420DD02100084808F075
:1016A0009BF80123002806D02100064808F094F892
:1016B000434243415B00180010BDC04606AE061011
:1016C0000FAE061017AE0610F0B507000D0000248F
:1016D00091B001AE002D02D1280011B0F0BD296AF1
:1016E000002904D0380008F077F80028F4D0AB685F
:1016F000002B06D00E2C12D8A200955101341D00EB
:10170000E8E72B68002BFAD1002C0AD0013CA3009B
:101710009B591B68002BF2D1002CF7D1EFE7002575
:10172000DAE72500D8E710B5FFF7CEFF012400283F
:1017300009D08168002906D00448FFF7C5FF0028BA
:1017400001D0C468E4B2200010BDC0461FAE061030
:10175000F0B5002685B00093150003003400029018
:1017600003911F785A1C0192002F08D0039B002B75
:101770000FDB1300029A9B1A039A9A4209DA009B24
:10178000A34261D9002D01D000232B55200005B0C4
:10179000F0BD3B00093B042B34D9202F32D02C481C
:1017A00039004C3008F0B5FD031E05D12D2F0AD0AD
:1017B0005F2F49D1264B8B33032E23D8300008F0FE
:1017C00091FF05102335224B8A33F5E7002D06D013
:1017D000009A944238D21F4A9B1A9B002B5501262F
:1017E00010E0621C002D0BD0009991422CD91949B0
:1017F0002C195B1A2178181101431B012170AB547D
:1018000014000226019BACE7621C002D0BD000994E
:10181000914219D90F492C195B1A2178981001436C
:101820009B012170AB5414000326EBE7002D08D078
:10183000009AA24208D907492A195B1A11780B436A
:10184000137001340026DDE7012464429EE7C046A0
:1018500008A8061054A80610F8B50E002E2117008F
:1018600008F057FD041E0CD0451C2E21280008F05E
:1018700050FD002805D0001B01383860002035607D
:10188000F8BD16204042FBE7F0B5040085B00F001C
:101890001600002901D1002013E004226F4938000E
:1018A00008F04DFD002803D10223E360381D08E055
:1018B00005226B49380008F042FD002803D1E060A2
:1018C000781D05B0F0BD04226649380008F037FDE8
:1018D000002806D101230122E3600023A261E36115
:1018E000E4E73B78222B05D1320039002000FEF7D7
:1018F000A3FDE6E72D2B03D01A00303A092A24D89D
:1019000000250A2203A93800039508F01BF80300FC
:1019100003988742BFD05A1C0AD1534A914211D131
:101920000122514B5242A261E3610423E360C8E704
:10193000002B07D180221206914203D1802300227E
:101940001B06F0E7A361E161EFE75B2B35D1781C63
:10195000FEF748FD037805005D2B26D00023013DEE
:1019600001930093FFF72EFE009B071E6FD0002B04
:1019700019D0019B18604360681CFEF733FD3200EC
:1019800001003800FFF780FFFEF72CFD051E06D092
:10199000037801972C2BE5D05D2B08D030600098A0
:1019A000FEF72CFE77E70090E6E700230093102374
:1019B000E360009B681CA36083E77B2B4BD1781C02
:1019C000FEF710FD037807007D2B38D00023013F80
:1019D00001930093FFF7F6FD009B051E37D0002B07
:1019E00017D0019B18604360781CFEF7FBFC3200A7
:1019F00001002800FEF720FDFEF7F4FC0028CED001
:101A00002B692B6200232B6103783A2B03D03060C3
:101A1000C5E70090E8E70130FEF7E4FC3200010082
:101A20002800FFF731FFFEF7DDFC071EB7D0037873
:101A300001952C2BCED07D2B03D03060AFE7002357
:101A400000932023E360009B781CA36039E7002B00
:101A500000D120E7A3E737601DE7C04627AE061098
:101A60002CAE061032AE0610FFFFFF7F70B50600E9
:101A7000FFF7A8FD00230B4D0400EB6798420ED042
:101A80003000FEF7AFFC2A0001007C322000FFF797
:101A9000FBFE051E03D12000FEF7B0FD2C00200048
:101AA00070BDC046D8A6000870B504000D0086B011
:101AB0000021142201A807F0D4FB29002000FFF721
:101AC00003FE0400002C18D021001C48FFF7FCFD89
:101AD0000028F7D00569002D0AD0194E29003000E2
:101AE00007F07AFE00280BD1310001A808F01FFC96
:101AF000210001A8FFF7E8FD0400200006B070BD3A
:101B0000104E2900300007F067FE0028ECD02900B5
:101B10000D4807F061FE0028E6D00C4E2900300089
:101B200007F05AFE0028DFD02900094807F054FECC
:101B30000028DDD121000748C1E7C04637AE0610B6
:101B40003CAE061043AE06104AAE061052AE06106A
:101B50005AAE061060AE0610F0B5FA4CFA4BA5442A
:101B6000FA4C2360FA4B6360FFF780FF0290002875
:101B700000D114E30100F748FFF7A6FD009000280C
:101B800000D108E3F44E01003000FFF78DFF00990B
:101B900005003000FFF7C7FD0600002D00D1D9E297
:101BA000AF6908228697236B86A97B4088AD2CA855
:101BB000879308F0BEF908222CA9280008F0B9F98B
:101BC000E64B2AA806CD06C38A96236B08227340EB
:101BD0008AA98CAD8B9308F0ACF92AA908222800B9
:101BE00008F0A7F99222DD4B92009B1806CD06C3A0
:101BF0008E97236B08225F408EA990AD28A88F97FF
:101C000008F097F9082228A9280008F092F9D34B88
:101C100026A8643306CD06C39296236B08225E4045
:101C200092A994AC939608F084F9082226A9200082
:101C300008F07FF9A322C94B92009B1806CC06C37B
:101C40000023C74D009928000193FFF72DFF00994D
:101C500004002800FFF767FD002C00D17DE29421ED
:101C6000E36889005A1E9341BC4ADBB2505411000C
:101C70006C3113720B70A5239B00D054B94D0099A1
:101C80002800FFF711FF009904002800FFF74BFD23
:101C90000390002C00D164E2E468AC4E63425C41E6
:101CA000B14B64421C40B14B0822E4187E94336B64
:101CB0007EA9634080AD24A87F9308F03AF90822FA
:101CC00024A9280008F035F9A44F22A83B001C33B2
:101CD00006CD06C3039B039A8293336B82A95340BC
:101CE00084AD0822839308F024F9082222A9280051
:101CF00008F01FF995239B00FB1806CD06C37694C8
:101D0000336B08225C40779476A978AC20A808F061
:101D100010F9082220A9200008F00BF93B008033BD
:101D200006CC06C3039B039A7A93336B7AA953407C
:101D30007CAC08221EA87B9308F0FBF80822200048
:101D40001EA908F0F6F8A6239B00FF180CCC0CC7C0
:101D5000874D00992800FFF7A7FE0099040028008E
:101D6000FFF7E1FC0390002C00D1FEE1A469774E5F
:101D70006694336B0822634066A968AD1CA867931C
:101D800008F0D7F808221CA9280008F0D2F8734FF1
:101D90001AA83B00283306CD06C3039B039A6A9317
:101DA000336B6AA953406CAD08226B9308F0C1F8FD
:101DB00008221AA9280008F0BCF897239B00FB18FA
:101DC00006CD06C36E94336B08225C406F946EA9F7
:101DD00070AC18A808F0ADF8082218A9200008F087
:101DE000A8F83B008C3306CC06C3039B039A72937E
:101DF000336B72A9534074AC082216A8739308F091
:101E000098F80822200016A908F093F8A8239B0050
:101E1000FF180CCC0CC7574D00992800FFF744FE63
:101E2000009904002800FFF77EFC0390002C00D1ED
:101E30009FE1A469454E5694336B0822634056A92E
:101E400058AD14A8579308F074F8082214A9280074
:101E500008F06FF8414F12A83B00303306CD06C39F
:101E6000039B039A5A93336B5AA953405CAD0822E3
:101E70005B9308F05EF8082212A9280008F059F8D0
:101E800099239B00FB1806CD06C35E94336B082292
:101E90005C405F945EA960AC10A808F04AF8082284
:101EA00010A9200008F045F83B00943306CC06C387
:101EB000039B039A6293336B62A9534064AC08227C
:101EC0000EA8639308F035F8082220000EA908F048
:101ED00030F8AA239B00FF180CCC0CC7264C0099A5
:101EE0002000FFF7E1FD009904902000FFF71BFCA4
:101EF000049B0390002B00D13FE1002308240093B2
:101F0000049B124F9D69220046953B6B46A96B408E
:101F100048AE34A8479308F00CF834A922003000EA
:101F200008F007F8009B0D4A0933DB00D31805932E
:101F3000043306CE06C3039B039A4A933B6B4AA91C
:101F40001CE0C046A4FDFFFFCDA2061080A0000843
:101F5000E1A20610ECAD061038AF061050EF0108F4
:101F600011B0061066AE0610ABAAAAFAAAAAAA1A5F
:101F70006EAE06107DAE061087AE061053404CAE16
:101F8000220032A84B9307F0D4FF32A92200300080
:101F900007F0CFFF009B844A4E33DB00D31806CEF8
:101FA00006C34E953B6B22005D404F954EA950AD48
:101FB00030A807F0BEFF220030A9280007F0B9FFC3
:101FC000059B2EA8683306CD06C3039B039A529344
:101FD0003B6B52A9534054AD2200539307F0A9FF25
:101FE00022002EA9280007F0A4FF009B6E4A0533AB
:101FF000DB00D318A32292009B1806CD06C3009BDA
:1020000001330093032B00D07AE702996748FFF76A
:102010005BFB049B0400002B00D1BCE09B21624BC6
:10202000634A644E89005A5044315A5001003000CE
:10203000FFF73AFD210005003000FFF774FB049024
:10204000002D00D19DE0AB6900935B4E2100300074
:10205000FFF72AFD210005003000FFF764FB059023
:10206000002D00D192E0AB69039300250824009B6A
:10207000524F36933B6B009A36A9534038AE22003C
:102080000CA8379307F055FF0CA92200300007F089
:1020900050FF454A2B01D318D83306CE06C3039B05
:1020A000039A3A933B6B3AA953403CAE22000AA8EC
:1020B0003B9307F03EFF0AA92200300007F039FFEA
:1020C0002B00394A0E331B01D31806CE06C3049BDE
:1020D000049A3E933B6B3EA9534040AE220008A8B1
:1020E0003F9307F026FF08A92200300007F021FFE8
:1020F0002B002D4A2E331B01D31806CE06C3059B99
:10210000059A42933B6B42A9534044AE220006A875
:10211000439307F00EFF220006A9300007F009FFE5
:102120002B00214A0A331B01D318922292009B18DC
:10213000013506CE06C3172D99D1B4231A4A1C497E
:102140009B00D1500298FEF759FA019897239B0003
:102150009D44F0BD01235B4273E501235B42019383
:102160008CE501235B420193F2E501235B4201937D
:1021700051E601235B420193B0E601235B420193E8
:1021800043E701235B42009501935EE701235B4235
:102190000395019369E701235B420193CDE7052392
:1021A0005B420193D1E7C04650EF010891AE0610A3
:1021B000010101019BAE0610A3AE061080A000082D
:1021C00010B5034B1B7A584306F0BAFF10BDC0464A
:1021D00080A00008F0B585B002930AAB070001CBE0
:1021E0000E9D01900CA80478101FC0B21B78FA282D
:1021F00000D801BE181FC0B2FA2800D801BE601E68
:10220000012804D9FB26201F304200D001BE26023F
:10221000F0240D982401C0030390019812040028B3
:1022200040D00298002800D101BEC0208002FF2BC0
:1022300000D101BE02400020344021436E6A0A43AF
:10224000002502433A65C02228001B049202134075
:102250001C43019B9D4202D2174B984201D105B00D
:10226000F0BD07227B6C1340032B0BD8029B019916
:102270005B5D01352343039A8D4200D20022134354
:102280003B65EDB200208642E3D00130013EFFF70E
:1022900097FF3000431E9841084B40421840064BC0
:1022A000C018D6E7C02034408002024021436E6A45
:1022B0000A430398C4E7C0460200B200FEFF4DFF88
:1022C000F0B587B002930B6805000E0010000A7984
:1022D000D9B228239C462B4C0C9FA44463460493FC
:1022E00000230393737901930323009303002800D1
:1022F000FFF770FF002832D131692800FEF762FB3A
:1023000000282CD1337D1A1FD2B2FA2A00D801BE80
:10231000002F33D007216A6C0A40032A30D880226C
:10232000791E89B212030A43C0211B0489020B40A3
:1023300013432B650D9B00206363F9220423E7639D
:10234000D200A0642364A958023B0B43AB50E56C58
:10235000A7630D4B226C032A01D0984201D107B02C
:10236000F0BD00208542F5D00130013DFFF728FF88
:1023700068426841044B40421840EAE70348EEE7F0
:102380000348ECE7D8A600080200B2000400B2003F
:102390000100B20030B58B6987B0DB680C00150016
:1023A000002B0FD019681A79012303932378C9B23F
:1023B0000293FF230193002304950093FFF70AFF84
:1023C00007B030BD0048FBE78000B200F0B5050063
:1023D000181FC0B28BB0FA2800D801BE0724686C61
:1023E0002040032801D9174C19E0C0201B048002AB
:1023F00003408020541E0003204303432B650C1E22
:102400000DD0109B00245E6A04230391059208946A
:102410000693069B042B02D10B4FBC4202D1200035
:102420000BB0F0BD002469462800FEF7E3FAA6428F
:10243000EFD00120013EFFF7C3FEA642E9D13C00E8
:10244000E7E7C0460100B2000200B200F0B5D5B027
:1024500008900C0009921E00002900D101BE002343
:10246000190010AA1380937011AA1380937012AAF6
:1024700013809370626B079222AA99540133642BE4
:10248000FBD1099B581EC3B2012B08D9099B042B11
:1024900000D1CCE3082B01D100F0CFFB01BE032E0D
:1024A00000D901BE072818D808F026F908001D0039
:1024B0001700C403170017001700CB038022089BE6
:1024C00012019A18002A08D0C02033048002116833
:1024D0000340714801400B431360079B002B05D15B
:1024E0006E4B069307E3089B8822E9E7382322AD69
:1024F00000930195099B10AA07990898FFF7E0FE41
:102500000690002800D0F6E2AB79062BE8D82B78AD
:10251000532BE5D16B78462BE2D1AB78442BDFD13E
:10252000EB78502BDCD12B79052BD9D96B790B9318
:10253000012BD5D1139013AB11AA29005848FDF7F0
:10254000C8FE069B12AA1493290014AB5548FDF748
:10255000C0FE554A069B904201D1E3642365FF20EB
:10256000159310AA15AB22A90002FDF7B2FE069042
:10257000002800D0BFE2A368002B00D101BEE368B1
:10258000002B00D101BE2369002B00D101BE63697D
:10259000002B00D101BEE369002B00D101BE236AEC
:1025A000002B00D101BEA36A002B00D101BE159BF8
:1025B00022AD009310AA099B079901950898FFF78F
:1025C0007FFE01220A901000297F16AB88401790E9
:1025D0001000697F1970A97F8840E97F1A901973EC
:1025E000692108A809181000C97F88406A211D9038
:1025F00008A80918C97F19766B210918C97F23AB70
:102600008A402092DA7F3D231B18DA77AB780022CC
:102610005B079B0F032B02D0244A0B32D25C226053
:1026200023A8FDF74BFE002830DB0130C008012253
:1026300011002CAB1B7860601B0999400623616276
:10264000E16804200B6000230B7121690B710860A5
:102650000521A263A26A1371E36A1160002B00D105
:1026600001BE236B002B00D101BE0022236B08A901
:102670001A71A232521810784006400F05281DD852
:10268000012208F02FF815E7EDF3E7E78023033880
:102690001B061843CBE7C046FFFFFCFF0500B20056
:1026A00084FF000081FF00008000B20088A80610AF
:1026B00001225242E2631A60E36A1A606022E3690F
:1026C0001F271A6000221A710F232B9A2C991A4087
:1026D000013250000A0E3A4001324243BE4D4800DA
:1026E000800F40000E35405B0B40424362640A0A93
:1026F00017404022890400D4383A022001335B009D
:1027000001377B43534322AAA364A5689378864389
:10271000012E00D1B1E02021194000D1C7E0537A49
:1027200068712B6000232B71137A5B0900D0BAE02B
:10273000013BAB601F2222AB1B7A052613402B61A5
:1027400002232B752368042B00D0EEE131AB1B78FC
:102750005A0601D4A14A0692012003422DD09B07BC
:1027600013D5E368002B10D019681A799C4B03909D
:1027700028330493099BC9B20293FF2301930023DA
:1027800008980093FFF726FD0690069B1A00934BCE
:102790009A4201D0002A21D1914B00222833049380
:1027A00001230393099B00920293FF23B721019316
:1027B00008981300FFF70EFD0690069B002B0DD125
:1027C0003BAB0193139B11AA00930799099B0898AF
:1027D000FFF776FD0690002800D1A6E0012054AB5B
:1027E0001B18C93B1A78012393401B38A361430887
:1027F0000C930F232B9E0020334001335B000A9380
:10280000FA239B0080279C4618AD3300C3401F214C
:102810001A090A405B0A1C390B403900022B06D00A
:102820006146032B03D01021012B00D00F390A9BE6
:1028300001325A434A4307302A600C351C28E4D140
:102840000C9B1038584354AB18180538FF38836870
:102850002364DBE00221E1631A60E36A35222CE79E
:102860004021E1631A60E36A052226E78022E263E1
:10287000423A1A60E36A01321FE71021194033D04F
:10288000D37B6E712B6000232B71937B5B0927D167
:10289000013BAB601F2222AB9B7B032613402B61C5
:1028A00001232B754EE7FF232873AB6042E7FF2619
:1028B0005B0600D446E7D37A29712B606971937A5D
:1028C0005B090AD1013BAB601F2222AB9B7A042635
:1028D00013402B6102232B7534E7AE602973F3E7B5
:1028E000FF232E73AB60D5E7334015D0537B29719E
:1028F0002B606971137B5B090AD1013BAB601F221E
:1029000022AB1B7B022613402B6101232B7519E799
:10291000FF232973AB60F2E703222A60043A2B718C
:102920006B71AA602B612B750CE7013E3B9B042E5B
:1029300009D8300007F0D6FE1D19151103009B06BB
:1029400001D5EC232B60236A3B9A042E56D8300025
:1029500007F0C8FEDCDCDC311300DB06F3D56C23AA
:10296000F0E71B07EFD5BC23ECE75B07EBD53C2377
:10297000E8E79B07E7D50C23E4E7802501206D00FD
:1029800015404042002D0AD03E2200211A603C3AF8
:1029900019715A7198601A7319611A752EE08021A5
:1029A00011401FD034221D711A605D7198601D7333
:1029B0001D61323AF1E78021012011404042002997
:1029C00010D034221A60002298601A715A711A735A
:1029D0001A610232E1E7C04688A806108000B20002
:1029E000D8A6000840252A4000D187E0122219719C
:1029F0001A605971986019731961197516AA3BA963
:102A0000200004F037FB002800D0E8E6236D002BFF
:102A100071D022AB0193149B12AA00930799099BD2
:102A20000898FFF74DFC0690002864D10700149B1E
:102A30003B900C93844B07900A930221079A22AB98
:102A4000D25C0A4000D184E00A9B002B4AD1692263
:102A500008AB6831C918D2180798079B105CCB5C8B
:102A6000B84200D0C6E05A1CD2B2E264012A3FD973
:102A70000025226D9B000992079A079F04329B183C
:102A80000C9308956822089B04375B19089308ABE0
:102A90009B18D95D0F23194000230B9A0A4200D1DD
:102AA000B3E0682108AA5218D2590999150A0D9263
:102AB000079A0135BA1A043A8E58089A2D023260E4
:102AC0000C22534316AAD3181A785968B2609A6830
:102AD00032618D4200D3A2E00123F56073600C9B4C
:102AE0009F42CFD10A9B1A00574B9A4200D09CE0DC
:102AF0000023E3642365069855B0F0BD02211A71E6
:102B000019605A7198601A731A6146E740210A40A9
:102B10004139002A06D012221A6000221A715A7115
:102B20009960F0E702201860F8E70222236A012189
:102B30001A60002249421A715A7199601A731A6117
:102B40001A7522A916AA200004F094FA0A9B06938B
:102B500059E707995B18D87859780D901F208C4653
:102B60009B7808A9401802709B090320012B05D00F
:102B7000181E03D00420022B00D020680022079DDD
:102B80003BAB2E1890422ED10022304D09992835AA
:102B90000291009004950392019261460898FFF714
:102BA00019FB0A90002814D11F2608ABF6180095CF
:102BB0000300012231000898FFF708FC0A90002862
:102BC00007D17F00FBB20D9A377817407A1E9741E4
:102BD0001F43079B08330793079A0C9B934200D32C
:102BE0002BE71B4B7DE4B51A22A94D19ED789D54B6
:102BF0000132C7E7079802339B00C3180793079871
:102C00000C9B834200D327E7EBE701335200DBB292
:102C1000D2B2052B00D041E70D4A0A9241E7F1609C
:102C2000280007F09DFB706059E70A9B59E4032ECA
:102C300000D936E4089B902242E4032E01D9FFF725
:102C400030FC089B98223BE40600B200D8A600089E
:102C50000700B200F0B58DB009932D4B0790089195
:102C6000150096089E424DD8002E00D101362C004A
:102C7000B54200D93400A54246D92D1B254B200072
:102C80009C4200D91800844240D9241A80B2FFF730
:102C900097FA002CF2D11F2704ABFF1801233B70D9
:102CA000089B9B6906939B6A002B26D01968099B99
:102CB00003940493089BC9B21B7822000293FF235C
:102CC0000094019307982300FFF784FA00280ED19F
:102CD000099B01220093390023000798FFF776FB38
:102CE000002804D1069B9A6B3B7813403B701F234E
:102CF00004AA9B181878002802D0002DB7D10648E6
:102D00000DB0F0BD1E00B2E70025B7E70024BDE717
:102D100040420F00FFFF00000200B20070B588B013
:102D200006ADE870002029712880A870FEF750FADF
:102D3000104C06002834010022000F48FFF72AFB40
:102D4000002815D1012304940393337802000293E1
:102D500005230190009371212B000748FFF73AFAF1
:102D6000002805D12300054A31000348FFF772FF10
:102D700008B070BDD8A600080000424020A107009E
:102D8000F0B500248BB009AEF070200007913480BC
:102D9000B470FEF71DFA124F039428370497037896
:102DA000104D029304230194009322003300652107
:102DB0002800FFF70FFAA0420DD107226B6C1340D9
:102DC000032B0AD8084B063A2B6507990300009796
:102DD0002800FFF7FBFA0BB0F0BD0448FBE7C04644
:102DE000D8A600080000424007000C000100B20015
:102DF000694AF0B513006D331B788FB0002B03D1F7
:102E0000537A002B00D124E2042B00D921E2634C39
:102E1000626A022B05D0032B00D18CE0012B00D07D
:102E200014E2126813700C22013B53435C4DEB1803
:102E30009A69DE69069222000133DF7F3432310065
:102E400006981772FEF756F83A0031000698FEF71A
:102E500029F82A0003213C325248FEF74BF8112290
:102E600003215048FEF71EF82A00042170324D4815
:102E7000FEF740F8112204214A48FEF713F84A4DA4
:102E800005212A0047482432FEF734F81122052193
:102E90004448FEF707F82A00062158324148FEF759
:102EA00029F8112206213F48FDF7FCFF3F4A072180
:102EB0000C323C48FEF71EF8112207213948FDF775
:102EC000F1FF3B4F3B6840331B78022B12D9E223C2
:102ED0000F20384A9B00D1588143D150D15821301E
:102EE0008143080020210143D1508021D058090698
:102EF0000143D150FA23F92203212F4D9B00FB649B
:102F0000D200AB5800268B43AB5088235B022B606A
:102F10006661FEF76FF9230020337B62636A0695D2
:102F20000893B3420BD1FEF75BF9244C01221B4BF3
:102F300052425A6175E104211268117073E7236AE5
:102F40000993002BEFD00796079B089A9B00D55852
:102F5000002D00D1FBE02B785A1E012A04D9FB2258
:102F6000043B134200D001BE2B7A032B00D901BED3
:102F7000AB69002B00D101BE2A78501E072800D96A
:102F80006AE107F0B9FB1D000E016901100169013A
:102F9000690169011201C04650EF010880A00008D4
:102FA00088A806108005314008A9061088A90610D7
:102FB000D8A6000800002640000042400400B200ED
:102FC000AB4CC0272B7ABF02190420683940A94FA7
:102FD00038400143042021606968084009D0A9698C
:102FE000A548FFF733FA002803D00823079A934037
:102FF0001E43AB691B68013B032B00D901BE0028AF
:1030000000D0A4E06B689B0700D4A0E02969E868C1
:1030100007F02CFA002900D001BE2B69974A934291
:1030200002D95A1E134200D001BEFF218C466746CA
:10303000E968A869B9438268036AA16029694942BD
:10304000B943E16001680320013901406869471E06
:10305000B841000201432162002A35D010680021E6
:10306000471C0AD0C0271179BF02090439406746BE
:1030700007408020000607433943C0272164517967
:10308000BF0209049068394061640021471C09D0DF
:10309000C027117BBF02090439408027C0B23F0618
:1030A000384301430020A1641169814205D01F30DB
:1030B00001390140802000060843C021E064127DF0
:1030C000890212040A402265002B32D019680022BE
:1030D000481C09D0C0201A798002120402408020C6
:1030E000C9B2000601430A43C02022665A79800211
:1030F000120499680240626600224F1C07D01A7BB6
:10310000C9B2120402408020000601430A43002194
:10311000A2661A698A4205D01F31013A0A4080210D
:1031200009061143C022E1661B7D92021B04134075
:103130002367C02202212B7A92021B0413406A6883
:10314000FF311140802212060A4313432360079B7C
:1031500001330793079A099B934200D0F4E6002EAF
:1031600000D07CE03000FEF733F8454D03962B008D
:1031700028330493037832000293019600963300BB
:103180009F213D48FFF726F8041E00D06AE0072182
:10319000069B5A6C0A40032A09D9FEF721F8394CDC
:1031A000C4E6394C0DE7394C0BE7394C09E7394B8C
:1031B000069A1365069B5B6C0B40032BEDD8069AB1
:1031C000354B0CAF13650623F9226F63AB63EB63DA
:1031D000023BAE642B64069BD200995802230B433A
:1031E00006992E4E8B502B6C032B02D0013E002EE5
:1031F00006D12B6C032B07D0FDF7F2FF284C95E688
:103200000120FEF7DDFFEEE73B78342B07D17B781A
:103210002A3B012B03D8BB78193B022B42D9FDF77F
:10322000DFFF20000FB0F0BD802303201943297079
:10323000FFF774FD041E15D15DE0194304202970C9
:10324000FFF76CFD002860D004000BE0012464420D
:10325000E7E701204042E5E7002E00D163E6B22413
:1032600024043443FDF7BCFF002CDAD05EE6C046F0
:1032700000084240FFFFFCFF00004240FFFF00004B
:10328000D8A600080100B200800842400009424070
:10329000800942403F000C0005000800E9030000DF
:1032A0000200B200FB780F2BB9D13E79032EB6D1C4
:1032B0007B79902BB3D10020FDF78AFF01230022F8
:1032C0002835049503930378B72102930192009265
:1032D00013001448FEF77EFF041EC3D11F2504AB64
:1032E000ED1829003000FFF74BFD041EBAD12978F4
:1032F0004BB2002B98DA29000420FFF741FD041E91
:10330000B0D108212B780B4297D00020FDF760FF49
:103310008022D8218369D2029A615A691160024AD7
:103320001A649FE70000424070170000F7B5184C80
:1033300007002300FF33587E3900FEF755F801A936
:10334000C0B2FDF7D4FF051E03D001256D42280051
:10335000FEBD019843787F2B05D05BB2FF26002B82
:1033600002DB04F031F82E00FDF7B8FF23005820EF
:10337000FF335B7E58432C235F43C0192018031D85
:103380009842E4D00130421E1278B242F8D0DCE715
:10339000A0F3010810B543787F2B05D05BB2FF2066
:1033A000002B02DB04F010F800200B001C78844294
:1033B00005D101335C1AA242F8D8012010BD0020CB
:1033C000FCE7FEE7FDE7FCE7FBE7FAE7F9E7F8E7EC
:1033D000F7E7F6E77047F0B5D5B006910100D4489D
:1033E000FEF772F9002801D100F010FC8368029307
:1033F000039300231F0005930193039B002B00D030
:10340000A2E0029BDB680193202B01D000F0FFFBC0
:10341000029C2100C748FEF757F9051E00D182E142
:10342000037E069A9A4200D07DE10100C248FEF771
:103430004BF9C24C002800D16DE18269C04B3C922F
:103440001B6B3CA953403EAE082220A83D9306F0DA
:1034500070FD082220A9300006F06BFD230006CE87
:1034600006C32900B748FEF72FF91423002800D01F
:103470008369E3602900B448FEF726F90123002898
:1034800002D0C3685A1E934123742900AF48FEF747
:103490001BF9002800D141E1836963612900AC4830
:1034A000FEF712F9002800D13BE18369A3612600F1
:1034B0000023393633702900A648FEF705F90028A5
:1034C00007D00169A44806F087F9002801D101233B
:1034D0003370230039331B789D342370029E002FF4
:1034E00000D094E331009348FEF7EEF8002800D1B5
:1034F00046E18369914C1CADDFB222002B0003CA68
:1035000003C3082229001EA806F013FD8C4B1E9A47
:103510001F991B6B4B409A4201D0FFF752FF2B685B
:103520009F4200D02CE131008C48FEF7CDF80028F6
:1035300000D11FE264238269571E7B43E4180223F3
:1035400038342270039322E103998548FEF7BCF8D2
:10355000002802D08668002E03D1039B1B680393CA
:103560004BE731007F48FEF7AFF8002800D1AFE00D
:10357000002503697C4C04935834AB001959049816
:1035800006F02AF9002800D144E30135042DF4D1D6
:103590000024754F68370797079AA3009958049835
:1035A00006F01AF9071E05D00134172CF4D10527AF
:1035B000183C7F4231006D48FEF786F8002801D0A4
:1035C0008369059331006A48FEF77EF8002813D01E
:1035D00000218369C2690191019901310191002A99
:1035E00001D1AB4205D901996D001D29F4D11F23EA
:1035F0000193631C05D16BE0631C69D0019B002B18
:1036000066D022004D4B2E3246AD12019B182A0087
:1036100003CB03C20822290048A806F08AFC484BC5
:10362000489A49991B6B4B409A4201D0FFF7C9FE5B
:103630002B68012B17D1059B059A4E93404B4EA941
:103640001B6B4CAD534044A808224F9306F071FC0D
:10365000082244A9280006F06CFC384B22019B1874
:10366000D83306CD06C32200344B0A3212019B1810
:10367000922240AD92009B182A0003CB03C208227D
:10368000290042A806F055FC2D4B429A43991B6B2A
:103690004B409A4201D0FFF794FE2B68012B17D1C3
:1036A000019B019A5293264B52A91B6B50AD53407C
:1036B0004AA80822539306F03CFC082228004AA995
:1036C00006F037FC0E341D4B24011C190CCD0CC424
:1036D000366840E72749049806F07EF80028F7D1BD
:1036E00031002248FDF7F0FF002807D0134B224A93
:1036F0009A5C012A02D18269D0331A6031001C48D9
:10370000FDF7E2FF0028E3D00C4B1C4A9A5C012A2B
:10371000DED1D433A2E201277F42A2E6FA231B01C5
:10372000BBE6A061C3E62468002C00D071E6D5E6B4
:10373000ECAD061038AF0610CEAE061050EF010803
:1037400080A00008D5AE0610DDAE0610E8AE06106B
:10375000F4AE061008AF061015AF06101AAF06102B
:1037600091AE061037AE061088A906109BAE061063
:10377000A3AE0610C6AE0610D2020000D3020000AF
:103780003668002E00D0ADE6012337000393002EEB
:1037900000D0F3E03100CD48FDF796FF01900028FE
:1037A00000D05DE13100CA48FDF78EFFC94C00280A
:1037B0000FD0442394227B439200E3189B181B787C
:1037C000012B06D1C2686333511E8A417B43E31843
:1037D0001A723100C048FDF777FF0190002839D0F8
:1037E00044237B43E418952312AD9B00E4182B007F
:1037F00014A806CC06C30822290006F09AFBB74C91
:10380000149A1599236B4B409A4201D0FFF7D9FDCA
:103810002B68012B1ED1019B34A9DB6810A85A1E0E
:103820009341AF4A5B421340AE4A9B183493226BDC
:1038300036AC53400822359306F07BFB082210A9D2
:10384000200006F076FB64227A43A24B9B181C33BF
:1038500006CC06C33100A448FDF736FF01900028CE
:1038600033D044237B439B4A0CACD318972292005D
:103870009B18220003CB03C2082221000EA806F0E9
:1038800058FB964D0E9A0F992B6B4B409A4201D0E4
:10389000FFF797FD2368012B17D1019B30A99B6986
:1038A00032AC30932A6B0AA853400822319306F0B9
:1038B00040FB08220AA9200006F03BFB64237B435F
:1038C000844AD318283306CC06C331008748FDF755
:1038D000FBFE002800D11BE1C368102B00D017E1CC
:1038E000002385680193002D00D111E14422019B42
:1038F0007A430533DB009A18764B22AC9B18922250
:1039000092009B18220003CB03C20822210024A8A6
:1039100006F00FFB714B249A25991B6B4B409A4282
:1039200001D0FFF74EFD2368012B1BD1AB696B4A19
:103930002C93126B2CA953402EAC082226A82D9351
:1039400006F0F7FA082226A9200006F0F2FA64220F
:10395000019B7A430933DB009A185E4B9B180433B2
:1039600006CC06C3019B01330193032B00D1CFE0AA
:103970002D68B8E701230700039308E731005C488E
:10398000FDF7A2FE002800D104E78468002C00D1D6
:1039900000E721005748FDF797FE00282FD0056962
:1039A0005549280005F018FF00282AD12100534866
:1039B000FDF78AFE00280ED044239B217B43454A15
:1039C0008900D3185B181B78012B04D163337B4328
:1039D000D2188369D36321004948FDF775FE00289A
:1039E0000DD044237B433B4A4649D3185B181B78D0
:1039F000012B04D163337B43D21883691364246899
:103A0000C4E74149280005F0E7FE0028F7D121006E
:103A10003A48FDF759FE00280DD044237B432D4A38
:103A20003A49D3185B181B78012B04D163337B43CD
:103A3000D2188369536421003148FDF745FE002800
:103A4000DDD044237B43234A3049D3185B181B78CD
:103A5000012BD4D163337B43D21883699364CEE7BF
:103A600044237B431B4A18ACD318992292009B181D
:103A7000220003CB03C2082221001AA806F059FA3B
:103A8000164D1A9A1B992B6B4B409A4201D0FFF7A7
:103A900098FC2368012B00D084E6019B38A99B6920
:103AA0003AAC38932A6B16A853400822399306F093
:103AB00040FA082216A9200006F03BFA64237B4353
:103AC000044AD318303306CC06C36BE67DAE06102D
:103AD00011B0061050EF010866AE061080A0000875
:103AE00055555505555555156EAE061087AE061041
:103AF00091AE061037AE061026AF06109BAE06102C
:103B0000A3AE06106D0200002BAF06106E0200007F
:103B100031005448FDF7D8FD64237B43524CE31831
:103B2000002866D082695A7231005048FDF7CCFDFA
:103B300064237B43E31805330122002804D0C169C4
:103B400082690A43511E8A41DA77002F1CD1310065
:103B50004748FDF7B9FD1423002800D08369236787
:103B600031004448FDF7B0FD002844D0C3685A1E18
:103B7000934122007432137031003F48FDF7A4FDD9
:103B800000283CD08369A367039B022B3ED1029B94
:103B9000029EDB680193202B29D131003748FDF7C5
:103BA00093FD00282ED08269D3B2022B2AD1571E52
:103BB00064227A43A418220038321370310030484E
:103BC000FDF782FD002812D082692E4B28921B6BD4
:103BD00028A953402AAD082208A8299306F0A9F97C
:103BE0000822280008A906F0A4F90CCD0CC4012372
:103BF000A8E4587298E7230074331870BCE7FA23DE
:103C00001B01C0E73668002EC7D1F0E70027380057
:103C100055B0F0BD1C49049805F0DEFD002800D029
:103C200058E531001948FDF74FFD002808D0B422AF
:103C30000D4B92009A5C012A02D18269C8331A6046
:103C400031001348FDF740FD002800D140E5064B48
:103C5000104A9A5CCC33012A00D039E582691A6097
:103C600036E5C04633AF061050EF01083BAF0610F3
:103C7000D5AE0610DDAE0610E8AE06101AAF06107F
:103C800038AF061080A0000846AF06109BAE0610A5
:103C9000A3AE0610D1020000F0B58BB001900D006C
:103CA00016000C00002A01D0541E641806A90A0050
:103CB0002D4BD83381CB81C2082208A806F039F9F0
:103CC0002A4B089A09991B6B4B409A4201D0FFF787
:103CD00078FB02AB9C466246234B069FE03303CB46
:103CE00003C20822614604A806F023F91F4B049A78
:103CF00005991B6B4B409A4201D0FFF762FB0123F1
:103D0000029A01329340DB19BD4225D39D42924174
:103D1000A74203D8A34201D901225242BD4201D891
:103D2000A74216D39D4201D2A34212D3002A10D13A
:103D300001992800FDF787FB002806D1002E04D04A
:103D4000701E40190199FDF77EFB0BB0F0BD0022FB
:103D5000E6E701204042F8E7A742F8D80022A34254
:103D6000DCD901225242DBE750EF010880A00008B5
:103D7000F0B5836893B007001600934205D2E121A5
:103D80008D4A8E4B4432490006E08B4207D8C4214D
:103D9000894A8B4B4432FF318A4805F01FFA446848
:103DA00052181B199A4204D3834A874B4432E221AA
:103DB000E9E7641832002100FFF76EFF051E49D1C4
:103DC0007B787F2B17D13619670A760A7F02760235
:103DD000B74204D13800FDF7CEFB13B0F0BD01208F
:103DE000F51B6D0A4042002DF7D0013D6802C01955
:103DF000FDF7C1FBF7E75BB2002B2BDAFDF7E8F923
:103E0000836906000A939B690F950893E8231B06B4
:103E1000E418089B109559422140013B5B18099317
:103E20000A9B07915B680693069A099B934211D2FD
:103E30000A9B0A001B6C10A90B93FCF799FD041E4A
:103E400000D0B1E0109BDA681D685F68089B06929D
:103E5000934202D201204042BFE7069B5F436B1EA4
:103E6000FF18079B0699581B06F000FB0029F1D1AB
:103E7000099BBB420AD21A0010A93000FCF778FD5A
:103E8000041E12D1109B1D68DB680693099B0699DE
:103E9000581C401B06F0EAFA0029DBD1089B002BD6
:103EA00007D1601E8441604297E7484B9842D1D0C9
:103EB000ECE7079A10A93000FCF75AFD099F041E91
:103EC0000ED1109B1A695F680B92DA6806921A6825
:103ED000069B013A5F43099BD7199F4200D91F00F7
:103EE000FA230B9A9B0053430C9335E01202110006
:103EF0001A5C013311430A0049E02A79FF2A4FD0A6
:103F0000324B98424CD000284CD1119B9968012328
:103F10002F4D03932835049533780192029323683B
:103F2000C9B200932B480FABFEF754F9041EB5D16C
:103F30002B000C9A31002748FEF78CFE089B069A4E
:103F400004009342ADD99446079B63440793089BB2
:103F50009B1A08930028A1D1079BBB429ED21C4A02
:103F6000310028321B48FEF715FA041E96D10A9B31
:103F7000079A1B680FA9013B5A54120A002BFAD169
:103F8000B4691193226865690D921A000FA80D9902
:103F90009942ABD111A93000FCF7EAFC002DACD15D
:103FA0000D4C7BE72968B2E7084B984200D151E7F6
:103FB000089B2F00069354E708AA061057AF061077
:103FC00071AF0610A8AE06108AAF06100400B2004A
:103FD000D8A60008000042408000B200F0B5476853
:103FE0008DB0060006921D008F4207D8AD214C4AC5
:103FF0004C4B553249004C4805F0F0F8CB189F4225
:1040000005D85C21464A494B5532FF31F3E77F180A
:104010002A003900FFF740FE041E00D07DE07078D2
:104020007F2807D12A003900069805F082FF20007A
:104030000DB0F0BD43B2002B6FDA7F231840FDF7BF
:10404000C7F8E8231B06FB18061E07930B9400D144
:1040500001BE069B002B00D101BEB269079B5168CF
:10406000EB188B4259D897683148002D03D1441E74
:10407000A0414042DCE7B369079A18680BAB040023
:10408000013CE254120A002CFAD13A7909923A68BA
:104090000394D1B2274A28320492089232780292CD
:1040A0007A79009001922448099AFEF793F8002843
:1040B00033D1B9684B1C20D13969002904D01E487E
:1040C000FCF780FC002828D180232C005B029D4255
:1040D00000D91C00174A3B7D283200920699220025
:1040E0001548FEF773F9002817D1079B2D1B1B19E4
:1040F0000793069B1B190693B7E7089B3A7B04932B
:1041000003943378C9B20293FF23009401930A48C1
:104110002300FEF75FF80028CED00120A9E7C046B3
:1041200008AA0610B6AF0610A8AE0610CEAF06104D
:104130000400B200D8A6000800004240F7B50025F0
:104140000127144B2900FF335C7E3E002000FDF761
:104150004BF901A9C0B2FDF7CAF8011E0DD15822D2
:1041600062432C246C430B4B1219D2180198202364
:10417000FFF734FF0600701E86410198FDF7AEF888
:10418000002E03D03E006E403000FEBD012DFBD05E
:104190003D00D6E7A0F3010870B50C000123110023
:1041A00022000500FFF71AFF012200280FDB002C78
:1041B00006D021002800FFF7EDF80323002804D1E2
:1041C0002378013B5A1E93410133002223701000D3
:1041D00070BDF0B587B00D00C0B201A9FDF787F83A
:1041E0000126002821D1019C1023A16802AA1039C0
:1041F0002000FFF7F3FE002814DB102202A92000A4
:10420000FFF7C8F8002813D003232B706B46A16872
:10421000DF1C283901233A002000FFF7DFFE0028C9
:1042200011DA01260198FDF759F8300007B0F0BD0A
:1042300016491022683102A806F05CF8431E984126
:1042400001302870E2E70F263B7801221E401B094F
:104250006E702B7139002000FFF79CF8002801D107
:10426000042E03D901236B7000232B71A268A91CB3
:10427000203A2000FFF790FF0028D2D1A268E91C65
:10428000183A2000FFF788FF0600CBE708AA0610BF
:10429000F0B51E00036885B0040000910192002B68
:1042A00002D04368002B1CD10120404237E06A88CD
:1042B0002189171DBC461B4FB94202D02D888D4263
:1042C0000DD1002E02D003A9098831800099043352
:1042D0000B60019B1A802369634423611FE06344E0
:1042E0002361226963699A4218D223685B89002B93
:1042F00004D0E368934201D10433236103AD042366
:104300002A0021696068FFF769FE0028CCD1A27AF3
:104310002369002ACBD0E2689A42C8D8012005B0B0
:10432000F0BDC046FFFF0000F0B587B002930CABB4
:104330001B7804000D0000920393002A05D101238D
:104340005B420193019807B0F0BDCB680F8905AEC1
:10435000FF183200042339000098FFF73FFE019058
:104360000028ECD1144A31886B89914221D171889F
:104370009942E4D1C919042332000098FFF72EFEB8
:104380000028DCD105AA0D4B11889942D7D1009B9A
:10439000256063606B461B8923816B461B7BA37280
:1043A0006B89DB19E3605288D31863613B1D23617D
:1043B000C8E7002BE6D0C2E70869000007690000E3
:1043C00030B5154C8BB006A923000A00683321CB09
:1043D00021C2082208A805F0ACFD089A099B216BB0
:1043E0004B409A4201D0FEF7ECFF6D46069B04A9B4
:1043F000013B0493226B02A853400822059305F069
:1044000098FD082202A9280005F093FD68340CCD20
:104410000CC40BB030BDC04680A00008F0B5514BB5
:10442000514D89B00290059506A8703350CB50C00D
:104430000C0012018B180393A678E068A1882278FB
:104440006378B446002800D101BE032A00D901BE1A
:10445000032B00D901BE454E376830373F781F2FF8
:1044600000D876E0674610300097FCF7F2FB059025
:10447000059B002B5CD1E0680595A188002800D140
:1044800001BE336830331B781F2B64D97F2359401A
:1044900000230093013310301A00FCF7DAFB05907B
:1044A000059B002B44D16389E0689C460595A27961
:1044B000E379277A002800D101BE160002218E433D
:1044C000012E00D001BE1E0002218E43012E00D01D
:1044D00001BE264E3668303636781F2E3DD96146ED
:1044E0003030C9B20097FCF7B4FB0590059B002B58
:1044F0001ED1E06805956189002800D101BE1B4BE3
:104500001B6830331B781F2B29D97F235940002388
:1045100000930133C9B230301A00FCF79AFB0590C2
:10452000059B002B04D1039B1034A34200D083E7EA
:10453000059B06AC002B04D122000A4B783303CB39
:1045400003C2FFF73DFF029B06CC06C3029809B0E9
:10455000F0BD07488BE70648A1E70548C5E70448D2
:10456000DDE7C04680A000080300C200D8A600080E
:104570000200C200F0B58BB003AD944607002800DE
:104580000C00624E62490093029670310CC90CC057
:10459000634607936B461B7807A90B716378A06885
:1045A0004B71A3788B71E378CB7123790B726379AC
:1045B0004B72E38800964B81002800D101BE4B89E5
:1045C000DB0B00D001BE8B79072B00D901BECB7964
:1045D000072B00D901BE0B79073B182B00D901BE70
:1045E0004B897F221E009643321E00D087E0079E33
:1045F000FF32964332004E795B02164301968A7968
:104600009446072266463240382613434A7A920778
:104610001343CA79D200324013430A7A94460122E6
:104620006646724092011A430B79F8211B06490530
:104630000B401343019A4360026002680199914262
:104640005FD1426833490A409B1A5A425341324A69
:104650005B4213402D4A9B180293029B002B0DD105
:10466000009A07A90292227BA0688A71627BCA71B4
:10467000E2894B724A81FCF72FFB0290029B002BD0
:1046800011D1009B0293A368002B00D101BE8022B0
:10469000596812060A435A605B681F4ADB171340C9
:1046A0001A4A9B180293029B002B11D1009B029384
:1046B000A368002B00D101BE8022596A12060A436A
:1046C0005A625B6A144ADB171340104A9B18029324
:1046D000029B002B0BD102990D4B05AA002912D089
:1046E0007033110011CB11C12B0003CA03C3FFF7B4
:1046F00067FE3B00380006CD06C30BB0F0BD074B8C
:10470000AAE7024BA8E77833EBE7C0460300C200F4
:1047100080A00008FFFEFFFFFDFF3DFF0100C2007B
:10472000F0B5314C9BB00393230002901600703318
:1047300006AA0F0003CB03C200230C930593236B3F
:1047400008220CA908AD0AA80D9305F0F2FB082277
:104750000AA9280005F0EDFB039B06CD06C3002E39
:1047600039D07B89002B36D00123320000933900E9
:104770004F3314A8FFF7D8FD031E2CD110AD2A002B
:1047800012A914A8FFF784FD002824D12B88042B3C
:1047900021D105AA12993000FFF720FC00281AD178
:1047A000059A14A91492236B12A85340082215935A
:1047B00005F0BFFB082212A9280005F0BAFB039BF5
:1047C000783406CD06C30EA90B0005CC05C308221C
:1047D00006A805F0AEFBFFF7F3FD029A06AB03CB8C
:1047E00003C202981BB0F0BD80A0000873B56C46F0
:1047F00022000C4B0500703341CB41C20800FCF78E
:1048000016FE012807D8642343430748C018230035
:104810001C3006C806C3FFF7D3FD2B00280006CCCA
:1048200006C376BD80A0000850EF010873B56C4642
:1048300022000B4B0500703341CB41C2012907D840
:1048400064234B430749C9182300303105C905C308
:10485000FFF7B6FD2B00280006CC06C376BDC04688
:1048600080A0000850EF010870B58AB06B46009038
:10487000596006A90A0011CB11C2082208A805F048
:1048800058FB114D089A099B296B4B409A4201D065
:10489000FEF797FD02A92B000A006833069C41CB66
:1048A00041C2082204A805F044FB049A059B296B29
:1048B0004B409A4201D0FEF784FD029BA34201D0F7
:1048C000FEF77FFD0AB070BD80A00008F0B58DB086
:1048D0006D46194C2A0023006833070003CB03C23E
:1048E0000822290008A805F024FB082208A90AA824
:1048F00005F01FFB0A9A0B9B216B4B409A4201D09B
:10490000FEF75FFD089B06A901330693226B02AEFA
:10491000534004A808220793683405F00AFB0822D4
:1049200004A9300005F005FB0CCE0CC43B00380098
:1049300006CD06C30DB0F0BD80A00008F0B5864CD2
:10494000864EA544069333000290059117007033FC
:104950000FAA03CB03C211AC33002200703303CB88
:1049600003C22DA8FFF7B2FF3300220008AD703359
:1049700003CB03C239002800FFF738FF230006CD20
:1049800006C32D982E99FFF76FFF25AD2B0006CC9F
:1049900006C323AC33002200703303CB03C229AB20
:1049A0009C461A00290009C909C26346299A5B6816
:1049B000316B4B409A4201D0FEF703FD27AB1A0042
:1049C00003CC03C2279A289B316B4B409A4201D0FB
:1049D000FEF7F7FC259A239B9A4206D16A68249B2E
:1049E0009A4202D1012464421BE23800FCF711FD17
:1049F000041E00DA15E2039018206043029B1B1886
:104A000004931B78002B00D012E200933A0032335B
:104A1000059937A8FFF788FC031EE3D1122506AAE3
:104A2000AD182A000CA937A8FFF732FC002800D0E7
:104A300000E22B88902BD5D94CAA0C993800FFF7AF
:104A4000CDFA0028CED12BA8FFF740FF434E0FAD83
:104A500033002A00703303CB03C233002FAA703314
:104A600003CB03C23800FCF7E2FC012807D864231B
:104A700043433B48C01828302FAB06C806C3FFF796
:104A80009FFC2A002FAB03CB03C22B982C99FFF776
:104A9000EBFE1FAB1A00290081C981C221AA1100B7
:104AA00081CB81C12199229B326B5340994201D025
:104AB000FEF787FC1F9B1BAB1A00290081C981C22E
:104AC0001DAA110081CB81C11D991E9B326B5340E1
:104AD000994201D0FEF775FC1B9B002B00DC81E79F
:104AE00017AB1A00290081C981C219AA110081CB14
:104AF00081C119991A9B326B5340994201D0FEF73C
:104B000060FC179FFBF75AFC874200DD6AE713AB96
:104B10001A0003CD03C215AA110021CB21C115999A
:104B2000169B326B5340994201D0FEF74AFC122388
:104B30000C4906AA9B187831102233A843AE1D8871
:104B4000139F05F0F6F93000FCF7CAFC50230D93D3
:104B5000012C09DD872446E7A4FDFFFF80A00008A3
:104B600050EF010808AA0610912DF3D1B24B71AD98
:104B700071973DA80BAF3D933E956F60FBF7EAFB45
:104B8000041E00D04DE13B88AC4A3DA83D923E95C5
:104B9000719302966E60FBF7DDFB041E00D040E1CE
:104BA0008C2206AB52009B181B78042BD2D1CF224B
:104BB000029B12021B8813408222D2019342C9D168
:104BC000029B0E905B880EAE05939D4B3DA83D93D6
:104BD0009C4B3E952E606B60FBF7BCFB041E00D027
:104BE0001FE18A22984BFF323D93984B3DA86B60A2
:104BF00006ABD21820233E952E60AA60EB60FBF72F
:104C0000A9FB041E00D00CE18F4B3DA83D93904BB7
:104C10003E956B6033ABAB6010232E60EB60FBF70F
:104C200099FB041E00D0FCE08A4A3B883D92022298
:104C3000AB604CABEB60059BFF320733DB085B00DE
:104C400001333DA83E952E606A602B61FBF782FB25
:104C5000041E00D0E5E0804B3DAD319371AB6B603D
:104C60000D9B31A832953D96AB60FBF773FB041E9C
:104C700000D0D6E00E9043A8FCF732FC80231B0145
:104C80004693F421882306AA52185B011380734BC4
:104C900006AA319316239B183D93029B704E6B60BE
:104CA00075ABAB60202331A847963295EB60FBF7DC
:104CB00051FB041E00D0B4E006ABDB8A694A0EAF9C
:104CC00031A8319232952F606B60AE60FBF742FBEA
:104CD000041E00D0A5E0644B102631937A2306AA67
:104CE000FF339B1831A832952F606B60AE60FBF7E5
:104CF00031FB041E00D094E05C4B06AA31935A238A
:104D0000FF339B186B60202331A832952F60AB6076
:104D1000FBF720FB041E00D083E006ABDB8A544F78
:104D200031A8319732952B60FBF714FB0797041ECF
:104D300077D143A8FCF7D4FB80239B0046934D4BCF
:104D400031A847934C4B32954393444BEE603193DB
:104D50004A4B50330593039B5F00059BDB192B6087
:104D6000029B6B6071ABAB60FBF7F4FA041E58D189
:104D7000059B434AFB5A434F6B603E4B183731A8A3
:104D8000319232952F60AB60FBF7E4FA041E48D1F4
:104D90003D4B31A831937DAB32952F606B60AE6097
:104DA000FBF7D8FA041E3CD1384B06AA31937A237C
:104DB000FF339B186B60039B069A1B010C33D318BF
:104DC000EB6031A80DAB6B6132952F60AE602E6148
:104DD000FBF7C0FA0D9B0400B34227D1002820D175
:104DE0002B4B3E9031933F900DAB3DAD31A83295AA
:104DF0003D974093FBF7AEFA041E12D11F4A039B66
:104E000050325B009B5A079A31A8319232953D93FC
:104E1000FBF7A0FA040004983200013081A905F0E4
:104E200088F8200097239B009D44F0BD8424DAE598
:104E30000124F6E70400F4E700160035000200350F
:104E4000001D003509012030000400350202000079
:104E50000302000000060035000700350009003598
:104E600009008002001E0035001F003500200035BB
:104E7000000A00350100C00400248000D8A6000804
:104E8000000B003558A70008000C0035000D003558
:104E9000000E00350023F0B5AFB004937A4B0090BC
:104EA000019106AA703303CB03C2082005F00EFA65
:104EB000009B06000120002B03D00430012B00D002
:104EC000FA3004A9FCF713FA0124002847D110A8EE
:104ED000FFF7FCFC6C4C06AD23002A00703303CBBB
:104EE00003C202AF019938003300049AFFF718FC9F
:104EF0002B003A0003CA03C310981199FFF7B4FCC2
:104F0000082229000AA805F014F808AD23002A0099
:104F1000783303CB03C208220AA90EA805F009F8CA
:104F20000E9A0F9B216B4B409A4201D0FEF749FA33
:104F3000082229000CA804F0FCFF0C9A0D9B216BA1
:104F40004B409A4201D0FEF73CFA0A9A089B9A42DB
:104F50000ED00B9A099B9A420AD001246442300079
:104F600005F0BEF90498FCF7B9F920002FB0F0BDA8
:104F70003100082212A804F0DCFF14AD23002A003F
:104F8000703303CB03C22AA8FFF7A0FC23002A003A
:104F9000703303CB03C238000099FFF747FC2B00A6
:104FA00006CF06C32A982B99FFF75EFC082229003A
:104FB00026A804F0BEFF082226A928A804F0B9FFFD
:104FC000289A299B216B4B409A4201D0FEF7F9F9B0
:104FD000269B102BC1D80822290022A804F0A9FF83
:104FE000082222A924A804F0A4FF249A259B216B5F
:104FF0004B409A4201D0FEF7E4F9082212A91EA8FC
:10500000229B04F096FF08221EA920A804F091FF1D
:10501000209A2199236B4B409A4201D0FEF7D1F997
:10502000082229001AA81E9B04F083FF08221AA94F
:105030001CA804F07EFF1C9A1D9B216B4B409A42DA
:1050400001D0FEF7BEF9082212A916A81A9D04F095
:1050500070FF082216A918A804F06BFF189A199976
:10506000236B4B409A4201D0FEF7ABF9074A169BDF
:105070002D04AD182CA805AA2C952D920593FBF7AD
:10508000E7FA04006BE7C04680A000080001003684
:10509000F0B5DB4CD3B02300039008AA703303CBE8
:1050A00003C2230008AA703303CB03C228A8FFF76A
:1050B0000DFC230004AE08AA703303CB03C23000FA
:1050C000D0491422FFF7AAF9320008AB03CA03C380
:1050D00028982999FFF7C8FB082208A91CA804F002
:1050E00028FF1AAD23002A00783303CB03C208221D
:1050F0001CA920A804F01DFF209A219B216B4B4086
:105100009A4201D0FEF75DF9082229001EA804F09A
:1051100010FF1E9A1F9B216B4B409A4201D0FEF755
:1051200050F91C9A1A9B9A4200D089E01D9A1B9B49
:105130009A4200D084E0230008AA703303CB03C254
:1051400026A8FFF7C3FB230008AA703303CB03C2D2
:105150002AAD23002A002700703303CB03C2AA4BD9
:105160007037DA69A94B1A4200D1A2E136A8FFF7DD
:10517000ADFB2B0006CF06C3A54903220C3130003E
:10518000FFF74CF904AB06CB06C536983799FFF705
:105190006BFB9D4B5B7F002B47D02AAD290008227B
:1051A0002EA804F0C6FE2CAF23003A00783303CBC0
:1051B00003C208222EA932A804F0BBFE329A339B08
:1051C000216B4B409A4201D0FEF7FBF808223900D0
:1051D00030A804F0AEFE309A319B216B4B409A42CE
:1051E00001D0FEF7EEF82E9A2C9B9A421DD12F9AF1
:1051F0002D9B9A4219D123002A00703303CB03C29E
:1052000034A8FFF763FB23002A00703303CB03C2EB
:105210007F4903223C313000FFF700F904AB06CB95
:1052200006C534983599FFF71FFBFFF7C9F8082228
:105230002AA908A804F07DFE26982799FFF714FBF9
:1052400008A9082214A804F074FE12AD23002A0055
:10525000783303CB03C2082214A918A804F069FE0E
:10526000189A199B216B4B409A4201D0FEF7A9F87E
:105270000822290016A804F05CFE169A179B216BE1
:105280004B409A4201D0FEF79CF8149A129B9A4226
:1052900000D08EE0159A6B689A4200D089E0230016
:1052A00008AA703303CB03C224A8FFF70FFB230027
:1052B00008AA703303CB03C270343AAB06CC06C3E2
:1052C00000230193534A544B0199D358534A8A18E7
:1052D00002921578032B01D0092D5AD944AC220033
:1052E0004F4E2F01F319D83303CB03C208222100FC
:1052F00046A804F01EFE424B469A47991B6B4B4052
:105300009A4201D0FEF75DF82368002B41D040ACF3
:105310002300F619D83606CE06C342A8082221007B
:1053200004F007FE364B429A43991B6B4B409A425E
:1053300001D0FEF746F83A4B0E3526682D013CACFD
:105340005D1923003EA806CD06C30822210004F003
:10535000F0FD2B4B3E9A3F991B6B4B409A4201D07C
:10536000FEF72FF8276848A83AACFFF7AFFA2200FB
:10537000234B04AD703303CB03C23B0032000299D0
:105380002800FFF7F7F80CCD0CC448984999FFF7AF
:105390006BFA019B10330193A02B93D1FFF710F808
:1053A00008223AA908A804F0C4FD24982599FFF71B
:1053B0005BFA08A908220CA804F0BBFD104C0AAD4A
:1053C00023002A00783303CB03C208220CA910A8BB
:1053D00004F0AFFD109A119B216B4B409A4201D013
:1053E000FDF7EFFF082229000EA804F0A2FD0E9A97
:1053F0000F9B216B4B409A4214D0FDF7E2FF11E066
:1054000080A00008ACAC061058A70008FF00FF0001
:1054100088AA061000002040C42000000CAC061032
:1054200050EF01080C9A0A9B9A4239D10D9A6B6889
:105430009A4235D1230008AA703303CB03C222A8B5
:10544000FFF744FA230008AA703303CB03C24AAD26
:1054500023002900364A7033079241CB41C1002610
:105460000192344AB3019B1833491A68B3015B189F
:105470001B68002A28DA0136102EF2D1079B019A08
:10548000934241D14CA9102E50D0FEF799FF08222B
:10549000290008A804F04DFD22982399FFF7E4F9AC
:1054A000FEF78EFF039B08AA03CA03C3039853B0F9
:1054B000F0BD38A923000A00783381CB81C20822CD
:1054C000280004F036FD64E6002BD4DB1B4B1C499E
:1054D000F718BF016C313800FBF7FEFB0790079B04
:1054E000002BCBD18022174B120607937B6A134304
:1054F0007B627B6A144ADB171340124A9B1807939E
:10550000079B002BB7D0B9E7079A0E4B9A4209D1F7
:105510004EA970340B0005CC05C30822280004F006
:1055200008FDB2E7079B002BAFD150A97834F1E713
:105530000400C2000420234024202340808C00016A
:1055400088AA06100300C200FDFF3DFFF0B5A5B01C
:1055500004AC04906160029203932AAB1B782B9AEF
:105560000193644B02AF9A4200D0C1E0624B634D9D
:1055700012932A6B12A9534010A8082213930AAE63
:1055800004F0D7FC082210A906A804F0D2FC3300CE
:1055900008A806CF06C3082206A904F0CAFC082200
:1055A00031000CA804F0C5FC0C9A0D9B296B4B40F4
:1055B0009A4201D0FDF705FF082208A90EA804F0C1
:1055C000B8FC0E9A0F9B296B4B409A4201D0FDF715
:1055D000F8FE0A9A089B9A4209D17268099B9A427E
:1055E00005D1474B1B68002B01DA01F0B1FC019B90
:1055F000002B0BD0FBF7F4F801F0B8FCC022C0235D
:105600004049520088581B0603438B5020A90B00C9
:10561000220041CA41C3082222A804F08AFC229A2F
:1056200023992B6B4B409A4201D0FDF7CAFE892388
:105630002099354A5B01D1501CA90B00220041CAB8
:1056400041C308221EA804F074FC1E9A1F992B6BFC
:105650004B409A4201D0FDF7B4FE1C9A2B4B18A97F
:105660009A600B00220041CA41C308221AA804F024
:1056700060FC1A9A1B992B6B4B409A4201D0FDF7A4
:10568000A0FE189B14A91E680B0005CC05C30822B8
:1056900016A804F04EFC169A17992B6B4B409A42B1
:1056A00001D0FDF78EFE1A481A49149B091A5C684E
:1056B000FBF706F8184D19492800491BFBF700F8BD
:1056C000174BDC651E6685F3088816481649091ACB
:1056D000FAF7F6FF86F3088814481549091AFAF70D
:1056E000EFFFFBF77FFF002001F0D2FEA047FEE7AF
:1056F000FEE7C046186EA9719B71CA2780A00008FA
:1057000000012640000026400000204000ED00E09F
:1057100080A0000860A30008002000080024000802
:1057200058A7000800B0020800C00208B8A6000888
:10573000CCF40108F0B58FB00CA90B00674A11CA70
:1057400011C308220AA804F0F4FB654E0A9A0B9BC9
:10575000316B4B409A4201D0FDF733FE6A460C9BF9
:10576000604CDBB2D71D3B70E3680393A3690293DF
:10577000029B002B0CD0029A5B4B9A4201D801335A
:105780000293FA20029B01F009FE029BFA3B02936E
:105790005648574A0021121A03F063FD5548564AED
:1057A0000021121A03F05DFD544D554A0021521B91
:1057B000280003F056FD3B7804A9DBB20493326B5A
:1057C00006A8534008AE0822059304F0B2FB082255
:1057D00006A9300004F0ADFB404B06CE06C3039B88
:1057E000E360029BA36185F30888464D464800218B
:1057F0002A1A03F036FD85F30888012001F048FEDF
:10580000FBF7F0FEE06801F0EFFDA3693F48002BD5
:1058100000D13F4801F08AFD3E4B1B68002B01DAA6
:1058200001F096FBA569002D2AD03B483B49183072
:10583000FBF732F820223A4B1A603A4B3A4C3B4E77
:105840009D421FD820223A4BDA67BFF34F8FBFF338
:105850006F8F16210520FBF707F8C02201215200A7
:10586000A35828008B43A3500022324B1A73802385
:10587000A2591B061343A35101F09EFB01F042FC09
:1058800004F0B2FFFAF7ACFF8022A35912061343CB
:10589000A351C0235B00E3589B0F05D1C4225200E3
:1058A000A35825490B40A350E1220127D200A35859
:1058B0003B43A350C2235B00E058013880B201F0A3
:1058C00063FBE023DB00E750E35801F04FFB01F0FE
:1058D00019FC0028D6D1194BED18AEE758A70008DF
:1058E00080A0000850EF0108E703000080A0000836
:1058F00060A30008B8A60008CCF401080020000846
:105900000024000800C0020800B0020800A400083B
:10591000004000160001264008AB0610C114061016
:1059200000E100E0BC0A0000000026400C05000079
:1059300004E100E0D8A60008FFFFF0FF31F8FFFF08
:1059400010B5002801D1FFF7F5FE10BDF0B5050038
:105950008BB0080014001F00FBF75BFD061E01DA88
:10596000FFF7E8FE18234343ED1828787600013846
:1059700043425841FFF7E4FF230F6B73230DAB73D2
:10598000230BEB731F4B24095033F35A2C741E4E18
:1059900004AC1E4A63601E4B183602A802920394A0
:1059A0000496A360FAF7D6FC002829D1194B0135DB
:1059B0000293102302A8039404966560A360FAF78B
:1059C000C9FC00281CD1144B01AD0293109B02A806
:1059D0006360E36003942660A76027616561FAF75E
:1059E000B9FC019B9F420BD1002809D10B4B606091
:1059F000A06002A8029303942660E560FAF7AAFC6F
:105A00000BB0F0BDD8A6000858A70008000B003561
:105A10000100C004000C0035000D0035000E0035FB
:105A2000F0B55F4C5F4DA54412AC2B0005925E4E65
:105A30002200370003910990703303CB03C2FF3774
:105A40000399787EFBF7D0FC11A9C0B2FBF74FFC9D
:105A5000002808D0FEF7B4FC099B06CC06C30998C1
:105A6000524B9D44F0BD7B7E03980493FDF75EFC92
:105A700000280CD02C23039A0499534358224A43FC
:105A80009B18F31806931B690293DB062CD50123A0
:105A900030932A6B30A9534024A80822319304F094
:105AA00048FA082224A932A804F043FA082232A9AD
:105AB00012A804F03EFA119812ACFBF70FFC082272
:105AC000210014A804F035FA082214A916A804F03D
:105AD00030FA3449169A179B096B4B409A4201D011
