:020000043400C6
:108000003DB8F3960000000020000000793901001F
:108010000000000000000000000000000000000060
:108020003DB8F396000000002000340060720000AC
:108030000000000000000000000000000000000040
:1080400000E00030751E0030310C0030310C003083
:108050000000000000000000000000000000000020
:10806000000000000000000000000000C51E0030FD
:108070000000000000000000310C0030310C003026
:108080000348854600F004F900480047ED4F0030F2
:1080900000E0003000000000801C800803D0401C7D
:1080A000801EFCD100BF7047EFF3108072B670479E
:1080B00080F310887047F0B51FB40646002082B0E8
:1080C00005464024019100901BE0019922460F468D
:1080D000304600F030F8049A059B801A994110D37D
:1080E00010461946224600F016F8361A8F410197BD
:1080F000224601200021009F00F00DF838184D4164
:1081000000902046641E0028DFDC019B0098294671
:10811000324607B0F0BD10B5202A04DB0146203AF4
:108120009140002010BD914020239C1A0346E3405B
:108130001943904010BD10B5202A04DB0846203AB0
:10814000D040002110BD0B46D340D0402024A21ABD
:1081500091400843194610BD10B5431A934209D205
:108160008318881803E0401E01785B1E1970521EA8
:10817000F9D210BD03460B439B0703D009E008C9A1
:10818000121F08C0042AFAD203E00B780370401CC7
:10819000491C521EF9D210BDD2B201E00270401C3F
:1081A000491EFBD270470022F6E710B513460A4677
:1081B00004461946FFF7F0FF204610BD421C017827
:1081C000401C0029FBD1801A704730B504460020BE
:1081D000034600E05B1C934203D2E05CCD5C401B95
:1081E000F8D030BD30B505460020034600E05B1CEA
:1081F000934205D2EC5CC85C201A01D1002CF6D168
:1082000030BD70B50446002903D000202022012390
:1082100010E0002801D00020C043C046C0460DE059
:108220002546D5408D4205D30D469540641B1D461D
:10823000954040191546521E002DF1DC214670BDB7
:1082400070B5002504462E46002911D0002C01DA15
:1082500001254442002901DA012649422046FFF760
:10826000D0FFB54200D04042002D00D0494270BD41
:10827000002C02DA0121C90702E0002C00DD0349CD
:108280000846C046C046214670BD0000FFFFFF7F84
:108290001CB5094800900948019005460126009C3C
:1082A00005E0E36807CC33430C3C98471034AC42FC
:1082B000F7D3FFF7E9FE0000507200306072003023
:1082C00070B58AB00D460446DC4E306809900292C3
:1082D00003930E98009004A806A90A222B4601F0E9
:1082E0002FFD059A0499204601F0B8FE30680999DF
:1082F000401A01D10AB070BD01F020FFB0B50029CD
:108300000FD00378140E5C406304A5045D40E303C2
:108310006B40A5035D402B1912025A40401C491EB8
:10832000EDE71046B0BD00007FB505466846027215
:108330000191E84E3068039000951C78280603D41C
:10834000188C104988420BD17F2005400AD068461E
:10835000411D204600F018F8002809D0012D01D158
:108360003D2006E06846411C204600F00DF800E084
:1083700000203168039A891A01D104B070BD01F060
:10838000DDFEC046FFFF00000022042A05D08B5C02
:10839000521C8342F9D1002070473D2070470000F5
:1083A000F0B58BB014460D460646E44F38680A9087
:1083B000C8780978091F1C2916D801228A400F495C
:1083C0000A4211D0A97888420ED96946304601F098
:1083D00044F843280AD001461E391E2906D36846B0
:1083E000C078E9788842F0D22070002039680A9A73
:1083F000891A01D10BB0F0BD01F0A0FE03000010FE
:1084000010B503781C461A3C022C08D3032B08D065
:10841000022B08D1C90706D08168C0680CE04B2048
:1084200010BDC90701D13D2010BD8168C068054B52
:108430004C1C04469C4103D211605060002010BDCA
:10844000462010BDFFFFFF7F10B503781C461A3C85
:10845000022C0AD3032B0AD0022B0AD1C90708D059
:10846000C16800290DD4836807E04B2010BDC907FF
:1084700001D13D2010BD8368C168136051600020A8
:1084800010BD452010BD000070B50446D44EFFF766
:108490000BFEA2590A494B1C1343A351094A126807
:1084A000A35912095A4012070025002A04D1A21923
:1084B00012688A4200D90125FFF7FAFD284670BDEF
:1084C000FFFFFFEF00210050F0B500230360436081
:1084D00001263207134D0D407406A54201D1F30465
:1084E0001AE00D46954303242406A54211D01B240F
:1084F0006405A54210D00C4F0F40B3040F24A4050F
:10850000A74208D00724E405A74205D000212C4645
:1085100004E02C4600E03C46114043600C430460FC
:10852000F0BDC0460000F8EF0000FCEFF0B50024FD
:108530000460446001252B070A469A430A4E9619A7
:10854000760A0B2E03D20B2254021B4A06E0074F79
:108550000F40074EB74204D16C03324619404460C5
:108560000C4622430260F0BD00C0DFBD00E0FFEF1B
:108570000000104001210A0790434A06904219D09A
:108580000D4A904213D01B22520590420BD0072275
:10859000D205904207D00F229205904203D00322C9
:1085A0001206904201D188037047C80370474120EA
:1085B000400270470020704700402042002B07D047
:1085C000002805D0002903D0002A01D09A4201D208
:1085D0000020704701207047F0B58DB01E46049210
:1085E0000746BA4800680C900AA80191FFF76CFF93
:1085F0000B9D0A9C0297384621462A46039633462D
:10860000FFF7DCFF04990246D34800290DD0002A69
:108610000BD005A80022028208950794019A0692C1
:10862000029A0592039A00F053F90C99A74A12682E
:108630008A4201D10DB0F0BD01F080FD0C27005041
:10864000F0B58DB01D4617460446A04800680C9052
:108650000AA80391FFF738FF0B990A9E049420465D
:108660000C463146224602952B46FFF7A7FFEA4A01
:108670000197002F23D0002821D005A801210182D5
:108680000894079603980690049E0596544C30591A
:10869000000F521C0E2812D830461546FFF7F4FE84
:1086A0002A4600280BD0341905A80199029A00F037
:1086B00055F902460F2000072168814321600C987C
:1086C00082490968814202D110460DB0F0BD01F027
:1086D00035FDC0460C270050F0B58BB01D46164640
:1086E00007467A4800680A9008A80091FFF71EFF25
:1086F000099A089C01973846214602952B46FFF7B8
:108700005DFF0246C448002E0ED0002A0CD003A8FC
:108710000022028206940594009A0492019A039220
:108720003146029A00F0D4F80A99684A12688A42DF
:1087300001D10BB0F0BD01F001FDC0460C27005087
:1087400080B50423FFF7C8FF80BD0000F0B58DB0F1
:108750001D46174604465D4800680C900AA8039120
:10876000FFF7E4FE0B990A9E049420460C4631461E
:10877000224602952B46FFF721FFA74A0197002FBB
:1087800023D0002821D005A8012101820894079652
:1087900003980690049E0596114C3059000F521C08
:1087A0000E2812D830461546FFF76EFE2A460028DE
:1087B0000BD0341905A80199029A00F0CFF80246AF
:1087C0000F2000072168814321600C983F49096808
:1087D000814202D110460DB0F0BD01F0AFFCC046A1
:1087E00020000100E0B50092384A126801926A4602
:1087F0000423FFF7ABFF0199344A12688A4200D183
:108800008CBD01F09BFCC046F0B58BB01C460D46FC
:1088100007462E4800680A907E68787C002836D08B
:108820000392B8680590FFF7A5FE04903968F84AEE
:108830008B580F20019083438B508B583046012674
:108840001E430E239E438E500290059BC31A1B09A4
:10885000049818188A185060EB4E132002038858A9
:10886000C00707D0002E05D03220FFF715FC761C7C
:108870003968F2E7E548002E1ED089180A684B686F
:10888000019EB3434B601103039A029E13D4002050
:10889000102804D0315806AB1950001DF8E706A87F
:1088A0008018002C05D001782970401C641E6D1CB6
:1088B000F7E7002000E0C01C0A99D64A12688A42F5
:1088C00001D10BB0F0BD01F039FCC0460C270050BF
:1088D000F8B514460D4606464068B168F268121AAB
:1088E0005118A14201D24C48F8BD0F2102460A405E
:1088F00011D0884370601020871AA74200D3274602
:10890000304629463B46FFF77FFF716810317160A2
:10891000ED19E41B00E00020270900217F1E4941DA
:1089200000280DD100290BD0002210233046294603
:10893000FFF76AFF7168103171601035103CECE789
:10894000002C07D0002805D10022304629462346B6
:10895000FFF75AFFF8BDC04601003601FEB50E46CE
:1089600004464068A168E3681B1A5918914201D275
:108970002948FEBD02922168A54D4A590F27BA43E6
:108980004A514A59012313430E2293434B5139460E
:1089900002463A400027002A019114D088436060C3
:1089A0001020801A029DA84200D32846009020463D
:1089B0003146009B00F032F8616810316160009927
:1089C00076186D1A01E03846029D29462909029160
:1089D00000280FD102998F420CD20022102320468A
:1089E000314600F01BF86168103161607F1C103661
:1089F000103DEDE7002807D1002D05D000222046CC
:108A000031462B4600F00AF82168814BCA58019C78
:108A1000A243CA50FEBDC04601003601F0B58BB07E
:108A20001D4603920E46F64909680A91476805906B
:108A30008068391A0C09FFF79DFD23183A466C48E7
:108A40003818400A01240B2812D30B204002694930
:108A5000511881420CD3500B6749884208D06748AF
:108A6000824202D36648824201D3002400E00124FE
:108A70000294049205980068624901934350624C45
:108A800013210F03C159C90708D0002C06D032208A
:108A9000FFF702FB641C05980068F1E75B49002CB6
:108AA00018D0C0190068000316D4039B002B049C47
:108AB00008D101200F2D014600D80021029A504014
:108AC00001421FD1002010281CD0215806AA1150A5
:108AD000001DF8E7084682E00598407C0028049CC9
:108AE000039B07D101F01EFC039B002802D04748DE
:108AF000C01C74E00020102804D006A900220A50EF
:108B0000001DF8E7029800280BD006A8C018002D19
:108B100011D0317802780A430270401C6D1E761C19
:108B2000F5E706A8C018002D05D031780170401C6B
:108B30006D1E761CF7E7059B1968354D481942688C
:108B4000019EB24238D11A7C002A38D02F48C01C6E
:108B50000322920303920026032E40D00020102807
:108B600004D006AA12582250001DF8E74859039A6B
:108B700010434851244CC859C00708D0002C06D0D7
:108B80003220FFF789FA641C05980168F3E7002C8E
:108B900024D0C8190068C006420F0020022A1ED344
:108BA000022E049C01D1022A19D01848801D761C7F
:108BB000521F032AD0D212E01448401C0FE00021BB
:108BC000102904D006AA52586250091DF8E7032163
:108BD000890302680A430260002000E00B480A99FA
:108BE000874A12688A4201D10BB0F0BD01F0A6FAA3
:108BF00000C0DFBD00C0DFAD80800200000010407B
:108C0000002010400830010080C7FEFF030036013D
:108C1000043001000C270050014600200861486123
:108C20000A7813461A3B022B06D3032A06D0022ADF
:108C300006D10C220A7070474B20704741207047C4
:108C4000302070470146C4200A580020002A0ED068
:108C5000C03109680B78062B09D08968491C06D0F9
:108C6000D188FB4A914201D0002900D101207047F0
:108C700005480649064A07230B600023036002608B
:108C800001234364F7E7C046804100500041005093
:108C90001F000080F8B504460546D035406888427C
:108CA00002D20120A07300E0A1600021CE430C2776
:108CB00077436868C0192860204600F0EFFE103442
:108CC0006868844208D0C019686029680A78062A52
:108CD00002D08968491CF4D0AE61F8BD70B58AB085
:108CE0000446F54D286809900020029203900090F8
:108CF0000C2901D00B4600E0022304A806A90A2291
:108D000001F01EF89426A0590368059A049920469C
:108D100001F0B2F9A05921461431884202D99434A5
:108D20000838206028680999401A01D10AB070BD3E
:108D300001F004FAF0B587B01F460B460546DE4940
:108D4000086806902C46D034002F02D000203860EE
:108D50007860A07F00284BD1029503A84B21418069
:108D60002421417002700026067203200190410206
:108D70000491039832461D46FFF7D6FA002836D1F3
:108D8000019A20680178062902D0C188491CC18057
:108D9000002F2B4602D09868D96803C7029F7968D4
:108DA000D2432820914222D83A68002A1FD09B68DB
:108DB00093421CD39A1A8A4219D20223DB439A4265
:108DC00015D8E8688018029B58609A602068C43300
:108DD00098420BD203460C332360016106210173D4
:108DE0002068826020686060304600E02920F349F6
:108DF0000968069A891A01D107B0F0BD01F09EF901
:108E00000C270050F0B5CFB00C460746FB48006871
:108E10004E90EE20385C002802D00C9000260DE029
:108E20003E46D4363068002802D0017805291FD08C
:108E3000617800291CD0002647200C903746002579
:108E4000607800280BD0304639462A46FFF773F980
:108E5000C00701D10020208028346D1CF0E7E748CE
:108E600000684E99401A00D0EFE00C984FB0F0BD6A
:108E7000C188BF4DA94208D16178002901D180681D
:108E80007061002637460C96D9E7099202935498F0
:108E900005903D4610351CA8C8222946FFF75CF90D
:108EA000384601F019F8019630680395401B0C21F3
:108EB000FFF7C6F9FF2109020B9100260121089155
:108EC000C0B204903846374606908168079112A9CF
:108ED00000F0CCFA01461E391E290C9000D2A7E002
:108EE000432800D1AAE00D96002021460A90109058
:108EF0004878002871D012A84078851E052D0F9162
:108F000066D88A69C8690E900B6819991898AD00DF
:108F10003E4602A77D593746AF46C046F50E0030A3
:108F2000090F0030910F0030910F0030210F0030F9
:108F30002B0F003050400E9A5140014348D10B98FE
:108F400003400120400208E050400E9A5140014386
:108F50003ED10B98034003200002584010D037E068
:108F60000B9D2B4003256D0203E00B9D2B40072535
:108F70002D025D402CD10E9B01F026F8002827D150
:108F800001200021109AFFF7C6F806460D46394029
:108F90000D9A1040084344D10C99002941D10F98F3
:108FA000027812A9012A04D00978012901D091423E
:108FB0003BD112A92822FFF7CFF80D9830430D902E
:108FC0002F430998002801D00799016008980A905A
:108FD0000F9928311098401C89E7059800280AD07D
:108FE00001200A994140C80705D012A90298059AA4
:108FF000904700281AD112A911AA0698FFF7D0F9B4
:1090000000280D9E1FD111A8007804998842069867
:1090100000D35AE780680321C943884210D9282029
:1090200011E0002803D03E2000E03D200C900D9E72
:109030001CA9C8220398FFF78FF800E7432002E03D
:109040000199486100200C90F2E701F077F8C046E2
:10905000FEFF0000EE23C35C002B00D07047EE3013
:109060000B78142B03D0152B04D1012300E000232F
:10907000137001E03D2202700A6A496A2223C2503D
:10908000223041607047000070B596B0EC4C21680A
:1090900015912925694600264E558125AD000D8084
:1090A0000793069200F034FF20681599401A01D109
:1090B00016B070BD01F042F80C270050F0B58DB02D
:1090C0000E460546DE4908680C90EE20285C002814
:1090D00045D101922C46D03402A9284600F0BDF9B2
:1090E0000746002839D102A80078B04224D11120C7
:1090F000000128180A990B9A06C002A98878C97835
:1091000081420FD822681378062B03D0D3885B1CCA
:10911000D38022682B46C4339A4203D213460C33C1
:10912000236016730027FA43A261AA680323DB4376
:109130009A4203D9282709E03D270EE0236863609F
:109140009A60814202D820680949C18001980028AC
:1091500003D002A92822FEF7FFFFA777B8490868C5
:109160000C99401A01D10DB0F0BD00F0E7FFC046E8
:10917000FEFF0000F0B58DB00646B14F38680C9088
:10918000EE20305C002811D10D4601923446EE34B9
:1091900002A9304600F061F92070000606D102A94C
:1091A00030462A46019BFFF7C5FD207038680C99B0
:1091B000401A01D10DB0F0BD00F0C0FF0C270050E7
:1091C00080B505210022FFF779FF80BD70B596B00C
:1091D0009B4C216815912925694600264E55084D5E
:1091E0000D800793069200F093FE20681599401AAF
:1091F00001D116B070BD00F0A1FFC0460C27005091
:109200000502000070B58EB004468D4D28680D90A3
:10921000EE20205C00281BD12646D436326842203E
:10922000002A14D012788A4211D17169481C04D0E6
:109230002046FFF72FFD002009E002A900224A7016
:10924000009220461346FFF7DDFD002806D0B076D9
:1092500028680D99401A03D10EB070BD7169E7E717
:1092600000F06CFF10B5EE21415C002900D010BD6C
:109270000446D43422684221002A08D01378062BF1
:1092800005D1416852684260FFF704FD0021A176D4
:1092900010BD80B50521FFF7B5FF80BD80B5052164
:1092A000FFF7B0FF80BD80B5002100F017FC80BD46
:1092B00070B58EB00446624E30680D9002AD01204C
:1092C00000900195204600F047F8129A2046294662
:1092D000FFF7C0FE30680D99401A01D10EB070BD85
:1092E00000F02CFFE0B5009103214A020E49002353
:1092F00000F06EFB8CBDC046E0B5009103214A0230
:109300000949002300F064FB8CBDC046F8B50699FE
:109310000391002102910449009103214902019126
:1093200000F02EFB8FBDC04601060000BCB5044610
:10933000089D012000900195204600F00DF8EE20D8
:10934000205C002800D0BCBDEE34079A0699284660
:10935000FFF756F82070BCBDF0B597B0384C2168C7
:109360001691EE21415C002924D10546EE351D9968
:1093700001911C99292602AF0024BC5502267E705B
:109380003970089209930094394622462346FFF724
:1093900039FD0646282201983946FEF7DDFE002EEB
:1093A00006D102A80078002801D0264600E0442615
:1093B0002E70234C20681699401A01D117B0F0BDC9
:1093C00000F0BCFEF0B599B00F4606461C4908688F
:1093D0001890EE20305C002829D101933046EE3001
:1093E000039004AC0720607038460292FEF7E6FE58
:1093F000292100256554029921700B900A97009548
:10940000304621462A462B46FFF7FCFC00280BD1AC
:1094100004A80078002806D004A928220198FEF7A5
:109420009BFE284600E04420039908700449086820
:109430001899401A01D119B0F0BD00F07FFEC04666
:109440000C270050BCB51446054600930022234665
:10945000FFF7D8FCEE216854BCBD10B50C4600F0F7
:1094600005F8002801D00021218010BDF0B585B09D
:109470000C460546808943278F49884200D00BE17E
:109480006868A968401A00D20020002800D103E1D2
:109490002E4610363046FFF7D5FB002800D0FBE003
:1094A0002F46D0372846214600F01EF900280BD061
:1094B000394602461E3A1E2A074600D2ECE02278C0
:1094C0001F2A0F4603D035E022781F2A01D120271A
:1094D000E2E0387F022816D1052A2AD10820205E32
:1094E000002800D5BFE02021049121704000208198
:1094F000039738680290801B0C21FEF7A1FE049AA6
:10950000A07000232BE038680078052811D1049260
:10951000A0680190E06802902079039028462146D7
:1095200000F0E2F801461E391E2900D38EE00746FE
:10953000B2E000200490039738680290801B0C2151
:109540001746FEF77DFE3A46A070381F1C287BD8D0
:109550000121814059480142049B1F4618D02089AF
:10956000002814D02946C431029FB9426AD939462D
:109570000C310492039A116078820499397311684E
:1095800088800520C043401D1168886022781F46EE
:10959000101F1C2807D8012181404848014202D0F1
:1095A0002089002803D10121284600F077FA3046AF
:1095B000FFF748FB002801D0002005E00398006871
:1095C000801B0C21FEF73CFEE070002F64D10520CB
:1095D000C5433B4E208C012812D0642816D00027AA
:1095E0003849884258D0B04256D8002736A13A466A
:1095F000072A51D00B8883420DD0091D521CF7E772
:109600002046FFF709FB002811D090E720780228B8
:109610003DD14E200AE0A320D04001220240901DFF
:109620002278904237D189787F20084020702846E0
:10963000002804D021180A8DCA84801CF8E7701D08
:10964000E084C7E7292727E0049FA1E7039B637114
:109650000499072909D13946019AA261029AE26167
:10966000072262702BE72A2716E039463A7F2F2718
:10967000012A11D0049A062A11D0032A16D0022AF0
:109680000AD1019AA261029AE2610222E9E7032863
:1096900001D1412700E03027384605B0F0BD6371A5
:1096A000019AA261029AE2610622DAE7019AA261B6
:1096B000029AE2610322D4E70FB000000300001019
:1096C000FAFF0000FFFF000000000B00EC034D005C
:1096D0000200890003008A001800A40020002C006A
:1096E0003F00CB00FFFF0000F0B58DB00C46954960
:1096F00009680C910022D1430B9108910A910990BD
:10970000F03000900AA8801C019002921546059442
:1097100028212046FEF747FD099800F065FC014628
:109720001F2307461F401C2008401828069507974E
:1097300014D10391049385A03818183804780027B1
:109740003E46002C11D03D02099800F04DFC28182F
:10975000390E32025618641E0746F2E71C2F02D358
:109760001F2F00D0CFE0029E01E003AC1ACC099875
:10977000807B002800D0BEE04809810001A251583A
:109780008F46C046711800307118003065170030E0
:1097900065170030791700307917003097170030BF
:1097A000A7170030001D207007991F292ED1002116
:1097B000CA43A160E2600CE007991F2900D1A6E02E
:1097C0006149091D0022C91BB24100D2A1E02070ED
:1097D000278102462BE007981F286CD0FE202070BE
:1097E000A760E6602CE0079A2270104614380B2818
:1097F00000D999E04A23C046784400794000874464
:10980000161616168C7A969A939393160420C043D4
:109810000021C01BB1417ED3099839461D4600F096
:10982000EDFB2B46002866D0A060E7602278FE2082
:109830001040062802D1E068401C66D0FE2A55D1AF
:109840000AA8C0883C254249884200D060E70AA99E
:1098500006220198FEF780FCA168E26800253A48DC
:10986000401A2846079290411FD20024009B06947C
:10987000042C10D081CB3D46089A554006465640F0
:10988000083B2E430BD04840079A5740074306D069
:109890000833641CECE73C25059C069905E019603B
:1098A00007985860611F0025059C0AA801802FE7D2
:1098B00007991F2901D118231DE000280AD0089913
:1098C000C81BB1410EDA02202070F843F143A060BA
:1098D000E1600BE0A760E6600899C81BB14103DABC
:1098E000022002E0402306E0032020700A980B9932
:1098F00020626162069B134800680C99401A1FD1D0
:1099000018460DB0F0BD1623F5E73123F3E73223F7
:10991000F1E72A23EFE72B23EDE700203946203932
:10992000864101D21423E6E727720D20DDE71A20D5
:109930002070A760DAE71B202070A760E660D5E7FB
:1099400000F0FCFB0C270050FAFF000001020408A5
:10995000FFFF000010B50B4602460020C143084639
:10996000032B0BD8EE24145D002C07D158001018DF
:1099700011210901415A104600F008FB10BD0000FA
:10998000B0B58EB00446DA4D28680D9002A80121CA
:10999000009101902046FFF7DFFCEE20205C0028BC
:1099A0000DD1EE3412AA07CAD2B202ABFEF7BCFC4C
:1099B0002070000603D115980499059A06C02868FE
:1099C0000D99401A01D10EB0B0BD00F0B7FBC046F2
:1099D000F0B58DB014460D46C54A11680C91EE21C4
:1099E000415C00291ED11E460746EE3702A9FFF74B
:1099F00034FD002801D0387013E012980190F2B2C3
:109A000002AB28462146FEF78FFC3870000604D0D2
:109A1000002001990860486003E004980599019AC4
:109A200003C2B34A10680C99401A01D10DB0F0BDC1
:109A300000F084FBBCB50446089D01200090019510
:109A40002046FFF789FCEE20205C002800D0BCBD3A
:109A5000EE34079A06992846FEF7F6FC2070BCBD46
:109A6000F8B51E4615460F46044608301121090177
:109A7000FEF799FB20461030D02160502046D030B0
:109A80000677276065602548A08106202074F034A1
:109A90002021FF222046FEF77FFBF8BD10B5D02223
:109AA000825803461033D0309A4216D01478062CD0
:109AB00013D0D488641ED4800268D488002C0CD1C2
:109AC0001478062C05D09468641C02D10C3A02600C
:109AD000EAE7002901D00020D08010BD0246D03234
:109AE000002901D083680B60917F002914D10146C1
:109AF000103112688A4201D017210DE08189074A8E
:109B0000914208D141688068081A00D200200028DC
:109B100001D0152100E00021084670470FB0000079
:109B200010B5D42141580446D034002909D00A7810
:109B3000062A0ED18A684368934207D201228273B3
:109B400005E0014610310622027400228260216085
:109B500001E000F0C1F90020A07710BDF8B51D4666
:109B60001646044609290DD00F46002300930B2901
:109B700001D0394600E0022120462A46FEF7A0FB2C
:109B80000B2F04D0204631462A4600F067FA942075
:109B900020588188491C8180F8BD80B513460A464B
:109BA0000221FFF7DBFF80BD70B51C461546064657
:109BB00000F02FF8304629462246FFF7EEFF70BD31
:109BC00010B5044600F006F80299039A2046FFF704
:109BD000E4FF10BDBCB5044600200090DD176A40CC
:109BE0005D40D90F20462B46FEF76AFB9420205893
:109BF0008188491C8180BCBDB0B50C46054608462D
:109C0000FEF7DCFA0346032128462246FFF7A6FFAB
:109C1000B0BDB0B50C4605460846FEF7CFFA034680
:109C2000032128462246FFF799FFB0BDB0B5144680
:109C30000546FFF7E1FF28462146FFF7DDFFB0BDEF
:109C4000B0B514460546FFF7E4FF28462146FFF766
:109C5000E0FFB0BDE0B5002100910621FEF730FB2A
:109C60008CBD1CB5044600910721FEF729FB94200A
:109C700020588188491C81801CBD80B5022100F0DC
:109C8000FAF880BDF0B585B0164600910546BD488E
:109C900000680490942028580768AC68E21B0221F1
:109CA0002846FFF71BF80196002E18D000980028D0
:109CB00002D1381BA968471802A8294600F008FA03
:109CC00000200399B94201D2014606E0029A002A17
:109CD00002D0C91BD01900E0C91B019A03C2A948D0
:109CE00000680499401A01D105B0F0BD00F026FAD1
:109CF0000C270050B0B50C46054600F099F9A87B3A
:109D0000002800D0B0BD0C2128462246FEF7E6FF11
:109D1000B0BD80B5052100F006F880BD80B50521F5
:109D200000F001F880BD10B59422825893795B1F32
:109D30005C425C419288E24092B2FEF7CFFF10BDD8
:109D4000F0B585B0092A02D80021016043E009314D
:109D500000220492D243812B05D37F24E443634045
:109D60001F240E4631E00193039102900D9F0C9C3D
:109D70000A980346002808D100201721091BB84182
:109D800003D303990E4602981EE0039E04990493A0
:109D9000002B02DC2046384312D00D460FA0415C58
:109DA0000846002807D0B454B618240A3B06E41825
:109DB000401E3F0AF5E7049B5B1A2946691CE6E74B
:109DC00017310C4602980399019B5B011B19B35490
:109DD000B218891A0260416005B0F0BD01010204A9
:109DE000BFB50C460146F54D28680390887B0028D6
:109DF00002D00120087409E0087C002806D16846DA
:109E000000F066F90098019903C400202968039ABC
:109E1000891A01D104B0B0BD00F090F970B51546B3
:109E20000E4604469821FEF7BEF9204631462A46E2
:109E300000F01AF920461430942160500420A076D6
:109E400070BDB0B5426884680023121B03D005685A
:109E5000002D00D02B190B604A600C2100F00BF88C
:109E6000B0BD80B5052100F006F880BD80B50521A4
:109E700000F001F880BDB0B59422825893885B1C35
:109E8000938083686524E443A34201D903210EE053
:109E900004468C34A24209D0044694341546083551
:109EA0002560917393600021918100E00421017489
:109EB000B0BD000004480549016005480168054837
:109EC00002F038F9FEF7DCF84013005050890030FA
:109ED0009C7100307C71003010B50246D032516860
:109EE000D023C150CB88284CA34202D08B88CB8092
:109EF0005168896842688A4202D20121817310BD8B
:109F0000816010BD002080F31488BFF36F8F70470D
:109F1000FEB50446A94E30680290EE20205C002871
:109F200028D10D462746D0370023009301AA2046AA
:109F3000FEF768FFB87700061CD12978002906D003
:109F400062680198824205D20120A07303E0442098
:109F5000B8770FE0A0603868C0880B4A904203D001
:109F600078688188C1802978786838600022204626
:109F7000FFF7A4F830680299401A00D1FEBD00F046
:109F8000DDF8C0460C270050FEFF000002460C48DA
:109F9000814202D8002308460DE0084B0020C04350
:109FA0001B1D9BB29942034605D0C8008118054A83
:109FB000885889184B6819467047C046FBFF000057
:109FC000FAFF00001801F8FF10B5994202D20020F4
:109FD000C04310BD0C46994201D9012010BD114665
:109FE0002246FEF7F2F810BD80B5012100F006F818
:109FF000002801D0007880BD002080BD827B002A2F
:10A000000CD18289094B9A4203D142688368D21AE3
:10A0100000D200228A4203D20121817300207047BE
:10A020008268511881600068801870470FB0000086
:10A03000827B002A00D0704782892E4B9A4206D13B
:10A0400043688268934202D39B1A8B4202D2012159
:10A0500081737047511881607047C04680B583682E
:10A0600000F00AF880BD000010B500238373214C76
:10A0700084810EC010BDC046F8B50446807B002820
:10A0800000D0F8BD0E46A0891A49884209D16168FE
:10A09000A068814205D31546091A914201D398421E
:10A0A00002D20120A073F8BD216800290CD0C21A89
:10A0B000CF1878193946FEF74FF8002E04D03846ED
:10A0C00031462A46FEF748F8A0684019A060F8BD5E
:10A0D0008A7B002A09D18A89064B9A4203D10A68F1
:10A0E0008968026003E001228A73002101604160F7
:10A0F0007047C0460F0B0000BFF34F8F0D480E494D
:10A100000160BFF34F8F00BFFDE7C046BFF34F8F25
:10A11000084809490160BFF34F8F00BFFDE7C04603
:10A12000BFF34F8F034804490160BFF34F8F00BF57
:10A13000FDE7C0460CED00E00400FA05FFF7DCFF88
:10A14000F0B587B00E460190E64800680690184DBD
:10A1500002A91022284601F089FB164CDC4FB842B8
:10A160001BD10FCE029E064302960398084303902C
:10A1700004981043049005981843059002A91022F2
:10A18000284601F005FCB84207D10B4801A904227A
:10A1900001F094FAB84200D104460698D149096802
:10A1A000814202D1204607B0F0BDFFF7C7FFC0468D
:10A1B000000010502100004500FC83130C270050C4
:10A1C000FEB5002201910292D2008C588A18526882
:10A1D000234613430146034610D01E685D68374688
:10A1E0002F4306D06640554035430833002DF4D147
:10A1F00025E0029A521C08460199E4E70D465C35B9
:10A20000002000900246D00001990F18B86D002878
:10A2100017D002923E465C3658372C46281F0068FD
:10A22000002808D033683A682968FFF7CDFE083562
:10A230000028F3D103E0029A521C2546E3E71B20D5
:10A24000FEBD0098FEBD70B5049C002C0DD01568B5
:10A250000D4206D01D680668AE430660156835439A
:10A2600005601B1D121D641EEFE770BD80B500293F
:10A2700002D004F0A9F880BD002080BDF0B5EFB099
:10A280001F4615460E46BA4C21686E91C21D5142BA
:10A2900051412530434243418B4235D00F21C943C0
:10A2A0000028084600D00020002A00D0014608A857
:10A2B00004F036F9002828D178980790779806900E
:10A2C0007698049075980390749802907998059008
:10A2D000019708AF11490C22384604F03BF9384683
:10A2E00031462A460E4B984738460199029A0C4D42
:10A2F000A84738460399049AA84738460699079A0A
:10A30000059B04F0F8F800E0012021686E9A914264
:10A3100001D16FB0F0BDFFF711FFC04643720030AE
:10A320003D4F003001207047F0B5FFB082B00F46BE
:10A3300006468F480068809006A82021FDF733FF6D
:10A3400005A800F07BFE314D884CA04252D1304828
:10A3500078A9202201F05AFAA0424BD10397352068
:10A36000C1000EAF3846FDF71EFF7E49384604F0A7
:10A3700025F8284F002831D12748026806A8202157
:10A38000334601F0E9FFA04228D10EA806AE2022F4
:10A390000192314604F018F8029005993046019A6E
:10A3A00001F0C4F838680C210843386038688843E5
:10A3B0003860029800281DD10EA878A9202204F048
:10A3C00003F8002816D10EA8202204AB039903F04D
:10A3D000EFFF002800D02C4625460BE0059906A883
:10A3E000202201F0A3F838680C210843386038684F
:10A3F000884338608098E7490968814203D128463C
:10A400007FB002B0F0BDFFF799FEC04637000045AF
:10A4100010041050540000504800001070B594B063
:10A420000546DC480068139003A800F0E3FED74E11
:10A43000D74CA0420CD128480268079902A82023D3
:10A4400000930190D0482B4603F0A8FF002800D0CD
:10A4500034461398CF490968814202D1204614B08E
:10A4600070BDFFF76BFEC04670B5B0B00546C94879
:10A4700000682F901FA800F0BDFEC44CC44EB0422F
:10A480001CD123980190219803901F9805902020BB
:10A490000890104807901048006802900F48006824
:10A4A00004900F4800680690042000906946091D3A
:10A4B0002A4600F019F8B04200D104462F98B54959
:10A4C0000968814202D1204630B070BDFFF736FEE8
:10A4D0000100A0F261D48213401400120CA3801377
:10A4E0000C0383130C270050F0B5EDB015460E4653
:10A4F0000746A84800686C903520C10002AC204691
:10A50000FDF751FEA049204603F058FF9F4C00285C
:10A510001ED100957F1C144D7F1E10D03168480B52
:10A52000A84204D1726802A802F052F803E07268EF
:10A5300002A803F049FF08360028EDD008E002A881
:10A54000202201AB009903F033FF002800D1EE4C2C
:10A550006C98EF490968814202D120466DB0F0BD88
:10A56000FFF7ECFD09000002808002000100A0F26C
:10A570000C27005070B50D46044614A115A2164EC6
:10A58000B0472A6815A12046B0476A6817A120463F
:10A59000B0476A681AA12046B047EA682B691AA139
:10A5A0002046FFF701FB19A11A4A2046B0471AA11D
:10A5B0001CA22046B047AA681CA12046B0476A6981
:10A5C000AB691DA12046FFF7EFFA70BD5645525307
:10A5D000494F4E0031000000011C003054454D50E1
:10A5E0004C4154455F545950450000004345525476
:10A5F000494649434154455F4E414D4500000000E6
:10A6000049535355455200004944000044415445C4
:10A610000000000042720030414C474F52495448FC
:10A620004D00000045533235360000005349474E77
:10A6300045525F49440000005055424C49435F4B2E
:10A6400045595F300000000010B500240461029CF1
:10A650000260001D1AC010BDF0B5F7B01E461746C7
:10A660000C460390C448006876903520C10004ADC4
:10A670002846FDF798FDA249284603F09FFE434D6A
:10A68000002836D106CF03984068083FFDF764FDE7
:10A6900004A89C490C22FFF7E9FD002829D17A681B
:10A6A0000398416804A801273B4602F03DFC0028BE
:10A6B0001FD104A800210A463B4602F035FC0028C1
:10A6C00017D106CE04A800230293083E02F02CFC0A
:10A6D00000280ED104A86EA900F006FA002808D1BF
:10A6E000039881686EA820220092FDF76EFD002875
:10A6F00007D028467699FB4A12688A4242D177B041
:10A70000F0BD2846029B039A11698F42F2D231466E
:10A7100070680293C31A10680193834200D30190BA
:10A720000868029941185068019AFDF715FD0398D1
:10A73000416804A8019A03F047FE0028D9D104A873
:10A740006EA900F0D1F90028D3D103988068009950
:10A7500041186EA82022FDF738FD0028C9D10298C3
:10A76000001903994968019A00F0A8FFD749884267
:10A77000BFD1029B0198C3180098203000907F1C25
:10A780000846C0E7FFF7DAFC090000023E0000457A
:10A790000100A0F20C270050F0B5F5B00893164662
:10A7A0000F460446E14800687490256850684019D7
:10A7B000401E2946FDF725FD401C2061E1686D4AD9
:10A7C000884241D87868A8423ED808984068402816
:10A7D0003AD13520C1000AAD2846FDF7E4FC4849CE
:10A7E000284603F0EBFD00282BD106CF6068083F18
:10A7F000FDF7B2FC0AA843490C22FFF737FD0028F9
:10A800001FD17A6861680AA801273B4602F08CFBD9
:10A81000002816D10AA800210A463B4602F084FB14
:10A8200000280ED106CE0AA800231D46083E02F0DD
:10A830007BFB002805D1A1680AA800F055F9002883
:10A840000BD04C48051D00E015467498DA4909689C
:10A85000814253D1284675B0F0BD7A9804902022E9
:10A8600029462069874224D207927068451A2068D9
:10A87000854200D3054630680691411860682A4633
:10A88000FDF76AFC61680AA805952A4603F09CFD5D
:10A890000028079DD5D1A06841190AA800F024F925
:10A8A0000028CED106990598411820357F1C2A46EC
:10A8B000D7E718340AA8202609AB2146324603F010
:10A8C00077FD0028BDD10898076800200B900A90FA
:10A8D00041210AAA049800F0DBFDB64DA8420BD135
:10A8E0000B990A984022009601970292074A234644
:10A8F00003F0C0FD0028A8D01E4DA6E7FFF71EFC00
:10A9000009000002437200300100A0F209060006AF
:10A910000C270050F0B595B017460C460546A648E2
:10A920000068149006AE304610302821FDF73BFC3D
:10A93000002309930897079302200690172005909B
:10A94000039302931A9801900093304629462246B9
:10A9500004F00EF805900598002801D0054800E0A5
:10A9600094481499944A12688A4201D115B0F0BDF6
:10A97000FFF7E4FB3A0000450C270050F0B58DB01E
:10A980000B920C9141780A91017809918578C678EB
:10A99000077941798279C379047A407A00950196E2
:10A9A000029703AD1EC507900B980C99099A0A9B54
:10A9B00004F05CF90DB0F0BDF0B5A3B002930392C2
:10A9C0000F4605467C48006822901AA82021FDF712
:10A9D000EAFB00260D960C960B960A9609960FA890
:10A9E00000F02CFB3849734CA0424FD138480890F6
:10A9F000012007900A96374806903748059011962F
:10AA000011AE301D20222946FDF7A6FB05A80CAB90
:10AA100031463A4603F0B0FC002849D10D990C9814
:10AA200010AA00921AAA202303F096FC2B4E0028AD
:10AA30002ED11AA8202101F0FDFCA04228D12848DF
:10AA400002681AA82021039B01F0BAFCA0421FD182
:10AA5000289D0F991AA8202200F068FD30680C216B
:10AA6000084330603068884330600C980D9904AA20
:10AA70000092029A2B4603F077FC002814D10D991E
:10AA80000C9803F063FC002812D112E00C4610E091
:10AA90000F991AA8202200F049FD30680C210843C4
:10AAA00030603068884330600D990C9803F04EFC9C
:10AAB000054C229840490968814202D1204623B0C2
:10AAC000F0BDFFF73BFBC046080000450100A0F2C7
:10AAD00000060006000100801271000154000050C1
:10AAE000480000100C27005070B5EEB00C4605462B
:10AAF000314800686D903520C10002AE3046FDF748
:10AB000052FB2846314603F043FC002805D102A839
:10AB1000202201AB214603F04BFC6D99264A1268B6
:10AB20008A4201D16EB070BDFFF708FB0C270050C0
:10AB3000042808D8800006A31B580B6009A10858F8
:10AB400010601C48704701487047C046020000452D
:10AB5000D0031050F003105090061050E003105036
:10AB60008006105060FC8313E0FC831310D2821324
:10AB7000A0FC8313D0D182131FB504460E48006891
:10AB800003900B4869460C2200F040FEEF498842D2
:10AB900004D16946C97803220A4022600399064A13
:10ABA00012688A4201D104B010BDFFF7C7FAC0464F
:10ABB0007C0410500100A0F20C27005003490A68E1
:10ABC00002608A68426049688160704700230050D3
:10ABD000F0B5B1B015460F4606462D4800683090D6
:10ABE000D94A002430462346FEF7F0FA3046D030EA
:10ABF000817FD64A002905D08477442900D0D44AE1
:10AC0000154694E1029507971037039700688788E7
:10AC10000494059409940A940694089420460446E2
:10AC2000002F00D1C9E00CA9304601F0DBFAC74A79
:10AC3000904200D0C3E01298C6494118072913D9A1
:10AC4000C5494118062925D87944097949008F4416
:10AC5000037A55703B99A30001200899014308919C
:10AC60000E99069108400FE07944097949008F4414
:10AC7000035D354F277E82530220089901430891D6
:10AC80000E980490C007400F0A9901430A9191E081
:10AC90000C270050B149884257D0B149884200D0B2
:10ACA0004DE10F98412800D049E10E9941220398C7
:10ACB000FDF752FAA54A082008990143089179E066
:10ACC0000E984007400C59E00CA818A901F064FA4E
:10ACD0009E4A05461898C007400E66E00CA818A9C1
:10ACE00001F05AFA994A0546072080014030189928
:10ACF0004902014009980843099059E00CA818A995
:10AD000001F04AFA914A05461898C007C00E4CE077
:10AD10000E988007000D31E00CA818A901F03CFA4C
:10AD20008A4A05461898C007400C3EE00E980590E8
:10AD300040E00CA818A901F02FFA844A054618989B
:10AD4000C007800E31E00E9835E00CA818A901F07C
:10AD500023FA054618980028824800D082480799AF
:10AD6000C8600420089901430891784A20E00E98B1
:10AD70004007800B02E00E984007C00A0999014382
:10AD8000099117E00CA818A901F006FA6F4A0546C8
:10AD90001898C001C0B208E00CA818A901F0FCF98D
:10ADA0006A4A05461898C007C00C0A9901430A91DF
:10ADB000954205D120467F1E31E7154600E0054645
:10ADC00017463046FEF765FABD42079F00D0AEE059
:10ADD00004201890012081031991810717918004A4
:10ADE00016906248786000200B900BAA06982146C6
:10ADF00002F07AF8554B054607240B9E2640099829
:10AE000006433E609D420CD10BAA0498059902F0BE
:10AE10006BF84E4B05460B984007C00D3043386029
:10AE200000E030463E1DC005400F811E484F0329FB
:10AE300002D24F4830600CE000280AD0012875D1BA
:10AE40000220009018AA16AB30460A99FFF7FBF9CA
:10AE50003E4B9D426BD1079800682040811E03291C
:10AE600004D230684349014031600CE000280AD028
:10AE700001285BD1062000903FA245A330460A99E5
:10AE8000FFF7E1F9314B089E0F2E3CD0464818A938
:10AE9000602200F053FB05462C48854247D1F0075D
:10AEA0000DD01898A043079A06CA21400818189098
:10AEB0003E48199901403E48104040181990B0078B
:10AEC0000ED5A00118998143079B0CCB0240501866
:10AED000189038481999014037481840401819907F
:10AEE000700702D50798C0681B90300705D518A8D1
:10AEF000103041220399FDF72FF918A96022079815
:10AF0000FDF72AF9114B079800680440022C06D37C
:10AF1000C005400F022802D384423D4607D1029962
:10AF20000868089A104308601D4600E03D463098C6
:10AF3000C1490968814204D1284631B0F0BD044DB1
:10AF40003EE7FFF7FBF8C046020001110100A0F246
:10AF500031000045FFFFFDDEFFFFFFDE01000321A2
:10AF60000100042155AA55AAAA55AA550000F5507A
:10AF70000000F110FFFF0EEF0100000010000000C4
:10AF800020000000400000008000000000100000D1
:10AF90000000010000001000000020000000400040
:10AFA0000000800000000010D9D382130EEF0EEFD6
:10AFB000F110F110FBBFFBBF04400440FEB5154685
:10AFC0000E469D4909680291174C9A4F17498842CD
:10AFD00005D1194831462A4600F0B0FA18E0144F5E
:10AFE0003846BC30134901AA042300F051FC9149B2
:10AFF000884210D101987749884203D07449884229
:10B0000009D14837384631462A4600F0FFFB894FC0
:10B01000B84200D13C46029887490968814201D173
:10B020002046FEBDFFF78AF8440000450BDB731F86
:10B0300034031050E0FC831394D38213B0B5184945
:10B0400000220A614A6164230C69E5070AD1E4061B
:10B05000A40FF9D0002B20D00C691825AC430C614B
:10B060005B1EF1E70B680A61036064234C69E50726
:10B070000AD1E406A40FF9D0002B0ED04C69182594
:10B08000AC434C615B1EF1E74B684A611F21CB4129
:10B09000016859400160F448B0BD0248B0BDC046E7
:10B0A0000000095008000045F0B597B0069314461B
:10B0B0000D460746F54800681690434A0026384674
:10B0C0003346FEF783F83B46D033997FE64A079232
:10B0D000002906D09E77442901D0E4480790079CB8
:10B0E00065E0069800941A68314696880A91E961ED
:10B0F000072E06D0294603F0DBF90446DA488442DD
:10B1000055D1761C281D0690284608300590284603
:10B110000C300490284610300390284614300290DA
:10B1200028461830019009970895761E35D00CA94D
:10B13000384601F057F80446EB4884422ED10BA85C
:10B140000A990170129821494018072837D82F46CC
:10B1500078440079400087440E320309070D050B3F
:10B16000069F08E0029F06E0049F04E0059F02E0BE
:10B17000019F00E0039F0CA80BAD294601F024F8C5
:10B18000044628780028124800D012483860E64863
:10B190008442099F089DC8D000E0E34C3846FEF782
:10B1A00078F80120C007009A1168014311601698D1
:10B1B000CF490968814205D1204617B0F0BDAB4C9C
:10B1C000099FEBE7FEF7BAFF01000111FFFFFFDF68
:10B1D000431257B74112049280B5014604484022F9
:10B1E00000F0ACF9F449884200D0F44880BDC04674
:10B1F00060FD831370B592B00546E7480068119072
:10B2000001A8FFF7E9FFED4CEB4EB04207D10198E2
:10B210004022294600F092F9B04200D1044611982C
:10B22000DD490968814202D1204612B070BDFEF7A7
:10B2300085FFC0460100A0F20C270050F0B5E7B032
:10B240000446D5480068669016AD13A8FFF794FC35
:10B250000746F648874200D0DEE06268139802286D
:10B2600002D1FC2A00D9D6E0D035216816AC0026E0
:10B2700020463346FEF7F4FB04212046089632466A
:10B28000FDF71CFF099528688188002900D1C2E0DC
:10B290007748001D0B900CA8024614320692024615
:10B2A0001032059202460C320492083007900029B1
:10B2B00000D1B9E00A9116AF05213846089C224614
:10B2C000FDF7FCFE0CAA38466B4D29466B4B9847A0
:10B2D000159414945CA8029014A801900120009089
:10B2E000644E721C38462346FEF720F814980D90E1
:10B2F000691C3846079A614EB047A91C3846049A23
:10B30000B047E91C3846059AB047032670025C49ED
:10B31000009101900294069803903846554A2346BE
:10B32000FEF72EFB0998807F002874D1139800281F
:10B3300023D05CA90E9848801298143008800D988C
:10B340005E900C985D900F985F901098609014221A
:10B350000B9D284600F0B2F9E44CA0420BD1129AA2
:10B3600011991435284600F0A9F9A04203D112988A
:10B370004519274645E0074643E05CAF1C213846A7
:10B38000FCF711FF0D990C983A4602F0FBFF0146BD
:10B39000883109D0354F1137002830D10D990C98DC
:10B3A00002F0D4FF00282AD15CAF14213846FCF704
:10B3B000FAFE0E98388033485D900F985F900D9894
:10B3C00062900C98619031031098014002D0B20253
:10B3D00081081140C54C01435E911199129A0CAB42
:10B3E000384602F0F7FF01468E3102D01F49113175
:10B3F00001E01E4927310028274600D00F46ED4CBA
:10B400000B9DA74208D10B9516A80521FDF7FAFE62
:10B410000A99491E4BE7154F6698E749096881422A
:10B420001FD1384667B0F0BD16AC04212046FDF7A9
:10B43000E9FE2046FDF737FF00280C4F0B9DEBD1AE
:10B44000139802280BD1104828185C905CA904229C
:10B45000074800F033F90746EA488742DCD1E94F54
:10B46000DAE7FEF76BFEC0460100A0F231000045AE
:10B470002E1200120500013001000130C1410030E0
:10B480000106000001010080CEEDFFED0C27005009
:10B4900080B588B013460A460146DB48006807902D
:10B4A00000200690059004900C4803900520C002EF
:10B4B00002900B4801900B480090684602F08AFF0A
:10B4C000002801D0094800E0E6480799E64A1268DA
:10B4D0008A4201D108B080BDFEF730FE09060006A1
:10B4E00000010080124100010100A0F2540000455B
:10B4F0000C27005010B5054A13689C00E40F047037
:10B50000002010605800C00F087010BD04044052A5
:10B51000B0B50346DD48002A05D010CB20C96540F0
:10B520002843521EF7E7B0BD0100A0F29208002A9E
:10B5300002D002C0521EFAE770470000FEB5154661
:10B540000F460646E94800680290CF4C2046314637
:10B550003A462B46FDF740F8184A002810D1A919A1
:10B5600001AA04232046FDF737F8002807D1019CE3
:10B57000384629463246FCF7C1FE844207D00F4ABE
:10B580000298DA490968814203D11046FEBDD64AC5
:10B59000F6E7FEF7D3FDC0460C27005080B51346F2
:10B5A0000A460146B848FDF717F8002801D00348BD
:10B5B00080BDCD4880BDC0460100A0F23D000045E1
:10B5C000F0B585B015460646C8480068049003915A
:10B5D0000291019100910F203040002700280BD0EC
:10B5E000112D09D310210F1A694630463A4600F052
:10B5F00065F8E54988420CD1BD420CD9EC1B102CF2
:10B6000000D31024B8196946224600F057F8E7190C
:10B61000EFE7674800E0DC48049ADC49096891429A
:10B6200001D105B0F0BDFEF789FDC0460100A0F2D2
:10B63000F0B585B015460E460746D448006804901C
:10B64000D0480290E14C2046394632462B46FCF762
:10B65000F7FF5749002801D00D4624E0304629461F
:10B660003A46FCF74BFE03902046EC1903AA04234C
:10B670002146FCF7E5FF002814D1019438463146F5
:10B680002A4603F08BFAE84DA8420BD102AA042304
:10B69000CE480199FCF7A0FF002803D10298039936
:10B6A000814200D0424D0498E0490968814202D1AC
:10B6B000284605B0F0BDFEF741FDC046F8B5154679
:10B6C0000E460746C148394632462B46FCF7B8FFBE
:10B6D000374C002808D1384631462A4603F05EFA36
:10B6E000D149884200D104462046F8BD0100A0F2AD
:10B6F000F0B585B017460C460646E1480068049050
:10B7000003922B48343802909E480190351DAF4873
:10B71000294622463B46FCF793FF002835D12846B0
:10B7200021463A4603F03AFABF4CA0422DD103AA73
:10B730000423A64D28463146FCF782FF002824D179
:10B740006A46042328463146FCF746FF00281CD1F0
:10B7500000980399814218D13D1D30462946324652
:10B76000FCF7CCFD0290AD19984E02AA0423304696
:10B770002946FCF765FF002807D101AA04233046BB
:10B780002946FCF729FF002808D0094C0498E6490F
:10B790000968814209D1204605B0F0BD019802999F
:10B7A0008142034EF2D03446F0E7FEF7C7FCC046B4
:10B7B0003C0000450100A0F20C270050F0B5ABB0F2
:10B7C0001D4600920E460746EE4800682A9004ACDB
:10B7D00098212046FCF7E7FC03960295019701A902
:10B7E0002046009A00F04EF98F49884200D08D48DB
:10B7F0002A99E44A12688A4201D12BB0F0BDFEF7C3
:10B800009DFCC0460100A0F20C270050FEB5154675
:10B810000F460646DB48006802906C4C20463146D5
:10B820003A462B46FCF758FF2E4A00280FD1A9199B
:10B8300001AA2046FCF784FF002807D1019C384666
:10B8400029463246FCF75AFD844207D0254A029821
:10B85000CC490968814203D11046FEBD724AF6E721
:10B86000FEF76CFC0100A0F20C27005080B51346D7
:10B870000A4601465548FCF72FFF002801D0194819
:10B8800080BD694880BDC046000020520100A0F282
:10B89000F0B5ABB01D4600920E460746F048006872
:10B8A0002A9004AC98212046FCF77DFC0396029573
:10B8B000019701A9204600F0BBF80A4DE54CA042D3
:10B8C00006D104A8009900F007F9A04200D105466E
:10B8D0002A98E3490968814202D128462BB0F0BD7D
:10B8E000FEF72CFC240000450100A0F20C270050BC
:10B8F000F0B585B0154602910746D9480068049016
:10B90000204803900820C643344630483946029AFE
:10B910002B46FCF71BFF002802D0641CF5D310E077
:10B92000029829463A46FCF7E9FC0446E8190190DA
:10B93000264801992246FCF755FF002803D0761CC3
:10B94000F6D3384D14E02646384602992A4603F0CD
:10B9500055F9344CF04DA84209D103AA1B4801996E
:10B96000FCF7EEFE002802D10398864200D025465F
:10B970000498EA490968814202D1284605B0F0BD21
:10B98000FEF7DCFBF7FFFFBA0100A0F20C27005026
:10B99000F8B515460E4607460820C4430B483946FD
:10B9A00032462B46FCF7D2FE002803D0641CF5D3A8
:10B9B0001C4909E0384631462A4603F01FF9F3498D
:10B9C0008842184900D101460846F8BD00002052BF
:10B9D000F0B5ABB01D4600920E460746ED48006834
:10B9E0002A9004AC98212046FCF7DDFB03960295D3
:10B9F000019701A9204600F01BF80A4DE34CA04234
:10BA000006D104A8009900F091F8A04200D10546A3
:10BA10002A98E0490968814202D128462BB0F0BD3E
:10BA2000FEF78CFB230000450100A0F20C2700501C
:10BA3000F0B587B00C460646D648006806904F48D9
:10BA400004904F4F0397386C05906D462846FFF7DA
:10BA5000B5F803A800F0B2FD7A6D30462146904754
:10BA600002F01EFB0446284600F0A8FD0698EB49AC
:10BA70000968814202D1204607B0F0BDFEF75EFBA7
:10BA80000C270050F0B589B001920D460746E348F7
:10BA90000068089039480690394C0594206C07904E
:10BAA00002AE3046FFF78AF805A800F087FD236E46
:10BAB00038462946019A984702F0F2FA0446304681
:10BAC00000F07CFD0898D5490968814202D12046E2
:10BAD00009B0F0BDFEF732FBF0B587B00C46064664
:10BAE000CE480068069025480490254F0397386C8F
:10BAF00005906D462846FFF761F803A800F05EFD4B
:10BB0000BA6D30462146904702F0CAFA04462846EC
:10BB100000F054FD0698F8490968814202D1204698
:10BB200007B0F0BDFEF70AFB0C270050F0B587B058
:10BB30000C460646F0480068069010480490104FE6
:10BB40000397386C05906D462846FFF737F803A831
:10BB500000F034FDFA6D30462146904702F0A0FA1D
:10BB60000446284600F02AFD0698E3490968814208
:10BB700002D1204607B0F0BDFEF7E0FA0080831343
:10BB8000009883130C270050F0B5FFB088B004462E
:10BB90000891D9480068869060AD47A9642228467C
:10BBA000FEF73CF905212846FEF765F9274809A963
:10BBB00041263246FFF72AFE254DCD49884239D12C
:10BBC0000394019609A80090234FBA1C60AE00248C
:10BBD00030462346FDF7F4FF0420019008A80090AA
:10BBE00030463A462346FDF7EBFF05213046FEF787
:10BBF0009AF806A93046FEF7F3F800281AD1079BF9
:10BC0000069A04A80290B42001901AA80090134844
:10BC1000002100F085F80546F54885420AD10498D0
:10BC20000599009001911F20020600230398FDF75B
:10BC3000C7FFEF4D8698FA490968814203D128462B
:10BC40007FB008B0F0BDFEF779FAC0468C04105002
:10BC5000320000450100A0F2010001120400FF7F44
:10BC60000C270050F0B5C9B01D4616460A460146DD
:10BC7000EB480068489002AF002438462346FDF7A1
:10BC8000EFFE042138462246FDF718FAEE20385C14
:10BC9000204C002807D04898F3490968814236D1E2
:10BCA000204649B0F0BDEE3702A80021FDF752FE54
:10BCB0003A78002AEFD1122250400843EBD14E9837
:10BCC000019002AF012138463246FDF753FA38465B
:10BCD000FDF7C8FA0526002238463146FDF7EEF991
:10BCE00038463146FDF78EFA38462946FDF7FAFA0E
:10BCF00038460199FDF7F6FA04213846FDF782FA35
:10BD00003846FDF7D0FA0028C5D1ED4CC3E7FEF761
:10BD100015FAC046310000450100A0F20C27005082
:10BD2000F0B593B01C4615460746E84800681290E7
:10BD300006AE30213046FCF736FA00210D910C9703
:10BD40000B9102200A9010910620C0430890172002
:10BD500005901A98049019980390189802900191F0
:10BD6000009130462A46234602F0AAFD0590059828
:10BD7000002801D0064800E0D1481299D34A126841
:10BD80008A4201D113B0F0BDFEF7D8F90100A0F24C
:10BD9000560000450C270050F0B585B014460D46FE
:10BDA0000146CA48006804900026039602961A4A83
:10BDB0000B98854225D81F460A9801902A46FCF721
:10BDC000CBF9002C0CD0002F0AD002AA204639460D
:10BDD000FFF75EFBBA4CA04212D1039E029A03E029
:10BDE000039602963246B64C0C980090019829466C
:10BDF0003346FEF78FFDA042074A02D1024600E01B
:10BE0000054A0498EF490968814202D1104605B0FD
:10BE1000F0BDFEF793F9C0463A0000450C270050EC
:10BE20004108084A0A40801A0749820808400A4027
:10BE30008018010940180549014005484843000E93
:10BE40007047C04655555555333333330F0F0F0FD9
:10BE50000101010170B5DCB00C460546F7480068E9
:10BE60005B9035AE03A9C8223046FDF7D7FF3046B8
:10BE7000FDF7F7FF0920420600233046FDF7AAFE32
:10BE80003046FDF7EEFF30462946FFF77DFEDA4EDD
:10BE9000B04223D135AD2846FDF73BFF2846FDF7DC
:10BEA00038FF01A92846FDF79BFF014611480029EC
:10BEB00001D02A3012E0E168029DA9420ED3A068A9
:10BEC0000199001D2A46FCF747F9A0680570290E64
:10BED000C170290C8170290A417030465B99D74A9C
:10BEE00012688A4201D15CB070BDFEF727F9C046E6
:10BEF0000100A0F2080000450C270050F0B5424FA9
:10BF0000BD440C460546CD48006841496944086077
:10BF100000F030F90BA800900FAA0DAB284621467F
:10BF2000FFF7A0FE0546B44FB84219D11620009085
:10BF300003208202384C6C4422A9364B6B442046C5
:10BF4000FEF782FB11AD2B4941222846FCF704F98C
:10BF500000950FA90DAA0BAB2046FEF71DFC054668
:10BF600000F0DCF8BD4235D12B486844224C0FAAC2
:10BF70000DAB2146FEF770FB0546B8422AD10E9A5A
:10BF80000AA82021009101901C48244B6B442146B3
:10BF900002F004FA002801D04A4D1BE018481F495E
:10BFA00069442022FFF744FB0546B84212D1154EE2
:10BFB00004A918223046FFF7C1FA0546B84209D154
:10BFC000606CA16C0991089004A918223046FFF713
:10BFD0002FFB05460E4868440068DE490968814227
:10BFE00003D12846094FBD44F0BDFEF7A7F8C0466F
:10BFF0000100A0F2387100300014001209000002A4
:10C0000070D382132FB0C2135CF0FFFFA40F0000A7
:10C01000A00F0000880C0000680F0000480F00000F
:10C020000C270050F8B5E549096803910C490091C7
:10C0300002A901AAFEF77CFDDF49884206D10199D9
:10C0400002986A460423FFF7C3FC00E00548039901
:10C05000DA4A12688A4201D104B080BDFEF76EF858
:10C06000431257B7230000450C27005010B5B8B055
:10C07000EF480068379027A8FFF7BCF8EB4CA042C8
:10C0800014D1369808A97C22FFF758FAA0420DD1A6
:10C09000089808A9091D6A46FEF726FAA04205D1AC
:10C0A000094869462022FFF7C3FA00E0054837999E
:10C0B000DF4A12688A4201D138B010BDFEF73EF85F
:10C0C0000100A0F23E00004561D482130C2700500D
:10C0D0000E490F480860BFF34F8FBFF36F8F0D4AB3
:10C0E0000D4B1360FF23F23312689A4307235B0260
:10C0F0009A4208D1BFF34F8FBFF36F8F0860096872
:10C10000814200D17047FEF701F8C046100121526C
:10C11000010000F000002952FEEDDFFE80B501DFD6
:10C1200002480168024800F005F880BD9C710030AB
:10C130007C710030B0B5BFF35F8F0D4A14680123E6
:10C140009C431460BFF34F8FBFF36F8F002906D05D
:10C1500010C8256895606468D460491EF6E7BFF38F
:10C160005F8F1360BFF34F8FBFF36F8FB0BDC046BB
:10C1700094ED00E080B562B6054801680548FFF718
:10C18000D9FF012080F31488BFF36F8F80BDC046B4
:10C19000C0710030A0710030BCB50C46E849096898
:10C1A00001916D4600212970294600F00DF829788B
:10C1B00021600199E24A12688A4200D1BCBDFDF7B4
:10C1C000BDFFC0460C2700500078152803D0142866
:10C1D00005D1002000E001200870D54870470748CD
:10C1E0007047C04680B5FDF738F9002801D00348F4
:10C1F00080BDCF4880BDC0460100A0F2310000459F
:10C2000010B592B01446CE4A1268119200230593DD
:10C21000049306AA029204AA0192012200920A46FD
:10C22000FDF708FC049820601198C549096881420F
:10C2300001D112B010BDFDF781FFC0460C270050A0
:10C24000F0B587B00446BE480068069030482060CC
:10C25000304F39680291304802684A40796803914A
:10C2600043684B409918BA68049283685340C918D0
:10C27000FA680592C0685040284DC1423BD102A8DF
:10C2800010213A46FCF73AF80646E94D2448864222
:10C2900001D126602FE0234801A90422FFF77EF98F
:10C2A000A84227D102A810213A46FCF727F80199A5
:10C2B00088421FD11C488642EBD01C48864222D0BF
:10C2C0001B488642E5D01B488642E2D01A48864287
:10C2D000DFD01A48864216D01948864213D0194832
:10C2E000864210D018488642D3D018488642D0D013
:10C2F00007482060094D0698CE490968814205D15A
:10C30000284607B0F0BD12482060F4E7FDF716FF9D
:10C310007F952A88000010502004405222000045DA
:10C320001A11A3F900FC8313BD14739CE4BFB5E09C
:10C33000C806D9F23E754BF412E841FDFD8C870228
:10C34000D1118D0B27621F0D7EC9D9710BDB731FB5
:10C3500014F7485D0C270050F0B589B001930092A6
:10C360000E460746B348006808902D4806902D4DAC
:10C370000595286C079002AC2046FEF71FFC05A827
:10C3800000F01CF92D6D38463146009A019BA847F4
:10C390000546204600F012F92348854201D0864820
:10C3A00000E0A3480899A34A12688A4201D109B063
:10C3B000F0BDFDF7C3FEC0460100A0F20C270050FF
:10C3C000F0B589B0019300920E460746EB4800682D
:10C3D000089013480690134D0595286C079002AC01
:10C3E0002046FEF7EBFB05A800F0E8F8ED6C3846B8
:10C3F0003146009A019BA8470546204600F0DEF82A
:10C400000948854201D06C4800E0DA480899DB4AC7
:10C4100012688A4201D109B0F0BDFDF78FFEC04617
:10C42000008083130098831302B0500D0100A0F226
:10C430000C270050FEB50C460546D0480068029017
:10C4400001A8FEF7FBFDE54988421ED16708019867
:10C450003946FBF7D6FE009428190A46BA4206D29E
:10C46000AB5CD643845DAC548355521CF6E7009810
:10C47000401E00228A4206D2AB5C2C5CAC542B548A
:10C48000401E521CF6E7D54800E04B48029AE249AC
:10C490000968914200D1FEBDFDF750FEF0B58BB0AA
:10C4A00014460D46DC4909680A91CC4F002812D089
:10C4B000204802A92022FFF7A9F9B8422FD1019400
:10C4C000344C226802A82F4E314600F0A3FCB8423B
:10C4D00021D12E4811E0194802A92022FFF72EF899
:10C4E000B8421CD101942A4C226802A8244E31463D
:10C4F00000F090FCB84211D1234834490E608860A6
:10C500002B48046020684860E368012228460199AE
:10C510009847384603E00848401C00E006480A995E
:10C52000BD4A12688A4201D10BB0F0BDFDF706FE8C
:10C530000100A0F2340410505C00004585D4821341
:10C540000C27005010B51346002801D00D4C00E018
:10C550000B4C1E4A1460002801D00C4C00E00A4C21
:10C560009460002801D00B4800E00948104C20607E
:10C5700004685460C468012208461946A04710BDEB
:10C5800000A08013000083130020801300E08213BA
:10C590000CA380130C03831380B505480068806FDB
:10C5A00080470449884201D0034880BD8B4880BD44
:10C5B00008880030CC3355AA080000450168034ABA
:10C5C000116041689160806850607047002300509E
:10C5D000F0B5A5B015460E4603908F48006824902C
:10C5E0008320C043029000270197BD4215D9EC1B60
:10C5F000802C00D3802404A930462246FFF736F968
:10C600007649884207D104A90398224601F0DCFE4E
:10C61000E7190028E9D0029800E00198249A7E49A1
:10C620000968914201D125B0F0BDFDF787FDC046F4
:10C630000100A0F20C270050F0B595B006920D460F
:10C640000646754800681490002707970596EE3651
:10C650006148049106998F4200D182E0142078430A
:10C660002C182858032842D8784400794000874481
:10C67000011A012600230993089362680AA8029010
:10C6800008A80190012000900598FDF7D3F93078B3
:10C69000002851492DD1099900294F4929D10899DC
:10C6A00007914E4925E0626807A80090002305988D
:10C6B000FCF7FEFD30780028484919D119E0002325
:10C6C0000B930A9362680AA8032149022A4D009538
:10C6D0000191029303900598FDF752F90B9807908A
:10C6E000307800283D4900D03B49049D01E0307876
:10C6F000394900223270442802D00028364815D12A
:10C7000036488142084611D12068032828D8C046FF
:10C7100078440079400087440F1A0101E1680798C6
:10C7200088421DD32169884203D919E0217A002962
:10C7300017D17F1C29488DE7207B0799C9B2904209
:10C740000ED023699B5C521C8B42F8D1F1E7207B11
:10C750000028EED00798411E8841617B8142E8D0D5
:10C760001D4814992C4A12688A4201D115B0F0BDB7
:10C77000FDF7E4FC0100A0F2010600000C270050C8
:10C78000F8B51D4616460C460746DB172A46FCF749
:10C790001DFDEE20385C00280FD0EE3700213970E7
:10C7A0000D4D442815D10834711C0C48491E0FD07A
:10C7B00022781434002AF9D00BE03846214632465C
:10C7C000FFF73AFF054605213846FCF71BFD00E060
:10C7D00005462846F8BDC046310000450100A0F2DC
:10C7E000FEB50020049003900B48006805900D20D2
:10C7F00000030290072040020190064801A9FDF7BE
:10C800009FFC0599044A12688A4201D106B080BD96
:10C81000FDF794FC3E754BF40C270050F0B5FFB0CB
:10C82000FFB0F9B0E3480068E34969440860E4A850
:10C8300060242146FBF7B7FC2FA820252946FBF7EB
:10C84000B2FC3BA82946FBF7AEFC5AA82946FBF7E9
:10C85000AAFCDA4868442146FBF7A5FC50A8FEF77D
:10C86000EDFBD74DD74CA04200D075E1D64ED74F47
:10C8700064AA042330463946FFF70AF81735A04268
:10C8800006D16498FFF7CCFA401C1E2800D86FE14F
:10C89000CC4FD049D0480860BFF34F8FBFF36F8FA4
:10C8A000CE4ACF4B1360FF23F23312689A4307231B
:10C8B0005B029A4200D079E1BFF34F8FBFF36F8FD5
:10C8C00008600968814200D070E1C64EBD4200D0C8
:10C8D00014E1E4A82FA9FDF727FDB84200D01AE122
:10C8E0003BA8FDF7C1FDB84200D014E13520C100DE
:10C8F00064AD2846FBF757FCBC49284601F05EFDB5
:10C900000024002815D164A82FA9202201F05CFD85
:10C9100000280ED164A83BA9202201F055FD002873
:10C9200007D164A85AA920221EAB01F041FD444260
:10C9300044415099E4A86022AB4FB84750992FA8C2
:10C9400020252A46B84750993BA82A46B847306860
:10C950000C2108433060306888433060002C00D1DF
:10C96000EEE0412000905AA82021CD4A6A441EAB37
:10C97000FEF722F89349884200D0E1E09C4DC84F71
:10C980006F446026284639463246FEF751FE04467B
:10C9900050995AA82022FEF7C9FD509938463246D0
:10C9A000FEF7C4FD8748844200D0D4E064351EA958
:10C9B0000446412728463A46FEF73AFEA04200D0F8
:10C9C000C9E03BA88BA12922FBF7C6FB2FA894A1A5
:10C9D0002F22FBF7C1FB9E4E1AA90A2530462A4694
:10C9E000FEF7ACFDA04200D0DDE030462F3010A9AC
:10C9F0001822FEF7A3FDA04200D0D4E015361DA9F1
:10CA000002223046FEF79AFDA04200D0CBE01B2068
:10CA10000201A34E6E440796E4A930460492FDF746
:10CA2000FDF9052108913046FDF725FA1AAE2FA928
:10CA300050AA06923046FDF7A1FF3BA946AA0592EF
:10CA40003046FDF79BFF0F971EA80E900D950C9694
:10CA500005980B9006980A907E48099009A9079EB0
:10CA60003046FDF787FD10AF5AAD384629467A4A61
:10CA700090477A4930462A46794B984738460830DD
:10CA80002946754A904777A130462A46744B984705
:10CA9000103738462946704A904776A130462A46D4
:10CAA0006F4B984779A13046FDF7A6F81DAA0221E1
:10CAB00030460B46FDF752F830460899FDF733F93A
:10CAC00018A93046FDF78CF900286CD1199B189AEB
:10CAD00016A8029004985030019064A800906E4807
:10CAE0000021FFF71DF9A0425DD1179A16996B48F6
:10CAF000FEF7FEFDA04256D125462DE05099E4A850
:10CB00006022FEF713FD30680C2108433060306866
:10CB10008843306020E05099E4A86022324FB84743
:10CB200050992FA820252A46B84750993BA82A4655
:10CB3000B84730680C210843306030688843306063
:10CB400050995AA82022FEF7F1FC509954486844A5
:10CB50006022FEF7EBFC1A4D524868440068D74942
:10CB60000968814224D128467FB07FB079B0F0BDFA
:10CB70000021C9438140C843649064AA042330461D
:10CB80003946FEF725FF0F4FB84200D081E6104826
:10CB9000E4A96022FEF73AFEB84201D1054678E6E4
:10CBA000074D173575E6064D0B3DD5E7FDF7B8FA8D
:10CBB000FDF7C4FA0C270050D8050000400500001E
:10CBC000400000450100A0F2B006105090D2821340
:10CBD0001000105010012152010000F000002952F5
:10CBE000FEEDDFFE54000050ED340030090000027D
:10CBF000A9D4821325303258253032582530325886
:10CC000025303258253032582530325825303258A8
:10CC10002530325825303258253032580000000077
:10CC20002530325825303258253032582530325888
:10CC30002530325825303258253032582530325878
:10CC400025303258253032585F414C49415300005D
:10CC500000B0C21338720030814E003024720030B0
:10CC6000ED1B003053455F5254535F5645525349B4
:10CC70004F4E0000455854454E4445445F424F4F87
:10CC8000545F56455253494F4E00000053494C499A
:10CC9000434F4E5F494400000400FF7FCBB9C213ED
:10CCA00040050000D8050000F0B5B1B014460D46AF
:10CCB0000646C4480068309020A8FEF79BFA994FBA
:10CCC000B8420FD12F9801A97C22FEF737FCB84259
:10CCD00008D1F00001A90818456084602F987C22D3
:10CCE000FEF7A6FC3099B74A12688A4201D131B0EA
:10CCF000F0BDFDF723FAC046F0B591B00546B14846
:10CD0000006810906846FDF789FB184C854FB842C3
:10CD100022D1174E08A920223046FEF70FFCB84258
:10CD20001AD1684608A90822FEF7F2FBB84213D1CF
:10CD300008A920223046FEF701FCB8420CD1684613
:10CD400008A90822FEF7E4FBB84205D16946202273
:10CD50002846FBF701FA3C4610989A490968814237
:10CD600002D1204611B0F0BDFDF7E8F95F000045A3
:10CD700070D38213F0B589B015460C469149096805
:10CD80000891694601F094FB1749884223D1174A5C
:10CD9000002C11D4002318A06D46072B0AD026467C
:10CDA000DE40F60702D02E68964213D02D1D001DDE
:10CDB0005B1CF2E708460EE000230D480D4E1C2BCD
:10CDC000E8D06F46FF58974202D1EF58B74202D0E1
:10CDD0001B1DF4E7006808997A4A12688A4201D15B
:10CDE00009B0F0BDFDF7AAF90100A0F2431257B750
:10CDF000510000454112049247000045490000459A
:10CE00004A0000454B0000454C0000454D000045E0
:10CE10004E000045F0B5F1B005466A4800687090D4
:10CE2000114F3C680AA80090104E02AB3046A04754
:10CE30000F4C00280ED17A680AA930469047002886
:10CE400008D102A808222946FEF762FB354988422C
:10CE500000D1044670985B490968814202D120469E
:10CE600071B0F0BDFDF76AF95C00001000000450DD
:10CE700008000045BCB55348006801900C480D49B6
:10CE80006A460423FEF704FD0B4C264DA84205D14B
:10CE90000098FEF7C5FF1D2800D82C460198494987
:10CEA0000968814201D12046BCBDFDF747F9C04663
:10CEB000B006105090D28213570000450C27005046
:10CEC0001CB50C4643780278418840680091019077
:10CED00002A1204601F0CAFE1CBDC04625752E25C4
:10CEE000752E25752E2575000346002010600C4810
:10CEF000022B08D0012B02D0002B02D0704701205A
:10CF0000106008487047022907D0012903D0002982
:10CF1000F4D10220F4E70320F2E70420F0E7C04652
:10CF2000310000450100A0F2F0B58BB01F46144659
:10CF30000D460646234800680A900020029203909E
:10CF4000009005A807A90A220223FCF7F9FE069A19
:10CF500005993046FDF78AF9002806D1002F04D044
:10CF6000304629462246FDF781F90A99154A12688A
:10CF70008A4201D10BB0F0BDFDF7E0F8F0B58BB0FF
:10CF800014460D4606460F4F38680A90002002925C
:10CF90000390009005A807A90A220223FCF7D0FEFF
:10CFA000069A0599304601F0D5FA304629462246C0
:10CFB00001F0D0FA38680A99884201D10BB0F0BD6F
:10CFC000FDF7BCF80C270050B0B54B78022B13D1FD
:10CFD0008A69CB69022454401C431ED00368083B75
:10CFE0000B229C68DD6825430833521E002DF8D1C2
:10CFF000002A0ED1482215E04822072B10D10368E1
:10D0000050330B24641E9D680833002DFAD1002C88
:10D0100008D08A691A60C969596000210A4602E08D
:10D020000A2100E01A2141601046B0BD70B5EF4EF4
:10D03000B544EF4868442490EE4868441E90EE489A
:10D0400068441F90ED4868441C90ED486844219066
:10D05000EC4868442090EC4C6C44EC4868442290C6
:10D06000EB4868442390EB4F6F44EB483221EB4A86
:10D0700002604160EA4E30460F30EA49086027A856
:10D0800026A9FEF737FAE84880680025C570857044
:10D0900045700570D84868441D90DC486844259068
:10D0A000D34868441B90E1486844FFF7C9F8034639
:10D0B000B04201D000F012FFDD4B6068DD498842CC
:10D0C00002D0DD49884239D1CF486844FDF754FD8C
:10D0D0000346D348834201D000F000FF6068D54981
:10D0E0008842264619D1D54CCA49694404222046B3
:10D0F000FEF754FACA49884223D13868002824D060
:10D10000021D3A600120400282421ED828A9204612
:10D11000FEF714FAC249884217D1306809214A0241
:10D12000BC496944FFF7BAF90346BD48834201D0C0
:10D1300000F0D4FE01201A90189516E00D3300F08F
:10D14000CDFEBB4B1A3300F0C9FE0920420200207D
:10D15000B04969441A90FFF7A1F9034601201890DD
:10D16000AF48834201D000F0B9FE25988430259065
:10D17000FFF700F819967668AB48006801784278A6
:10D1800012025118827812048918C27812068A187D
:10D19000011DAB4F6F44002438462346FCF760FC6A
:10D1A0003846FCF70DF81120020638462346FCF7F6
:10D1B0000DF83A46EE27D05D9D490E31002802D089
:10D1C0000F46974EE6E3159114961794EE32169299
:10D1D0009C48684400909C48021D9948684400247B
:10D1E0002346FCF793F81699087800288C4E5DD0FA
:10D1F0000C70442800D0ACE0239804609348684445
:10D2000000909148821C8E48684400263346FCF703
:10D210007DF8169908780028179C00D19EE00E70C2
:10D2200044281E9600D0D2E0259C267622980660DF
:10D230008748684400901F200206814868443346AE
:10D24000FCF764F8169A183410780028744E00D150
:10D2500024E100211170442800D0F7E21294179CB9
:10D26000774868446249694401F04AF8B04200D006
:10D270008FE3734C6C442046FCF710F82046FCF713
:10D280000DF82046FCF70FF8002800D07AE36A4931
:10D290001498884201D000F0F6FD23980068002819
:10D2A00001D100F0F0FD624F2D376CE31397674E0C
:10D2B0006E446849412430462246FAF74DFF219FCB
:10D2C0007869B9694E4A6A440292012212921202A6
:10D2D000F432019228AA00923246514E2346FEF7BC
:10D2E0005BFD0146B04236D106CF434C6C4400236F
:10D2F0002046FCF7B5FB2046FBF762FF56A107224C
:10D300003B4B6B442046FCF75DF8139FE05D002823
:10D3100062D0EE343848684453A10722344B6B4442
:10D32000FCF750F82078002800D02BE31E98006806
:10D330004FA10A221190FAF755FF002800D1D7E239
:10D340004EA10B221198FAF74DFF002800D019E3E7
:10D35000D0E237490E31179C0F461BE313964A481B
:10D360005830254969444122FEF750FA2C4EB0420C
:10D3700030D12099086949691D4A6A44029228AA55
:10D38000009201221202F43201921B4A6A444123A4
:10D39000FEF702FDB0421DD125490E313B486844DD
:10D3A0000068042800D00BE72498006803784278CE
:10D3B0001202D31882781204C07800068018C018B0
:10D3C0001E90401E0F28139E00D3F9E62CE7184943
:10D3D0000E31F5E60146F3E61E9800682CA10822FE
:10D3E000FAF700FF002894D0CCE2C046E0CCFFFF63
:10D3F0009032000098320000503100008C31000063
:10D4000000310000C02F0000982E0000F82D000011
:10D41000702D0000701B00000088003050C3000019
:10D420000100A0F20C044052F0FF00309C2E0000DE
:10D43000230000450BDB731F3E754BF4CBB9C213C1
:10D44000A02E00001431000003000111D02F0000B5
:10D45000C82F0000F470003054454D504C415445E5
:10D460005F545950450000005459504500000000D9
:10D4700050524F44554354494F4E00004445564581
:10D480004C4F504D454E54007C04105094320000D7
:10D490004F454D5F434552540000000012942398BD
:10D4A00000680028179C09D1EA486844011D412200
:10D4B0001498FDF783FDB04200D06AE22099886895
:10D4C000C968E54A6A440292E44A019228AA009295
:10D4D000E04A6A44121D4123FEF75EFCB04200D0D0
:10D4E00057E21397432080001D9908180B904B209A
:10D4F000800008180C9008462030059008464430FB
:10D50000069008466C30079008468C300890084614
:10D51000AC3009900846CC300D90EC311D911B9F2A
:10D520003C4620343E4644366C37CD4A6A44126845
:10D5300020980168CB4868440E9000231193FCF7B3
:10D540008FFA0E98FBF73CFE23980368591E8B4117
:10D55000C54868440A90037701210F910A0210928E
:10D56000828103722280A2822374B2803370249855
:10D57000C1630165BD4C12C0A21CC1600261E21C06
:10D5800001624262221D8263621DC264109931836E
:10D590003375B9803B7039830E463B75B44A6A4493
:10D5A000119911700F995170022716979770A71D46
:10D5B000C1650766E41D01674467AE4C6C440320F7
:10D5C0001B90207323722377059C2070A6822374FE
:10D5D000A94F219C1198206567657F1C22666066B3
:10D5E000A766A64A6A44169F977051701070A248A9
:10D5F000871C6267A167E7670446C21CA0486844AD
:10D6000002601C9F39603046069A96801370261D72
:10D610007961BE6110831375621DB962FA62079A5F
:10D6200090801370A61DF9630C463E641083137539
:10D6300008991B9808730B729248119F0F604860FD
:10D64000914A6A44169E96702046547017700B7764
:10D650008C4C641C0A614F618C6109991B9A0A7099
:10D660008A4A6A44967050701770CF61109C8C8201
:10D670000B74844CA41C1C944A6088601C98C8607D
:10D680000D990E720B717F4CE21C0A60804A6A444D
:10D690001B9E567017700820099008770B76201D86
:10D6A000CA600F6148617B48684407211C91C171C1
:10D6B00006210891817105210791417104210D9185
:10D6C0000171C670169C84700F99417007701D9986
:10D6D000099A0A740B736B4A561D81C10E60083992
:10D6E0000A466D4868441C9EC67108998171079965
:10D6F00041710D9901711B99C17084700F9C447028
:10D700000770604EB61D50619761D6610B9E0D98F3
:10D710003071337061486844C170169981704470EB
:10D720000770109931833375564AD21DB060F4608A
:10D7300032610C9A918113725949146051605948B1
:10D7400068440372F82021990F624862564EF01C1B
:10D750001B9A4A618861554C5548684455A1142765
:10D760003A46FAF7F9FC5848684458A13A46FAF79D
:10D77000F3FC0E980A991C9A3346FFF701F8A04271
:10D7800000D002E1731C374868443A4969441027C5
:10D790003A46FEF7F5FFA04200D0F6E03148684473
:10D7A000404969440122FEF747FFA04200D0ECE067
:10D7B0002C4868443E4969440122FEF73DFFA042DF
:10D7C00000D0E2E0274868443F4969440122FEF75F
:10D7D00033FFA04200D0D8E0414A6A441146643188
:10D7E000204868441D91149BFDF75EFC3D490E31B5
:10D7F0002191A04201D000F024FC394A6A44111D55
:10D8000018486844FDF7E4F92849884201D000F03F
:10D8100018FC3548684400903448C21D114C6C44D3
:10D820002046119E3346FBF743FD1399605C1C9420
:10D830006654002800D178E3442801D000F001FCB0
:10D8400023980068002800D0FBE373E325480E30DE
:10D850009EE0C046702D0000C02F0000D01A0000CE
:10D86000C42F0000D02F00009032000001000020E3
:10D870004C3100005031000001000021483100000F
:10D8800090310000010002214431000040310000CD
:10D890003C310000343100002C3100002831000000
:10D8A0000100032114310000010001110100A0F268
:10D8B000003100000300000003000111000000001F
:10D8C00000000000000C0000EC300000030000002D
:10D8D000080001110000000000000000F813000023
:10D8E000F82D000023000045BC2F000003000111AB
:10D8F00002201290239812990160F6486844129011
:10D90000FCF70EF9F4A10622F74B6B441298FBF7D3
:10D9100059FD2078002835D11E984068412831D122
:10D920001E980168F1486844001D4122FAF714FC72
:10D930002398006802281AD1E64868441290FCF740
:10D94000EFF8EBA10622E84B6B441298FBF73AFD87
:10D950002078002816D11E984068412812D1E3484B
:10D96000684445301E9909684122FAF7F5FBD94C05
:10D970006C442046FBF792FC2046FBF794FC002801
:10D9800000D13BE4159F179C04E0DD480E3026468D
:10D99000179C0746FEF7C2FBB7423B4600D09DE20C
:10D9A0002498416800297AD024980068FEF7A6FAE6
:10D9B0000346D448834200D090E21A9800286ED0E3
:10D9C00017941998076805208002CF4969440860B8
:10D9D000CE48CF496944086001200602CD4868441A
:10D9E0000660CD48CD49694408602F200003CC492A
:10D9F00069440860CB481F9C2060CB48CB496944F0
:10DA00000C22FDF703FF0346BE48834200D065E2C7
:10DA10004F208005A061002F00D12026E6622098CB
:10DA200040690006800BE0610926002F01D0C04844
:10DA300000E07006A062BF4800683F218902091A11
:10DA40006162BD49401845302062179A1746083771
:10DA5000382F0DD09F496944885889184A68002199
:10DA6000FDF7AEFD0346A74883423A46EFD035E2C4
:10DA70000B20A6490022FFF717F90346A14FB84231
:10DA800000D02BE2FEF788FD0346B842199800D07B
:10DA900024E272020068A9496944FEF753FD1E9F03
:10DAA000002F984E0DD0A6A4002F0AD0F80705D05D
:10DAB0002068FEF7B7FAB04200D0E1E0241D7F08ED
:10DAC000F2E72598007E002807D00120FEF7AAFA89
:10DAD00003468C48834200D000E21A9B23980068DA
