:020000041006E4
:1000000000C002084B9B06100D000000A99B0610C3
:1000100000000000000000000000000000000000E0
:10002000000000000000000000000000A59B06107A
:100030000000000000000000A59B0610A59B061014
:10004000A59B0610A59B0610A59B0610A59B061058
:10005000A59B0610A59B0610A59B0610A59B061048
:10006000A59B0610A59B0610A59B0610A59B061038
:10007000A59B0610A59B0610A59B0610A59B061028
:1000800010B5064C2378002B07D1054B002B02D06E
:10009000044800E000BF0123237010BDB8A600088B
:1000A0000000000030C70610044B10B5002B03D031
:1000B0000349044800E000BF10BDC0460000000036
:1000C000BCA6000830C70610F7B5684D2B68403352
:1000D0001B78002B00D101BEE02201206449920070
:1000E0008B589B069B0F98402B68019040331B78E0
:1000F000002B00D101BE0F238A5813402A683E32DC
:100100001278934200D301BE2A683E32127893429D
:1001100000D301BE2A683E321278934200D301BE5A
:10012000534A9C00A418D02207209200A2580240F3
:10013000042A07D1C0229200A25818301040802211
:10014000520002438820400082425ED005D8002A37
:100150000DD0022A50D000260AE01220FF30824241
:1001600058D01420FF308242F5D1424A4EE0424E30
:10017000002B57D1B0248020E4000A594004970393
:10018000024094463D4A3E4D885804328A584D59A3
:100190000C59C004BF0BC00C1900002C04DA9100EC
:1001A000890F02394C1EA1416246531E9A41013209
:1001B00000291AD0002818D0002A16D000231900D0
:1001C0000AF06EFE00230C0005003A003000190012
:1001D0000AF066FEE6076A08324363088018594150
:1001E0002A0023000AF03CFE0600019B58088019F3
:1001F00019000AF0A9FDFEBDA620C0000A5800267D
:10020000D2439207B4D00A58B2E71E4A8E58F60F6E
:10021000F603ADE704201C4A16690640A8D08026E4
:100220003602A5E72A683F3212789342DDD8013BB7
:10023000164D9A4213D97F271F226159080A0B0CC9
:100240000F4089001040890F1A40002364599C42D6
:1002500003DA02390B00591E8B411900A8E701BED1
:1002600000210A0008000F00EFE7C046D8A60008EA
:10027000000026403C05000000127A0084050000C2
:100280008C0500000C05000000002740FC05000064
:10029000074B9B68DB681A68002A06D05B68186801
:1002A00001231840034BC01870470348FCE7C046C1
:1002B000D8A600080001880004018A00437802786B
:1002C0001B021A438378C0781B04134300061843AB
:1002D0007047104B30B51B681A001800753214783F
:1002E0007630013A0078127899687733824018782E
:1002F00003231D008540280010438022120602437C
:1003000001200340A34013438022D2008B500020E1
:100310008B5830BDD8A60008084B00201B681A0077
:10032000996801237532127893401A008023DB0507
:1003300013438022D2008B507047C046D8A60008D5
:10034000F7B500258C79C0B20134E40001942F0088
:1003500008248446085D84450BD10E19F079FF28E6
:1003600007D17078B84204D3B678012E01D10700C6
:100370002500019808348442ECD9002D0BD049198E
:100380000879907048795070887910700020CA7888
:1003900092001A60FEBD0148FCE7C0468000B20032
:1003A000074A136833331B78834200D801BE1368B1
:1003B0001A00BA3212881B6A5043C0187047C046F0
:1003C000D8A6000870B504000020FFF7E9FF144B21
:1003D00014491B68BC331A68002382180568002D75
:1003E00006DB8B4202D18420404270BD0133F5E729
:1003F0008B42F8D00123C460836000230A4910684F
:10040000002803DA8B42EED00133F8E78B42EAD0C2
:10041000A0222368120600209342E6D01800E4E7E9
:10042000D8A60008983A0000009435771FB5084B0D
:10043000002402936B4602A8039301AB019400933E
:10044000FFF7C0FFA04200D00194019804B010BD96
:10045000001B0035002803D00378013B1F2B00D977
:1004600070470130F6E7002210B504001000A15CCF
:100470000B00303B092B09D830380818531C032ACD
:1004800003D000011A00042BF1D110BD0B00413B39
:10049000052B01D83738F0E70B00613B052B01D85D
:1004A0005738EAE70020F0E7F0B50B7885B0039005
:1004B00017004D1C222B17D0116000202AE05C2A67
:1004C00007D1019A5278002AF7D0019A01330132FC
:1004D0000192019A01320192019A1278222A00D1E6
:1004E000A7E0002AEBD1E8E701950023F4E72B7899
:1004F0005C2B11D0237001350134019B9D42F6D352
:100500000023039A23700833D36013000198029AE2
:1005100001301A6105B0F0BD6B78662B63D014D83A
:100520002F2B61D007D8222B5ED0484B3D605B68F3
:1005300002989847C1E75C2B56D0622BF5D108236F
:1005400023700134063BED18D7E7722B50D006D844
:100550006E2BEAD10A2323700134083BF3E7742B96
:1005600048D0752BE1D1019B5B1B052BDDDDA81C61
:10057000FFF779FF364B374AC31806009342D4D9A8
:100580000028D2D0344B334AC318934234D8019A4E
:10059000AB1DD31A052BC8DDAB795C2BC5D1EB792C
:1005A000752BC2D128000830FFF75DFF284B294A80
:1005B000C3189342B9D8294BB6021E408023800548
:1005C000800D5B020643F6180C23254A96421FD97C
:1005D000244A9642A9D83F203040802676420643DE
:1005E000E670042212E00C23237001340223AAE7F0
:1005F0000D23F9E70923F7E77F2804D91A4B98421E
:100600000ED90623E1E7062301222070A4189AE7F9
:100610003F203040802676420643A6700322F5E74D
:100620003F20802306405B421E43667086330222D1
:10063000ECE7019A501AC01A044B04301B68984723
:100640000290041E00D058E737E7C04680A000089B
:100650000024FFFFFF0300000028FFFF00FC0F0045
:10066000FFFF0000FFFF1000FF070000F8B5802625
:1006700004007600002C00D1F8BDE36827683342FF
:1006800004D1A068002801D0FFF7F0FFE3680B4D0C
:10069000334204D12069002801D06B68984780223A
:1006A000E3689200134204D1206A002801D06B68ED
:1006B000984720006B6898473C00DBE780A0000863
:1006C00070B5056804000020FFF76AFE0023164994
:1006D0000268002A05DB8B4201D1FF2070BD013387
:1006E000F6E78B42F9D0012223002A4000D023688C
:1006F0000E4C2468BC342468C3600123836000234B
:1007000005192D68002D03DA8B42E6D00133F7E797
:100710008B42E2D0C068002A00D10068A0231B06EB
:100720009842DBD10020D9E7983A0000D8A600080B
:10073000002210B5094B86B00193039003AB04006F
:1007400001A8029304920591FFF7BAFF4342584172
:1007500040420440200006B010BDC04600220035D3
:10076000034B1B68BC331B68C0180068C00F704780
:10077000D8A60008DC23F0B5002487B09B050493BD
:1007800004AE02AB73600290200003940191170045
:10079000FFF706FE05002300144C2A68002A07DB39
:1007A000A34203D10120404207B0F0BD0133F4E77A
:1007B000A342F7D00123EE600026AB602800FFF7CC
:1007C000CFFF002803D0A642ECD00136F6E7A642C0
:1007D000E8D0A023049A1B069A4201D00498E3E7CC
:1007E000029B019A3B60039B1360DDE7983A00008F
:1007F00070B5FFF769FC002822D0124B1B681A0065
:10080000883212681B689B1819681C68090E013130
:10081000240A0AF099FAE1B201310AF095FA451E6C
:10082000094928000AF090FAFA21084C0130207298
:10083000890028000AF088FA0130E060C0032061D6
:1008400070BDC046D8A6000840420F0080A0000836
:10085000C0228020064952008B58C0059B009B088F
:1008600003438B50802388581B0603438B507047EB
:1008700000002640174A30B513681C002C34247839
:100880001F2C16D8820807241500A5432C1E0FD153
:1008900003342040A04081401B68920020339B1805
:1008A0000A00FF2181401C686240114061401960CC
:1008B00030BD9B8F8B4200D101BE13681A6807239D
:1008C000184080231B06184380239B01C918890008
:1008D0008850EDE7D8A600080A4B10B51B681A002F
:1008E0002C3212781F2A03D8998FFFF7C3FF10BD4F
:1008F00080221B688900C91812028B585B005B08B4
:100900008B50F4E7D8A60008F8B5436805000C0042
:10091000032B00D901BE0023E85E00282CDB698888
:10092000FFF7A8FF0020FF27032639000023EA5E17
:100930006D6893B21E40F600B140AD013D40C94321
:10094000B540002A1ADB134E93089B009B19C02662
:10095000B6009F5939400D439D510F490F4B8D688B
:100960009D4208D189688B4205D1002C00D101BE7F
:10097000103292009C50F8BD0948D4E70F2633404E
:10098000083B054E9B089B009B19DE6931400D43D7
:10099000DD61E2E700E100E000ED00E000A000081A
:1009A0000100560010B5FFF78FFB074B1B681A00BC
:1009B000883212681B689B181968090E01314B08B0
:1009C00018180AF0C1F910BDD8A6000810B5FFF735
:1009D000E9FF084B1B681A00883212681B689B18D5
:1009E0001968090AC9B201314B0818180AF0ACF9A4
:1009F00010BDC046D8A60008F0B58C46002800D12E
:100A000001BE83695868904219D91D6D002D03D02D
:100A10000020DF6C874201D10A480DE08300EC58CA
:100A20002668B24209D3E36861684B439B199A4236
:100A300003D2634600201C60F0BD0130EAE70248A3
:100A4000FAE7C0460600B2000400B20000290CD04C
:100A50000722436C1340032B09D8C023013989B204
:100A60001B0319430165002070470248FCE7024858
:100A7000FAE7C0460400B2000100B200F7B5020078
:100A8000C4324C690D00CB68019211680F220A40F4
:100A9000A24200D9220007000100D437D8310097C4
:100AA000002A12D1EB606C61002C0CD1F9220221DA
:100AB000D20083588B4383500320A8612B6A002BFC
:100AC00001D02B6A98476C61F7BD082A19D10E68CE
:100AD000370A1E705F70370C360E9F70DE700E681E
:100AE000370A1E715F71370C360E9F71DE710F264B
:100AF0009B18A41A019A12683240A242D0D922004F
:100B0000CEE7012A04D10600D03636681E70EEE723
:100B1000022A05D1009E36681E70360A5E70E6E72E
:100B2000032A09D1009E36681E70360A5E700600E0
:100B3000D03636689E70DAE7042A08D10E68370A84
:100B40001E705F70370C360E9F70DE70CFE7052A7F
:100B50000CD10E68370A1E705F70370C360EDE70CF
:100B600006009F70D03636681E71C0E7062A0DD188
:100B70000E68370A1E705F70370C360EDE70009EEE
:100B80009F7036681E71360A5E71B0E7072A11D170
:100B90000E68370A1E705F70370C360EDE70009ECE
:100BA0009F7036681E71360A5E710600D036366850
:100BB0009E719CE70A68160A1A705E70160C120E77
:100BC0009E70DA700A68160A1A715E71160C120E9F
:100BD000DA719E7108228AE7F0B58B6885B00193BF
:100BE000030008330D680393DC6F0F231C40073BA1
:100BF0001C1B019B00900F009C4200D91C00009B15
:100C0000009E943398360293002C14D1019B3D60D2
:100C1000BB60002B0DD1F9220120009BD2009B5814
:100C2000009983438B50B861FB69002B01D0FB69AD
:100C3000984705B0F0BD082C16D12800FFF73EFB01
:100C40003060281DFFF73AFB3060019B2D191B1BFC
:100C50000193039BDC6F0F231C40073B1C1B019B74
:100C60009C42D1D91C00CFE7012C04D12A78009BEB
:100C700090331A60E9E7022C06D12A786B781B02C0
:100C80001343029A1360E0E7032C07D16B782A78AC
:100C90001B021343029A1360AA78E8E72800FFF7C3
:100CA0000DFB042CD0D03060052C01D12A79DEE771
:100CB000062C02D12A796B79E1E7072C07D16B79F1
:100CC0002A791B021343029A1360AA79CFE7281DE1
:100CD000FFF7F4FA08243060B7E7F0B5490085B0B3
:100CE000019199000C230AAC19402478093B1A4061
:100CF0000A436142614100261F2709010A4303900C
:100D00000292019D9900CD400F2200241540039AC4
:100D100051180A680120054205D03800A0408243DE
:100D20000298A040024308346D08202CF2D10A60DA
:100D30005C1E002B07D10B685A401F239A4309D130
:100D4000300005B0F0BD0B68934205D12300621C52
:100D5000D7D1F5E7014EF3E7004EF7E70300C200F5
:100D600010B5002800D101BE4B89DB0B00D001BEBD
:100D700002238A799A43012A00D001BECA799A4394
:100D8000012A00D001BE4A897F2314009C4322D14E
:100D900007248B795202234013434A7A3134920755
:100DA0001343CA79097AD2002240134301224A40F0
:100DB000920113431A0009490A409A420BD1426238
:100DC000406A0840801A43425841054B404218404F
:100DD000044BC01810BD0448FCE7C046DBFEFFE032
:100DE000FDFF3DFF0300C2000100C200F8B51E4D2B
:100DF00017002A690E00002A00D101BE2C24FF2111
:100E0000444318002A69084014191A0A0A401B0CA6
:100E1000A36020606260FFF7C3FA2B68206134335F
:100E200061681B78994200D301BE0F4B1B681A6A98
:100E30000B0080335B01D3186361A368180C01D0E9
:100E400001BE01BE49011B0452180849180C034396
:100E5000521813600023A361069BE7612662002BF2
:100E600001D01B88A381F8BDD8A600080810000097
:100E700070B504000D00FFF773FC002802D00020BD
:100E8000656070BD0048FCE701008A00F8B5264B9C
:100E90001A69002A00D101BE1C69002C00D101BED4
:100EA0002369002B00D101BE6369002B00D101BE74
:100EB000236A002B00D101BE6269D5682B0C1ED0BD
:100EC0001B04136020691368FFF74AFC002816D042
:100ED00027693800FFF744FC061E0CD0F868E26969
:100EE00003681E0CDBB2934205D2226A9B009B581A
:100EF000002B00D0984731002069FFF7B9FFADB251
:100F0000002D09D063691D6000251B68636AAB4230
:100F100005D098476562A56163691B68F8BDA36A3F
:100F2000002BF8D09847F6E7D8A6000810B5072997
:100F300000D901BE1F2314009C4300D001BE0E4BFC
:100F40001B689C695B69001BC0090001C0181F2356
:100F50001A40032907D8C9008B408A4004689C4383
:100F60002243026010BD0439C9008B408A404468A6
:100F70009C4322434260F5E7D8A60008F0B506007E
:100F800085B00D001400002800D1F2E0072900D937
:100F900001BE2368012B00D901BE0F2362689A436A
:100FA00000D001BE1F22237A934300D001BEE36824
:100FB000032B00D901BE2369012B00D901BE63694F
:100FC000012B00D901BE236A012B00D901BE636A3F
:100FD000012B00D901BEA36A012B00D901BEE36A2F
:100FE000032B00D901BE236B072B00D901BEE36997
:100FF000032B00D901BEA369012B00D901BE012337
:101000001A00AA405C4F01926A0002921032944684
:101010003A68E16983321078801902680292A26905
:101020001340AB4003220393634611409940039B56
:101030000B4361468A4001990A43029991430B434D
:1010400003606368072D00D901BE0F221900914388
:1010500000D001BE0F20AA0002923A680700813238
:1010600012780340B2181168A8008C46A9008F407E
:1010700061468340B9430B431360227A2900300054
:10108000FFF754FFE368082D00D901BE032B00D9F8
:1010900001BE0320384A07001268034080321278EC
:1010A0006800B218116883408C4669008F40614621
:1010B000B9430B4313602369082D00D901BE012BEE
:1010C00000D901BE0199B269CF4301210B40AB4069
:1010D0003A401343B3616269072D00D901BE012A6A
:1010E00000D901BE244B19680B0082331878843173
:1010F00030180368029301231A40AA409C46029BC1
:101100001F401743022207600427636A09785B00C7
:101110001340A26A711892003A4067461343226A4C
:1011200008681740E26A3B43D70018223A40FF277D
:101130001A43236BB8435B013B401343FE229C469A
:101140009200AB0013401A006346934018430860B6
:101150002068072D00D901BE012804D901BE019BDA
:101160000020B36003E00028F9D1019B736005B053
:10117000F0BD0248FBE7C046D8A6000801005A00AF
:1011800010B50020FFF70CF9FFF7EAFA002844D168
:10119000234A244953698B420FD010D8402B36D0B4
:1011A00005D8002B37D0102B2FD01F481FE0802BE5
:1011B0002FD0802149008B42F7D11A4817E01B49F4
:1011C0008B421CD009D8A02109068B4223D0184994
:1011D000A0208B42E9D1C00309E016498B4210D010
:1011E00015498B420FD015498B42DED11448136844
:1011F00001225B689A609A68002AFCD110BDA42085
:10120000E9E71048F3E71048F1E71048EFE7104826
:10121000EDE71048EBE70020E9E70D48EEE7C046B0
:10122000D8A6000806005200FF005200010000F09E
:10123000090000A0040000F0050000F0030000F029
:101240000100520002005200030052000100500051
:101250000200500005005200024B80005B6A5B6890
:10126000C0587047D8A60008034A5369591C01DAD0
:10127000013B53617047C04680A0000810B5144C74
:1012800063695A1C23D0002B1ED12000114918304D
:10129000FFF73AFB1822A35E002B06DB1F22134048
:1012A0001E3A9A4013000C4A136000220B4B9A62BC
:1012B000DA621A639A635A63DA631A648023084A0B
:1012C0001B0611680B43136063690133636110BD32
:1012D00080A00008E512061000E100E0D8A6000892
:1012E0000000424070B501251B4C1C4BE3582B42BB
:1012F00009D01B4920002831FFF76EFCF823DB00E2
:10130000E550E35870BD02252B4205D0144920005A
:101310002831FFF7B3FBF1E70422134206D0052181
:101320000F4B1964F823DB00E250EAE7082213426E
:1013300002D00B4B0621F4E710210B4206D0072206
:10134000074B1A64F823DB00E150DAE720210B4257
:10135000D8D0034BF5E7C04600004240CC07000060
:10136000D8A6000810B5002804D043787F2B01D9F7
:10137000FFF77AFF10BD10B50B4B34331A68002A03
:1013800002D10124644205E0147804338442F5D18B
:1013900000240A600B68002B04D05B787F2B01D9F6
:1013A000FFF76CFF200010BDF0B1061002230028EB
:1013B00003D00433012800D0F93318007047F7B583
:1013C000294E05003300FF335F7E0123002F03D039
:1013D000FE33012F00D1FA3BAB420FD158207843A6
:1013E00033185B6A28300193204B361834331F685A
:1013F000002F10D1012464422000FEBD3800FFF709
:10140000D5FF01248542F7D15820784333181B6D4E
:1014100054300193E8E73A7804339542E7D17B787A
:10142000BC687E2B02D98025AD0001E00024012597
:1014300028190138290009F087FC0300C02080002A
:10144000834200D96D0000237968019A002C03D1F2
:101450008342CFD83360CFE7116055604919641BD0
:1014600001330832F2E7C046D8F30108F0B10610A4
:1014700010B5020001290DD00320022909D004383B
:10148000002906D10120002A03D00430012A00D00F
:10149000FA3010BDFFF78AFFFBE70378042219003A
:1014A00000209143012905D00130022B02D0062BE8
:1014B00000D002387047037800205A1E012A05D94F
:1014C0000130052B02D0062B00D00238704770B5D2
:1014D00004000800FFF7EFFF00282ADB642319004F
:1014E0004143154A5118CD6B096CA54202D84919E0
:1014F000A14208D858431018426C836CD318944208
:1015000017D39C4215D2F0230C4A1B06E318002087
:1015100093420DD90A4B9C420BD9C022094B52056C
:101520005B6A1B689B695B689B189C424041404218
:1015300070BD0120FBE7C04688EF0108FFFF0500F2
:10154000FFFFFF1780A0000810B5FFF781F9E02327
:101550000121044ADB00D058084201D0D150D358B1
:1015600010BDC04600002640F0B5802582248026AC
:1015700040272D01A400094B1A68944661463200A9
:10158000294200D13A001B59DB05DB0D9342F2D012
:101590009023024A9B00D050F0BDC0460000654039
:1015A00010B504002422002108F04FFB200010BDDC
:1015B00070B590B007AE050030000C00FFF7F0FFEB
:1015C00080230D4A9B005232039210220A930B4B48
:1015D0001C340B930A4B01A807930A4B0496019302
:1015E00003AB029305940692FEF7ECFE002801D1AE
:1015F00001232B7610B070BDD8A600080100C004EE
:10160000002480000009003510B50A780478012311
:1016100094420BD80CD344784A78944206D807D326
:1016200040884A88904201D890429B41180010BDE2
:1016300001235B42FAE710B50400FFF7D9F80D4B20
:101640000D4A5A6100229C61DA611A621B685433A8
:10165000187890420BD0FFF7B9F9FA21890009F008
:1016600073FB0100054809F06FFB054BC01809F03A
:10167000B7FD10BDD8A600080001001C60F5900061
:1016800098080000064B10B51B6828209847041ED8
:1016900003D02822002108F0D8FA200010BDC0464F
:1016A00080A0000870B5144B144E3360FFF7A0F80B
:1016B0008023134D03202B602B0008336B60FEF753
:1016C0006FFE04002B68B060DA080021686808F03B
:1016D000BCFA00212000FFF7CBFB2368002B05DAC2
:1016E0000021E5602000A160FFF7C2FB3369002BF9
:1016F00001D1044B336170BD24B60610D8A6000892
:101700000000000828AA0008F7B5184C07002300BD
:10171000FF33587E3900FFF7ABFE01A9C0B2FFF7D7
:101720002AFE051E03D001256D422800FEBD01984A
:1017300043787F2B05D05BB2FF26002B02DB06F03F
:10174000F5F92E00FFF70EFE23005820FF335B7ED5
:1017500058432C235F43C0192018031D9842E4D03E
:101760000130421E1278B242F8D0DCE7D8F301080B
:1017700010B543787F2B05D05BB2FF20002B02DB36
:1017800006F0D4F900200B001C78844205D1013307
:101790005C1AA242F8D8012010BD0020FCE710B569
:1017A000010004000A4808F00BFD002398420DD008
:1017B0002100084808F004FD0123002806D021007C
:1017C000054808F0FDFC434243415B00180010BD92
:1017D000E8B80610F1B80610FDB8061010B5010003
:1017E00004000B4808F0ECFC002398420DD02100C7
:1017F000084808F0E5FC0123002806D0210006482F
:1018000008F0DEFC434243415B00180010BDC046B7
:1018100002B906100BB9061013B90610F0B507008F
:101820000D00002491B001AE002D02D1280011B0AE
:10183000F0BD296A002904D0380008F0C1FC002856
:10184000F4D0AB68002B06D00E2C12D8A200955114
:1018500001341D00E8E72B68002BFAD1002C0AD0D8
:10186000013CA3009B591B68002BF2D1002CF7D13F
:10187000EFE70025DAE72500D8E710B5FFF7CEFF40
:101880000124002809D08168002906D00448FFF708
:10189000C5FF002801D0C468E4B2200010BDC046D6
:1018A0001BB90610F0B5002685B0009315000300A3
:1018B0003400029003911F785A1C0192002F08D027
:1018C000039B002B0FDB1300029A9B1A039A9A4288
:1018D00009DA009BA34261D9002D01D000232B55CA
:1018E000200005B0F0BD3B00093B042B34D9202F6C
:1018F00032D02C483900623009F0FFF9031E05D1BF
:101900002D2F0AD05F2F49D1264BA133032E23D888
:10191000300009F0DBFB05102335224BA033F5E73F
:10192000002D06D0009A944238D21F4A9B1A9B0081
:101930002B55012610E0621C002D0BD0009991421E
:101940002CD919492C195B1A2178181101431B0154
:101950002170AB5414000226019BACE7621C002DE1
:101960000BD00099914219D90F492C195B1A217893
:10197000981001439B012170AB5414000326EBE740
:10198000002D08D0009AA24208D907492A195B1AEB
:1019900011780B43137001340026DDE70124644203
:1019A0009EE7C046F0B1061052B20610F8B50E0020
:1019B0002E21170009F0A1F9041E0CD0451C2E2180
:1019C000280009F09AF9002805D0001B013838607A
:1019D00000203560F8BD16204042FBE7F0B504005A
:1019E00085B00F001600002901D1002013E0042269
:1019F0006F49380009F097F9002803D10223E3600A
:101A0000381D08E005226B49380009F08CF90028E0
:101A100003D1E060781D05B0F0BD042266493800AE
:101A200009F081F9002806D101230122E360002397
:101A3000A261E361E4E73B78222B05D13200390053
:101A40002000FEF731FDE6E72D2B03D01A00303AD7
:101A5000092A24D800250A2203A93800039508F092
:101A600065FC030003988742BFD05A1C0AD1534A31
:101A7000914211D10122514B5242A261E3610423F0
:101A8000E360C8E7002B07D180221206914203D100
:101A9000802300221B06F0E7A361E161EFE75B2BE7
:101AA00035D1781CFEF7D6FC037805005D2B26D0D7
:101AB0000023013D01930093FFF7E4FD009B071E07
:101AC0006FD0002B19D0019B18604360681CFEF793
:101AD000C1FC320001003800FFF780FFFEF7BAFCBE
:101AE000051E06D0037801972C2BE5D05D2B08D07E
:101AF00030600098FEF7BAFD77E70090E6E7002334
:101B000000931023E360009B681CA36083E77B2B9A
:101B10004BD1781CFEF79EFC037807007D2B38D054
:101B20000023013F01930093FFF7ACFD009B051ECE
:101B300037D0002B17D0019B18604360781CFEF74C
:101B400089FC320001002800FEF7AEFCFEF782FCA3
:101B50000028CED02B692B6200232B6103783A2B0F
:101B600003D03060C5E70090E8E70130FEF772FC73
:101B7000320001002800FFF731FFFEF76BFC071E63
:101B8000B7D0037801952C2BCED07D2B03D03060BD
:101B9000AFE7002300932023E360009B781CA36041
:101BA00039E7002B00D120E7A3E737601DE7C046E7
:101BB00023B90610C4B8061028B90610FFFFFF7F2E
:101BC00070B50600FFF75EFD00230B4D0400EB67C8
:101BD00098420ED03000FEF73DFC2A0001007C3216
:101BE0002000FFF7FBFE051E03D12000FEF73EFD9F
:101BF0002C00200070BDC046D8A6000870B50400B7
:101C00000D0086B00021142201A808F01EF829005A
:101C10002000FFF703FE0400002C18D021001C4810
:101C2000FFF7FCFD0028F7D00569002D0AD0194EFA
:101C30002900300008F0C4FA00280BD1310001A8B7
:101C400009F069F8210001A8FFF7E8FD0400200071
:101C500006B070BD104E2900300008F0B1FA00281F
:101C6000ECD029000D4808F0ABFA0028E6D00C4E65
:101C70002900300008F0A4FA0028DFD02900094824
:101C800008F09EFA0028DDD121000748C1E7C046D0
:101C90002DB9061032B9061039B9061040B9061030
:101CA00048B9061050B9061056B9061010B5034BC6
:101CB0001B7A584307F038FF10BDC04680A00008CB
:101CC000F0B585B002930AAB070001CB0E9D0190E1
:101CD0000CA80478101FC0B21B78FA2800D801BEE7
:101CE000181FC0B2FA2800D801BE601E012804D90E
:101CF000FB26201F304200D001BE2602F0240D98A2
:101D00002401C003039001981204002840D00298D7
:101D1000002800D101BEC0208002FF2B00D101BEEF
:101D200002400020344021436E6A0A4300250243EA
:101D30003A65C02228001B04920213401C43019BF9
:101D40009D4202D2174B984201D105B0F0BD072247
:101D50007B6C1340032B0BD8029B01995B5D013513
:101D60002343039A8D4200D2002213433B65EDB218
:101D700000208642E3D00130013EFFF797FF30009C
:101D8000431E9841084B40421840064BC018D6E706
:101D9000C02034408002024021436E6A0A43039807
:101DA000C4E7C0460200B200FEFF4DFF30B58B69AC
:101DB00087B0DB680C001500002B0FD019681A796A
:101DC000012303932378C9B20293FF2301930023D5
:101DD00004950093FFF774FF07B030BD0048FBE7A0
:101DE0008000B200F0B587B002930B6805000E00CA
:101DF00010000A79D9B228239C462B4C0C9FA4448E
:101E000063460493002303937379019303230093A0
:101E100003002800FFF754FF002832D13169280061
:101E2000FEF714FE00282CD1337D1A1FD2B2FA2AF5
:101E300000D801BE002F33D007216A6C0A40032A64
:101E400030D88022791E89B212030A43C0211B04B4
:101E500089020B4013432B650D9B00206363F9221D
:101E60000423E763D200A0642364A958023B0B4318
:101E7000AB50E56CA7630D4B226C032A01D098424E
:101E800001D107B0F0BD00208542F5D00130013D01
:101E9000FFF70CFF68426841044B40421840EAE7F4
:101EA0000348EEE70348ECE7D8A600080200B200BA
:101EB0000400B2000100B200F0B50500181FC0B266
:101EC0008BB0FA2800D801BE0724686C2040032894
:101ED00001D9174C19E0C0201B0480020340802068
:101EE000541E0003204303432B650C1E0DD0109B92
:101EF00000245E6A04230391059208940693069BCE
:101F0000042B02D10B4FBC4202D120000BB0F0BD1C
:101F1000002469462800FEF7B1FDA642EFD001205B
:101F2000013EFFF7C3FEA642E9D13C00E7E7C04609
:101F30000100B2000200B200F0B5D5B008900C006C
:101F400009921E00002900D101BE0023190010AA29
:101F50001380937011AA1380937012AA1380937048
:101F6000626B079222AA99540133642BFBD1099B1F
:101F7000581EC3B2012B08D9099B042B00D1CCE316
:101F8000082B01D100F0CFFB01BE032E00D901BE0A
:101F9000072818D809F0A4F808001D001700C4038A
:101FA000170017001700CB038022089B12019A1814
:101FB000002A08D0C0203304800211680340714811
:101FC00001400B431360079B002B05D16E4B06931A
:101FD00007E3089B8822E9E7382322AD00930195A7
:101FE000099B10AA07990898FFF7FCFE06900028A5
:101FF00000D0F6E2AB79062BE8D82B78532BE5D14D
:102000006B78462BE2D1AB78442BDFD1EB78502BA9
:10201000DCD12B79052BD9D96B790B93012BD5D139
:10202000139013AB11AA29005848FEF789F9069BB3
:1020300012AA1493290014AB5548FEF781F9554AAA
:10204000069B904201D1E3642365FF20159310AAFB
:1020500015AB22A90002FEF773F90690002800D004
:10206000BFE2A368002B00D101BEE368002B00D1C2
:1020700001BE2369002B00D101BE6369002B00D192
:1020800001BEE369002B00D101BE236A002B00D101
:1020900001BEA36A002B00D101BE159B22AD0093A7
:1020A00010AA099B079901950898FFF79BFE01224A
:1020B0000A901000297F16AB884017901000697FA6
:1020C0001970A97F8840E97F1A901973692108A8BF
:1020D00009181000C97F88406A211D9008A80918B6
:1020E000C97F19766B210918C97F23AB8A402092DA
:1020F000DA7F3D231B18DA77AB7800225B079B0F52
:10210000032B02D0244A2132D25C226023A8FEF79E
:10211000D5F8002830DB0130C008012211002CABBB
:102120001B7860601B09994006236162E168042006
:102130000B6000230B7121690B7108600521A263FC
:10214000A26A1371E36A1160002B00D101BE236BF8
:10215000002B00D101BE0022236B08A91A71A23204
:10216000521810784006400F05281DD8012208F0AB
:10217000ADFF15E7EDF3E7E7802303381B061843AF
:10218000CBE7C046FFFFFCFF0500B20084FF000064
:1021900081FF00008000B20070B20610012252429E
:1021A000E2631A60E36A1A606022E3691F271A601B
:1021B00000221A710F232B9A2C991A4001325000D9
:1021C0000A0E3A40013242434800800FBD4D4000A4
:1021D0002818808C0B40424362640A0A1740402250
:1021E000890400D4383A022001335B0001377B4375
:1021F000534322AAA364A56893788643012E00D195
:10220000B1E02021194000D1C7E0537A68712B60FA
:1022100000232B71137A5B0900D0BAE0013BAB605D
:102220001F2222AB1B7A052613402B6102232B753C
:102230002368042B00D0EEE131AB1B785A0601D4A1
:10224000A14A0692012003422DD09B0713D5E368D3
:10225000002B10D019681A799C4B039028330493F3
:10226000099BC9B20293FF230193002308980093AE
:10227000FFF726FD0690069B1A00934B9A4201D069
:10228000002A21D1914B0022283304930123039388
:10229000099B00920293FF23B72101930898130032
:1022A000FFF70EFD0690069B002B0DD13BAB019373
:1022B000139B11AA00930799099B0898FFF792FDB9
:1022C0000690002800D1A6E0012054AB1B18C93BA2
:1022D0001A78012393401B38A36143080C930F2302
:1022E0002B9E0020334001335B000A93FA239B00AE
:1022F00080279C4618AD3300C3401F211A090A40AD
:102300005B0A1C390B403900022B06D06146032BB7
:1023100003D01021012B00D00F390A9B01325A4300
:102320004A4307302A600C351C28E4D10C9B103836
:10233000584354AB18180538FF3883682364DBE032
:102340000221E1631A60E36A35222CE74021E16350
:102350001A60E36A052226E78022E263423A1A60A5
:10236000E36A01321FE71021194033D0D37B6E712D
:102370002B6000232B71937B5B0927D1013BAB6062
:102380001F2222AB9B7B032613402B6101232B755D
:102390004EE7FF232873AB6042E7FF265B0600D4BD
:1023A00046E7D37A29712B606971937A5B090AD168
:1023B000013BAB601F2222AB9B7A042613402B61AA
:1023C00002232B7534E7AE602973F3E7FF232E73E6
:1023D000AB60D5E7334015D0537B29712B60697111
:1023E000137B5B090AD1013BAB601F2222AB1B7B35
:1023F000022613402B6101232B7519E7FF23297354
:10240000AB60F2E703222A60043A2B716B71AA6079
:102410002B612B750CE7013E3B9B042E09D8300045
:1024200008F054FE1D19151103009B0601D5EC237D
:102430002B60236A3B9A042E56D8300008F046FEE3
:10244000DCDCDC311300DB06F3D56C23F0E71B0783
:10245000EFD5BC23ECE75B07EBD53C23E8E79B0714
:10246000E7D50C23E4E7802501206D0015404042AC
:10247000002D0AD03E2200211A603C3A19715A718F
:1024800098601A7319611A752EE0802111401FD0CF
:1024900034221D711A605D7198601D731D61323A9E
:1024A000F1E78021012011404042002910D0342260
:1024B0001A60002298601A715A711A731A610232F6
:1024C000E1E7C04670B206108000B200D8A600084E
:1024D00040252A4000D187E0122219711A605971F3
:1024E000986019731961197516AA3BA9200005F0A7
:1024F00043F9002800D0E8E6236D002B71D022AB11
:102500000193149B12AA00930799099B0898FFF75F
:1025100069FC0690002864D10700149B3B900C9343
:10252000844B07900A930221079A22ABD25C0A409F
:1025300000D184E00A9B002B4AD1692208AB6831A4
:10254000C918D2180798079B105CCB5CB84200D022
:10255000C6E05A1CD2B2E264012A3FD90025226D9E
:102560009B000992079A079F04329B180C930895C9
:102570006822089B04375B19089308AB9B18D95D48
:102580000F23194000230B9A0A4200D1B3E06821BF
:1025900008AA5218D2590999150A0D92079A0135BD
:1025A000BA1A043A8E58089A2D0232600C2253430C
:1025B00016AAD3181A785968B2609A6832618D42A7
:1025C00000D3A2E00123F56073600C9B9F42CFD142
:1025D0000A9B1A00574B9A4200D09CE00023E36408
:1025E0002365069855B0F0BD02211A7119605A7121
:1025F00098601A731A6146E740210A404139002A5F
:1026000006D012221A6000221A715A719960F0E7FE
:1026100002201860F8E70222236A01211A600022D2
:1026200049421A715A7199601A731A611A7522A96E
:1026300016AA200005F0A0F80A9B069359E707990F
:102640005B18D87859780D901F208C469B7808A984
:10265000401802709B090320012B05D0181E03D0DF
:102660000420022B00D020680022079D3BAB2E18CF
:1026700090422ED10022304D0999283502910090C8
:1026800004950392019261460898FFF719FB0A909E
:10269000002814D11F2608ABF6180095030001226C
:1026A00031000898FFF708FC0A90002807D17F0046
:1026B000FBB20D9A377817407A1E97411F43079B4C
:1026C00008330793079A0C9B934200D32BE71B4BCD
:1026D0007DE4B51A22A94D19ED789D540132C7E762
:1026E000079802339B00C318079307980C9B8342FB
:1026F00000D327E7EBE701335200DBB2D2B2052B60
:1027000000D041E70D4A0A9241E7F160280008F045
:102710001BFB706059E70A9B59E4032E00D936E48D
:10272000089B902242E4032E01D9FFF730FC089B5E
:1027300098223BE40600B200D8A600080700B200C9
:10274000F0B58DB009932D4B0790089115009608B0
:102750009E424DD8002E00D101362C00B54200D942
:102760003400A54246D92D1B254B20009C4200D9A0
:102770001800844240D9241A80B2FFF797FA002C3F
:10278000F2D11F2704ABFF1801233B70089B9B6904
:1027900006939B6A002B26D01968099B0394049327
:1027A000089BC9B21B7822000293FF230094019377
:1027B00007982300FFF784FA00280ED1099B012215
:1027C0000093390023000798FFF776FB002804D117
:1027D000069B9A6B3B7813403B701F2304AA9B18FF
:1027E0001878002802D0002DB7D106480DB0F0BDF2
:1027F0001E00B2E70025B7E70024BDE740420F0006
:10280000FFFF00000200B20070B588B006ADE870AE
:10281000002029712880A870FEF71EFD104C0600CC
:102820002834010022000F48FFF7C0FA002815D114
:10283000012304940393337802000293052301904B
:10284000009371212B000748FFF73AFA002805D1C1
:102850002300054A31000348FFF772FF08B070BD3E
:10286000D8A600080000424020A10700F0B50024CF
:102870008BB009AEF070200007913480B470FEF781
:10288000EBFC124F0394283704970378104D029302
:102890000423019400932200330065212800FFF7F0
:1028A0000FFAA0420DD107226B6C1340032B0AD8FC
:1028B000084B063A2B650799030000972800FFF79D
:1028C000FBFA0BB0F0BD0448FBE7C046D8A60008F1
:1028D0000000424007000C000100B2000FB4F0B548
:1028E0008FB014AA08CA01921878002871D05C1C15
:1028F000252803D0FEF738FE2300F5E75A786C2A26
:1029000000D19C1C2378732B0CD1019B1A1D1D68D0
:1029100001922878002801D10134EDE7FEF724FE6A
:102920000135F6E7642B01D0752B21D10025019BE1
:102930001A1D1F6801920135AE0002AB3800043E3B
:102940000A219E1908F086FA380031600A2108F041
:10295000FBF9071EEFD16A460821013D5218AB0072
:10296000D3581E4AD05CFEF7FFFD002DF3D1D3E70C
:10297000632B07D1019B18681A1DC0B20192FEF7A4
:10298000F3FDC9E7782B22D1019B02AE1A1D0192FB
:1029900000221B680F27551CA9001F40081F375035
:1029A0001B090DD1E8070DD58B51951C013DAB00DE
:1029B000F3580A4AD05CFEF7D7FD002DF6D1ABE7FD
:1029C0002A00E7E7012DF1D173600135EEE7002B16
:1029D00092D10FB0F0BC08BC04B01847BCC50610BB
:1029E0006B4AF0B513006D331B788FB0002B03D109
:1029F000537A002B00D131E2042B00D92EE2654C32
:102A0000626A022B05D0032B00D191E0012B00D08C
:102A100020E2126813700C22013B53435E4DEA180A
:102A2000D16A166B2A002C32D31822001F7A069125
:102A30003032310006981772FEF7A0FA3A003100E2
:102A40000698FEF773FA2A00032150325348FEF726
:102A500095FA112203215148FEF768FA504D0421DE
:102A60002A1D4E48FEF78AFA112204214B48FEF730
:102A70005DFA2A00052138324848FEF77FFA112214
:102A800005214648FEF752FA2A0006216C324348D7
:102A9000FEF774FA112206214048FEF747FA414A30
:102AA000072120323D48FEF769FA112207213B48F1
:102AB000FEF73CFA3C4F3B6840331B78022B12D99F
:102AC000E2230F20394A9B00D1588143D150D1587D
:102AD00021308143080020210143D1508021D0586A
:102AE00009060143D150FA23F9220321304D9B00FE
:102AF000FB64D200AB5800268B43AB5088235B02AB
:102B00002B606661FEF7BAFB230020337B62636AA9
:102B100006950893B3420FD1FEF7A6FB254C012280
:102B20001C4B52425A61251E00D179E1224978E1BD
:102B30000421126811706EE7236A0993002BEBD011
:102B40000796079B089A9B00D558002D00D1FCE002
:102B50002B785A1E012A04D9FB22043B134200D0D1
:102B600001BE2B7A032B00D901BEAB69002B00D12B
:102B700001BE2A78501E072800D972E108F0B0FA89
:102B80001E000F0171011101710171017101130129
:102B900088EF010880A0000870B20610800531405F
:102BA000F0B2061070B30610D8A600080000264048
:102BB000000042400400B20064B90610AF4CC027C8
:102BC0002B7ABF02190420683940AD4F38400143C9
:102BD000042021606968084009D0A969A948FFF765
:102BE000ABF9002803D00823079A93401E43AB6932
:102BF0001B68013B032B00D901BE002800D0A4E0D4
:102C00006B689B0700D4A0E02969E86808F022F906
:102C1000002900D001BE2B699B4A934202D95A1E5B
:102C2000134200D001BEFF218C466746E968A869BF
:102C3000B9438268036AA16029694942B943E160E6
:102C400001680320013901406869471EB84100024C
:102C500001432162002A35D010680021471C0AD0A8
:102C6000C0271179BF020904394067460740802018
:102C7000000607433943C02721645179BF02090484
:102C80009068394061640021471C09D0C027117B3E
:102C9000BF02090439408027C0B23F0638430143D0
:102CA0000020A1641169814205D01F300139014023
:102CB000802000060843C021E064127D89021204CE
:102CC0000A402265002B32D019680022481C09D026
:102CD000C0201A798002120402408020C9B2000686
:102CE00001430A43C02022665A798002120499687F
:102CF0000240626600224F1C07D01A7BC9B2120440
:102D000002408020000601430A430021A2661A699E
:102D10008A4205D01F31013A0A4080210906114339
:102D2000C022E1661B7D92021B0413402367C02270
:102D300002212B7A92021B0413406A68FF31114072
:102D4000802212060A4313432360079B0133079333
:102D5000079A099B934200D0F3E6002E00D083E04F
:102D60003000FEF779FA494D03962B00283304937F
:102D70000378320002930196009633009F21414868
:102D8000FEF79EFF041E00D071E00721069B5A6CDF
:102D90000A40032A09D9FEF767FA3D4CBFE63D4CCD
:102DA0000DE73D4C0BE73D4C09E73D4B069A13659B
:102DB000069B5B6C0B40032BEDD8069A394B0CAF8E
:102DC00013650623F9226F63AB63EB63023BAE64CA
:102DD0002B64069BD200995802230B430699324E6E
:102DE0008B502B6C032B02D0013E002E06D12B6C96
:102DF000032B07D0FEF738FA2C4C90E60120FEF7A3
:102E000055FFEEE73B78342B07D17B782A3B012B2B
:102E100003D8BB78193B022B4ED9FEF725FA0025C3
:102E2000234922002348FFF759FD28000FB0F0BDC9
:102E30008023032019432970FFF7E6FC041E16D1F6
:102E400063E0194304202970FFF7DEFC002866D0F8
:102E500004000CE001246442250067E601256D4270
:102E6000E3E7002E00D157E6B224240434430025C2
:102E7000FEF7FAF9AC42D3D051E6C0460008424012
:102E8000FFFFFCFF00004240FFFF0000D8A6000843
:102E90000100B200800842400009424080094240DF
:102EA0003F000C0005000800E90300000200B2002A
:102EB0005CB906106BB90610FB780F2BADD13E79CB
:102EC000032EAAD17B79902BA7D10020FEF7C4F95D
:102ED000012300222835049503930378B721029338
:102EE0000192009213001448FEF7EAFE041EBED1C0
:102EF0001F2504ABED1829003000FFF7B7FC041EB6
:102F0000B5D129784BB2002B92DA29000420FFF7C3
:102F1000ADFC041EABD108212B780B4291D00020D0
:102F2000FEF79AF98022D8218369D2029A615A6900
:102F30001160024A1A649AE70000424070170000CC
:102F4000FEE7FDE7FCE7FBE7FAE7F9E7F8E7F7E775
:102F5000F6E77047F0B5D5B006910100D448FEF70A
:102F60005DFC002801D100F011FC836802930393FB
:102F700000231F0005930193039B002B00D0A2E0C8
:102F8000029BDB680193202B01D000F000FC029C27
:102F90002100C848FEF742FC051E00D182E1037EF5
:102FA000069A9A4200D07DE10100C348FEF736FC44
:102FB000C24C002800D16DE18269C14B3C925B6E2E
:102FC0003CA953403EAE082220A83D9307F0A5FC43
:102FD000082220A9300007F0A0FC230006CE06C37B
:102FE0002900B848FEF71AFC1423002800D0836992
:102FF000E3602900B448FEF711FC0123002802D049
:10300000C3685A1E934123742900B048FEF706FC9A
:10301000002800D141E1836963612900AC48FEF7D3
:10302000FDFB002800D13BE18369A361260000235A
:10303000393633702900A748FEF7F0FB002807D087
:103040000169A54807F0BCF8002801D101233370BD
:10305000230039331B789D342370029E002F00D04B
:1030600095E331009348FEF7D9FB002800D147E1F2
:103070008369924C1CADDFB222002B0003CA03C34C
:10308000082229001EA807F048FC8D4B1E9A1F99A4
:103090005B6E4B409A4201D0FFF752FF2B689F4274
:1030A00000D02DE131008D48FEF7B8FB002800D19B
:1030B00020E264238269571E7B43E41802233834DC
:1030C0002270039323E103998548FEF7A7FB0028AC
:1030D00002D08668002E03D1039B1B6803934BE745
:1030E00031008048FEF79AFB002800D1AFE00025B0
:1030F00003697D4C04935434AB001959049807F0CC
:103100005FF8002800D145E30135042DF4D10024F7
:10311000754F64370797079AA3009958049807F0EA
:103120004FF8071E05D00134172CF4D10527183CA1
:103130007F4231006D48FEF771FB002801D08369A2
:10314000059331006A48FEF769FB002813D000217F
:103150008369C2690191019901310191002A01D16C
:10316000AB4205D901996D001D29F4D11F230193AC
:10317000631C05D16BE0631C69D0019B002B66D0FA
:1031800022004E4B2E3246AD12019B182A0003CB73
:1031900003C20822290048A807F0BFFB484B489A01
:1031A00049995B6E4B409A4201D0FFF7C9FE2B68EC
:1031B000012B17D1059B059A4E93414B4EA95B6E8F
:1031C0004CAD534044A808224F9307F0A6FB0822B9
:1031D00044A9280007F0A1FB384B22019B18D833E3
:1031E00006CD06C32200354B0A3212019B189222EB
:1031F00040AD92009B182A0003CB03C2082229008D
:1032000042A807F08AFB2E4B429A43995B6E4B40D3
:103210009A4201D0FFF794FE2B68012B17D1019B36
:10322000019A5293264B52A95B6E50AD53404AA867
:103230000822539307F071FB082228004AA907F0DF
:103240006CFB0E341D4B24011C190CCD0CC43668CC
:1032500040E72849049806F0B3FF0028F7D1310071
:103260002248FEF7DBFA002807D0144B224A9A5C6A
:10327000012A02D18269D0331A6031001C48FEF75E
:10328000CDFA0028E3D00D4B1C4A9A5C012ADED10E
:10329000D433A3E201277F42A2E6FA231B01BBE657
:1032A000A061C3E62468002C00D071E6D5E6C046D4
:1032B000E8B8061057BA0610C2B9061088EF010820
:1032C00080A00008C9B90610D1B90610DCB90610F3
:1032D000E8B90610FCB9061009BA06100EBA0610B5
:1032E000A3B906102DB9061070B30610ADB90610BB
:1032F000B5B90610BAB90610D2020000D302000018
:103300003668002E00D0ACE6012337000393002E70
:1033100000D0F3E03100CD48FEF780FA019000289C
:1033200000D05DE13100CA48FEF778FAC94C0028A8
:103330000FD0442394227B439200E3189B181B7800
:10334000012B06D1C2686333511E8A417B43E318C7
:103350001A723100C048FEF761FA0190002839D096
:1033600044237B43E418952312AD9B00E4182B0003
:1033700014A806CC06C30822290007F0CEFAB74CE1
:10338000149A1599636E4B409A4201D0FFF7D8FD0D
:103390002B68012B1ED1019B34A9DB6810A85A1E93
:1033A0009341AF4A5B421340AE4A9B183493626E1E
:1033B00036AC53400822359307F0AFFA082210A923
:1033C000200007F0AAFA64227A43A24B9B181C3310
:1033D00006CC06C33100A448FEF720FA019000286D
:1033E00033D044237B439B4A0CACD31897229200E2
:1033F0009B18220003CB03C2082221000EA807F06D
:103400008CFA964D0E9A0F996B6E4B409A4201D0F2
:10341000FFF796FD2368012B17D1019B30A99B690B
:1034200032AC30936A6E0AA853400822319307F0F9
:1034300074FA08220AA9200007F06FFA64237B437C
:10344000844AD318283306CC06C331008748FEF7D8
:10345000E5F9002800D11BE1C368102B00D017E16B
:10346000002385680193002D00D111E14422019BC6
:103470007A430533DB009A18764B22AC9B189222D4
:1034800092009B18220003CB03C20822210024A82B
:1034900007F043FA714B249A25995B6E4B409A4290
:1034A00001D0FFF74DFD2368012B1BD1AB696B4A9F
:1034B0002C93526E2CA953402EAC082226A82D9393
:1034C00007F02BFA082226A9200007F026FA64222A
:1034D000019B7A430933DB009A185E4B9B18043337
:1034E00006CC06C3019B01330193032B00D1CFE02F
:1034F0002D68B8E701230700039308E731005C4813
:10350000FEF78CF9002800D104E78468002C00D174
:1035100000E721005748FEF781F900282FD0056900
:103520005549280006F04CFE00282AD121005348B6
:10353000FEF774F900280ED044239B217B43454AB3
:103540008900D3185B181B78012B04D163337B43AC
:10355000D2188369D36321004948FEF75FF9002838
:103560000DD044237B433B4A4649D3185B181B7854
:10357000012B04D163337B43D2188369136424681D
:10358000C4E74149280006F01BFE0028F7D12100BE
:103590003A48FEF743F900280DD044237B432D4AD7
:1035A0003A49D3185B181B78012B04D163337B4352
:1035B000D2188369536421003148FEF72FF900289F
:1035C000DDD044237B43234A3049D3185B181B7852
:1035D000012BD4D163337B43D21883699364CEE744
:1035E00044237B431B4A18ACD318992292009B18A2
:1035F000220003CB03C2082221001AA807F08DF98C
:10360000164D1A9A1B996B6E4B409A4201D0FFF7E8
:1036100097FC2368012B00D084E6019B38A99B69A5
:103620003AAC38936A6E16A853400822399307F0D3
:1036300074F9082216A9200007F06FF964237B4370
:10364000044AD318303306CC06C36BE61ABA061008
:10365000C9C0061088EF010831BA061080A0000822
:10366000555555055555551539BA061048BA061021
:10367000A3B906102DB9061024BA0610ADB906106C
:10368000B5B906106D02000029BA06106E020000DE
:1036900031005448FEF7C2F864237B43524CE318D0
:1036A000002866D082695A7231005048FEF7B6F899
:1036B00064237B43E31805330122002804D0C16949
:1036C00082690A43511E8A41DA77002F1CD13100EA
:1036D0004748FEF7A3F81423002800D08369236726
:1036E00031004448FEF79AF8002844D0C3685A1EB7
:1036F000934122007432137031003F48FEF78EF878
:1037000000283CD08369A367039B022B3ED1029B18
:10371000029EDB680193202B29D131003748FEF748
:103720007DF800282ED08269D3B2022B2AD1571EF1
:1037300064227A43A41822003832137031003048D2
:10374000FEF76CF8002812D082692E4B28925B6E2F
:1037500028A953402AAD082208A8299307F0DDF8CC
:103760000822280008A907F0D8F80CCD0CC40123C2
:10377000A7E4587298E7230074331870BCE7FA2363
:103780001B01C0E73668002EC7D1F0E700273800DC
:1037900055B0F0BD1C49049806F012FD002800D079
:1037A00057E531001948FEF739F8002808D0B4224F
:1037B0000D4B92009A5C012A02D18269C8331A60CB
:1037C00031001348FEF72AF8002800D13FE5064BE8
:1037D000104A9A5CCC33012A00D038E582691A601D
:1037E00035E5C04652BA061088EF01085ABA0610ED
:1037F000C9B90610D1B90610DCB906100EBA061008
:1038000057BA061080A0000865BA0610ADB90610B8
:10381000B5B90610D1020000F0B58BB001900D00D3
:1038200016000C00002A01D0541E641806A90A00D4
:103830002D4BD83381CB81C2082208A807F06DF840
:103840002A4B089A09995B6E4B409A4201D0FFF7C8
:1038500077FB02AB9C466246234B069FE03303CBCB
:1038600003C20822614604A807F057F81F4B049AC8
:1038700005995B6E4B409A4201D0FFF761FB012333
:10388000029A01329340DB19BD4225D39D429241F9
:10389000A74203D8A34201D901225242BD4201D816
:1038A000A74216D39D4201D2A34212D3002A10D1BF
:1038B00001992800FDF70BFE002806D1002E04D048
:1038C000701E40190199FDF702FE0BB0F0BD0022F9
:1038D000E6E701204042F8E7A742F8D80022A342D9
:1038E000DCD901225242DBE788EF010880A0000802
:1038F000F0B5836893B007001600934205D2E1212A
:103900008D4A8E4B4032490006E08B4207D8C421D5
:10391000894A8B4B4032FF318A4806F053F944689C
:1039200052181B199A4204D3834A874B4032E22132
:10393000E9E7641832002100FFF76EFF051E49D148
:103940007B787F2B17D13619670A760A7F027602B9
:10395000B74204D13800FDF76EFE13B0F0BD012070
:10396000F51B6D0A4042002DF7D0013D6802C019D9
:10397000FDF761FEF7E75BB2002B2BDAFDF76CFC7D
:10398000836906000A939B690F950893E8231B0639
:10399000E418089B109559422140013B5B1809939C
:1039A0000A9B07915B680693069A099B934211D282
:1039B0000A9B0A001B6C10A90B93FDF71DF8041E4F
:1039C00000D0B1E0109BDA681D685F68089B069222
:1039D000934202D201204042BFE7069B5F436B1E29
:1039E000FF18079B0699581B07F034FA0029F1D1FC
:1039F000099BBB420AD21A0010A93000FCF7FCFF59
:103A0000041E12D1109B1D68DB680693099B069962
:103A1000581C401B07F01EFA0029DBD1089B002B25
:103A200007D1601E8441604297E7484B9842D1D04D
:103A3000ECE7079A10A93000FCF7DEFF099F041E8F
:103A40000ED1109B1A695F680B92DA6806921A68A9
:103A5000069B013A5F43099BD7199F4200D91F007B
:103A6000FA230B9A9B0053430C9335E0120211008A
:103A70001A5C013311430A0049E02A79FF2A4FD02A
:103A8000324B98424CD000284CD1119B99680123AD
:103A90002F4D0393283504953378019202932368C0
:103AA000C9B200932B480FABFEF70AF9041EB5D13B
:103AB0002B000C9A31002748FEF742FE089B069A1D
:103AC00004009342ADD99446079B63440793089B37
:103AD0009B1A08930028A1D1079BBB429ED21C4A87
:103AE000310028321B48FEF761F9041E96D10A9B6B
:103AF000079A1B680FA9013B5A54120A002BFAD1EE
:103B0000B4691193226865690D921A000FA80D9986
:103B10009942ABD111A93000FCF76EFF002DACD15A
:103B20000D4C7BE72968B2E7084B984200D151E77A
:103B3000089B2F00069354E7F0B3061076BA0610E0
:103B400090BA0610CAB80610A9BA06100400B2004E
:103B5000D8A60008000042408000B200F0B54568D9
:103B60008FB0099007921C008D4207D8AD21524AB0
:103B7000524B51324900524806F024F80B199D422D
:103B800005D85C214C4A4F4B5132FF31F3E76D1899
:103B9000220029000998FFF73FFE061E02D00124EB
:103BA000644209E0099B58787F2808D12200290047
:103BB000079806F0B2FE340020000FB0F0BD43B20B
:103BC000002B6EDA7F231840FDF746FBE8231B0627
:103BD000EB18071E08930D9600D101BE079B002B22
:103BE00000D101BEBA69089B5168E3188B4258D8CE
:103BF00096683548002C02D10028DDD051E0BB6921
:103C0000089A18680DAB0500013DEA54120A002D10
:103C1000FAD132790B9232680395D1B22B4A28320D
:103C200004920A923A78029272790090019228489E
:103C30000B9AFEF745F8002833D1B1684B1C20D110
:103C40003169002904D02248FCF700FF002828D160
:103C5000802325005B029C4200D91D001B4A337D56
:103C60002832009207992A001948FEF725F9002802
:103C700017D1089B641B5B190893079B5B1907937B
:103C8000B8E70A9B327B049303953B78C9B2029351
:103C9000FF23009501930E482B00FEF711F8002832
:103CA000CED0099B5B78002B00D178E70121094831
:103CB0004942FEF713FE72E7F0B30610D5BA0610BC
:103CC000CAB80610EDBA06100400B200D8A6000863
:103CD000000042400BBB0610F7B500250127144B2E
:103CE0002900FF335C7E3E002000FDF7C1FB01A9E7
:103CF000C0B2FDF740FB011E0DD1582262432C24B7
:103D00006C430B4B1219D21801982023FFF726FFA2
:103D10000600701E86410198FDF724FB002E03D09B
:103D20003E006E403000FEBD012DFBD03D00D6E7C9
:103D3000D8F3010870B50C00012311002200050022
:103D4000FFF70CFF012200280FDB002C06D021001A
:103D50002800FDF70DFD0323002804D12378013B43
:103D60005A1E9341013300222370100070BDF0B53C
:103D700087B00D00C0B201A9FDF7FDFA01260028A9
:103D800021D1019C1023A16802AA10392000FFF75D
:103D9000E5FE002814DB102202A92000FDF7E8FC54
:103DA000002813D003232B706B46A168DF1C283931
:103DB00001233A002000FFF7D1FE002811DA012686
:103DC0000198FDF7CFFA300007B0F0BD1649102278
:103DD000643102A806F082FF431E9841013028702A
:103DE000E2E70F263B7801221E401B096E702B7103
:103DF00039002000FDF7BCFC002801D1042E03D9B6
:103E000001236B7000232B71A268A91C203A2000AB
:103E1000FFF790FF0028D2D1A268E91C183A2000D1
:103E2000FFF788FF0600CBE7F0B30610F0B51E00E1
:103E3000036885B0040000910192002B02D0436812
:103E4000002B1CD10120404237E06A882189171DD0
:103E5000BC461B4FB94202D02D888D420DD1002E99
:103E600002D003A909883180009904330B60019BBB
:103E70001A802369634423611FE06344236122693C
:103E800063699A4218D223685B89002B04D0E368E7
:103E9000934201D10433236103AD04232A00216935
:103EA0006068FFF75BFE0028CCD1A27A2369002A64
:103EB000CBD0E2689A42C8D8012005B0F0BDC04618
:103EC000FFFF0000F0B587B002930CAB1B78040035
:103ED0000D0000920393002A05D101235B42019358
:103EE000019807B0F0BDCB680F8905AEFF1832000E
:103EF000042339000098FFF731FE01900028ECD12F
:103F0000144A31886B89914221D171889942E4D158
:103F1000C919042332000098FFF720FE0028DCD1E5
:103F200005AA0D4B11889942D7D1009B256063608B
:103F30006B461B8923816B461B7BA3726B89DB1944
:103F4000E3605288D31863613B1D2361C8E7002BEF
:103F5000E6D0C2E7086900000769000030B5154CDB
:103F60008BB006A923000A00683321CB21C20822A6
:103F700008A806F0D2FC089A099B616E4B409A4251
:103F800001D0FEF7DDFF6D46069B04A9013B0493BB
:103F9000626E02A853400822059306F0BEFC082278
:103FA00002A9280006F0B9FC68340CCD0CC40BB093
:103FB00030BDC04680A00008F0B5514B514D89B0CE
:103FC0000290059506A8703350CB50C00C0012012A
:103FD0008B180393A678E068A18822786378B446AA
:103FE000002800D101BE032A00D901BE032B00D94D
:103FF00001BE454E376830373F781F2F00D876E036
:10400000674610300097FCF768FE0590059B002B73
:104010005CD1E0680595A188002800D101BE336815
:1040200030331B781F2B64D97F2359400023009322
:10403000013310301A00FCF750FE0590059B002B51
:1040400044D16389E0689C460595A279E379277A93
:10405000002800D101BE160002218E43012E00D09F
:1040600001BE1E0002218E43012E00D001BE264E4D
:104070003668303636781F2E3DD961463030C9B2A9
:104080000097FCF72AFE0590059B002B1ED1E068E7
:1040900005956189002800D101BE1B4B1B68303398
:1040A0001B781F2B29D97F2359400023009301330C
:1040B000C9B230301A00FCF710FE0590059B002BAA
:1040C00004D1039B1034A34200D083E7059B06ACC8
:1040D000002B04D122000A4B783303CB03C2FFF735
:1040E0003DFF029B06CC06C3029809B0F0BD07480D
:1040F0008BE70648A1E70548C5E70448DDE7C04669
:1041000080A000080300C200D8A600080200C20078
:10411000F0B58BB003AD9446070028000C00624E4A
:1041200062490093029670310CC90CC06346079334
:104130006B461B7807A90B716378A0684B71A37855
:104140008B71E378CB7123790B7263794B72E388BF
:1041500000964B81002800D101BE4B89DB0B00D0BB
:1041600001BE8B79072B00D901BECB79072B00D973
:1041700001BE0B79073B182B00D901BE4B897F226A
:104180001E009643321E00D087E0079EFF32964302
:1041900032004E795B02164301968A7994460722D3
:1041A00066463240382613434A7A92071343CA7947
:1041B000D200324013430A7A944601226646724086
:1041C00092011A430B79F8211B0649050B40134352
:1041D000019A436002600268019991425FD142688E
:1041E00033490A409B1A5A425341324A5B421340B8
:1041F0002D4A9B180293029B002B0DD1009A07A910
:104200000292227BA0688A71627BCA71E2894B723A
:104210004A81FCF7A5FD0290029B002B11D1009B67
:104220000293A368002B00D101BE802259681206B8
:104230000A435A605B681F4ADB1713401A4A9B18EF
:104240000293029B002B11D1009B0293A368002BC9
:1042500000D101BE8022596A12060A435A625B6A83
:10426000144ADB171340104A9B180293029B002B41
:104270000BD102990D4B05AA002912D07033110001
:1042800011CB11C12B0003CA03C3FFF767FE3B002C
:10429000380006CD06C30BB0F0BD074BAAE7024BB2
:1042A000A8E77833EBE7C0460300C20080A000080F
:1042B000FFFEFFFFFDFF3DFF0100C200F0B5314CE6
:1042C0009BB00393230002901600703306AA0F00E0
:1042D00003CB03C200230C930593636E08220CA941
:1042E00008AD0AA80D9306F018FB08220AA92800B9
:1042F00006F013FB039B06CD06C3002E39D07B8945
:10430000002B36D001233200009339004F3314A81C
:10431000FFF7D8FD031E2CD110AD2A0012A914A856
:10432000FFF784FD002824D12B88042B21D105AA76
:1043300012993000FFF712FC00281AD1059A14A92F
:104340001492636E12A853400822159306F0E5FA02
:10435000082212A9280006F0E0FA039B783406CD63
:1043600006C30EA90B0005CC05C3082206A806F05B
:10437000D4FAFFF7F3FD029A06AB03CB03C202980F
:104380001BB0F0BD80A0000873B56C4622000C4B3A
:104390000500703341CB41C20800FDF78CF80128BD
:1043A00007D8642343430748C01823001C3006C8BD
:1043B00006C3FFF7D3FD2B00280006CC06C376BD4D
:1043C00080A0000888EF010873B56C4622000B4BF3
:1043D0000500703341CB41C2012907D864234B4308
:1043E0000749C9182300303105C905C3FFF7B6FDD9
:1043F0002B00280006CC06C376BDC04680A000086E
:1044000088EF010870B58AB06B460090596006A924
:104410000A0011CB11C2082208A806F07EFA114D3D
:10442000089A099B696E4B409A4201D0FEF788FDBD
:1044300002A92B000A006833069C41CB41C2082226
:1044400004A806F06AFA049A059B696E4B409A42EA
:1044500001D0FEF775FD029BA34201D0FEF770FD6F
:104460000AB070BD80A00008F0B58DB06D46194C43
:104470002A0023006833070003CB03C20822290067
:1044800008A806F04AFA082208A90AA806F045FA80
:104490000A9A0B9B616E4B409A4201D0FEF750FD89
:1044A000089B06A901330693626E02AE534004A82E
:1044B00008220793683406F030FA082204A9300075
:1044C00006F02BFA0CCE0CC43B00380006CD06C318
:1044D0000DB0F0BD80A00008F0B5884C884EA54412
:1044E0000693330002900591170070330FAA03CB97
:1044F00003C211AC33002200703303CB03C22DA8DA
:10450000FFF7B2FF3300220008AD703303CB03C2C4
:1045100039002800FFF738FF230006CD06C32D9889
:104520002E99FFF76FFF25AD2B0006CC06C323ACF9
:1045300033002200703303CB03C229AB9C461A0020
:10454000290009C909C26346299A5B68716E4B400C
:104550009A4201D0FEF7F4FC27AB1A0003CC03C249
:10456000279A289B716E4B409A4201D0FEF7E8FCD7
:10457000259A239B9A4209D16A68249B9A4205D1C5
:104580006048FEF7ABF9012464421EE23800FCF7F4
:1045900084FF041E00DA18E2039018206043029B97
:1045A0001B1804931B78002B00D015E200933A00EF
:1045B0003233059937A8FFF785FC031EE3D1122596
:1045C00006AAAD182A000CA937A8FFF72FFC00286F
:1045D00000D003E22B88902BD5D94CAA0C99380037
:1045E000FFF7BCFA0028CED12BA8FFF73DFF444EC1
:1045F0000FAD33002A00703303CB03C233002FAA60
:10460000703303CB03C23800FCF755FF012807D8ED
:10461000642343433C48C01828302FAB06C806C368
:10462000FFF79CFC2A002FAB03CB03C22B982C99DD
:10463000FFF7E8FE1FAB1A00290081C981C221AA39
:10464000110081CB81C12199229B726E5340994206
:1046500001D0FEF775FC1F9B1BAB1A00290081C916
:1046600081C21DAA110081CB81C11D991E9B726E52
:104670005340994201D0FEF763FC1B9B002B00DCEA
:1046800081E717AB1A00290081C981C219AA11005C
:1046900081CB81C119991A9B726E5340994201D006
:1046A000FEF74EFC179FFBF7C1FE874200DD6AE76D
:1046B00013AB1A0003CD03C215AA110021CB21C1EF
:1046C0001599169B726E5340994201D0FEF738FC43
:1046D00012230E4906AA9B187431102233A843AE48
:1046E0001D88139F06F019F93000FCF759FF50237D
:1046F0000D93012C0CDD872446E7C046A4FDFFFF87
:1047000080A0000832BB061088EF0108F0B3061045
:10471000912DF0D1B24B71AD71973DA80BAF3D9388
:104720003E956F60FBF74EFE041E00D04DE13B88C6
:10473000AC4A3DA83D923E95719302966E60FBF7A0
:1047400041FE041E00D040E18C2206AB52009B18B3
:104750001B78042BCFD1CF22029B12021B8813405F
:104760008222D2019342C6D1029B0E905B880EAE8C
:1047700005939D4B3DA83D939C4B3E952E606B60F1
:10478000FBF720FE041E00D01FE18A22984BFF3267
:104790003D93984B3DA86B6006ABD21820233E9505
:1047A0002E60AA60EB60FBF70DFE041E00D00CE14A
:1047B0008F4B3DA83D93904B3E956B6033ABAB6008
:1047C00010232E60EB60FBF7FDFD041E00D0FCE023
:1047D0008A4A3B883D920222AB604CABEB60059B62
:1047E000FF320733DB085B0001333DA83E952E60A6
:1047F0006A602B61FBF7E6FD041E00D0E5E0804B0C
:104800003DAD319371AB6B600D9B31A832953D96F8
:10481000AB60FBF7D7FD041E00D0D6E00E9043A896
:10482000FCF7BEFE80231B014693F421882306AAD1
:1048300052185B011380734B06AA319316239B1801
:104840003D93029B704E6B6075ABAB60202331A82B
:1048500047963295EB60FBF7B5FD041E00D0B4E03F
:1048600006ABDB8A694A0EAF31A8319232952F60D0
:104870006B60AE60FBF7A6FD041E00D0A5E0644BA4
:10488000102631937A2306AAFF339B1831A832955C
:104890002F606B60AE60FBF795FD041E00D094E0C6
:1048A0005C4B06AA31935A23FF339B186B6020237D
:1048B00031A832952F60AB60FBF784FD041E00D059
:1048C00083E006ABDB8A544F31A8319732952B60D9
:1048D000FBF778FD0797041E77D143A8FCF760FE2D
:1048E00080239B0046934D4B31A847934C4B329508
:1048F0004393444BEE6031934A4B50330593039BF3
:104900005F00059BDB192B60029B6B6071ABAB609A
:10491000FBF758FD041E58D1059B434AFB5A434FF1
:104920006B603E4B183731A8319232952F60AB60E7
:10493000FBF748FD041E48D13D4B31A831937DABB8
:1049400032952F606B60AE60FBF73CFD041E3CD1DE
:10495000384B06AA31937A23FF339B186B60039B75
:10496000069A1B010C33D318EB6031A80DAB6B61B9
:1049700032952F60AE602E61FBF724FD0D9B040085
:10498000B34227D1002820D12B4B3E9031933F904A
:104990000DAB3DAD31A832953D974093FBF712FD2D
:1049A000041E12D11F4A039B50325B009B5A079A88
:1049B00031A8319232953D93FBF704FD0400049831
:1049C0003200013081A905F0A8FF200097239B0049
:1049D0009D44F0BD8424D7E50124F6E70400F4E704
:1049E0000016003500020035001D00350901203099
:1049F000000400350202000003020000000600353A
:104A0000000700350009003509008002001E00354E
:104A1000001F003500200035000A00350100C004E9
:104A200000248000D8A60008000B003558A7000815
:104A3000000C0035000D0035000E00350023F0B5E8
:104A4000AFB004937A4B0090019106AA703303CB68
:104A500003C2082006F02EF9009B06000120002B5F
:104A600003D00430012B00D0FA3004A9FCF783FCFA
:104A70000124002847D110A8FFF7F6FC6C4C06ADC6
:104A800023002A00703303CB03C202AF0199380020
:104A90003300049AFFF712FC2B003A0003CA03C349
:104AA00010981199FFF7AEFC082229000AA805F01A
:104AB00034FF08AD23002A00783303CB03C2082259
:104AC0000AA90EA805F029FF0E9A0F9B616E4B40B4
:104AD0009A4201D0FEF734FA082229000CA805F00A
:104AE0001CFF0C9A0D9B616E4B409A4201D0FEF761
:104AF00027FA0A9A089B9A420ED00B9A099B9A426F
:104B00000AD001246442300006F0DEF80498FCF775
:104B100029FC20002FB0F0BD3100082212A805F0BA
:104B2000FCFE14AD23002A00703303CB03C22AA875
:104B3000FFF79AFC23002A00703303CB03C238002E
:104B40000099FFF741FC2B0006CF06C32A982B994A
:104B5000FFF758FC0822290026A805F0DEFE0822EF
:104B600026A928A805F0D9FE289A299B616E4B40FA
:104B70009A4201D0FEF7E4F9269B102BC1D80822F7
:104B8000290022A805F0C9FE082222A924A805F0C0
:104B9000C4FE249A259B616E4B409A4201D0FEF7D9
:104BA000CFF9082212A91EA8229B05F0B6FE082202
:104BB0001EA920A805F0B1FE209A2199636E4B40F2
:104BC0009A4201D0FEF7BCF9082229001AA81E9BC0
:104BD00005F0A3FE08221AA91CA805F09EFE1C9A47
:104BE0001D9B616E4B409A4201D0FEF7A9F9082245
:104BF00012A916A81A9D05F090FE082216A918A859
:104C000005F08BFE189A1999636E4B409A4201D0B9
:104C1000FEF796F9074A169B2D04AD182CA805AA95
:104C20002C952D920593FBF74BFD04006BE7C046D6
:104C300080A0000800010036F0B5A5B004AC0490D7
:104C40006160029203932AAB1B782B9A0193644B09
:104C500002AF9A4200D0C1E0624B634D12936A6E7C
:104C600012A9534010A8082213930AAE05F055FE6E
:104C7000082210A906A805F050FE330008A806CFA8
:104C800006C3082206A905F048FE082231000CA838
:104C900005F043FE0C9A0D9B696E4B409A4201D081
:104CA000FEF74EF9082208A90EA805F036FE0E9A66
:104CB0000F9B696E4B409A4201D0FEF741F90A9A68
:104CC000089B9A4209D17268099B9A4205D1474BC9
:104CD0001B68002B01DA02F0BDFC019B002B0BD0FE
:104CE000FBF7B6FD02F0C4FCC022C02340495200CD
:104CF00088581B0603438B5020A90B00220041CA91
:104D000041C3082222A805F008FE229A23996B6E5F
:104D10004B409A4201D0FEF713F989232099354A76
:104D20005B01D1501CA90B00220041CA41C30822DB
:104D30001EA805F0F2FD1E9A1F996B6E4B409A4219
:104D400001D0FEF7FDF81C9A2B4B18A99A600B00B6
:104D5000220041CA41C308221AA805F0DEFD1A9AB2
:104D60001B996B6E4B409A4201D0FEF7E9F8189BF5
:104D700014A91E680B0005CC05C3082216A805F06F
:104D8000CCFD169A17996B6E4B409A4201D0FEF7F4
:104D9000D7F81A481A49149B091A5C68FBF7C8FC33
:104DA000184D19492800491BFBF7C2FC174BDC6161
:104DB0001E6285F3088816481649091AFBF7B8FCE5
:104DC00086F3088814481549091AFBF7B1FCFCF76B
:104DD00069FC002002F024FFA047FEE7FEE7C04682
:104DE000186EA9719B71CA2780A000080001264097
:104DF000000026400000204000ED00E080A00008F8
:104E000060A30008002000080024000858A700083C
:104E100000B0020800C00208B8A6000804F50108A6
:104E2000F0B58FB00CA90B00704A11CA11C308224B
:104E30000AA805F072FD6E4E0A9A0B9B716E4B40EC
:104E40009A4201D0FEF77CF86A460C9B694CDBB2B3
:104E5000D71D3B70E36868490393A3690293029BE3
:104E6000002B00D084E028316448FDF737FD64480A
:104E7000644A0021121A04F0E8FE6348634A0021E4
:104E8000121A04F0E2FE624D624A0021521B280011
:104E900004F0DBFE3B7804A9DBB20493726E06A833
:104EA000534008AE0822059305F037FD082206A9F5
:104EB000300005F032FD4D4B06CE06C3039BE36088
:104EC000029BA36185F30888534D544800212A1A98
:104ED00004F0BBFE85F30888012002F0A1FEFCF778
:104EE000E1FBE06802F048FE4D4B0100984202D021
:104EF0004C48FDF7F3FCA3694B48002B00D14B480D
:104F000002F0DCFD4A4B1B68002B01DA02F0A2FB29
:104F1000A569002D2AD0384846496030FBF7F4FCDB
:104F20002022454B1A60454B454C464E9D4231D898
:104F30002022454BDA67BFF34F8FBFF36F8F1621E7
:104F40000520FBF7C9FCC02201215200A35828000C
:104F50008B43A35000223D4B1A738023A2591B069A
:104F60001343A35102F0AAFB02F094FC06F030F9BF
:104F7000029A374B9A4201D801330293029A2831A0
:104F80003448FDF7ABFCFA2002F0E0FD029BFA3B4F
:104F900002936CE7FBF75CFC8022A35912061343D3
:104FA000A351C0235B00E3589B0F05D1C4225200DC
:104FB000A35829490B40A350E1220127D200A3584E
:104FC0003B43A350C2235B00E058013880B202F09B
:104FD0005DFBE023DB00E750E35802F049FB02F001
:104FE00059FC0028D6D11D4BED189CE758A70008A6
:104FF00080A0000888EF010870B406106BBB061093
:1050000080A0000860A30008B8A6000804F5010805
:10501000002000080024000800C0020800B00208B8
:105020004BE6AC85A1BB061000A4000800400016AA
:10503000000126404915061000E100E0BC0A00000E
:10504000000026400C05000004E100E0D8A600089E
:10505000E70300007EBB0610FFFFF0FF31F8FFFF03
:1050600010B5002801D1FFF7DBFE10BDF0B505003B
:105070008BB0080014001F00FCF70FFA061E01DABF
:10508000FFF7CEFE18234343ED1828787600013849
:1050900043425841FFF7E4FF230F6B73230DAB73BB
:1050A000230BEB731F4B24095033F35A2C741E4E01
:1050B00004AC1E4A63601E4B183602A80292039489
:1050C0000496A360FBF77EF9002829D1194B01351E
:1050D0000293102302A8039404966560A360FBF773
:1050E00071F900281CD1144B01AD0293109B02A84A
:1050F0006360E36003942660A76027616561FBF746
:1051000061F9019B9F420BD1002809D10B4B6060D4
:10511000A06002A8029303942660E560FBF752F9B1
:105120000BB0F0BDD8A6000858A70008000B00354A
:105130000100C004000C0035000D0035000E0035E4
:10514000F0B5624C624DA54412AC2B000592614E45
:105150002200370003910990703303CB03C2FF375D
:105160000399787EFCF784F911A9C0B2FCF703F922
:10517000002808D0FEF7F2FE099B06CC06C309986A
:10518000554B9D44F0BD7B7E03980493FCF7BCFA1D
:1051900000280CD02C23039A0499534358224A43E5
:1051A0009B18F31806931B690293DB062CD5012389
:1051B00030936A6E30A9534024A80822319305F039
:1051C000ACFB082224A932A805F0A7FB082232A9CB
:1051D00012A805F0A2FB119812ACFCF7C3F8082244
:1051E000210014A805F099FB082214A916A805F0BF
:1051F00094FB3749169A179B496E4B409A4201D04F
:10520000FDF79EFE149BB5E726A8FFF72DF92B00AE
:105210002200703303CB03C2119B7035029334AB71
:1052200006CD06C37B7E18000793FCF7BFF8029BF0
:105230001B78834265D1069B1B6908935B0760D589
:1052400030250798059B6843B8308019029A069963
:10525000FFF742F9002849DAFEF780FE0822200015
:1052600034A905F05AFB26982799FFF7CBF82C2391
:10527000039904984B4358214143164A5B18174E33
:105280009958134CB14201D101F03FF9039B1449E5
:10529000002B05D0119800218268FEF729FB1149E7
:1052A0001148FDF71BFB01232C93626E2CA9534080
:1052B0001AA808222D9305F030FB08221AA92EA85F
:1052C00005F02BFB08222EA982E7C046FCF9FFFF60
:1052D00080A00008D8F30108040600003DB8F3964A
:1052E000EABB0610E0BB0610F2BB0610002808D18E
:1052F000787E05996843B8308019FCF759F9002881
:10530000AAD148A8FFF7B0F8BD4CBE4D230034AA7F
:10531000703303CB03C22B00FF335E7E23004AAA07
:10532000703303CB03C2230000274CAA703303CB96
:1053300003C2DE97636E0822DEA9C4A8DF9305F0DE
:10534000ECFA0822C4A94EA805F0E7FADC97636ED0
:105350000822DCA9C2A8DD9305F0DFFA0822C2A961
:1053600050A805F0DAFA082005F0A4FC0890B8422D
:1053700000D18CE040AB1F702C23039A0499534357
:1053800058224A439B18ED182A6952AB520700D4A1
:1053900033E1783406CC06C30298FCF77EF8002887
:1053A00075DB00D1C8E20298FCF785F800286EDBB7
:1053B000642343439448C018037A002B67D0D8A8CD
:1053C000FFF752F88E4F4CAC3B002200703303CBFA
:1053D00003C20EAD02992800FEF7D6FF230006CDCA
:1053E00006C3D898D999FFF70DF808222100BCA868
:1053F00005F093FA082252A9BAA805F08EFA0822FD
:10540000BCA9C0A805F089FAC09AC19B796E4B402F
:105410009A4201D0FDF794FD0822BAA9BEA805F072
:105420007CFA7749BE9ABF9B496E4B409A4201D0A5
:10543000FDF786FDBC9ABA9B9A4200D1E8E0BD9A7E
:10544000BB9B9A4200D1E3E0A120C00008224CA9F6
:105450006844A22405F061FAA1210CABE400E41831
:10546000C90008226944200005F057FAA2230CAABB
:10547000DB0063499B181A686368496E4B409A4287
:1054800001D0FDF75DFDA123DB006B441B6808988C
:1054900005F01AFC08224EA958A805F03EFA082289
:1054A00058A95AA805F039FA554C5A9A5B9B616E77
:1054B0004B409A4201D0FDF743FD08224EA954A863
:1054C000589B05F02AFA082254A956A805F025FA97
:1054D000569A579B616E4B409A4201D0FDF730FDC2
:1054E000549BFEF73BFD08224EA934A805F015FA9F
:1054F00048984999FEF786FF082234A944A805F088
:105500000CFA082244A946A805F007FA469A479BD8
:10551000616E4B409A4201D0FDF712FDA421449BDD
:10552000C9003A4B6944364C0B60626E42A8534046
:1055300008224B6005F0F1F9FFA8082242A9F430D7
:1055400034AD05F0EAF9082229003CA805F0E5F998
:10555000FFA90822F4313AA805F0DFF908223CA996
:1055600040A805F0DAF9409A419B616E4B409A429F
:1055700001D0FDF7E5FC08223AA93EA805F0CDF9D7
:105580003E9A3F9B616E4B409A4201D0FDF7D8FC9A
:105590003C9A3A9B9A4201D000F0B1FF3D9A3B9B66
:1055A0009A4201D000F0ABFF0822290036A805F08E
:1055B000B4F9082236A938A805F0AFF9389A399B12
:1055C000616E4B409A4201D0FDF7BAFCAA21369B8E
:1055D000C9000CAA8918002B01D000F08DFF70348F
:1055E0000B0005CC05C30822280005F096F9FEF74C
:1055F000B5FC0822290012A833E67034CAE6C0467A
:1056000080A00008D8F3010888EF0108264B5D57F9
:1056100030235E43C04CB83633190A930023FFAAE7
:10562000F43207981360FBF7C1FE029B0C901B78C5
:10563000834217D12C23039A0499534358224A4397
:105640009B18E41823695B070CD50298FBF725FF2C
:10565000002800DA1BE7182358430A9BC35C002B81
:1056600000D114E7A2200CABC000C018AB4B0CA9B2
:105670000360AA23DB005B18A94AFFA9F431436049
:1056800019605A60FAF79EFE061E00D0FFE62C2134
:1056900058223400039B04984B4342439A189E4B74
:1056A0000D919B181F89DA685B89BA189B180592BF
:1056B0000B930B9BA34254D9002E00D0E7E60B9B23
:1056C0001D1BE0231B029D4200D91D00A74203D9E8
:1056D00063199F4200D23D1B059BA34204D9059A42
:1056E0006319934200D9151B2B008E4A21000298A2
:1056F000FEF734FA029B0C9A1B780600934218D1ED
:105700005822049B03995A430D9B4B439B18824A92
:10571000D3181B695B070CD5A7420AD8059BA34287
:1057200007D9804BE21B009302992B000A98FFF7E0
:105730009DFC002E13D1A2200CABC000C0187A4BE8
:105740000CA90360AA23DB005B18764AFFA9F43199
:10575000436019605A609D60FAF734FE06006419D0
:10576000A7E7002E00D092E6A2200CABC000C01824
:105770006E4BA4220360AA230CA9DB00D2005B18A5
:105780006A445A6020229A60A122FFA9D200F43113
:105790006A4443601960DA60FAF714FE002800D00A
:1057A00075E60023FFA80093029A614B0699F43036
:1057B000FEF788FB002800D069E644ACFFA8230070
:1057C00042AA46A9F430FEF731FB002800D05EE67D
:1057D0002388222B00D1E3E100D9F9E0102BECD192
:1057E000D8220CAB9B181B88202B00D04FE6AA2593
:1057F0000CAAED00AD182A0046990298FEF7AEF902
:10580000041E00D043E6D2A8FEF72EFE494B4CA959
:105810001A00703241CA41C1FFAA0C32703303CB67
:1058200003C2A423DB006B44E15C625D914208D1BA
:105830000134202CF8D13F4BFFAA0C32783303CB34
:1058400003C2FEF78BFBFFA908220C314CA805F020
:1058500064F8D298D399FEF7D5FD08224CA9A6A8E2
:1058600005F05BF8334DA4AC2B002200783303CB5A
:1058700003C20822A6A9AAA805F04FF8AA9AAB9BD2
:10588000696E4B409A4201D0FDF75AFB0822210075
:10589000A8A805F042F82749A89AA99B496E4B4051
:1058A0009A4201D0FDF74CFBA69AA49B9A4204D0E1
:1058B000A79AA59B9A4200D0E9E51E4C4CAA23006A
:1058C000703303CB03C208224EA9A0A805F025F827
:1058D0000822A0A9A2A805F020F8A29AA39B616EB5
:1058E0004B409A4201D0FDF72BFB9623A09ADB0197
:1058F0001343104AE893526EE8A953409EA8082229
:10590000E99305F00AF808229EA9E6A805F005F833
:105910000822E6A93DE1C046D8F301080010003591
:1059200009000001880F0108001100350012003540
:10593000FFFF000080A00008A225AA24FFABF433DB
:105940001860ED000CABED18C14B0CA92B60E40006
:10595000FFAEC04B6418F43628006C6026606360AC
:10596000FAF730FD002800D091E52C22039B049922
:105970005A4358234B43D318B74A0CA8D21851891D
:105980001389D2685B18A2219B18029AC900526839
:1059900009186260B14A6C600A60AA22D20012182B
:1059A00028001660A360FAF70DFD002800D06EE510
:1059B000AB4B6C602B60A423DB006B446360202343
:1059C000A360A123DB006B442660E3602800E3E6CC
:1059D000502B00D17AE3812B00D0EEE6D8220CAB1D
:1059E0009B181B88012B00D051E540AC2200469942
:1059F0000298FEF7B3F8002800D048E5D4A8FEF7D7
:105A000033FD984D4CAA2B00703303CB03C2227890
:105A1000E0A9E0926B6ED6A853400822E19304F00F
:105A20007CFF0822D6A9DAA804F077FFDAA90822B9
:105A3000F4A804F072FF2B00F6AA703303CB03C264
:105A40000298FBF738FD060001283BD80822F4A98C
:105A5000FAA804F062FF64237343834EF8ACF6188F
:105A60002300FEA806CE06C30822FAA904F055FFBB
:105A7000FE9AFF996B6E4B409A4201D0FDF760FA97
:105A800008222100FCA804F048FF764BFC9AFD99FF
:105A90005B6E4B409A4201D0FDF752FAFA99F89AA0
:105AA000FFAB0433914278D1FB99F99A914274D1BA
:105AB0006C4A783203CA03C3FFA908220431F6A84E
:105AC00004F02BFFFEF74AFA0822F6A94CA804F0CE
:105AD00024FFD498D599FEF795FC08224CA9B4A8C8
