:02000004101DCD
:1000000000C00E08CBB11D100D00000029B21D105C
:1000100000000000000000000000000000000000E0
:1000200000000000000000000000000025B21D10CC
:10003000000000000000000025B21D1025B21D10B8
:1000400025B21D1025B21D1025B21D1025B21D10A0
:1000500025B21D1025B21D1025B21D1025B21D1090
:1000600025B21D1025B21D1025B21D1025B21D1080
:1000700025B21D1025B21D1025B21D1025B21D1070
:1000800010B5064C2378002B07D1054B002B02D06E
:10009000044800E000BF0123237010BDB89601089A
:1000A0000000000060D11D10044B10B5002B03D0E0
:1000B0000349044800E000BF10BDC0460000000036
:1000C000BC96010860D11D10F7B5684D2B68403310
:1000D0001B78002B00D101BEE02201206449920070
:1000E0008B589B069B0F98402B68019040331B78E0
:1000F000002B00D101BE0F238A5813402A683E32DC
:100100001278934200D301BE2A683E32127893429D
:1001100000D301BE2A683E321278934200D301BE5A
:10012000534A9C00A418D02207209200A2580240F3
:10013000042A07D1C0229200A25818301040802211
:10014000520002438820400082425ED005D8002A37
:100150000DD0022A50D000260AE01220FF30824241
:1001600058D01420FF308242F5D1424A4EE0424E30
:10017000002B57D1B0248020E4000A594004970393
:10018000024094463D4A3E4D885804328A584D59A3
:100190000C59C004BF0BC00C1900002C04DA9100EC
:1001A000890F02394C1EA1416246531E9A41013209
:1001B00000291AD0002818D0002A16D000231900D0
:1001C0000BF064FA00230C0005003A00300019001F
:1001D0000BF05CFAE6076A0832436308801859415D
:1001E0002A0023000BF032FA0600019B5808801900
:1001F00019000BF081FBFEBDA620C0000A580026A6
:10020000D2439207B4D00A58B2E71E4A8E58F60F6E
:10021000F603ADE704201C4A16690640A8D08026E4
:100220003602A5E72A683F3212789342DDD8013BB7
:10023000164D9A4213D97F271F226159080A0B0CC9
:100240000F4089001040890F1A40002364599C42D6
:1002500003DA02390B00591E8B411900A8E701BED1
:1002600000210A0008000F00EFE7C046D8960108F9
:10027000000026403C05000000127A0084050000C2
:100280008C0500000C05000000002740FC05000064
:10029000074B9B68DB681A68002A06D05B68186801
:1002A00001231840034BC01870470348FCE7C046C1
:1002B000D89601080001880004018A00437802787A
:1002C0001B021A438378C0781B04134300061843AB
:1002D000704730B5050001230F24FD350949FF356E
:1002E0005B42027801305A40130922409200525872
:1002F00053401A0923409B005B585340A842F0D159
:10030000D84330BD80BA1D10104B30B51B681A00A1
:100310001800753214787630013A007812789968AE
:1003200077338240187803231D008540280010434E
:1003300080221206024301200340A340134380227F
:10034000D2008B5000208B5830BDC046D896010893
:10035000084B00201B681A00996801237532127837
:1003600093401A008023DB0513438022D2008B5078
:100370007047C046D8960108F7B500258C79C0B201
:100380000134E40001942F0008248446085D84456C
:100390000BD10E19F079FF2807D17078B84204D339
:1003A000B678012E01D10700250001980834844257
:1003B000ECD9002D0BD0491908799070487950700C
:1003C000887910700020CA7892001A60FEBD01483A
:1003D000FCE7C0468000B200074A136833331B783D
:1003E000834200D801BE13681A00BA3212881B6A11
:1003F0005043C0187047C046D896010870B5040035
:100400000020FFF7E9FF144B14491B68BC331A683E
:10041000002382180568002D06DB8B4202D1842060
:10042000404270BD0133F5E78B42F8D00123C46030
:10043000836000230A491068002803DA8B42EED05B
:100440000133F8E78B42EAD0A0222368120600208D
:100450009342E6D01800E4E7D8960108983A0000E5
:10046000009435771FB5084B002402936B4602A811
:10047000039301AB01940093FFF7C0FFA04200D0AB
:100480000194019804B010BD001B0035002803D072
:100490000378013B1F2B00D970470130F6E700229B
:1004A00010B504001000A15C0B00303B092B09D8EB
:1004B00030380818531C032A03D000011A00042BFB
:1004C000F1D110BD0B00413B052B01D83738F0E7C7
:1004D0000B00613B052B01D85738EAE70020F0E715
:1004E000F0B50B7885B0039017004D1C222B17D068
:1004F000116000202AE05C2A07D1019A5278002A74
:10050000F7D0019A013301320192019A013201922E
:10051000019A1278222A00D1A7E0002AEBD1E8E75D
:1005200001950023F4E72B785C2B11D02370013563
:100530000134019B9D42F6D30023039A23700833B4
:10054000D36013000198029A01301A6105B0F0BD22
:100550006B78662B63D014D82F2B61D007D8222B51
:100560005ED0484B3D605B6802989847C1E75C2BC2
:1005700056D0622BF5D1082323700134063BED18C9
:10058000D7E7722B50D006D86E2BEAD10A232370FE
:100590000134083BF3E7742B48D0752BE1D1019B64
:1005A0005B1B052BDDDDA81CFFF779FF364B374AB7
:1005B000C31806009342D4D90028D2D0344B334A12
:1005C000C318934234D8019AAB1DD31A052BC8DD4A
:1005D000AB795C2BC5D1EB79752BC2D128000830E3
:1005E000FFF75DFF284B294AC3189342B9D8294B1E
:1005F000B6021E4080238005800D5B020643F6187C
:100600000C23254A96421FD9244A9642A9D83F2056
:100610003040802676420643E670042212E00C2326
:10062000237001340223AAE70D23F9E70923F7E732
:100630007F2804D91A4B98420ED90623E1E70623F6
:1006400001222070A4189AE73F203040802676428D
:100650000643A6700322F5E73F20802306405B4255
:100660001E43667086330222ECE7019A501AC01AC4
:10067000044B04301B6898470290041E00D058E7D2
:1006800037E7C046809001080024FFFFFF03000009
:100690000028FFFF00FC0F00FFFF0000FFFF10001D
:1006A000FF070000F8B5802604007600002C00D17A
:1006B000F8BDE3682768334204D1A068002801D060
:1006C000FFF7F0FFE3680B4D334204D120690028A7
:1006D00001D06B6898478022E3689200134204D1EE
:1006E000206A002801D06B68984720006B68984703
:1006F0003C00DBE78090010870B50568040000202D
:10070000FFF76AFE002316490268002A05DB8B42C8
:1007100001D1FF2070BD0133F6E78B42F9D00122F1
:1007200023002A4000D023680E4C2468BC3424687F
:10073000C36001238360002305192D68002D03DAAF
:100740008B42E6D00133F7E78B42E2D0C068002A43
:1007500000D10068A0231B069842DBD10020D9E716
:10076000983A0000D8960108002210B5094B86B0CF
:100770000193039003AB040001A802930492059136
:10078000FFF7BAFF4342584140420440200006B000
:1007900010BDC04600220035034B1B68BC331B68EC
:1007A000C0180068C00F7047D8960108DC23F0B568
:1007B000002487B09B05049304AE02AB73600290E3
:1007C0002000039401911700FFF706FE05002300A7
:1007D000144C2A68002A07DBA34203D101204042BF
:1007E00007B0F0BD0133F4E7A342F7D00123EE6078
:1007F0000026AB602800FFF7CFFF002803D0A642F9
:10080000ECD00136F6E7A642E8D0A023049A1B06F6
:100810009A4201D00498E3E7029B019A3B60039B54
:100820001360DDE7983A000070B5FFF74DFC002833
:1008300022D0124B1B681A00883212681B689B1862
:1008400019681C68090E0131240A0BF055F8E1B251
:1008500001310BF051F8451E094928000BF04CF806
:10086000FA21084C01302072890028000BF044F86E
:100870000130E060C003206170BDC046D896010819
:1008800040420F0080900108C0228020064952009B
:100890008B58C0059B009B0803438B5080238858CE
:1008A0001B0603438B50704700002640174A30B5A3
:1008B00013681C002C3424781F2C16D882080724B7
:1008C0001500A5432C1E0FD103342040A0408140C9
:1008D0001B68920020339B180A00FF2181401C688E
:1008E000624011406140196030BD9B8F8B4200D146
:1008F00001BE13681A680723184080231B0618439B
:1009000080239B01C91889008850EDE7D89601081B
:100910000A4B10B51B681A002C3212781F2A03D814
:10092000998FFFF7C3FF10BD80221B688900C9188B
:1009300012028B585B005B088B50F4E7D8960108D5
:10094000F8B5436805000C00032B00D901BE002355
:10095000E85E00282CDB6988FFF7A8FF0020FF274E
:10096000032639000023EA5E6D6893B21E40F6004C
:10097000B140AD013D40C943B540002A1ADB134EDA
:1009800093089B009B19C026B6009F5939400D4320
:100990009D510F490F4B8D689D4208D189688B424C
:1009A00005D1002C00D101BE103292009C50F8BD40
:1009B0000948D4E70F263340083B054E9B089B00AF
:1009C0009B19DE6931400D43DD61E2E700E100E0A3
:1009D00000ED00E0009001080100560010B5FFF79F
:1009E00073FB074B1B681A00883212681B689B1840
:1009F0001968090E01314B0818180AF07DFF10BD67
:100A0000D896010810B5FFF7E9FF084B1B681A00DC
:100A1000883212681B689B181968090AC9B201312B
:100A20004B0818180AF068FF10BDC046D896010898
:100A3000F0B58C46002800D101BE83695868904209
:100A400019D91D6D002D03D00020DF6C874201D124
:100A50000A480DE08300EC582668B24209D3E368E7
:100A600061684B439B199A4203D2634600201C6085
:100A7000F0BD0130EAE70248FAE7C0460600B200DE
:100A80000400B20000290CD00722436C1340032B52
:100A900009D8C023013989B21B031943016500201D
:100AA00070470248FCE70248FAE7C0460400B2007B
:100AB0000100B200F7B50200C4324C690D00CB68EA
:100AC000019211680F220A40A24200D922000700B9
:100AD0000100D437D8310097002A12D1EB606C6145
:100AE000002C0CD1F9220221D20083588B43835071
:100AF0000320A8612B6A002B01D02B6A98476C61F8
:100B0000F7BD082A19D10E68370A1E705F70370CBE
:100B1000360E9F70DE700E68370A1E715F71370CDB
:100B2000360E9F71DE710F269B18A41A019A126867
:100B30003240A242D0D92200CEE7012A04D10600D9
:100B4000D03636681E70EEE7022A05D1009E366860
:100B50001E70360A5E70E6E7032A09D1009E3668E9
:100B60001E70360A5E700600D03636689E70DAE770
:100B7000042A08D10E68370A1E705F70370C360ED3
:100B80009F70DE70CFE7052A0CD10E68370A1E7001
:100B90005F70370C360EDE7006009F70D0363668F8
:100BA0001E71C0E7062A0DD10E68370A1E705F70ED
:100BB000370C360EDE70009E9F7036681E71360A46
:100BC0005E71B0E7072A11D10E68370A1E705F7098
:100BD000370C360EDE70009E9F7036681E71360A26
:100BE0005E710600D03636689E719CE70A68160A68
:100BF0001A705E70160C120E9E70DA700A68160A71
:100C00001A715E71160C120EDA719E7108228AE753
:100C1000F0B58B6885B00193030008330D6803932A
:100C2000DC6F0F231C40073B1C1B019B00900F0037
:100C30009C4200D91C00009B009E9433983602937E
:100C4000002C14D1019B3D60BB60002B0DD1F9221B
:100C50000120009BD2009B58009983438B50B861C0
:100C6000FB69002B01D0FB69984705B0F0BD082C4B
:100C700016D12800FFF722FB3060281DFFF71EFB6E
:100C80003060019B2D191B1B0193039BDC6F0F230D
:100C90001C40073B1C1B019B9C42D1D91C00CFE789
:100CA000012C04D12A78009B90331A60E9E7022CCA
:100CB00006D12A786B781B021343029A1360E0E78F
:100CC000032C07D16B782A781B021343029A136016
:100CD000AA78E8E72800FFF7F1FA042CD0D03060BA
:100CE000052C01D12A79DEE7062C02D12A796B790D
:100CF000E1E7072C07D16B792A791B021343029A8B
:100D00001360AA79CFE7281DFFF7D8FA08243060CE
:100D1000B7E7F0B5490085B0019199000C230AAC02
:100D200019402478093B1A400A4361426141002678
:100D30001F2709010A4303900292019D9900CD40AB
:100D40000F2200241540039A51180A680120054219
:100D500005D03800A04082430298A04002430834E6
:100D60006D08202CF2D10A605C1E002B07D10B68A5
:100D70005A401F239A4309D1300005B0F0BD0B68DB
:100D8000934205D12300621CD7D1F5E7014EF3E76A
:100D9000004EF7E70300C20010B5002800D101BEE5
:100DA0004B89DB0B00D001BE02238A799A43012ACA
:100DB00000D001BECA799A43012A00D001BE4A89F7
:100DC0007F2314009C4322D107248B7952022340B5
:100DD00013434A7A313492071343CA79097AD2000D
:100DE0002240134301224A40920113431A00094949
:100DF0000A409A420BD14262406A0840801A43423C
:100E00005841054B40421840044BC01810BD0448DF
:100E1000FCE7C046DBFEFFE0FDFF3DFF0300C20034
:100E20000100C200F8B51E4D17002A690E00002A05
:100E300000D101BE2C24FF21444318002A69084038
:100E400014191A0A0A401B0CA36020606260FFF7A5
:100E5000C3FA2B682061343361681B78994200D350
:100E600001BE0F4B1B681A6A0B0080335B01D3185D
:100E70006361A368180C01D001BE01BE49011B04C7
:100E800052180849180C0343521813600023A36139
:100E9000069BE7612662002B01D01B88A381F8BD69
:100EA000D89601080810000070B504000D00FFF787
:100EB00073FC002802D00020656070BD0048FCE78C
:100EC00001008A00F8B5264B1A69002A00D101BE3C
:100ED0001C69002C00D101BE2369002B00D101BE8A
:100EE0006369002B00D101BE236A002B00D101BE33
:100EF0006269D5682B0C1ED01B041360206913682F
:100F0000FFF74AFC002816D027693800FFF744FC99
:100F1000061E0CD0F868E26903681E0CDBB293422F
:100F200005D2226A9B009B58002B00D098473100C5
:100F30002069FFF7B9FFADB2002D09D063691D60CC
:100F400000251B68636AAB4205D098476562A561BE
:100F500063691B68F8BDA36A002BF8D09847F6E7D1
:100F6000D896010810B5072900D901BE1F23140027
:100F70009C4300D001BE0E4B1B689C695B69001B43
:100F8000C0090001C0181F231A40032907D8C9004F
:100F90008B408A4004689C432243026010BD0439A0
:100FA000C9008B408A4044689C4322434260F5E775
:100FB000D8960108F0B5060085B00D001400002891
:100FC00000D1F2E0072900D901BE2368012B00D926
:100FD00001BE0F2362689A4300D001BE1F22237A0C
:100FE000934300D001BEE368032B00D901BE2369FF
:100FF000012B00D901BE6369012B00D901BE236A10
:10100000012B00D901BE636A012B00D901BEA36A7E
:10101000012B00D901BEE36A032B00D901BE236B6B
:10102000072B00D901BEE369032B00D901BEA369D8
:10103000012B00D901BE01231A00AA405C4F019286
:101040006A000292103294463A68E169833210785D
:10105000801902680292A2691340AB4003220393F5
:10106000634611409940039B0B4361468A400199B6
:101070000A43029991430B4303606368072D00D92B
:1010800001BE0F221900914300D001BE0F20AA001B
:1010900002923A680700813212780340B218116850
:1010A000A8008C46A9008F4061468340B9430B439A
:1010B0001360227A29003000FFF754FFE368082DFF
:1010C00000D901BE032B00D901BE0320384A070016
:1010D00012680340803212786800B21811688340A9
:1010E0008C4669008F406146B9430B431360236906
:1010F000082D00D901BE012B00D901BE0199B269AA
:10110000CF4301210B40AB403A401343B3616269C6
:10111000072D00D901BE012A00D901BE244B196850
:101120000B0082331878843130180368029301234E
:101130001A40AA409C46029B1F40174302220760A8
:101140000427636A09785B001340A26A7118920051
:101150003A4067461343226A08681740E26A3B43F5
:10116000D70018223A40FF271A43236BB8435B018C
:101170003B401343FE229C469200AB0013401A00F2
:1011800063469340184308602068072D00D901BECC
:10119000012804D901BE019B0020B36003E00028B0
:1011A000F9D1019B736005B0F0BD0248FBE7C04672
:1011B000D896010801005A0010B50020FFF70CF97D
:1011C000FFF7EAFA002844D1234A244953698B42A5
:1011D0000FD010D8402B36D005D8002B37D0102B8D
:1011E0002FD01F481FE0802B2FD0802149008B4239
:1011F000F7D11A4817E01B498B421CD009D8A0210F
:1012000009068B4223D01849A0208B42E9D1C003A4
:1012100009E016498B4210D015498B420FD0154971
:101220008B42DED11448136801225B689A609A6889
:10123000002AFCD110BDA420E9E71048F3E71048CC
:10124000F1E71048EFE71048EDE71048EBE7002022
:10125000E9E70D48EEE7C046D896010806005200BF
:10126000FF005200010000F0090000A0040000F09F
:10127000050000F0030000F00100520002005200DF
:10128000030052000100500002005000050052000F
:10129000024B80005B6A5B68C0587047D8960108B3
:1012A000034A5369591C01DA013B53617047C04638
:1012B0008090010810B5144C63695A1C23D0002B90
:1012C0001ED1200011491830FFF73AFB1822A35E07
:1012D000002B06DB1F2213401E3A9A4013000C4AD3
:1012E000136000220B4B9A62DA621A639A635A63A4
:1012F000DA631A648023084A1B0611680B431360E3
:1013000063690133636110BD809001081D131D10D6
:1013100000E100E0D89601080000424070B50125C8
:101320001B4C1C4BE3582B4209D01B492000283191
:10133000FFF76EFCF823DB00E550E35870BD022593
:101340002B4205D0144920002831FFF7B3FBF1E709
:101350000422134206D005210F4B1964F823DB0049
:10136000E250EAE70822134202D00B4B0621F4E7D1
:1013700010210B4206D00722074B1A64F823DB002A
:10138000E150DAE720210B42D8D0034BF5E7C04605
:1013900000004240CC070000D896010810B5002894
:1013A00004D043787F2B01D9FFF77AFF10BD10B529
:1013B0000B4B74331A68002A02D10124644205E001
:1013C000147804338442F5D100240A600B68002BA2
:1013D00004D05B787F2B01D9FFF76CFF200010BD94
:1013E00080BA1D100223002803D00433012800D046
:1013F000F933180070470123002803D00433012873
:1014000000D0FA33180070479823F7B53B4C5B00C7
:10141000E55C06002800FFF7EEFFB0420ED1582031
:10142000684323185B6A283000930419344B7433E3
:101430001F68002F1DD101204042FEBD2800FFF78C
:10144000D1FF864206D15820684323181B6D5430C3
:101450000093EAE7032E04D1B4342368294C0093A7
:10146000E4E70120072EE8D1C0342368264C00931E
:10147000DCE73A7804339642DAD17B78BD687F2B7B
:1014800002D18026B6000AE05BB2002B20DA1F4BA7
:101490005A69002AF5D05B6A1B689B699E697019BE
:1014A000013831000AF028FAFA23DB00984200D90B
:1014B00076007B68009F019300230093002D0AD1E2
:1014C000FA23009ADB009A42B5D822602800B4E7DC
:1014D00000250126E3E7310001980AF093FA711A1A
:1014E000A94200D92900019B79603B605B180193F8
:1014F000009B6D1A013300930837DFE778DE06089A
:1015000080BA1D1030DF06083CDF06088090010815
:1015100010B501290AD00323022905D0043B002974
:1015200002D1FFF768FF0300180010BDFFF75AFF54
:10153000F9E703780422190000209143012905D01E
:101540000130022B02D0062B00D0023870470378FE
:1015500000205A1E012A05D90130052B02D0062B86
:1015600000D0023870470B7870B50400072B20D1EB
:10157000204B1A00C8321268CC331B68D31894422F
:1015800035D39C4233D2F0231B4A1B06E3180020BC
:1015900093420DD9194B9C4229D9C022184B5205B0
:1015A0005B6A1B689B695B689B189C424041404298
:1015B00070BD032B05D10F4B1A00D0321268D43303
:1015C000DBE70800FFF7C3FF002810DB64231900E6
:1015D0004143084A5118CD6B096CA54202D84919FC
:1015E000A142D0D858431018426C836CC6E7012042
:1015F000DDE7C04628DA0208FFFF1C00FFFFFF17E7
:101600008090010810B5FFF73FF9E0230121044A5B
:10161000DB00D058084201D0D150D35810BDC0468D
:1016200000002640F0B580258224802640272D0129
:10163000A400094B1A68944661463200294200D141
:101640003A001B59DB05DB0D9342F2D09023024A8E
:101650009B00D050F0BDC0460000654010B50400AE
:101660002422002109F003FE200010BD0300012008
:10167000042B05D0052B04D101390800411E8841F7
:1016800070475B1A58425841FAE7013800B50528FF
:101690001BD80AF013F91803061A0910A0204001FC
:1016A00000BDA0208001FBE7094B30331B78012BE4
:1016B0000BD9F020F6E7064B30331B78012B04D909
:1016C000A020C001ECE70020EAE701204042E7E764
:1016D0008090010842790023012A06D10268012A7C
:1016E00003D10379013B5842434118007047064B30
:1016F00010B51B6828209847041E03D0282200211B
:1017000009F0B5FD200010BD8090010810B5FFF76D
:1017100079F9FA2189000AF0EFF8010003480AF08C
:10172000EBF8034BC0180AF0A3F910BD60F5900068
:101730009808000070B5144B144E3360FFF774F82E
:101740008023134D03202B602B0008336B60FEF7C2
:1017500043FE04002B68B060DA080021686809F0D5
:1017600086FD00212000FFF79FFB2368002B05DA90
:101770000021E5602000A160FFF796FB3369002B94
:1017800001D1044B336170BDD0BE1D10D896010845
:1017900000000008489A0108F0B593B007000D005A
:1017A0000192022931D009AC2000FFF757FF8023B6
:1017B0009B000C93164B69000D93164B06940993EE
:1017C000154B2C010393154B05AA78335B18059331
:1017D000230001990C33CB180793102303A804921C
:1017E0000893FEF70BFE061E0CD1182321005D4363
:1017F000019B7F192C315918781C102209F039FEF1
:1018000001233B70300013B0F0BD87267642F9E724
:101810000100C0040024800000090035D8960108AA
:1018200010B5010004000B4809F029FD002398427F
:101830000DD02100084809F022FD0123002806D020
:101840002100064809F01BFD434243415B0018009C
:1018500010BDC04670C11D1079C11D1085C11D107D
:1018600010B5010004000B4809F009FD002398425F
:101870000DD02100084809F002FD0123002806D000
:101880002100064809F0FBFC434243415B0018007D
:1018900010BDC0468AC11D1093C11D109BC11D10F3
:1018A000F0B507000D00002491B001AE002D02D16B
:1018B000280011B0F0BD296A002904D0380009F0D1
:1018C000DEFC0028F4D0AB68002B06D00E2C12D81A
:1018D000A200955101341D00E8E72B68002BFAD1D6
:1018E000002C0AD0013CA3009B591B68002BF2D1AD
:1018F000002CF7D1EFE70025DAE72500D8E710B58F
:10190000FFF7CEFF0124002809D08168002906D006
:101910000448FFF7C5FF002801D0C468E4B22000E6
:1019200010BDC046A3C11D10F0B5002685B00093C0
:10193000150003003400029003911F785A1C019295
:10194000002F08D0039B002B0FDB1300029A9B1A79
:10195000039A9A4209DA009BA34261D9002D01D073
:1019600000232B55200005B0F0BD3B00093B042BA4
:1019700034D9202F32D02C483900143009F03CFEE5
:10198000031E05D12D2F0AD05F2F49D1264B53338B
:10199000032E23D8300009F091FF05102335224B88
:1019A0005233F5E7002D06D0009A944238D21F4AF0
:1019B0009B1A9B002B55012610E0621C002D0BD0BA
:1019C000009991422CD919492C195B1A21781811C8
:1019D00001431B012170AB5414000226019BACE7AC
:1019E000621C002D0BD00099914219D90F492C1976
:1019F0005B1A2178981001439B012170AB541400AD
:101A00000326EBE7002D08D0009AA24208D9074927
:101A10002A195B1A11780B43137001340026DDE795
:101A2000012464429EE7C04600BB1D1014BB1D107C
:101A3000F8B50E002E21170009F0DEFD041E0CD0B3
:101A4000451C2E21280009F0D7FD002805D0001BD9
:101A50000138386000203560F8BD16204042FBE7B1
:101A6000F0B5040085B00F001600002901D1002058
:101A700013E004226F49380009F0D4FD002803D197
:101A80000223E360381D08E005226B49380009F0A5
:101A9000C9FD002803D1E060781D05B0F0BD042227
:101AA0006649380009F0BEFD002806D10123012255
:101AB000E3600023A261E361E4E73B78222B05D1D8
:101AC000320039002000FEF70BFDE6E72D2B03D096
:101AD0001A00303A092A24D800250A2203A938001E
:101AE000039509F083FC030003988742BFD05A1C7A
:101AF0000AD1534A914211D10122514B5242A26163
:101B0000E3610423E360C8E7002B07D180221206BB
:101B1000914203D1802300221B06F0E7A361E1611B
:101B2000EFE75B2B35D1781CFEF7B0FC037805009E
:101B30005D2B26D00023013D01930093FFF7D7FDD5
:101B4000009B071E6FD0002B19D0019B18604360CB
:101B5000681CFEF79BFC320001003800FFF780FF95
:101B6000FEF794FC051E06D0037801972C2BE5D0D8
:101B70005D2B08D030600098FEF794FD77E7009069
:101B8000E6E7002300931023E360009B681CA3603A
:101B900083E77B2B4BD1781CFEF778FC037807009A
:101BA0007D2B38D00023013F01930093FFF79FFD69
:101BB000009B051E37D0002B17D0019B1860436097
:101BC000781CFEF763FC320001002800FEF788FC59
:101BD000FEF75CFC0028CED02B692B6200232B6122
:101BE00003783A2B03D03060C5E70090E8E7013076
:101BF000FEF74CFC320001002800FFF731FFFEF732
:101C000045FC071EB7D0037801952C2BCED07D2B39
:101C100003D03060AFE7002300932023E360009BF4
:101C2000781CA36039E7002B00D120E7A3E73760D9
:101C30001DE7C046ABC11D10B0C11D10B6C11D10BF
:101C4000FFFFFF7F70B50600FFF751FD00230B4D2E
:101C50000400EB6798420ED03000FEF717FC2A0014
:101C600001007C322000FFF7FBFE051E03D120009F
:101C7000FEF718FD2C00200070BDC046D896010864
:101C800070B504000D0086B00021142201A809F0EF
:101C9000EEFA29002000FFF703FE0400002C18D004
:101CA00021001C48FFF7FCFD0028F7D00569002D36
:101CB0000AD0194E2900300009F0E1FA00280BD1B2
:101CC000310001A809F0A6FC210001A8FFF7E8FDFA
:101CD0000400200006B070BD104E2900300009F04D
:101CE000CEFA0028ECD029000D4809F0C8FA0028E7
:101CF000E6D00C4E2900300009F0C1FA0028DFD0F0
:101D00002900094809F0BBFA0028DDD12100074865
:101D1000C1E7C046BBC11D10C0C11D10C7C11D1009
:101D2000CEC11D10D6C11D10DEC11D10E4C11D1095
:101D300010B5034B1B7A584309F036FA10BDC04664
:101D400080900108F0B585B002930AAB070001CB83
:101D50000E9D01900CA80478101FC0B21B78FA28C1
:101D600000D801BE181FC0B2FA2800D801BE601EFC
:101D7000012804D9FB26201F304200D001BE2602D4
:101D8000F0240D982401C003039001981204002848
:101D900040D00298002800D101BEC0208002FF2B55
:101DA00000D101BE02400020344021436E6A0A4344
:101DB000002502433A65C02228001B04920213400A
:101DC0001C43019B9D4202D2174B984201D105B0A2
:101DD000F0BD07227B6C1340032B0BD8029B0199AB
:101DE0005B5D01352343039A8D4200D200221343E9
:101DF0003B65EDB200208642E3D00130013EFFF7A3
:101E000097FF3000431E9841084B40421840064B54
:101E1000C018D6E7C02034408002024021436E6AD9
:101E20000A430398C4E7C0460200B200FEFF4DFF1C
:101E3000F0B587B002930B6805000E0010000A7918
:101E4000D9B228239C462B4C0C9FA4446346049390
:101E50000023039373790193032300930300280065
:101E6000FFF770FF002832D131692800FEF70AFE23
:101E700000282CD1337D1A1FD2B2FA2A00D801BE15
:101E8000002F33D007216A6C0A40032A30D8802201
:101E9000791E89B212030A43C0211B0489020B4038
:101EA00013432B650D9B00206363F9220423E76332
:101EB000D200A0642364A958023B0B43AB50E56CED
:101EC000A7630D4B226C032A01D0984201D107B0C1
:101ED000F0BD00208542F5D00130013DFFF728FF1D
:101EE00068426841044B40421840EAE70348EEE785
:101EF0000348ECE7D89601080200B2000400B200E3
:101F00000100B20030B58B6987B0DB680C001500AA
:101F1000002B0FD019681A79012303932378C9B2D3
:101F20000293FF230193002304950093FFF70AFF18
:101F300007B030BD0048FBE78000B200F0B50500F7
:101F4000181FC0B28BB0FA2800D801BE0724686CF5
:101F50002040032801D9174C19E0C0201B0480023F
:101F600003408020541E0003204303432B650C1EB6
:101F70000DD0109B00245E6A0423039105920894FF
:101F80000693069B042B02D10B4FBC4202D12000CA
:101F90000BB0F0BD002469462800FEF78BFDA64279
:101FA000EFD00120013EFFF7C3FEA642E9D13C007D
:101FB000E7E7C0460100B2000200B200F0B5D5B0BC
:101FC00008900C0009921E00002900D101BE0023D8
:101FD000190010AA1380937011AA1380937012AA8B
:101FE00013809370626B079222AA99540133642B79
:101FF000FBD1099B581EC3B2012B08D9099B042BA6
:1020000000D1CCE3082B01D100F0CFFB01BE032EA1
:1020100000D901BE072818D809F064FC08001D008B
:102020001700C403170017001700CB038022089B7A
:1020300012019A18002A08D0C020330480021168C7
:102040000340714801400B431360079B002B05D1EF
:102050006E4B069307E3089B8822E9E7382322ADFD
:1020600000930195099B10AA07990898FFF7E0FED5
:102070000690002800D0F6E2AB79062BE8D82B7842
:10208000532BE5D16B78462BE2D1AB78442BDFD1D3
:10209000EB78502BDCD12B79052BD9D96B790B93AD
:1020A000012BD5D1139013AB11AA29005848FEF784
:1020B00063F9069B12AA1493290014AB5548FEF746
:1020C0005BF9554A069B904201D1E3642365FF20EA
:1020D000159310AA15AB22A90002FEF74DF9069040
:1020E000002800D0BFE2A368002B00D101BEE36846
:1020F000002B00D101BE2369002B00D101BE636912
:10210000002B00D101BEE369002B00D101BE236A80
:10211000002B00D101BEA36A002B00D101BE159B8C
:1021200022AD009310AA099B079901950898FFF723
:102130007FFE01220A901000297F16AB884017907D
:102140001000697F1970A97F8840E97F1A90197380
:10215000692108A809181000C97F88406A211D90CC
:1021600008A80918C97F19766B210918C97F23AB04
:102170008A402092DA7F3D231B18DA77AB78002261
:102180005B079B0F032B02D0244A5332D25C2260A0
:1021900023A8FEF793F8002830DB0130C0080122A5
:1021A00011002CAB1B7860601B099940062361620B
:1021B000E16804200B6000230B7121690B7108603A
:1021C0000521A263A26A1371E36A1160002B00D19A
:1021D00001BE236B002B00D101BE0022236B08A996
:1021E0001A71A232521810784006400F05281DD8E7
:1021F000012209F063FB15E7EDF3E7E780230338DD
:102200001B061843CBE7C046FFFFFCFF0500B200EA
:1022100084FF000081FF00008000B20000BB1D10A1
:1022200001225242E2631A60E36A1A606022E369A3
:102230001F271A6000221A710F232B9A2C991A401B
:10224000013250000A0E3A4001324243BE4D48006E
:10225000800F40005635405B0B40424362640A0ADF
:1022600017404022890400D4383A022001335B0031
:1022700001377B43534322AAA364A568937886431E
:10228000012E00D1B1E02021194000D1C7E0537ADE
:1022900068712B6000232B71137A5B0900D0BAE0C0
:1022A000013BAB601F2222AB1B7A052613402B613A
:1022B00002232B752368042B00D0EEE131AB1B7891
:1022C0005A0601D4A14A0692012003422DD09B0751
:1022D00013D5E368002B10D019681A799C4B039032
:1022E00028330493099BC9B20293FF23019300236F
:1022F00008980093FFF726FD0690069B1A00934B63
:102300009A4201D0002A21D1914B00222833049314
:1023100001230393099B00920293FF23B7210193AA
:1023200008981300FFF70EFD0690069B002B0DD1B9
:102330003BAB0193139B11AA00930799099B089843
:10234000FFF776FD0690002800D1A6E0012054ABEF
:102350001B18C93B1A78012393401B38A36143081B
:102360000C930F232B9E0020334001335B000A9314
:10237000FA239B0080279C4618AD3300C3401F21E1
:102380001A090A405B0A1C390B403900022B06D09F
:102390006146032B03D01021012B00D00F390A9B7B
:1023A00001325A434A4307302A600C351C28E4D1D5
:1023B0000C9B1038584354AB18180538FF38836805
:1023C0002364DBE00221E1631A60E36A35222CE733
:1023D0004021E1631A60E36A052226E78022E26376
:1023E000423A1A60E36A01321FE71021194033D0E4
:1023F000D37B6E712B6000232B71937B5B0927D1FC
:10240000013BAB601F2222AB9B7B032613402B6159
:1024100001232B754EE7FF232873AB6042E7FF26AD
:102420005B0600D446E7D37A29712B606971937AF1
:102430005B090AD1013BAB601F2222AB9B7A0426C9
:1024400013402B6102232B7534E7AE602973F3E749
:10245000FF232E73AB60D5E7334015D0537B297132
:102460002B606971137B5B090AD1013BAB601F22B2
:1024700022AB1B7B022613402B6101232B7519E72E
:10248000FF232973AB60F2E703222A60043A2B7121
:102490006B71AA602B612B750CE7013E3B9B042EF0
:1024A00009D8300009F00AFA1D19151103009B061E
:1024B00001D5EC232B60236A3B9A042E56D83000BA
:1024C00009F0FCF9DCDCDC311300DB06F3D56C230E
:1024D000F0E71B07EFD5BC23ECE75B07EBD53C230C
:1024E000E8E79B07E7D50C23E4E7802501206D0092
:1024F00015404042002D0AD03E2200211A603C3A8D
:1025000019715A7198601A7319611A752EE0802139
:1025100011401FD034221D711A605D7198601D73C7
:102520001D61323AF1E7802101201140404200292B
:1025300010D034221A60002298601A715A711A73EE
:102540001A610232E1E7C04600BB1D108000B200F4
:10255000D896010840252A4000D187E0122219713F
:102560001A605971986019731961197516AA3BA9F7
:10257000200006F0CDFB002800D0E8E6236D002BFC
:1025800071D022AB0193149B12AA00930799099B67
:102590000898FFF74DFC0690002864D10700149BB3
:1025A0003B900C93844B07900A930221079A22AB2D
:1025B000D25C0A4000D184E00A9B002B4AD16922F8
:1025C00008AB6831C918D2180798079B105CCB5C20
:1025D000B84200D0C6E05A1CD2B2E264012A3FD908
:1025E0000025226D9B000992079A079F04329B18D1
:1025F0000C9308956822089B04375B19089308AB75
:102600009B18D95D0F23194000230B9A0A4200D171
:10261000B3E0682108AA5218D2590999150A0D92F7
:10262000079A0135BA1A043A8E58089A2D02326078
:102630000C22534316AAD3181A785968B2609A68C4
:1026400032618D4200D3A2E00123F56073600C9BE0
:102650009F42CFD10A9B1A00574B9A4200D09CE070
:102660000023E3642365069855B0F0BD02211A717A
:1026700019605A7198601A731A6146E740210A403E
:102680004139002A06D012221A6000221A715A71AA
:102690009960F0E702201860F8E70222236A01211E
:1026A0001A60002249421A715A7199601A731A61AC
:1026B0001A7522A916AA200006F02AFB0A9B069387
:1026C00059E707995B18D87859780D901F208C46E8
:1026D0009B7808A9401802709B090320012B05D0A4
:1026E000181E03D00420022B00D020680022079D72
:1026F0003BAB2E1890422ED10022304D099928353F
:102700000291009004950392019261460898FFF7A8
:1027100019FB0A90002814D11F2608ABF618009563
:102720000300012231000898FFF708FC0A900028F6
:1027300007D17F00FBB20D9A377817407A1E974178
:102740001F43079B08330793079A0C9B934200D3C0
:102750002BE71B4B7DE4B51A22A94D19ED789D544A
:102760000132C7E7079802339B00C3180793079805
:102770000C9B834200D327E7EBE701335200DBB227
:10278000D2B2052B00D041E70D4A0A9241E7F16031
:10279000280009F0B1F8706059E70A9B59E4032E4C
:1027A00000D936E4089B902242E4032E01D9FFF7BA
:1027B00030FC089B98223BE40600B200D896010842
:1027C0000700B200F0B58DB009932D4B079008912A
:1027D000150096089E424DD8002E00D101362C00DF
:1027E000B54200D93400A54246D92D1B254B200007
:1027F0009C4200D91800844240D9241A80B2FFF7C5
:1028000097FA002CF2D11F2704ABFF1801233B706D
:10281000089B9B6906939B6A002B26D01968099B2D
:1028200003940493089BC9B21B7822000293FF23F0
:102830000094019307982300FFF784FA00280ED133
:10284000099B01220093390023000798FFF776FBCC
:10285000002804D1069B9A6B3B7813403B701F23E2
:1028600004AA9B181878002802D0002DB7D106487A
:102870000DB0F0BD1E00B2E70025B7E70024BDE7AC
:1028800040420F00FFFF00000200B20070B588B0A8
:1028900006ADE870002029712880A870FEF7F8FCCA
:1028A000104C06002834010022000F48FFF72AFBD5
:1028B000002815D101230494039333780200029376
:1028C00005230190009371212B000748FFF73AFA86
:1028D000002805D12300054A31000348FFF772FFA5
:1028E00008B070BDD89601080000424020A1070042
:1028F000F0B500248BB009AEF07020000791348051
:10290000B470FEF7C5FC124F039428370497037880
:10291000104D02930423019400932200330065219B
:102920002800FFF70FFAA0420DD107226B6C13406D
:10293000032B0AD8084B063A2B650799030000972A
:102940002800FFF7FBFA0BB0F0BD0448FBE7C046D8
:10295000D89601080000424007000C000100B200B8
:1029600070B5802504002D02064BAC4204D8D8680F
:10297000604308F019FC70BD186908F015FC024BA3
:10298000E418F1E7809001080080FFFF0A23F0B50A
:1029900091B00993D24A03216032D248FEF70AFB74
:1029A00011220321CF48FEF7DDFACF4C042122008B
:1029B000CC481432FEF7FEFA11220421C948FEF772
:1029C000D1FA220005214832C648FEF7F3FA112257
:1029D0000521C448FEF7C6FA220006217C32C14810
:1029E000FEF7E8FA11220621BE48FEF7BBFABF4AFD
:1029F00007213032BB48FEF7DDFA11220721B94822
:102A0000FEF7B0FABA4D2B6840331B78022B12D96F
:102A1000E2230F20B74A9B00D1588143D150D158AF
:102A200021308143080020210143D1508021D0581A
:102A300009060143D150FA23F9220321AE4E9B002F
:102A4000EB64D200B35800278B43B3508823AB4CC0
:102A50005B0233606761FEF72DFC230020336B625D
:102A6000636A0A93BB4210D1FEF71AFC0122A34B02
:102A70005242A34C5A61FA204000FFF771FF099BB4
:102A8000013B0993002B85D184E1236A0B93002B32
:102A9000EAD007970897089B0A9A9B00D558002D03
:102AA00000D1E8E02B785A1E012A04D9FB22043B0E
:102AB000134200D001BE2B7A032B00D901BEAB69B3
:102AC000002B00D101BE2A78501E072800D976E1DC
:102AD00008F008FF08000001750102017501750189
:102AE00075010401874CC0272B7ABF0219042068A6
:102AF0003940854F3840014304202160696808400F
:102B00000BD0A9697C48FFF759FA002805D00823A3
:102B1000089A9340079A1A430792AB691B68013BD6
:102B2000032B00D901BE002800D0A4E06B689B07EE
:102B300000D4A0E02969E86808F064FF002900D00B
:102B400001BE2B69714A934202D95A1E134200D02A
:102B500001BEFF218C466746E968A869B9438268CF
:102B6000036AA16029694942B943E1600168032011
:102B7000013901406869471EB841000201432162E2
:102B8000002A35D010680021471C0AD0C0271179CF
:102B9000BF0209043940674607408020000607430A
:102BA0003943C02721645179BF0209049068394034
:102BB00061640021471C09D0C027117BBF020904B2
:102BC00039408027C0B23F06384301430020A1644A
:102BD0001169814205D01F30013901408020000673
:102BE0000843C021E064127D890212040A40226574
:102BF000002B32D019680022481C09D0C0201A7955
:102C00008002120402408020C9B2000601430A4338
:102C1000C02022665A7980021204996802406266D6
:102C200000224F1C07D01A7BC9B212040240802038
:102C3000000601430A430021A2661A698A4205D0B0
:102C40001F31013A0A40802109061143C022E16682
:102C50001B7D92021B0413402367C02202212B7AA2
:102C600092021B0413406A68FF3111408022120651
:102C70000A4313432360089B01330893089A0B9B74
:102C8000934200D007E7079B002B00D09BE00798FA
:102C9000FEF7FEFA164D9F212B0028330493079B65
:102CA0000393037814480293079B019300931A003F
:102CB000FFF748F8041E00D089E00721726C0A4033
:102CC000032A2DD9FEF7ECFA01220C4B52425A612D
:102CD0000F4CD0E60F4C06E70F4C04E70F4C02E711
:102CE00000BB1D108005314080BB1D1000BC1D10B5
:102CF000D89601080000264000004240809001085C
:102D00000400B20000084240FFFFFCFFFFFF00008C
:102D10000100B20080084240000942408009424060
:102D20004F4B3365736C0B40032BCBD84D4B0EAF21
:102D3000336506236F63AB63EB63079BF922AB64D8
:102D40000423D2002B64B158023B0B43B350464ED0
:102D50002B6C032B02D0013E002E0AD12B6C032BCF
:102D60000BD0FEF79DFA0122404B52425A61404C73
:102D700081E60120FEF7DCFFEAE73B78342B07D140
:102D80007B782A3B012B03D8BB78193B022B27D930
:102D9000FEF786FA200011B0F0BD8023032019430E
:102DA0002970FFF773FD041E11D142E0194304207E
:102DB0002970FFF76BFD002845D0040007E0079B52
:102DC000002B00D150E6B224079B24041C43FEF7DD
:102DD00067FA002CDED00122244B52425A614AE6A7
:102DE000FB780F2BD4D13E79032ED1D17B79902B58
:102DF000CED10020FEF74CFA01230022283504959D
:102E000003930378B72102930192009213001948AB
:102E1000FEF798FF041EDAD11F2506ABED18290036
:102E20003000FFF765FD041ED1D129784BB2002B8D
:102E3000B3DA29000420FFF75BFD041EC7D1082187
:102E40002B780B42B2D00020FEF722FA8022D82144
:102E50008369D2029A615A691160074A1A64B6E717
:102E60003F000C0005000800E90300008090010805
:102E70000200B20000004240701700000FB4F0B52D
:102E80008FB014AA08CA01921878002871D05C1C6F
:102E9000252803D0FEF7C6FB2300F5E75A786C2AF5
:102EA00000D19C1C2378732B0CD1019B1A1D1D682B
:102EB00001922878002801D10134EDE7FEF7B2FB3A
:102EC0000135F6E7642B01D0752B21D10025019B3C
:102ED0001A1D1F6801920135AE0002AB3800043E96
:102EE0000A219E1908F08EFD380031600A2108F091
:102EF00003FD071EEFD16A460821013D5218AB00C1
:102F0000D3581E4AD05CFEF78DFB002DF3D1D3E7DA
:102F1000632B07D1019B18681A1DC0B20192FEF7FE
:102F200081FBC9E7782B22D1019B02AE1A1D0192C9
:102F300000221B680F27551CA9001F40081F37508F
:102F40001B090DD1E8070DD58B51951C013DAB0038
:102F5000F3580A4AD05CFEF765FB002DF6D1ABE7CB
:102F60002A00E7E7012DF1D173600135EEE7002B70
:102F700092D10FB0F0BC08BC04B01847EAC11D10D4
:102F8000FEE7FDE7FCE7FBE7FAE7F9E7F8E7F7E735
:102F9000F6E77047F0B5D5B006910100D448FEF7CA
:102FA0007FFC002801D100F011FC83680293039399
:102FB00000231F0005930193039B002B00D0A2E088
:102FC000029BDB680193202B01D000F000FC029CE7
:102FD0002100C848FEF764FC051E00D182E1037E93
:102FE000069A9A4200D07DE10100C348FEF758FCE2
:102FF000C24C002800D16DE18269C14B3C925B6BF1
:103000003CA953403EAE082220A83D9308F031FA77
:10301000082220A9300008F02CFA230006CE06C3AF
:103020002900B848FEF73CFC1423002800D083692F
:10303000E3602900B448FEF733FC0123002802D0E6
:10304000C3685A1E934123742900B048FEF728FC38
:10305000002800D141E1836963612900AC48FEF793
:103060001FFC002800D13BE18369A36126000023F7
:10307000393633702900A748FEF712FC002807D024
:103080000169A54808F0FBF8002801D1012333703D
:10309000230039331B789D342370029E002F00D00B
:1030A00095E331009348FEF7FBFB002800D147E190
:1030B0008369924C1CADDFB222002B0003CA03C30C
:1030C000082229001EA808F0D4F98D4B1E9A1F99DA
:1030D0005B6B4B409A4201D0FFF752FF2B689F4237
:1030E00000D02DE131008D48FEF7DAFB002800D139
:1030F00020E264238269571E7B43E418022338349C
:103100002270039323E103998548FEF7C9FB002849
:1031100002D08668002E03D1039B1B6803934BE704
:1031200031008048FEF7BCFB002800D1AFE000254D
:1031300003697D4C04936434AB001959049808F07A
:103140009EF8002800D145E30135042DF4D1002478
:10315000754F74370797079AA3009958049808F099
:103160008EF8071E05D00134172CF4D10527183C22
:103170007F4231006D48FEF793FB002801D0836940
:10318000059331006A48FEF78BFB002813D000211D
:103190008369C2690191019901310191002A01D12C
:1031A000AB4205D901996D001D29F4D11F2301936C
:1031B000631C05D16BE0631C69D0019B002B66D0BA
:1031C00022004E4B2E3246AD12019B182A0003CB33
:1031D00003C20822290048A808F04BF9484B489A36
:1031E00049995B6B4B409A4201D0FFF7C9FE2B68AF
:1031F000012B17D1059B059A4E93414B4EA95B6B52
:103200004CAD534044A808224F9308F032F90822ED
:1032100044A9280008F02DF9384B22019B18D83317
:1032200006CD06C32200354B0A3212019B189222AA
:1032300040AD92009B182A0003CB03C2082229004C
:1032400042A808F016F92E4B429A43995B6B4B400B
:103250009A4201D0FFF794FE2B68012B17D1019BF6
:10326000019A5293264B52A95B6B50AD53404AA82A
:103270000822539308F0FDF8082228004AA908F014
:10328000F8F80E341D4B24011C190CCD0CC4366803
:1032900040E72849049807F0F2FF0028F7D13100F1
:1032A0002248FEF7FDFA002807D0144B224A9A5C08
:1032B000012A02D18269D0331A6031001C48FEF71E
:1032C000EFFA0028E3D00D4B1C4A9A5C012ADED1AC
:1032D000D433A3E201277F42A2E6FA231B01BBE617
:1032E000A061C3E62468002C00D071E6D5E6C04694
:1032F00070C11D10AFC21D101AC21D1028DA0208BD
:103300008090010821C21D1029C21D1034C21D1059
:1033100040C21D1054C21D1061C21D1066C21D1096
:10332000FBC11D10BBC11D1000BC1D1005C21D102E
:103330000DC21D1012C21D10D2020000D3020000E7
:103340003668002E00D0ACE6012337000393002E30
:1033500000D0F3E03100CD48FEF7A2FA019000283A
:1033600000D05DE13100CA48FEF79AFAC94C002846
:103370000FD0442394227B439200E3189B181B78C0
:10338000012B06D1C2686333511E8A417B43E31887
:103390001A723100C048FEF783FA0190002839D034
:1033A00044237B43E418952312AD9B00E4182B00C3
:1033B00014A806CC06C30822290008F05AF8B74C16
:1033C000149A1599636B4B409A4201D0FFF7D8FDD0
:1033D0002B68012B1ED1019B34A9DB6810A85A1E53
:1033E0009341AF4A5B421340AE4A9B183493626BE1
:1033F00036AC53400822359308F03BF8082210A958
:10340000200008F036F864227A43A24B9B181C3344
:1034100006CC06C33100A448FEF742FA019000280A
:1034200033D044237B439B4A0CACD31897229200A1
:103430009B18220003CB03C2082221000EA808F02B
:1034400018F8964D0E9A0F996B6B4B409A4201D02B
:10345000FFF796FD2368012B17D1019B30A99B69CB
:1034600032AC30936A6B0AA853400822319308F0BB
:1034700000F808220AA9200007F0FBFF64237B4321
:10348000844AD318283306CC06C331008748FEF798
:1034900007FA002800D11BE1C368102B00D017E108
:1034A000002385680193002D00D111E14422019B86
:1034B0007A430533DB009A18764B22AC9B18922294
:1034C00092009B18220003CB03C20822210024A8EB
:1034D00007F0CFFF714B249A25995B6B4B409A42C2
:1034E00001D0FFF74DFD2368012B1BD1AB696B4A5F
:1034F0002C93526B2CA953402EAC082226A82D9356
:1035000007F0B7FF082226A9200007F0B2FF6422C7
:10351000019B7A430933DB009A185E4B9B180433F6
:1035200006CC06C3019B01330193032B00D1CFE0EE
:103530002D68B8E701230700039308E731005C48D2
:10354000FEF7AEF9002800D104E78468002C00D112
:1035500000E721005748FEF7A3F900282FD005699E
:103560005549280007F08BFE00282AD12100534836
:10357000FEF796F900280ED044239B217B43454A51
:103580008900D3185B181B78012B04D163337B436C
:10359000D2188369D36321004948FEF781F90028D6
:1035A0000DD044237B433B4A4649D3185B181B7814
:1035B000012B04D163337B43D218836913642468DD
:1035C000C4E74149280007F05AFE0028F7D121003E
:1035D0003A48FEF765F900280DD044237B432D4A75
:1035E0003A49D3185B181B78012B04D163337B4312
:1035F000D2188369536421003148FEF751F900283D
:10360000DDD044237B43234A3049D3185B181B7811
:10361000012BD4D163337B43D21883699364CEE703
:1036200044237B431B4A18ACD318992292009B1861
:10363000220003CB03C2082221001AA807F019FFB9
:10364000164D1A9A1B996B6B4B409A4201D0FFF7AB
:1036500097FC2368012B00D084E6019B38A99B6965
:103660003AAC38936A6B16A853400822399307F096
:1036700000FF082216A9200007F0FBFE64237B430D
:10368000044AD318303306CC06C36BE672C21D1051
:103690003DCA1D1028DA020889C21D108090010859
:1036A000555555055555551591C21D10A0C21D10F3
:1036B000FBC11D10BBC11D107CC21D1005C21D1019
:1036C0000DC21D106D02000081C21D106E020000AF
:1036D00031005448FEF7E4F864237B43524CE3186E
:1036E000002866D082695A7231005048FEF7D8F837
:1036F00064237B43E31805330122002804D0C16909
:1037000082690A43511E8A41DA77002F1CD13100A9
:103710004748FEF7C5F81423002800D083692367C3
:1037200031004448FEF7BCF8002844D0C3685A1E54
:10373000934122007432137031003F48FEF7B0F815
:1037400000283CD08369A367039B022B3ED1029BD8
:10375000029EDB680193202B29D131003748FEF708
:103760009FF800282ED08269D3B2022B2AD1571E8F
:1037700064227A43A4182200383213703100304892
:10378000FEF78EF8002812D082692E4B28925B6BD0
:1037900028A953402AAD082208A8299307F069FEFA
:1037A0000822280008A907F064FE0CCD0CC40123F0
:1037B000A7E4587298E7230074331870BCE7FA2323
:1037C0001B01C0E73668002EC7D1F0E7002738009C
:1037D00055B0F0BD1C49049807F051FD002800D0F9
:1037E00057E531001948FEF75BF8002808D0B422ED
:1037F0000D4B92009A5C012A02D18269C8331A608B
:1038000031001348FEF74CF8002800D13FE5064B85
:10381000104A9A5CCC33012A00D038E582691A60DC
:1038200035E5C046AAC21D1028DA0208B2C21D1032
:1038300021C21D1029C21D1034C21D1066C21D10E8
:10384000AFC21D1080900108BDC21D1005C21D1021
:103850000DC21D10D1020000F0B58BB001900D001B
:1038600016000C00002A01D0541E641806A90A0094
:103870002D4BD83381CB81C2082208A807F0F9FD6F
:103880002A4B089A09995B6B4B409A4201D0FFF78B
:1038900077FB02AB9C466246234B069FE03303CB8B
:1038A00003C20822614604A807F0E3FD1F4B049AF7
:1038B00005995B6B4B409A4201D0FFF761FB0123F6
:1038C000029A01329340DB19BD4225D39D429241B9
:1038D000A74203D8A34201D901225242BD4201D8D6
:1038E000A74216D39D4201D2A34212D3002A10D17F
:1038F00001992800FDF737FE002806D1002E04D0DC
:10390000701E40190199FDF72EFE0BB0F0BD00228C
:10391000E6E701204042F8E7A742F8D80022A34298
:10392000DCD901225242DBE728DA02088090010844
:1039300030B5154C8BB006A923000A00383321CBD3
:1039400021C2082208A807F094FD089A099B616B20
:103950004B409A4201D0FFF713FB6D46069B04A92A
:10396000013B0493626B02A853400822059307F0C1
:1039700080FD082202A9280007F07BFD38340CCD19
:103980000CC40BB030BDC04680900108F0B5514B5F
:10399000514D89B00290059506A8403350CB50C0D8
:1039A0000C0012018B180393A678E068A188227896
:1039B0006378B446002800D101BE032A00D901BEB5
:1039C000032B00D901BE454E376830373F781F2F93
:1039D00000D876E0674610300097FDF79AF9059019
:1039E000059B002B5CD1E0680595A188002800D1DB
:1039F00001BE336830331B781F2B64D97F235940B5
:103A000000230093013310301A00FDF782F905906E
:103A1000059B002B44D16389E0689C460595A279FB
:103A2000E379277A002800D101BE160002218E43D7
:103A3000012E00D001BE1E0002218E43012E00D0B7
:103A400001BE264E3668303636781F2E3DD9614687
:103A50003030C9B20097FDF75CF90590059B002B4B
:103A60001ED1E06805956189002800D101BE1B4B7D
:103A70001B6830331B781F2B29D97F235940002323
:103A800000930133C9B230301A00FDF742F90590B6
:103A9000059B002B04D1039B1034A34200D083E785
:103AA000059B06AC002B04D122000A4B483303CB04
:103AB00003C2FFF73DFF029B06CC06C3029809B084
:103AC000F0BD07488BE70648A1E70548C5E704486D
:103AD000DDE7C046809001080300C200D8960108C7
:103AE0000200C200F0B58BB003AD94460700280079
:103AF0000C00624E62490093029640310CC90CC022
:103B0000634607936B461B7807A90B716378A0681F
:103B10004B71A3788B71E378CB7123790B72637946
:103B20004B72E38800964B81002800D101BE4B897F
:103B3000DB0B00D001BE8B79072B00D901BECB79FE
:103B4000072B00D901BE0B79073B182B00D901BE0A
:103B50004B897F221E009643321E00D087E0079ECD
:103B6000FF32964332004E795B02164301968A7902
:103B70009446072266463240382613434A7A920713
:103B80001343CA79D200324013430A7A9446012281
:103B90006646724092011A430B79F8211B064905CB
:103BA0000B401343019A43600260026801999142FD
:103BB0005FD1426833490A409B1A5A425341324A04
:103BC0005B4213402D4A9B180293029B002B0DD1A0
:103BD000009A07A90292227BA0688A71627BCA714F
:103BE000E2894B724A81FDF7D7F80290029B002BC5
:103BF00011D1009B0293A368002B00D101BE80224B
:103C0000596812060A435A605B681F4ADB17134063
:103C10001A4A9B180293029B002B11D1009B02931E
:103C2000A368002B00D101BE8022596A12060A4304
:103C30005A625B6A144ADB171340104A9B180293BE
:103C4000029B002B0BD102990D4B05AA002912D023
:103C50004033110011CB11C12B0003CA03C3FFF77E
:103C600067FE3B00380006CD06C30BB0F0BD074B26
:103C7000AAE7024BA8E74833EBE7C0460300C200BF
:103C800080900108FFFEFFFFFDFF3DFF0100C20025
:103C900073B56C4622000C4B0500403341CB41C24A
:103CA0000800FDF754FC012807D864234343074864
:103CB000C01823001C3006C806C3FFF739FE2B00CE
:103CC000280006CC06C376BD8090010828DA0208D9
:103CD00073B56C4622000B4B0500403341CB41C20B
:103CE000012907D864234B430749C9182300303101
:103CF00005C905C3FFF71CFE2B00280006CC06C330
:103D000076BDC0468090010828DA020870B58AB0F6
:103D10006B460090596006A90A0011CB11C2082217
:103D200008A807F0A6FB114D089A099B696B4B4048
:103D30009A4201D0FFF724F902A92B000A00383378
:103D4000069C41CB41C2082204A807F092FB049ACA
:103D5000059B696B4B409A4201D0FFF711F9029B1A
:103D6000A34201D0FFF70CF90AB070BD80900108A2
:103D7000F0B58DB06D46194C2A002300383307008A
:103D800003CB03C20822290008A807F072FB08220F
:103D900008A90AA807F06DFB0A9A0B9B616B4B40C0
:103DA0009A4201D0FFF7ECF8089B06A9013306936D
:103DB000626B02AE534004A808220793383407F020
:103DC00058FB082204A9300007F053FB0CCE0CC4AA
:103DD0003B00380006CD06C30DB0F0BD8090010851
:103DE000F0B5A5B004AC04906160029203932AABD5
:103DF0001B782B9A0193644B02AF9A4200D0C1E02A
:103E0000624B634D12936A6B12A9534010A80822AB
:103E100013930AAE07F02DFB082210A906A807F09D
:103E200028FB330008A806CF06C3082206A907F01E
:103E300020FB082231000CA807F01BFB0C9A0D9BFD
:103E4000696B4B409A4201D0FFF79AF8082208A903
:103E50000EA807F00EFB0E9A0F9B696B4B409A421F
:103E600001D0FFF78DF80A9A089B9A4209D172682F
:103E7000099B9A4205D1474B1B68002B01DA04F0DD
:103E8000B1FE019B002B0BD0FCF7FEFC04F0B8FE4A
:103E9000C022C0234049520088581B0603438B5060
:103EA00020A90B00220041CA41C3082222A807F022
:103EB000E0FA229A23996B6B4B409A4201D0FFF7AC
:103EC0005FF889232099354A5B01D1501CA90B006A
:103ED000220041CA41C308221EA807F0CAFA1E9A4E
:103EE0001F996B6B4B409A4201D0FFF749F81C9A1F
:103EF0002B4B18A99A600B00220041CA41C308222B
:103F00001AA807F0B6FA1A9A1B996B6B4B409A42A3
:103F100001D0FFF735F8189B14A91E680B0005CCDB
:103F200005C3082216A807F0A4FA169A17996B6B16
:103F30004B409A4201D0FFF723F81A481A49149BC4
:103F4000091A5C68FCF710FC184D19492800491B38
:103F5000FCF70AFC174B9C61DE6185F30888164864
:103F60001649091AFCF700FC86F30888144815491D
:103F7000091AFCF7F9FBFDF7DDFB002005F0F6F868
:103F8000A047FEE7FEE7C046186EA9719B71CA27DD
:103F900080900108000126400000264000002040DB
:103FA00000ED00E0809001086093010800E0000847
:103FB00000E400085897010800B00E0800C00E0881
:103FC000B8960108BCDF0608F0B58FB00CA90B004D
:103FD000704A11CA11C308220AA807F04AFA6E4EA5
:103FE0000A9A0B9B716B4B409A4201D0FEF7C8FFB7
:103FF0006A460C9B694CDBB2D71D3B70E36868498D
:104000000393A3690293029B002B00D084E07031DC
:104010006448FEF733FF6448644A0021121A07F02F
:1040200026F96348634A0021121A07F020F9624D0D
:10403000624A0021521B280007F019F93B7804A9B5
:10404000DBB20493726B06A8534008AE08220593B6
:1040500007F00FFA082206A9300007F00AFA4D4BC4
:1040600006CE06C3039BE360029BA36185F3088829
:10407000534D544800212A1A07F0F9F885F30888AF
:10408000012005F073F8FDF755FBE06805F01AF81C
:104090004D4B0100984202D04C48FEF7EFFEA36959
:1040A0004B48002B00D14B4804F0D4FF4A4B1B680F
:1040B000002B01DA04F096FDA569002D2AD04748AF
:1040C00047492830FCF73CFC2022464B1A60464BFF
:1040D000464C474E9D4231D82022464BDA67BFF30B
:1040E0004F8FBFF36F8F16210520FCF711FCC02204
:1040F00001215200A35828008B43A35000223E4BBD
:104100001A738023A2591B061343A35104F09EFD8A
:1041100004F08CFE07F094FC029A384B9A4201D8C6
:1041200001330293029A70313548FEF7A7FEFA2058
:10413000FEF716FC029BFA3B02936CE7FCF7A4FB2C
:104140008022A35912061343A351C0235B00E358F6
:104150009B0F05D1C4225200A3582A490B40A350FB
:10416000E1220127D200A3583B43A350C2235B00A6
:10417000E058013880B204F051FDE023DB00E75045
:10418000E35804F03DFD04F051FE0028D6D11E4B4B
:10419000ED189CE7589701088090010828DA02087A
:1041A00080BC1D10CEC21D108090010860930108D4
:1041B000B8960108BCDF060800E0000800E400082B
:1041C00000C00E0800B00E084BE6AC8504C31D10FD
:1041D00000940108004000160001264000BD1D109B
:1041E00005161D1000E100E0BC0A0000000026409A
:1041F0000C05000004E100E0D8960108E703000088
:10420000E1C21D10FFFFF0FF31F8FFFF10B50028DD
:1042100001D1FFF7D9FE10BDF0B58568060000207A
:104220000F0095B0954240410792FFF7EFFFAF4274
:1042300080414042FFF7EAFF7468079B2D19D819A7
:10424000A8428041E4194042FFF7E0FF079A2100AD
:104250003000FFF701FB002803D00120404215B0D9
:10426000F0BD73787F2B53D1079B1B19640A06930B
:104270006402A54D069B2E68A7031B1BBF0B54367B
:10428000002F1AD1A14A934217D9FCF7CDFAA04BBF
:104290006B61AC61EF612F62307800280AD0FDF7C6
:1042A00035FA8023DB02E418069B9C42D7D2002813
:1042B000DFD0D4E707F0DCFBF3E727053F0D14D18F
:1042C000944A934211D9FCF7AFFA934B6B61AC61FE
:1042D000EF612F623078002804D0FDF717FA8023B1
:1042E0005B01E0E707F0C4FBF9E7FCF79DFA8B4BB5
:1042F0006B610023AC61EB612B623078984204D093
:10430000FDF704FA80239B00CDE707F0B1FBF9E746
:104310005BB2002BA1DA079B002B9ED0FCF7B8FF05
:10432000E8220500836912069B69A4185B421C40C1
:104330000A940026AB690A9A0C939B69119609931B
:10434000013B9B1808930C9B12965B680693069A98
:10435000089B934213D3724CAB69079A9B699A42AC
:1043600000D91A0007998A1A07920A9AD3180A9351
:10437000079B002B00D1BAE0002CDAD06DE70C9B34
:104380000A9A1B6C12A928000D93FCF751FB041E1E
:1043900000D0B0E0129BDA681E685F68099B069245
:1043A0009342D8D35743731EFF180A9B0699981B54
:1043B00007F028FB0029CED1089BBB420AD21A0085
:1043C00012A92800FCF734FB041E2DD1129B1E6895
:1043D000DB680693089B0699581C801B07F012FBAC
:1043E0000A9B0B930029B6D1099B002BB4D00B9AE2
:1043F00012A92800FCF71CFB089F041E0ED1129B7B
:104400001A695F680D92DA6806921A68069B013A8B
:104410005F43089BD7199F4200D91F00FA230D9ACA
:104420009B0053430E933AE03D4B984293D0D1E723
:10443000120211001A5C013311430A004AE032797A
:10444000FF2A50D0364B98424DD000284DD1139BB7
:10445000996801232C4E0393283604962B780192F9
:1044600002932368C9B200932E4811ABFDF76AFC92
:10447000041EB9D133000E9A29002A48FEF7A2F98A
:10448000099B069A0400934200D865E794460B9B6B
:1044900063440B93099B9B1A09930028A4D10B9B9F
:1044A000BB42A1D2184A290028321E48FDF72AFD36
:1044B000041E99D10C9B0B9A1B6811A9013B5A54FD
:1044C000120A002BFAD1AC691393226866690F9225
:1044D0001A0011A80F999942AAD113A92800FCF734
:1044E000A7FA002EABD1104C7EE73168B1E7601E11
:1044F00084416042B3E60A4B984200D12BE7099B06
:104500003700069351E7C046D8960108FFFF030025
:1045100000010014FF0F00000001001D0001001C3D
:104520000400B200000042408000B200F0B5017803
:1045300085B004001E48FEF7A1FC002303A9072054
:104540000393FCF734FF012500282DD12678032E94
:104550000FD09823174A5B00D75C3800FCF74BFF5D
:1045600001903800FCF73EFF019B9E4201D086423D
:104570001AD13000FDF789F8A022010052010398FA
:10458000FFF74AFE050068426841FFF73FFE2378C7
:10459000032B06D0A168602260392000FFF73CFEA3
:1045A00005000398FCF7FAFE280005B0F0BDC046F0
:1045B00043C31D1078DE0608F0B546680500B14219
:1045C00080410C001F009BB040420992FFF71EFE85
:1045D000E019B042804134194042FFF717FE3A001B
:1045E00021002800FFF738F9061E00D0DFE06878C8
:1045F0007F2840D1F80543425841FFF707FEE00508
:1046000043425841FFF702FE780A4002031980270F
:1046100001202500079340427F00079B9D4201D166
:104620001BB0F0BDEB0524D1099B1E1B7619002E93
:104630001FD0FCF7F9F8724B724A5A619F61DD6135
:104640001E621B685333187800280CD0FCF7DAF987
:10465000FA21890007F050F901006B4807F04CF986
:10466000E1239B00C01807F003FA80239B00ED189C
:10467000D3E76648F9E743B2002B00DB97E07F23DE
:104680001840FCF705FEE8231B06E318051E0893F7
:104690000F9600D101BEAA69089B5168FB188B4296
:1046A00000D984E0536A166A0A93554B28330C9359
:1046B0000A99089807F0A6F90A9ACB1907979A421F
:1046C00001D8531A07930C9A29005148FDF71AFC98
:1046D00000286CD1AB69089A18680FAB0400013C44
:1046E000E254120A002CFAD132790D923268039406
:1046F000D1B2434A283204920B922A7802927279FC
:104700000090019242480D9AFDF71CFB00284ED103
:10471000B1684B1C3BD13169002904D03C48FCF7FF
:10472000B1F9002843D1337D1A1FD2B2FA2A41D9F8
:10473000079A002A3BD007213548426C0A40032AD9
:1047400035D8C0221B04920213408022D2021343A8
:10475000079A013A92B213430365099B002B2BD1B0
:10476000274BAA692833926C29002948FEF72AF8BA
:1047700000281CD1079A099B944663440993089B1F
:10478000BF1A63440893002F92D1380048E70B9B6F
:10479000327B049303942B78C9B20293FF230094D5
:1047A00001931B482300FDF7CDFA0028B3D0012068
:1047B000404235E701BEBBE7114B0222DC6C099B8E
:1047C0001093079B1293002317931692169A022AAE
:1047D00013D1104A9342EAD010A90D48FCF718FAF9
:1047E00000239C42F2D00120013CFDF7A1FA634274
:1047F0006341084A5B421340E8E7002BB0D0D6E79C
:10480000D896010800010006808D5B00060052006A
:10481000000042400200B200F0B546688FB0099037
:10482000B14280410D001C0040420792FFF7EEFCB0
:104830002819B042804175194042FFF7E7FC220079
:1048400029000998FFF708F8061E02D001246442E7
:1048500009E0099B58787F2808D122002900079891
:1048600006F007FE340020000FB0F0BD43B2002B6D
:104870006EDA7F231840FCF70BFDE8231B06EB18CC
:10488000071E08930D9600D101BE079B002B00D197
:1048900001BEBA69089B5168E3188B4258D89668E4
:1048A0003148002C02D10028DDD051E0BB69089AC4
:1048B00018680DAB0500013DEA54120A002DFAD12B
:1048C00032790B9232680395D1B2284A2832049289
:1048D0000A923A78029272790090019224480B9AD7
:1048E000FDF730FA002833D1B1684B1C20D1316973
:1048F000002904D01E48FCF7C5F8002828D18023E1
:1049000025005B029C4200D91D00184A337D2832E5
:10491000009207992A001648FDF710FB002817D1CE
:10492000089B641B5B190893079B5B190793B8E707
:104930000A9B327B049303953B78C9B20293FF2311
:10494000009501930A482B00FDF7FCF90028CED012
:10495000099B5B78002B00D178E70121054849428B
:10496000FEF78CFA72E7C0460400B200D896010840
:104970000000424065C31D10F0B59827050087B0C0
:10498000284C03917F002900E05DFCF7C1FD04A9DC
:10499000C0B2FCF70CFD002806D001260498FCF7F5
:1049A000FDFC300007B0F0BD2C226A43E35D0292AB
:1049B00058225343029905ADCB18E3181A89DB68D6
:1049C0000498D31801932A0004230199FFF724FFC8
:1049D000061EE2D15822E35D5343029AD318E4182D
:1049E0002A88114B64899A4218D16B88A34201D05E
:1049F0000326D3E7019B2A00191904980423FFF723
:104A00000BFF0028C9D1094B2A889A42F0D16B8844
:104A10001C19019BE418039B1C60BFE7002CF2D01B
:104A2000E6E7C04678DE060808690000076900006E
:104A3000F0B51E00036885B0040000910192002BC0
:104A400002D04368002B1CD10120404237E06A8825
:104A50002189171DBC461B4FB94202D02D888D42BB
:104A60000DD1002E02D003A90988318000990433AA
:104A70000B60019B1A802369634423611FE0634438
:104A80002361226963699A4218D223685B89002BEB
:104A900004D0E368934201D10433236103AD0423BE
:104AA0002A0021696068FFF7B7FE0028CCD1A27AFE
:104AB0002369002ACBD0E2689A42C8D8012005B009
:104AC000F0BDC046FFFF0000F0B587B002930CAB0D
:104AD0001B7804000D0000920393002A05D10123E6
:104AE0005B420193019807B0F0BDCB680F8905AE1A
:104AF000FF183200042339000098FFF78DFE019063
:104B00000028ECD1144A31886B89914221D17188F7
:104B10009942E4D1C919042332000098FFF77CFEC2
:104B20000028DCD105AA0D4B11889942D7D1009BF2
:104B3000256063606B461B8923816B461B7BA372D8
:104B40006B89DB19E3605288D31863613B1D2361D5
:104B5000C8E7002BE6D0C2E708690000076900003B
:104B6000F0B5864C864DA54404930DAF2B0016007E
:104B70003A0002900591403303CB03C20FAC2B00E7
:104B80002200403303CB03C22BA8FFF7F1F82B0020
:104B90002200403303CB03C2310006A8FFF778F8A8
:104BA000230006AA03CA03C32B982C99FFF7AEF87B
:104BB00023AB1A0003CC03C221AC2A0021009C467F
:104BC000403209CA09C127AB1900634605CB05C1AC
:104BD0002799289B6A6B5340994201D0FEF7D0F980
:104BE00025AB1A0003CC03C2259A269B696B4B4068
:104BF0009A4201D0FEF7C4F9239A219B9A4209D127
:104C0000249A229B9A4205D15E48FEF737F9012487
:104C100064421DE23000FCF78CFC041E00DA17E24F
:104C200018234343029A03909B5C002B00D016E2AA
:104C3000009332003233059935A8FFF745FF031E74
:104C4000E5D1122504AAAD182A000AA935A8FFF754
:104C5000EFFE002800D004E22B88902BD7D94AAA77
:104C60000A993000FFF7D8FD0028D0D129A8FFF716
:104C70007FF8434D3A002B00403303CB03C22B0097
:104C80002DAA403303CB03C23000FCF760FC01289F
:104C900007D8642343433C48C01828302DAB06C8CE
:104CA00006C3FEF745FE3A002DAB03CB03C229989D
:104CB0002A99FFF72BF81DAB1A00390041C941C2F0
:104CC0001FAA110041CB41C11F99209B6A6B534021
:104CD000994201D0FEF754F91D9B19AB1A00390017
:104CE00041C941C21BAA110041CB41C11B991C9B68
:104CF0006A6B5340994201D0FEF742F9199B002B91
:104D000000DC84E715AB1A00390041C941C217AA7B
:104D1000110041CB41C11799189B6A6B53409942CE
:104D200001D0FEF72DF9159EFBF79CFB864200DDB6
:104D30006DE711AB1A0003CF03C213AA110041CBD8
:104D400041C11399149B6A6B5340994201D0FEF7FD
:104D500017F912230D4904AA9B183031102231A8EB
:104D600041AE1D88119F06F084FB3000FCF776FCF5
:104D700050230B93012C0BDD872449E7ACFDFFFF8B
:104D8000809001088CC31D1028DA020800BD1D1098
:104D9000912DF1D1B44B6FAD6F973BA809AF3B9309
:104DA0003C956F60FBF72AFB041E00D050E13B8866
:104DB000AE4A3BA83B923C956F9302966E60FBF720
:104DC0001DFB041E00D043E18C2204AB52009B1853
:104DD0001B78042BD0D1CF22029B12021B881340D8
:104DE0008222D2019342C7D1029B0C905B880CAE09
:104DF00005939F4B3BA83B939E4B3C952E606B606D
:104E0000FBF7FCFA041E00D022E18A229A4BFF3203
:104E10003B939A4B3BA86B6004ABD21820233C9584
:104E20002E60AA60EB60FBF7E9FA041E00D00FE1E8
:104E3000914B3BA83B93924B3C956B6031ABAB6085
:104E400010232E60EB60FBF7D9FA041E00D0FFE0C0
:104E50008C4A3B883B920222AB604AABEB60059BDD
:104E6000FF320733DB085B0001333BA83C952E6023
:104E70006A602B61FBF7C2FA041E00D0E8E0824BA7
:104E80003BAF2F936FAB7B600B9B2FA830973B966C
:104E9000BB60FBF7B3FA041E00D0D9E041AE0C9022
:104EA0003000FCF7DBFB80231B014493774B04AA03
:104EB000459388235B013380754B2FA82F931623CE
:104EC0009B183B93029B30977B6073ABBB602023A6
:104ED000FB60FBF793FA041E00D0B9E004ABDB8A59
:104EE0006C4A7B60694B0CAD2FA82F9230973D60C8
:104EF000BB60FBF783FA041E00D0A9E0664B04AA4E
:104F00002F937A23FF339B187B6010232FA83097B1
:104F10003D60BB60FBF772FA041E00D098E05A2295
:104F20005E4BFF322F9304ABD2187A6020222FA859
:104F300030973D60BA60FBF761FA041E00D087E04D
:104F400004AAD38A564D2FA82F9530973B60FBF7C4
:104F500055FA0595041E00D07AE03000FCF77EFB80
:104F60008023504A9B004592494A4F4E2F92039A04
:104F700044934E4B55007836419373193B60102390
:104F8000029A2FA87A606FAA3097BA60FB60FBF78D
:104F900035FA041E5CD1AB5B454D464A7B60414B04
:104FA00020352FA82F9230973D60BB60FBF726FA83
:104FB000041E4DD11022404B2FA82F937BAB30976E
:104FC0003D607B60BA60FBF719FA041E40D1039B79
:104FD00004AA1E01394B04992F937A23FF339B189F
:104FE0007B60330010220C33CB18FB602FA80BAB77
:104FF0007B6130973D60BA603A61FBF7FFF90B9B2C
:105000000400102B29D1002822D12D4B3C902F9346
:105010003D900BAB3BAF2FA830973B953E93FBF7F2
:10502000EDF9041E14D1204A039B78325B009B5A91
:10503000059A2FA82F923B933097FBF7DFF90400D6
:105040003000049B2C30181810227FA906F011FAAA
:10505000200095239B009D44F0BD8424D8E50124C5
:10506000F6E70400F4E7C0460016003500020035FC
:10507000001D003509012030000400350202000047
:105080000302000000060035000700350900800219
:1050900000090035001E0035001F003500200035D6
:1050A000000A00350100C004D896010800248000E1
:1050B00058970108000B0035000C0035000D003535
:1050C000000E0035F0B5314C9BB0039323000290E5
:1050D0001600403306AA0F0003CB03C200230C9333
:1050E0000593636B08220CA908AD0AA80D9306F07E
:1050F000C0F908220AA9280006F0BBF9039B06CDD7
:1051000006C3002E39D07B89002B36D00123320014
:10511000009339004F3314A8FFF7D6FC031E2CD19F
:1051200010AD2A0012A914A8FFF782FC002824D190
:105130002B88042B21D105AA12993000FFF76CFBB4
:1051400000281AD1059A14A91492636B12A853402F
:105150000822159306F08DF9082212A9280006F0FE
:1051600088F9039B483406CD06C30EA90B0005CC75
:1051700005C3082206A806F07CF9FEF7D9FB029ABF
:1051800006AB03CB03C202981BB0F0BD80900108B0
:105190000023F0B5794DAFB0049306AC2B0022008C
:1051A00001910090403303CB03C2082006F03EF982
:1051B00007000098FCF71FF904A9FCF7F8F801268E
:1051C000002846D110A8FEF7D3FD2B002200403363
:1051D00003CB03C202AE019930003B00049AFFF7F3
:1051E00071FF2300320003CA03C310981199FEF720
:1051F0008DFD082221000AA806F03BF908AC2B001F
:105200002200483303CB03C208220AA90EA806F0E5
:1052100030F90E9A0F9B696B4B409A4201D0FDF713
:10522000AFFE082221000CA806F023F953490C9A7E
:105230000D9B496B4B409A4201D0FDF7A1FE0A9AA3
:10524000089B9A420ED00B9A099B9A420AD00126DB
:105250007642380006F0F4F80498FCF79FF8300026
:105260002FB0F0BD3900082212A806F002F914ACE4
:105270002B002200403303CB03C22AA8FEF778FD9F
:105280002B002200403303CB03C230000099FEF70D
:105290001FFD230006CE06C32A982B99FEF736FD84
:1052A0000822210026A806F0E4F8082226A928A84A
:1052B00006F0DFF8289A299B696B4B409A4201D08F
:1052C000FDF75EFE269B102BC1D80822210022A8E4
:1052D00006F0CFF8082222A924A806F0CAF8274D24
:1052E000249A259B696B4B409A4201D0FDF748FEFA
:1052F000082212A91EA8229B06F0BBF808221EA9AC
:1053000020A806F0B6F8209A21996B6B4B409A4280
:1053100001D0FDF735FE082221001AA81E9B06F0D9
:10532000A8F808221AA91CA806F0A3F81C9A1D9B2D
:10533000696B4B409A4201D0FDF722FE082212A968
:1053400016A81A9C06F095F8082216A918A806F0C7
:1053500090F8189A19996B6B4B409A4201D0FDF75F
:105360000FFE074A169B2404A4182CA805AA2C9407
:105370002D920593FBF7C0F906006AE780900108BB
:1053800000010036F0B51F000B788BB00500160049
:10539000032B06D00800FCF7CCF8041E02DAFEF757
:1053A00013FE012418236343ED18287864000138A4
:1053B00043425841FEF72AFF330F6B73330DAB7333
:1053C000330BEB731F4B36097833E35A2E7404AC5E
:1053D0001D4E1E4A63601E4B203602A802920394A3
:1053E0000496A360FBF70AF8002829D1194B013570
:1053F0000293102302A8039404966560A360FAF751
:10540000FDFF00281CD1144B01AD0293109B02A894
:105410006360E36003942660A76027616561FAF723
:10542000EDFF019B9F420BD1002809D10B4B60601F
:10543000A06002A8029303942660E560FAF7DEFFFD
:105440000BB0F0BDD896010858970108000B003545
:105450000100C004000C0035000D0035000E0035C1
:10546000F0B5CB4C1F00A544CA4C0790230008910F
:105470000592403310AA03CB03C22300002512AAD1
:10548000403303CB03C2B495636B0822B4A98AA846
:10549000B59305F0EEFF08228AA914A805F0E9FFEC
:1054A000B695636B0822B6A988A8B79305F0E1FF0B
:1054B000082288A916A805F0DCFF082005F0B6FF31
:1054C0000490A84200D189E0172308AA9B183A69E2
:1054D0001D7018AB520700D4BCE0483406CC06C39C
:1054E000A22308AADB009B181868FCF722F8002802
:1054F00074DB00D111E2A22308AADB009B18186814
:10550000FCF725F8002869DB64234343A248C01850
:10551000037A002B62D09EA8FEF72AFC9D4E12ACA7
:1055200033002200403303CB03C2A22308AADB00CE
:105530009B180AAD19682800FEF7AAFB230006CDC8
:1055400006C39E989F99FEF7E1FB0822210082A8DE
:1055500005F08FFF082218A980A805F08AFF08220D
:1055600082A986A805F085FF869A879B716B4B40C0
:105570009A4201D0FDF704FD082280A984A805F015
:1055800078FF8449849A859B496B4B409A4201D0AD
:10559000FDF7F6FC829A809B9A425DD0839A819BAC
:1055A0009A4259D0FFA821000822FFAC243005F010
:1055B00060FF5C34FFA908222431200005F059FF68
:1055C000FFAB74495C331A686368496B4B409A427D
:1055D00001D0FDF7D5FCFFAB24331B68049805F020
:1055E0002FFF172308AA14AC9B18210008221EA81D
:1055F0001E7805F03EFF08221EA920A805F039FFFD
:10560000644D209A219B696B4B409A4201D0FDF773
:10561000B7FC1E9A31006148FDF730FC08222100DA
:105620001AA805F026FF08221AA91CA805F021FFD8
:105630001C9A1D9B696B4B409A4201D0FDF7A0FC60
:105640001A9BFEF775F9079B06CC06C30798544BC7
:105650009D44F0BD403441E70023FFAA0C32059879
:105660001360FBF7BFFEA22308AADB009B181B6890
:1056700009901B78834211D13B695B070ED5A223A9
:1056800008AADB009B181868FBF753FF0028A5DB6E
:1056900018235843089BC35C002B9FD0FFA8414BA5
:1056A0005C300360404AFFABFFA99C330C31436080
:1056B00019605A60FAF7A2FE061E00D08EE73B89F9
:1056C00004000293029AFB689446634403937B8927
:1056D000039A9B180693069BA3426BD9002E00D019
:1056E0007CE7069B1D1B8023DB029D4200D91D0029
:1056F000029BA34204D9029A2B199A4200D2151B8D
:10570000039BA34204D9039A63199A4200D2151B42
:10571000A22008AEC00080192B00244A2100006896
:10572000FFF77AF8A22308AADB009B181B68099AE6
:105730001B780600934216D104223B69134212D013
:10574000029BA3420FD8039BA3420CD9A221029B28
:1057500008A8E21A154BC900009309182B00096824
:105760000898FFF70FFE002E0FD1FFA8104B5C30FA
:1057700003600E4AFFABFFA99C330C3143601960F4
:105780005A609D60FAF73AFE06006419A3E7C04626
:10579000E4FAFFFF8090010828DA02087CC41D109B
:1057A0001C050000001000350900000178DE020829
:1057B00000110035002E00D010E7FFA8D94B5C3057
:1057C0000360FFAAFFAB9C333C325A602022FFA942
:1057D0009A60FFAA0C31243243601960DA60FAF74C
:1057E0000DFE002800D0F9E6A222002308A9D2006D
:1057F00000935218FFA8CC4B126839000C30FFF709
:1058000063F9002800D0E9E61A2408ABE418FFA8E1
:1058100023000EAA0FA90C30FFF70AF9002800D0C8
:10582000DCE62388222B00D1ECE100D9B5E0102B77
:10583000EAD108AB1B8B202B00D0CFE6A22008AC0E
:10584000FFADC00000199C352A000F990068FEF7D3
:10585000E3FF041E00D0C1E698A8FEF789FAB34B17
:1058600012A91A00403241CA41C11900C8AA100049
:1058700040319C4648C948C0FFA93C31665C285D60
:10588000864206D10134202CF8D16346483303CB3D
:1058900003C2FEF74DF80822C8A912A805F0E9FDD9
:1058A00098989999FEF732FA082212A96CA805F087
:1058B000E0FD9E4D6AAC2B002200483303CB03C2AF
:1058C00008226CA970A805F0D4FD709A719B696BD1
:1058D0004B409A4201D0FDF753FB082221006EA8ED
:1058E00005F0C7FD91496E9A6F9B496B4B409A42F8
:1058F00001D0FDF745FB6C9A6A9B9A4200D153E1B7
:105900006D9A6B9B9A4200D14EE1172308AA9B180F
:1059100019788748FDF7B2FA60E6FFAB0C33FFADAC
:105920001860844B5C352B60FFACFFAE824B9C341F
:105930000C3628006C6026606360FAF75FFD002873
:1059400000D04BE67A893B8908A99B18FA682800A1
:105950009B18A222D20052181268FFA952685C312B
:105960000292764A6C600A60FFAA9C321660029A24
:10597000A3606260FAF742FD002800D02EE6694B72
:105980006C602B60FFAB3C3363602023A360FFABF4
:1059900024332660E360280021E7502B00D171E317
:1059A000812B00D030E708AB1B8B012B00D015E614
:1059B000A220172408AAC00008ADA418401922008C
:1059C0000F990068FEF728FF002800D006E69AA885
:1059D000FEF7CEF9554D12AA2B00403303CB03C27C
:1059E0002278B2A9B2926B6B9CA853400822B39361
:1059F00005F03FFD08229CA9B8A805F03AFDB8A91A
:105A00000822BAA805F035FD2B00BCAA403303CB11
:105A100003C2A22308AADB009B181868FBF797FDB6
:105A20000600012838D80822BAA9C0A805F021FD2F
:105A300064237343424EBEACF6182300C4A806CEBE
:105A400006C30822C0A905F014FDC49AC5996B6B62
:105A50004B409A4201D0FDF793FA21000822C2A8D8
:105A600005F007FD314CC29AC399636B4B409A42D3
:105A700001D0FDF785FAC09ABE9BC6A99A424ED1C5
:105A8000C19ABF9B9A424AD148340B0005CC05C34A
:105A90000822BCA805F0EDFCFDF74AFF0822BCA9CE
:105AA00012A805F0E6FC9A989B99FEF72FF90822B8
:105AB00012A97AA805F0DDFC1C4D78AC2B00220061
:105AC000403303CB03C208227AA97EA805F0D1FC9B
:105AD0007E9A7F9B696B4B409A4201D0FDF750FA4A
