:02000004101DCD
:1000000000C00E082B841D100D00000089841D10F7
:1000100000000000000000000000000000000000E0
:1000200000000000000000000000000085841D109A
:10003000000000000000000085841D1085841D1054
:1000400085841D1085841D1085841D1085841D10D8
:1000500085841D1085841D1085841D1085841D10C8
:1000600085841D1085841D1085841D1085841D10B8
:1000700085841D1085841D1085841D1085841D10A8
:1000800010B5064C2378002B07D1054B002B02D06E
:10009000044800E000BF0123237010BD6C970108E5
:1000A000000000009CE81D10044B10B5002B03D08D
:1000B0000349044800E000BF10BDC0460000000036
:1000C000709701089CE81D10F7B5A5275823160066
:1000D0000191FF00C25D00215A43330082180400E1
:1000E00000F0CEFF051E0FD15823E25D01215A43D7
:1000F0002C32A2183300200000F0C2FF002803D0E9
:10010000019B002B00D005002800FEBD10B50A7829
:100110000478012394420BD80CD344784A78944253
:1001200006D807D340884A88904201D890429B4124
:10013000180010BD01235B42FAE773B50E000021E1
:100140000500009102F00AF96946C0B201F0CCFF47
:10015000012400280BD101AA0099300001F0BEFB58
:10016000041E04D10199280001F0A3FD04000098A9
:1001700001F0D4FF200076BDF0B5A527FF0085B0C3
:100180000400C05D0E0002F0E9F803A9C0B201F05E
:10019000ABFF051E04D001256D42280005B0F0BD5F
:1001A000039802F0F5F80190039801F0B7FF582387
:1001B000E25D53432C2256439E19A419231D9C42F1
:1001C000EBD00134621E127801998A42F7D0E2E73F
:1001D00037B5E82212010192A522D200825C0D00FF
:1001E00003000121002A03D0FE31012A00D1FA398F
:1001F000A9420ED1582454431A19526A283401A92D
:1002000028001C1902F0F6F8002801D1019B236098
:100210003EBD0221002A03D00431012A00D0F93169
:100220000120A942F4D1582454431A19126D5434B0
:10023000E5E70000F0B5A5248BB006910792E40035
:100240000700005D02F08AF809A9C0B201F04CFF76
:10025000002800D0B3E0069938003E5DFFF78CFF20
:10026000012400282DD02C235820069A5343020045
:1002700072439B18FB181D6910231D4021D1069B5A
:10028000002B24D0A524E4003B5D584301004030FE
:10029000143179183818FFF739FF002817DA2900C8
:1002A0003800FFF769FF002811D0464B46481B680D
:1002B000D96809F043FC09982900826801F0E6FF3B
:1002C000069C099801F02AFF20000BB0F0BD2C23FA
:1002D000069A5343582272439B18D9593B4A91427C
:1002E00014D0069B002B04D009980021826801F0ED
:1002F000CDFF344B364A1B68D868069B002B00D1D3
:10030000344A354909F0C0FB0124DAE7FB18DA6802
:100310001B89D9438A42E4D8099CD218A3689A421F
:10032000DFD2A523DB00FD5C21780222002D03D063
:100330000432012D00D0F932582306985E432C3B3D
:100340004343F618BE19914218D0A5238E20DB0036
:10035000FB5C8000584300230493039302938023A3
:10036000DB0201931D4BB830009338182300320094
:10037000290001F0EFFA041EA3D0B2E733695B074E
:10038000E3D58E2080006843079BB830009338186F
:1003900023003200290000F029FF0028A1DBD4D17E
:1003A000A523DB00F85C8E239B004343B833F81889
:1003B000079A012100F0F2FE0028C6D091E701243F
:1003C000644281E72C920108CAD11D103DB8F39612
:1003D000C0D11D10B8D11D10F9D11D10B470030883
:1003E000A52370B5DB00C55C04000121002D03D0FE
:1003F0000431012D00D0FA312000FFF7E9FE00287A
:1004000002D00125280070BD0221002D03D0043147
:10041000012D00D0F9312000FFF7DAFE051EF0D1E2
:10042000A523DB00E25C58235343E318186A01F06C
:1004300085FFB4342060E5E710B520220400FF21D9
:100440000C3009F0C7FB012200232260024AE3625C
:100450006260A36010BDC046010100014279002323
:10046000012A06D10268012A03D10379013B5842CF
:100470004341180070470000F0B500258BB005908F
:10048000079108920993119B9D4201D3002010E02F
:10049000119B5C1B80239B009C4200D91C00099B84
:1004A000384AE9180798230001F042FE002802D0DC
:1004B00001200BB0F0BDA522059BD2009B5C9C46A1
:1004C0006246079B19780223002A03D0FD33012AD4
:1004D00000D1F93B089A1278994237D0934237D12C
:1004E000582761464F4393423DD0059B2C37099EC8
:1004F000DF193B695B072BD53889AB19834236D2AC
:10050000A0423BDA421B921B0026211A92B20696A9
:10051000FF681E19C719BE4202D9BB4218D2F91A88
:10052000002915D01B1A8E20664680007043154F97
:100530009B18D219059E0292069AB830019200913A
:100540003018079A614600F0A9FF01E09342C7D135
:10055000109B0C4AE9180898230001F03BFE002884
:10056000A6D12D198FE7059B109EDF19C1E70F2239
:100570001E1A1640069621000022C9E700210A0033
:100580000691C5E7B49C0108F0B5A1B00491C74A33
:100590000021A527040009F01DFB0023FF00E355FF
:1005A0000393013B0293C24BE05D1B78984233D327
:1005B000012B0ED9039B002B0BD00023A525E3555F
:1005C000013B0293ED00BA4B605D1B78834200D97A
:1005D000F6E0A5270023FF00B54EE355E05D337834
:1005E000984200D288E10023A525E3555827ED0065
:1005F000635D32789A4200D973E23022002114A858
:1006000009F0E8FA236A04995A780A715B680C6069
:100610000393039A8A607BE2012B06D98E239B0009
:100620005843B830201800F08DFF5825E8232A00E1
:10063000E65DDB01734372439E49A218591851626B
:100640009D4930005B181365002101F087FEE15DD4
:10065000C0B269432031611801F046FD4342584160
:1006600000F0E6FF0121300001F078FEE15DC0B24C
:1006700069434C31611801F037FD02904342584103
:1006800000F0D6FF2000FFF7ABFE011E0DD0E822E0
:100690008A4B8B491B681201D86809F0F5F90122D1
:1006A000E35DE318B0331A706AE002002000FFF740
:1006B0000BFD002804D0814BE25D1B688149EBE70C
:1006C000200000F0F9FC0028E9D014AD2800FFF765
:1006D000B3FE2800FFF7C2FE059000281FD1744B1F
:1006E0001B78012B0CD8002000F0A2FF2A0000216B
:1006F0002000FFF7E9FC4342584100F099FFCEE7A4
:10070000E25D002AEFD023000121B0339A189A420B
:10071000E9D01878042800D119700133F7E7EB7994
:100720000693012B38D1E05D00F02EFC831E0600FD
:10073000022B0BD82A0006992000FFF77BFD012829
:1007400003D0002802D0052600E00600E35DE31890
:10075000B0331E70564B1B78012B11D9E25D002A75
:100760000ED0A318B03319781300012911D0042931
:1007700000D112E223000121B0339A18934219D11B
:10078000E35DE218B0321278023A022A01D801225F
:1007900003920133E35506E72A0001212000FFF709
:1007A00049FDE35D0522E318B033002800D1EA7962
:1007B0001A70CFE71878042800D119700133DDE7EB
:1007C0002318B0331F7804239F43013F7B1E9F41B2
:1007D000FFB2390001F0C2FD09A9C0B201F084FCEA
:1007E00000280BD001230293099801F097FC029B8B
:1007F000002B69D1635D01336355E4E658212C2653
:10080000635D774359430123C919009361183F334E
:10081000099A0EA800F0E0F902900028E4D102271E
:1008200003960A2606ABF618320000230AA90EA882
:1008300000F024FA031E00DAACE10998D4D1338821
:100840000C2B2ED10BAE32000A9901F071FC00285E
:10085000C8D1174B31781B788B4224D96318B03339
:100860001A78039B023AD2B2974240415843582328
:100870004B431433C01820180CA9FFF747FC00287D
:10088000CFDA635DE318B0331A78012A07D0002A63
:1008900003D0032A01D801221A700290A4E704228F
:1008A000FAE703239FE707239DE7C0462C050000D6
:1008B00080900108B4A00108B48802082C920108B5
:1008C00024D21D1069D21D10B64B029A1B78082A3B
:1008D00000D07EE60293002B00D17AE622000023AE
:1008E0000121B03263551170029A8A4202D022006F
:1008F000B132117002936CE614AD012B09D98E232D
:100900009B005843B830201800F01CFE2800FFF769
:1009100093FDE35DE318B0331878E87101380428DB
:1009200000D9D9E007F0BEFD9203030392009E4E6A
:100930009E483368D96809F001F933689C48D96842
:1009400009F0FCF8E35D01200293002B03D0FE3098
:10095000012B00D1FA380BA901F0C6FB43425841E4
:1009600000F066FE029B0220002B03D0FD30012B1D
:1009700000D1F9380EA901F0B7FB4342584100F00D
:1009800057FE58220025E35D03955343E3189B6A05
:1009900006920793079B039AE05D934224D1069A3F
:1009A0004243A318DB6B5B0736D433682A008149C6
:1009B000D86809F069F800230195582500930B9A2F
:1009C0000E992000FFF758FD2900E05D41432C31CE
:1009D0006118FFF7B2FB0290002856D033687648C2
:1009E000D96809F0ABF828E0069B039A5843201811
:1009F000436AD2009B185B6829001A000B98059384
:100A000001F044FC4342584100F012FE059BED18F2
:100A1000039B01330393BDE78E239B0058432C3285
:100A200014ABB8300093A21820180E9B029900F066
:100A3000DDFB00281ADA03230293029D6B425D411D
:100A4000280000F0F5FD280000F0F2FDE35DE2185B
:100A5000B0321278FF2A42D1534B58481B68D968EC
:100A600009F06CF8002000F0E3FDFEE700289CD1BF
:100A70008E23E05D9B005843B830201814AA012152
:100A800000F08CFB002890D0D5E7E35D02996B4322
:100A9000E3181B6D0E985A6801F0F8FB4342584169
:100AA00000F0C6FDE35D0E985D4365196B6D2A6D20
:100AB000013BDB00D31811681A68511A5A6801F01B
:100AC000E5FB4342584100F0B3FD0B9801F026FBD3
:100AD0000E9801F023FBB0E7FF221A70B6E701334E
:100AE0007AE5E318B0331B78012B09D100222000EE
:100AF0001100FFF79FFB002822D00323029307E099
:100B000014AA00212000FFF7DFFA02900028EDD0A0
:100B1000A52500235827ED006355635D32789A427E
:100B20003DD97B43E318D86C01F0F8FA635D7B4351
:100B3000E318186A01F0F2FA635D01336355ECE7DC
:100B4000605D2318B0331B78012B0ED1390041436F
:100B50006118FFF7F2FA0290002806D0124B1848ED
:100B60001B68D96808F0EAFFD2E73900605D4143AD
:100B700061180A6A00F0D0F80290002806D00A4BEB
:100B8000625D1B680F49D86808F07EFF635D013322
:100B900063552DE501235B42ACE6059AF8E5029822
:100BA00021B0F0BD809001082C92010898D21D1050
:100BB000CDD21D10EED21D1031D31D106DD31D10DE
:100BC0007CD31D10BBD31D1010B501000148FFF7E9
:100BD000DBFC10BD88970108F0B587B002930CAB21
:100BE0001B7804000D0000920393002805D1012317
:100BF0005B420193019807B0F0BD0029F7D0009B3C
:100C0000002BF4D0CB680F8905AEFF183200042307
:100C10003900009801F08CFA01900028E7D1154ABC
:100C200031886B89914221D171889942DFD1C919EC
:100C300004233200009801F07BFA0028D7D105AADE
:100C40000D4B11889942D2D1009B256063606B46A1
:100C50001B8923816B461B7BA3726B89DB19E360C5
:100C60005288D31863613B1D2361C3E7002BE6D094
:100C7000BDE7C0460869000007690000F0B585B00F
:100C80000400009101921E00002803D1012040427F
:100C900005B0F0BD0368002BF8D04368002BF5D0F9
:100CA000226963699A4218D223685B89002B04D0B9
:100CB000E368934201D10433236103AD04232A0086
:100CC0002169606801F034FA0028DFD1A27A236933
:100CD000002A04D0E2689A4201D80120D8E76A8845
:100CE0002189171DBC460B4FB94202D02D888D4279
:100CF0000DD1002E02D003A9098831800099043358
:100D00000B60019B1A80236963442361C0E763443D
:100D10002361C5E7FFFF0000F0B50025D9B00390BF
:100D20000095514B0AA81600FFF756FF0295A842FE
:100D300004D001246442200059B0F0BD0E2704AB5A
:100D4000FF1807AC3B00220008A90AA8FFF796FF8E
:100D50000028EED13B88602B0FD1802223885200DF
:100D60009342E6D818AA0899300001F0E1F900286A
:100D7000DFD1238801250293E0E7102BDED1238801
:100D8000202BD6D810AA0899300001F0D1F9041E02
:100D9000CFD1002DCDD0029858AB2038089018182C
:100DA00001382022FF3810A908F00BFF039B2F4EBB
:100DB0009B0104933F23049A09941A4333780592C4
:100DC0002B4D002B09D1802221005201280008F070
:100DD00001FF284B2B60012333706888244B264E7B
:100DE000C3180393039B09AFB34224D8049B234A3F
:100DF0001B051B0D13433B806B461E897E806B8851
:100E0000321D92B29B18184A93422BDC80229BB26F
:100E10005201934222D804223900039808F0D1FEEF
:100E20000398029A043018A908F0CBFE6B880433AB
:100E3000F6186E807FE704223100380008F0C1FE0A
:100E40003B881A0B012A04D1059A1B051B0D9A42F7
:100E500006D009AB5B880433F618C3E701246AE7C0
:100E6000022468E7032466E7FFFF0000B470070868
:100E70000008000816200400040800083F100000C5
:100E800003000120042B05D0052B04D101390800F3
:100E9000411E884170475B1A58425841FAE70000EA
:100EA00070B50C00816886B01023103902AA0500C5
:100EB00001F086FA012300280FDB984210D102339B
:100EC00023706B46A968DE1D2839012332002800F3
:100ED00001F076FA00280DDA0123180006B070BD83
:100EE00010221E4902A808F05DFE431E9841013001
:100EF0002070E6E70F2332781340120963702271E5
:100F0000012801D0042B03D901236370002323712E
:100F1000A968A21C20390123280001F051FA0028F9
:100F2000DADB0323012804D0A378013B5A1E934146
:100F30000133A370A968E21C18390123280001F0CD
:100F40003FFA0028C8DB0323012804D0E378013BE3
:100F50005A1E93410133E3700023BEE7F8D31D10FE
:100F600037B50D00C0B201A901F0BEF80124002878
:100F700007D129000198FFF793FF0400019801F0C1
:100F8000CDF820003EBD0000F0B5040089B001207E
:100F9000002C03D00430012C00D0FA3004A9FFF754
:100FA000DFFF002802D0FF2009B0F0BD0220002C96
:100FB00003D00430012C00D0F93006AD2900FFF732
:100FC000CFFF0028EFD1040004AB1B78244E009320
:100FD0002B78019304ABDB780293EB78039304AB9B
:100FE0009F78A05D00993519FFF74AFF00282CD0A3
:100FF00068780199FFF744FF002826D0AB78042BCE
:1010000002D0029A934220D1EB78042B02D0039AAB
:1010100093421AD12B79042B15D1124B124A1B681B
:10102000D8686B79022B06D0104A032B03D0104AE4
:10103000042B00D00F4A104908F026FD6879831E62
:10104000022BB1D9AFE7BB42E7D00634122CC8D18E
:10105000044B0A481B68D96808F070FD0120A3E71B
:1010600008D41D102C9201081FD41D101AD41D1075
:1010700036D41D1024D41D103DD41D1053D41D1082
:10108000A52337B5DB00C05C150001F067F901A9A5
:10109000C0B201F029F80124011E07D120232A0043
:1010A000019801F045F80400601E8441019801F0A8
:1010B00035F820003EBD0000A523F7B5DB00C25C7B
:1010C00058235343C018E823876A1B019F4203D863
:1010D000426D01929A424BD9284B29481B68D96826
:1010E00008F02CFD0020FEBDAC4220D1D600B44655
:1010F000466A0132B44466467668B446DE0064440B
:10110000B446066D0133B44466467668B446654419
:10111000BA42E9D3019EB342E6D3BA4202D10120DA
:10112000B342E0D0154B17481B68D968D8E7AC42EA
:1011300011D2D600B446466AB44466467668B446D0
:101140006444022904D10D4B0F481B68D968C7E7D6
:1011500001320121DCE7DE00B446066DB444664688
:101160007668B44665440129EDD001330221CFE70A
:1011700000210B000A000D000C00C9E72C920108A9
:101180006BD41D10D7D41D109DD41D1010B50400B4
:101190002422002108F01EFD200010BD70B58AB089
:1011A000050001A80C001600FFF7F0FF80239B004C
:1011B00004930B4B210105930A4B620001930A4BE8
:1011C0000C319B187118102201A806F0E3FE0028CC
:1011D00004D18E210123490061434B550AB070BDF3
:1011E0000100C00400248000B6700708F0B50600B6
:1011F000CFB0180015001C0000F060FB002808D1DB
:10120000924B93481B68D96808F098FC0120404233
:1012100015E1200000F0E8FA002800DA0FE18E2343
:101220005B0043439B5D03900120002B00D006E14F
:10123000009322003233290016A8FFF7CDFC031ECD
:10124000E4D10E2502AAAD182A0007A916A8FFF7B7
:1012500015FD002800D0F2E02B88712BD6D131ADDE
:101260002A000799200000F063FF0028CED120005B
:1012700000F006FB071EC9DD06F0F0FEB842C5DB34
:10128000744C102221000AA8113408F09AFC2100A5
:1012900010220EA808F095FC2100102212A81CAC08
:1012A00008F08FFC2000FFF771FF302306AE3100FD
:1012B0003800089306F0C4FE002800D0BFE0308854
:1012C000210006F079FE002800D0B8E02B78042B2E
:1012D00000D0B6E0CF222388120213408222D2012E
:1012E000934200D0ADE009905B4909A8678806F0F9
:1012F000C9FE002800D0A2E010230EAA574909A871
:1013000006F068FE002800D099E010230AAA54498C
:1013100009A806F05FFE002800D090E00221073700
:10132000FF087F00013732882B000097FF3109A8A2
:1013300006F072FE002800D081E0089A25A909A8CD
:1013400006F05AFE00287AD109902000FFF71EFF10
:1013500080231B011F93882312255B01238002AB8E
:10136000404EED182B00202229A92000209606F0DF
:1013700011FE002863D12988320009A806F090FEEA
:1013800000285CD11E2302A9FF335B18102219002C
:1013900009A806F095FE002851D1FD2102AB2022BC
:1013A000C91809A806F09CFE002848D1288806F034
:1013B000B3FD002843D11CA8FFF7E8FE80239B0063
:1013C0001F93294B294D1C93039B294F5E00AB199A
:1013D000102225A91CA8209706F0DCFD00282ED19C
:1013E000244C715B3A00200006F04EFD002826D107
:1013F000102212A9200006F069FD00281FD1039BCE
:10140000549A1B010C331E21D318102202A808AFD6
:10141000FF31091801970092200006F067FD089B34
:10142000102B10D100280AD1020001003B0020003F
:1014300006F03AFD002802D1705B06F06DFD4FB05A
:10144000F0BD8720E3E68420E1E6C0462C92010847
:101450002AD51D1008D51D100901203002020000F8
:10146000030200000900800200248000B670070813
:101470000100C004BC70070810B50400100000F0A3
:10148000B3F90023984206DB1D33FF335843035D55
:10149000581E8341DBB2180010BD0000F0B51D00DE
:1014A000170089B004AC0C2200210600200008F0CF
:1014B00091FB2B0F23732B0D637338002B0B2D091E
:1014C000E573A37300F090F9051E04DA002000F024
:1014D000AFF809B0F0BD8E235B004343985D6D000B
:1014E00001384342584100F0A3F8134B134AE95A1C
:1014F000134D280006F0C8FC0028EAD11022210074
:10150000280006F0E3FC0028E3D10E9B03AC009317
:10151000109B0E9A19000194280006F0E7FC039B2B
:101520000E9A01009342D4D10028D2D102002300A8
:10153000280006F0B9FCCCE7B67007080100C0042B
:10154000BC7007088E2210B59200002106F02AF820
:1015500010BD000010B504F0ADFB04F0E3FB04F097
:10156000F5FB62B604F0CCFAC02201200749520014
:101570008B5883438B500648064A002101F008FD32
:10158000E120400204F0B8FC10BDC0460000264037
:101590008000314064D51D10822110B5012410480F
:1015A000890042584358D205DB0B2340D20D9B18CB
:1015B000002BF6D104F00EFD0A4801F0E3FD0948C6
:1015C00001F0E0FD084B1B681A006D3211789A6833
:1015D00080238C40DB051C438023DB00D45010BDEE
:1015E00000006540800231403076070810B50B4896
:1015F00001F092FB04F0C4FB094A8021032001F0B2
:101600009BFF084801F024FE074B1B684D331B78F5
:10161000002B02D0054801F069FE10BDF0DC1D1062
:1016200000000008C07007083076070810D61D10AB
:10163000F7B5041E49D16A46244B254D1B78254F2A
:10164000D3706B68244801933B68D96808F076FA38
:101650002248234A2100121A08F0BCFA2148224AE3
:101660002100121A08F0B6FA204E214A2100921BDE
:10167000300008F0AFFA6B46144ADB781370019B18
:101680006B6086F308881B4E1B482100321A08F055
:10169000A1FA86F30888012006F020FEFFF7A6FFD6
:1016A000686805F0F5FE021E04D03B681349D8684F
:1016B00008F0EAF9124804F0C9FB124B1B68002B32
:1016C00001DA05F009FF0BF057FDF7BD2876070892
:1016D000287407082C92010898D51D1080900108E5
:1016E000FC9301086C9701087076070800E0000879
:1016F00000E4000800C00E0800B00E08E0D51D1080
:101700000040001600012640F0B599B01EAB1B78D2
:101710000390049313781400302B03D0952040429B
:1017200019B0F0BD9378022BF8D108AD402200210A
:10173000280008F04FFAE07822185379811D1279B9
:10174000C9180291022AE9D1C21861780432914283
:10175000E4D1202B00DD20230100202800DD202102
:10176000401A002205900FE0501A2030070005981B
:10177000102684469444A44460460079013284468D
:1017800004A880196646C6559142EDD100220299FF
:10179000C91A64189A4212D10E2404ABE41821002D
:1017A000049806F04DFC0028BAD140232088039A03
:1017B00001930095203B054906F052FBB0E7D11A92
:1017C000A05C403168540132E4E7C04609000610CD
:1017D000037800205A1E012A05D90130052B02D0BA
:1017E000062B00D00238704703780422190000202D
:1017F0009143012905D00130022B02D0062B00D0E5
:101800000238704710B50C00FFF7E2FF012807D837
:1018100030235843044BC05C001B431E984110BD4D
:1018200001204042FBE7C0462874070810B50400B9
:10183000FFF7DAFF00280EDB0CD02000FFF7C8FF0F
:10184000002808DB302343430448C01843780120B4
:101850005840404210BD0120FBE7C04628740708ED
:1018600010B5FFF7B5FF0022012805D83023434308
:101870000248C0182C300278100010BD28740708E8
:1018800010B5FFF7A5FF0022012804D830234343F9
:101890000248C018827C100010BDC046287407089A
:1018A000012805D8302343430348C01840697047D6
:1018B00001204042FBE7C0462874070810B5FFF737
:1018C00087FF012805D8302343430348C018007C14
:1018D00010BD01204042FBE7287407080023F0B543
:1018E0008DB00D00160004931360984203D10724B5
:1018F00020000DB0F0BD0029F9D04389002B01D1A3
:101900000324F5E701230A00009301004F3306A8E2
:10191000FFF762F9041EEBD10E276F4403003A0073
:1019200005A906A8FFF7AAF9002801D0013CDFE7C6
:101930003B88042BE4D104AA0599280000F0F8FBA9
:10194000002801D00124D3E7049BFF2BD0D83360BB
:10195000CEE70000F0B5150017221F000023FF2678
:10196000C1B0089108A95218119313702B690B90FC
:10197000380010960593FFF737FF002804DA01249A
:101980006442200041B0F0BD002800D1E5E03800FD
:10199000FFF74CFF041EF4D13800FFF78FFF431E02
:1019A0009841059B5B07DB0F984204D03800FFF796
:1019B00085FF013CE5E702220992089A12943B78E0
:1019C000002A05D006220992089A012A00D0099619
:1019D000099A934209D12B695B0706D53A00089909
:1019E0000B98FFF749FD0028C9D0A94912A806F0B5
:1019F000A1FA041EC5D1489B002B59D100242B8984
:101A000026000693069AEB689446634407936B8915
:101A1000079A9B180A930A9BB34255D8002CB0D161
:101A200020AB202218A912A806F0A2FA041EA8D101
:101A30004A9B002B00D0B2E000233A00009329001B
:101A4000944B12A8FFF7C8F8041E00D099E70125AF
:101A500005900990069007901A2608ABF6180EAC70
:101A6000330022000FA912A8FFF708F9002800DAB6
:101A700085E700D0FEE03388222B00D1B3E000D907
:101A800093E0102BE8D12688202EE5D1330020AA40
:101A90000F99380000F04CFB041E00D071E73200B3
:101AA00020A918A808F07EF80028D5D10795D3E71B
:101AB000499B002BA2DD1A00489912A806F048FAAB
:101AC000041E00D05DE799E70A9B479A9B1B05928D
:101AD0009A4200D90593069BB34206D9059B069A04
:101AE0009B199A4201D2931B0593079BB34206D9D7
:101AF000059B079AF3189A4201D2931B0593059B05
:101B0000469A3100380000F013FB041E00D038E77D
:101B10003B78099A934217D104222B69134213D0C0
:101B2000069BB34210D8079BB3420DD9469A069B39
:101B300002920F22F31A1A400192059A0899009214
:101B40000B983A00FFF7AAFC059A469912A806F0EE
:101B5000FFF9059B0400F6185DE712904C4912A8A6
:101B600006F0E8F9041E00D00BE7489B002B0AD1D1
:101B70006B892A897968D218EB6812A8D21806F006
:101B8000E7F904004AE7499B002BF1DD1A00489968
:101B900012A806F0DDF9041E00D0F2E6E8E72022E4
:101BA00018A94A9808F00DF846E7502B41D0812B30
:101BB00000D051E72388012B00D04DE7172608AB52
:101BC000F61832002B000F99380000F0B1FA041E0D
:101BD00000D0D6E631783800FFF714FE041E00D09E
:101BE000CFE6069538E73800FFF73AFE061E00DC20
:101BF00032E706F033FAB04200DA2DE723881A0004
:101C0000463A3A2A00D9BAE620AA0F99380000F0DD
:101C10008FFA002800D0B2E6F6B2238820AA0096F8
:101C2000202118A8FFF770FD002800D014E70995BF
:101C300012E72388042B00D0A1E611AA0F993800DF
:101C400000F076FA041E00D09BE6119BFF2B00D912
:101C500095E610A9089800F01FF8041E00D090E641
:101C6000109BFF2B00D98AE6119A934200D9F3E624
:101C70000595F1E6079B002B00D180E6069B002B23
:101C800000D17CE6059B002B00D178E6099C90E60C
:101C900009000001FFFF000010B50C00FFF700FE77
:101CA000002803DB210005F0F9FC10BD01204042B3
:101CB000FBE710B50C00FFF7F3FD002803DB210064
:101CC00005F004FD10BD01204042FBE710B5FFF711
:101CD0008DFC10BD10B50E4B987832331C78002C5B
:101CE00011D02000002404280FD800F0D1FF094BA8
:101CF000041E1B68084AD86800D0084A2300084917
:101D000007F0C2FE01E00028ECD1200010BDC04663
:101D1000287407082C92010864D61D106CD61D107B
:101D200073D61D10F0B595B0FFF760FCFFF712FCFD
:101D300003F0A6FF1722BF490CA807F042FF3F207F
:101D400002AB09220021C01807F044FFC02005AAF9
:101D500006A9800005F01AFB002803D10CA90698FB
:101D600005F0D6FAB44DB54C2B682000D96807F0C1
:101D7000E5FE2B68B24ED968300007F0DFFE2B6815
:101D80000CAAB049D86807F07FFE2B683000D968EC
:101D900007F0D4FE2B682000D96807F0CFFE2B682F
:101DA000A948D96807F0CAFE802005AA06A9400004
:101DB00005F0ECFA071E0AD1A44C01900090A44B48
:101DC000A44A2100069804F079F9071E12D02B6866
:101DD0003A00A149D86807F057FE974B9F481B6807
:101DE000D96807F0ABFE78427841FFF721FC00206C
:101DF00015B0F0BD01239A4E9A4A33709A4B9B4F0F
:101E00001A80E2695A60226A9A60994B3B80237C6F
:101E1000002B04D02B689748D96807F08FFEA37871
:101E2000002B06D02B689448D96880237B7007F07C
:101E300085FE636A7B60A36ABB602B68D868237EDB
:101E4000012B00D099E0230048331B78022B00D0EF
:101E500093E03370894A8A4B8A4F1A80E26C5A6049
:101E6000226D9A60884B3B80230040331B78002B07
:101E700003D00100854807F061FE230032331B7850
:101E8000002B06D02B688248D96880237B7007F02E
:101E900055FE636D32787B60A36D7E49BB602B6815
:101EA000D86807F0F1FD2B687B48D96807F046FE3B
:101EB000FE227A4BD2011A80794A5A60802252025D
:101EC0009A60FFF707FF00280DD0A378002B01D000
:101ED00000236370230032331B78002B03D02300D0
:101EE000002231331A705A49200006F0D7F9021E39
:101EF00007D02B686B49D86807F0C6FD0020FFF7B4
:101F000097FB09A8FEF760FE071E00D065E72B6867
:101F10006548D96807F012FE644B62681A60237A3C
:101F2000634A1370002B04D0E06803F045FE03F011
:101F3000B7FE099B5F4E1A890B9B5F49D2182B682D
:101F40003260D86807F0A0FD0122237E03929342FD
:101F50000BD1230048331B78022B06D12B6857483E
:101F6000D96807F0EBFD002303932078013803289C
:101F700059D806F097FA050C0C133278504990E7BF
:101F8000FFF70AFB0399306805F022FB25E7FFF70E
:101F900003FB0221002001F0ABFBF3E7FFF7FCFAA3
:101FA00006210E2001F0A4FB2A4B404D1B7802AA0B
:101FB0009372404C2B684348079323680021089391
:101FC0003B4B1B78D372404A121A05F0EBFA3F4E96
:101FD0003F4A0021921B300005F0E4FA089B1D4A9D
:101FE000236002AB9B7A1370079B314A2B6002ABD4
:101FF000DB7A137086F30888364E37480021321A90
:1020000005F0D0FA86F308883448354A0021121AC0
:1020100005F0C8FAFFF7EAFA254B29681A78206814
:1020200005F062FAD9E62B682E48D96807F086FDDC
:1020300030BFFDE744D61D102C920108ADD61D100F
:10204000B7D61D10F8D61D1023D71D102874070809
:10205000CC7507082876070845D71D109AD91D109A
:1020600080900108017F000050720708687207081D
:10207000027F000074D71D10AFD71D10057F000030
:102080005C72070874720708067F0000EAD71D100B
:1020900025D81D1060D81D10A1D81D104472070846
:1020A00000001D10D3D81D1006D91D10847207081A
:1020B000807207084072070836D91D1056D91D10C6
:1020C00084D81D1080900108FC93010800E00008EE
:1020D00000E4000800C00E0800B00E086C9701086C
:1020E0007076070874D91D1010B50B4A1368002BC1
:1020F00002D10124644205E01C7804328442F5D107
:1021000000240B600B68002B04D05B787F2B01D977
:1021100000F02EFD200010BD8490010810B50028AD
:1021200004D043787F2B01D900F04CFD10BD000096
:10213000F7B54468050017001E008C4204D8A92199
:102140001D4B1E4A490006E0CB189C4206D854217C
:102150001B4B1A4AFF311B4807F078FC6418320009
:10216000210006F037F90190002803D0164B134ADE
:10217000AC21E7E76B787F2B07D1210032003800D4
:1021800007F01FFD019C2000FEBD5BB2002B0FDAA3
:10219000210033003A00280000F066F9041EF2D056
:1021A0000A4B22001B680A49D86807F06DFCEAE771
:1021B00001246442F4E7C046C8DA1D10D2D91D10CC
:1021C000F7DA1D10D9DA1D100EDB1D102C92010854
:1021D00037DB1D10F8B54568060017001C008D425E
:1021E00004D87E21224B234AFF3106E0CB189D42C2
:1021F00006D8BF21204B1F4A4900204807F026FC83
:102200006D182200290006F0E5F8002803D01C4BC9
:10221000184A8621E8E773787F2B1CD1E30503D0A9
:10222000184B144A8E21DFE7E805C00D03D0164B8A
:10223000104AC721E0E72E00640A64026419791B82
:102240008919A64200D1F8BD300000F043FE80237A
:102250009B00F618F3E75BB2002B06DA23003A0086
:102260002900300000F020F9EDE701204042EAE7C4
:10227000C8DA1D10E2D91D10F7DA1D10D9DA1D10C9
:102280005EDB1D1093DB1D10B0DB1D10836870B585
:1022900005001600934204D2B421224B224AFF319A
:1022A00005E08B4206D8DA21204B1F4A490020481E
:1022B00007F0CCFB446852181B199A4203D31D4BFC
:1022C000194AB621EBE764183200210006F082F8C3
:1022D000002803D0184B144ADE21E7E76B787F2BE8
:1022E00014D1650A3419640A6D026402A54203D14F
:1022F000280000F0BDFD70BD641B640A002CFAD0FC
:10230000013C6002401900F0B3FDF7E75BB2002B1F
:1023100004DA3100200000F0E7F8ECE70120404249
:10232000E9E7C04631DA1D10F3D91D1044DA1D105B
:10233000D9DA1D1056DA1D107BDA1D1010B543785E
:102340007F2B05D05BB2002B05DA00F0D5FC10BD69
:1023500080208000FBE701204042F8E702000129CD
:102360000DD00320022909D00438002906D101200C
:10237000002A03D00430012A00D0FA30704702202E
:10238000002AFBD00430012AF8D0F930F6E700002B
:1023900010B543787F2B0AD05BB2FF20002B07DB00
:1023A0009721044B044A8900044807F04FFB0020A2
:1023B000C0B210BDB0DA1D1004DA1D10D9DA1D103C
:1023C000F7B5060017000193FFF7B2FE0500041EE3
:1023D0000AD001256D420BE03000FFF7D9FF3B5DCD
:1023E000834205D10134E4B2019B9C42F4D3012520
:1023F0002800FEBD70B5164B1C68002C02D10120D0
:1024000040421CE0257804338542F5D163787E2B69
:10241000F5D91048A3681B1808685B0A984205D2D2
:102420000D4B0E4A0E490F4807F010FB80256068DF
:102430005C022418AD00A04202D100200B6070BDE8
:102440008026B6001060556080190832F3E7C04658
:1024500084900108FF010000B6DA1D101ADA1D1081
:10246000B1020000D9DA1D10F0B585B003937F23C7
:1024700040780C001840170000F0D0FB060000F078
:10248000D5FB050000F0D6FBE8231B06E218039BF2
:102490000190009331003B00280002F089FD431EAB
:1024A0009841404205B0F0BDF0B585B003937F235D
:1024B00040780C001840170000F0B0FB060000F058
:1024C000B5FB050000F0B6FBE8231B06E218039BF2
:1024D0000190009331003B00280002F0ADFD431E47
:1024E0009841404205B0F0BDF7B50400002000F06F
:1024F00095FBE822836905009B691206A4185B42DC
:102500001C4000F093FBAB6906009F6900F092FB52
:102510003B00009029003000220002F0E9FD431E3C
:1025200098414042FEBD0000F0B589B006ACE070B5
:10253000002021712080A07000F070FB060000F0E8
:1025400075FB050000F076FB310007000200280053
:1025500001F0ACFE002815D10123049703933378D2
:1025600002000293052301900093712123002800AB
:1025700001F010FC002805D13B00034A310028007F
:1025800002F0ECFC09B0F0BD20A10700F0B500247A
:102590008BB009ADE870200007912C80AC7000F082
:1025A0003DFB069000F042FB060000F043FB069B5B
:1025B000049003941B780700029304230194009372
:1025C00022002B006521300001F0E4FBA0420CD179
:1025D0000821300001F076FDA04206D103000097EB
:1025E00001220799300001F0ADFC0BB0F0BD021ED6
:1025F0001DD041188B1F1B780022342B17D14B1F85
:102600001B782A3B012B12D80B1F1B78193B022B7E
:102610000DD8CB1E1B780F2B09D18B1E1B78032BDB
:1026200005D101390878903843425841C2B21000B0
:102630007047000030B5002089B000F0EFFA0500C7
:1026400000F0F4FA040000F0F5FA012300220490EF
:1026500003932B7820000293019200921300B7217C
:1026600001F098FB041E11D11F256D4429000320A1
:10267000FFF78CFF041E09D129784BB2002B08DA32
:1026800029000420FFF782FF041E0BD0200009B0B0
:1026900030BD8023032019432970FFF745FF041E36
:1026A000F4D1EDE708212B780B420CD0002000F08C
:1026B000B5FA8022D8218369D2029A615A691160E1
:1026C000054A1A64E2E7194304202970FFF72CFF3A
:1026D0000028EBD00400D9E770170000F0B589B0EE
:1026E000079000200F0000F099FA040000F09EFA15
:1026F000050000F09FFA0022049003922378060060
:1027000002930192009213009F21280001F042FBE6
:10271000041E0FD14021280001F0D4FC041E09D171
:102720000090030001963A000799280001F0D6FBBB
:10273000041E16D0200009B0F0BD012002F0BCFF3D
:102740003100280001F0D6FC032802D0013F002F01
:10275000F3D13100280001F0CDFC0328EAD0024C6F
:10276000E8E7024FECE7C0460200B200E9030000D0
:1027700010B5072900D901BE1F2314009C4300D0C7
:1027800001BE0E4B1B689C695B69001BC009000100
:10279000C0181F231A40032907D8C9008B408A405C
:1027A00004689C432243026010BD0439C9008B4079
:1027B0008A4044689C4322434260F5E7307607082C
:1027C000437802781B021A438378C0781B041343B2
:1027D0000006184370470000F7B5A54BA54A9A5864
:1027E000D10700D47BE00F22A34FBB683D68009364
:1027F000A24BDC6F0193009B1440073A141B9C42D0
:1028000000D91C009E4E002C18D1009B3D60BB607F
:10281000002B0CD1F92201209549D2008B5883431B
:102820008B50B861FB69002B01D0FB699847F823F6
:102830000122DB008E49CA50CB58F7BD082C16D1B7
:102840002800FFF7BDFF3060281DFFF7B9FF30609B
:10285000009B2D191B1B0093019BDC6F0F231C4059
:10286000073B1C1B009B9C42CDD91C00CBE7012CD5
:1028700003D12A78834B1A60EAE7022C06D12A7822
:102880006B781B021343804A1360E1E7032C07D1E6
:102890006B782A781B0213437B4A1360AA78E9E716
:1028A0002800FFF78DFF042CD1D03060052C01D11A
:1028B0002A79DFE7062C02D12A796B79E1E7072C28
:1028C00007D16B792A791B0213436F4A1360AA79E7
:1028D000D0E7281DFFF774FF08243060B8E79107A0
:1028E00000D4A4E00F22644D68496C69EB68086865
:1028F0008C460240A24200D922006549654E002A5A
:1029000016D1EB606C61002C0DD1F92202215848E0
:10291000D20083588B4383500320A8612B6A002B7D
:1029200001D02B6A9847F8236C61DB00022281E713
:10293000082A19D10868070A18705F70070C000E82
:102940009F70D8700868070A18715F71070C000E35
:102950009F71D8719B18A41A62460F20126802401A
:10296000A242CCD92200CAE7012A03D14A48006812
:102970001870EFE7022A04D130681870000A587006
:10298000E8E7032A07D130681870000A58704248F7
:1029900000689870DEE7042A08D10868070A1870F2
:1029A0005F70070C000E9F70D870D3E7052A0BD11B
:1029B0000868070A18705F70070C000ED870364858
:1029C0009F7000681871C5E7062A0CD10868070ACD
:1029D00018705F70070C000E9F70D8703068187107
:1029E000000A5871B6E7072A0FD10868070A18705D
:1029F0005F70070C000E9F70D87030681871000A65
:102A00005871254800689871A4E70A68100A1A707E
:102A10005870100C120E9870DA700A68100A1A7149
:102A20005871100C120EDA719871082292E7042185
:102A30000A4207D00520104A9061F822D20099502E
:102A40009B58FAE608210A4202D00B4A0620F3E717
:102A50001020024206D00721074A9161F822D200D5
:102A60009850EDE72020024200D1E6E6024AF4E762
:102A700000004240CC07000088720708080042406E
:102A8000980042409000424094004240C4004240BE
:102A9000D8004240D4004240D000424010B5294AFC
:102AA0000321294800F074FA112203212648FFF778
:102AB0005FFE264A0421244800F06AFA112204210C
:102AC0002148FFF755FE224A05211F4800F060FA11
:102AD000112205211C48FFF74BFE1E4A06211A4809
:102AE00000F056FA112206211748FFF741FE1A4A54
:102AF0000721154800F04CFA112207211248FFF770
:102B000037FE164B1B683C331B78022B12D9E2238D
:102B10000F20134A9B00D1588143D150D158213006
:102B20008143080020210143D1508021D05809065B
:102B30000143D150FA220B4B92000B490B4801F094
:102B4000B9F810BD78DC1D108005314044DC1D1043
:102B500010DC1D10DCDB1D10ACDC1D10307607080E
:102B60000000264088720708E0DC1D10000042408B
:102B700070B50E4C2368002B13D10D4D0D49280064
:102B800002F032FD0022AB5E002B06DB1F22134059
:102B90001E3A9A401300084A13600849084801F099
:102BA000ABFA23680133236070BDC046F872070892
:102BB0009C910108D9271D1000E100E088720708E8
:102BC00000004240114A10B51368002B1DD0013B94
:102BD0001360002B19D10E4A13685B005B08136069
:102BE0000C4A0021535E002B0ADB1F210B401E39CB
:102BF00099400B000849CB67BFF34F8FBFF36F8F2E
:102C000051880023D05E02F0BFFC10BDF8720708A7
:102C1000000042409C91010804E100E0024B80006A
:102C20001B685B68C05870474473070800487047CA
:102C300000004240004870478872070837B5050019
:102C4000FFF72CFF041E1BD1FFF792FF0D4B0E4A1E
:102C500029000E481D6002F05FF8041E0ED1062107
:102C60006846FFF73BFD041E08D106216846FFF7C2
:102C7000BEFC002802D0FFF7DDFC0400FFF7A2FF36
:102C800020003EBD447307088872070800004240D8
:102C9000F8B5164C431E6268032B23D8180012683F
:102CA00005F000FC021A1C1E012111700C22534376
:102CB0000F48104A1D58C0184668077A310028008E
:102CC000177200F065F928003A003100FFF750FD57
:102CD0002000FFF7B3FFF8BD0221E6E70421E4E797
:102CE0000821E2E701204042F5E7C0468C91010847
:102CF000449101089C900108024B5B681B689B692A
:102D0000586A70478C910108024B5B681B689B698D
:102D1000586870478C910108014B18607047C04695
:102D200030760708074A13682E331B78834200D891
:102D300001BE13681A00AC3212881B6A5043C018D7
:102D40007047C046307607081D4B98420FD010D808
:102D500040282FD005D8002830D0102828D0194876
:102D60001EE0802828D080235B009842F7D11448C9
:102D700016E0154B984214D008D8A0231B069842A1
:102D80001CD0124B9842EAD1A0200BE0104B984285
:102D90000AD0104B984209D00F4B9842DFD10F4810
:102DA0007047A420C003FBE70D48F9E70D48F7E79B
:102DB0000D48F5E70D48F3E70D48F1E70020EFE790
:102DC00006005200FF005200010000F0090000A0C0
:102DD000040000F0050000F0030000F001005200C4
:102DE0000200520003005200010050000200500097
:102DF0000500520010B5002002F06CFB0B4B1B6865
:102E00001A1DD26F1B689B1819681C68090E0131C6
:102E10004B08181805F050FB240AE4B2013463088B
:102E2000C018210005F048FB10BDC04630760708E9
:102E300010B50020FFF776FF0A4B1C682300B03363
:102E40001B68C0180368002B0ADB074B1868FFF7E4
:102E50007BFF012263689A609A68002AFCD110BD4A
:102E60000248FCE73076070890730708020050001C
:102E700070B5C4050500E40D1ED102F081FF0F4BB3
:102E80000F4A1A605D609C60DC600E4B1B6850331B
:102E9000197800290BD0FFF7ADFFFA21890005F062
:102EA0000BFB0100084805F007FB084BC118802008
:102EB00040000AF079F970BD0548FCE790730708F7
:102EC0000001001C3076070860F5900098080000AB
:102ED0000600520070B5C40506000D00E40D20D1B7
:102EE00000291ED002F04CFF0F4B104A1A605C60A4
:102EF0009E60DD600E4B1B684E33197800290BD0A5
:102F0000FFF778FFFA21890005F0D6FA0100094899
:102F100005F0D2FA084BC118802040000AF044F9AD
:102F200070BD0648FCE7C046907307080001000525
:102F300030760708C0EA210148260000060052004A
:102F400010B5072900D901BE1F2314009C4300D0EF
:102F500001BE0E4B1B689C695B69001BC009000128
:102F6000C0181F231A40032907D8C9008B408A4084
:102F700004689C432243026010BD0439C9008B40A1
:102F80008A4044689C4322434260F5E73076070854
:102F9000F0B5060085B00D001400002800D1EAE06D
:102FA000002A00D1E7E0072900D901BE2368012BE0
:102FB00000D901BE0F2362689A4300D001BE1F22D0
:102FC000237A934300D001BEE368032B00D901BEEE
:102FD0002369012B00D901BE6369012B00D901BE11
:102FE000A369012B00D901BEE369032B00D901BEFF
:102FF000236A012B00D901BE636A012B00D901BEEF
:10300000A36A012B00D901BEE36A032B00D901BEDC
:10301000236B072B00D901BE2368072D00D901BE01
:103020000121A9400091012B03D901BE009BB3608F
:1030300003E0002BFAD1009B73606368072D00D971
:1030400001BE0F221900914300D001BE4B4FAA00D0
:1030500002923A68A80079321278921911680191A7
:103060000F2181400198884301000F200340A800F0
:1030700083400B431360227A29003000FFF760FF82
:10308000E368082D00D901BE032B00D901BE3968C1
:103090006A0078310878301801680F0003219140E8
:1030A0008F43390003273B40934019430160236954
:1030B000082D00D901BE012B00D901BE01270098BF
:1030C0003B40C043AB40B16901400B43B36163690E
:1030D000072D00D901BE012B00D901BE27491032AE
:1030E000096801917A31097871180F68BC46012787
:1030F0003B40AB40039363461840039B1843086072
:103100000321019B7B331878301803689C46A36920
:103110003B40AB40E5690D40954091402B436546EF
:10312000009A11438D432B430360626A0221BA4027
:1031300004200A40A16A019B890001400A43216AD8
:1031400002980F4018211743E26A7C33D2000A40EC
:103150001743226BE73152010A401743FE229200C7
:103160001040874000201B78F61833688B431F43BC
:10317000376005B0F0BD0248FBE7C046307607086F
:1031800001005A00134B10B51A6893695169C31AAC
:10319000DB091B015B1814000021793401602478DD
:1031A0002418216014007A34247824182160140033
:1031B0007B342478241821601400783424787C32FD
:1031C000241821608161127810180160196059601B
:1031D00010BDC04630760708084B1B68B0331B682B
:1031E000C3181B68002B06DA0B0C00D001BE89B295
:1031F0004160002070470248FCE7C046307607086F
:1032000001008A000368002B07DAC2600B0C00D0B3
:1032100001BE89B28160002070470148FCE7C046CA
:1032200001008A00002900D101BE074B1B68B033A2
:103230001B68C3181B68002B03DAC36800200B60EF
:1032400070470248FCE7C0463076070801008A0054
:10325000024B1A68002A00D118607047A47307084F
:10326000F0B5204E059D3468002C00D101BE2C2401
:103270001F0060433468FF2620181C0A3740344082
:10328000194E1B0C83603368076044602E331B7833
:103290009F4200D301BE34682300AC331B887B43BC
:1032A000276A2F34DB19036124784368A34200D3D3
:1032B00001BE34688033246A5B011B198468436152
:1032C000260C01D001BE01BE2404260C34439C60B0
:1032D0000023C261016283619D4201D02B888381FA
:1032E000F0BDC046A473070830760708F0B50400A7
:1032F00085B0002800D101BE6368032B00D901BE50
:10330000E36A002B00D101BE236B002B00D101BE6C
:10331000A36802AD2B80144B22681B68E16A9B8E68
:10332000E0689B186B806368A26A03930095236929
:10333000266A676AFFF794FF00213B000A000091AC
:103340003000FFF78DFF216B280002F04DF90022BD
:10335000AB5E002B06DB1F2213401E3A9A4013007F
:10336000024A136005B0F0BD3076070800E100E0C6
:10337000F0B5002A00D101BE164C2568002D00D101
:1033800001BE25682C24604361432818046969182C
:10339000002C1BD08D69002D1AD12568002D17DA5D
:1033A000012635003700406885404868874010682E
:1033B0003F0480B238431060E2604B628E612B0C98
:1033C00000D001BE0020ADB2A560F0BD0248FCE710
:1033D0000248FAE7A473070804028A0007028A0079
:1033E000002373B504000193984200D101BE236904
:1033F000002B00D101BE6369002B00D101BE236AFE
:10340000002B00D101BE6269D5682B0C22D01B04B1
:10341000136013681A4B20691B68B0331B68C3180C
:103420001B68002B16DA01A9FFF7FCFE0026B0424C
:103430000CD10198E26903681E0CDBB29A4205D9EF
:10344000226A9B009B58002B00D0984731002069CE
:10345000FFF7C2FEADB2002D09D063691D600025E3
:103460001B68636AAB4205D098476562A5616369D2
:103470001B6873BDA36A002BF8D09847F6E7C046D7
:1034800030760708064A10B51368002B00D101BE3C
:103490002C2343431068C018FFF7A2FF10BDC0469D
:1034A000A4730708074A13682E331B78834200D899
:1034B00001BE13681A00AC3212881B6A5043C01850
:1034C0007047C04630760708F8B5174B0D001B68EB
:1034D0002E331B78834225D9002923D01F240B6863
:1034E0001C401FD1FFF7DEFF07002B680F4EDA08E4
:1034F00021003060686806F06DFB21003800FFF79E
:103500006BFE21002A003068FFF77CFE041E07D105
:1035100001003068FFF760FE03002000002B00D0A0
:103520000348F8BD0348FCE730760708A87307088E
:1035300001018A0003018A0010B50C00002A07D19E
:1035400000290DD1FFF7AEFF064B1860200010BD1B
:10355000002905D004490C604A60FFF7B5FFF6E783
:103560000248F4E7A87307081400000803018A0062
:10357000F7B5184F04003B680191DE683368834259
:1035800026D90025A94202D104F047FF050038687A
:103590000368002B1ADA1F2201232240934064099A
:1035A0007268A4001419226813420DD09A43226055
:1035B00000240021FFF710FE019B002B02D1280000
:1035C00004F02FFF2000FEBD034CF2E7034CF3E7AD
:1035D000034CF7E7A873070802018800030188007D
:1035E00004018A000A4B1B68DB681A6882420DD905
:1035F00059681F23420918401E3B834092005058CF
:103600001840431E9841034BC01870470248FCE71E
:10361000A87307080001880004018A0037B5032356
:103620000024074D1A00280000940F2100F05AF9D9
:103630002800009423002200702100F053F937BDC8
:10364000801A0140002307B5009303331A007F213D
:10365000014800F047F907BD801A0140F7B5214D38
:1036600001902D6808AC2C352D7824781F2D36D983
:103670000C259B002B40093D2A401A4363426341BD
:1036800000251B011A4300921F272A004900002928
:103690001ED00026019B94001C19236801200142C2
:1036A00005D03800B04083430098B040034308364B
:1036B0004908202EF2D12360002A03D126685E40FB
:1036C000BE4307D124689C4207D10132042ADED1CF
:1036D0002800FEBD044D0122D9E7034DF5E7034D57
:1036E000F6E7C046307607080300C2000200C200B9
:1036F00030B5114D2B685B6CC340DB0700D401BEB5
:103700000F2900D901BEF0230A041B030F241A401D
:103710000B002D6823401A43830228691B18802060
:10372000C0011A5018582040401A411E88410349D0
:103730004042084030BDC046307607080300C20052
:1037400010B5002800D101BE4B89DB0B00D001BEB3
:1037500002238A799A43012A00D001BECA799A438A
:10376000012A00D001BE4A897F2314009C4322D144
:1037700007248B795202234013434A7A313492074B
:103780001343CA79097AD2002240134301224A40E6
:10379000920113431A0009490A409A420BD142622E
:1037A000406A0840801A43425841054B4042184045
:1037B000044BC01810BD0448FCE7C046DBFEFFE028
:1037C000FDFF3DFF0300C2000100C20030B500282C
:1037D00000D101BE4B89DB0B00D001BE8B79072BDA
:1037E00000D901BECB79072B00D901BE0B79073B6D
:1037F000182B00D901BE4C897F2322009A43131E47
:103800002DD107250A68FF339A434B7964021A4386
:103810008B792B4023434C7A3135A4072343CC7951
:10382000E4002C40234301240D7A09796C40A40163
:103830002343F8240906640521400B4343600260DA
:10384000016891420DD14068074A1040C01A4342B6
:103850005841064B40421840054BC01830BD054842
:10386000FCE70348FAE7C046FFFEFFFFFDFF3DFF10
:103870000300C2000100C200002800D101BE802365
:10388000426A1B0613434362406A024BC00F013871
:10389000184070470300C200002800D101BE8023F9
:1038A00042681B06134343604068024BC00F013857
:1038B000184070470300C20073B506AC2578002895
:1038C00000D101BE02241600A643012E00D001BE85
:1038D0001E00A643012E00D001BE00953030FFF738
:1038E000BDFE76BD13B504AC2478002800D101BE1E
:1038F000032A00D901BE032B00D901BE0094103069
:10390000FFF7ACFE16BD036810B5020080241B054E
:1039100000D4403C82239B00D3580020DB05DB0D04
:10392000A34203D090239B00D150013010BD036807
:1039300080201B0500D4403870470000F0B505001A
:1039400085B00C001600002800D147E1002900D105
:1039500044E10B78022B00D901BE637B023B062BAE
:1039600000D901BEA37B002B03D0023B012B00D961
:1039700001BEA31CDB7F012B00D901BE230028332D
:103980001B78012B00D901BE2378012B00D919E146
:1039900008236268083A93429B415B42002B00D0A7
:1039A00001BEA368053B042B00D901BE6369FF2B50
:1039B00000D901BEA369FF2B00D901BEA37C002B57
:1039C00009D02378002B05D1A368092B02D1A37B52
:1039D000002B00D001BE824B626B1A4200D001BEA8
:1039E000804BE26B1A4200D001BE2378022B03D138
:1039F0000022A37F934201D063685A1E237F0021D7
:103A0000581E834118040823A768BB424941073365
:103A10001A4080239B0413430343C9020B432B60CA
:103A20002800276BFFF783FF874200D301BE2800E1
:103A3000A76BFFF77CFF874200D301BE2800676AAF
:103A4000FFF775FF874200D301BEC02221789204A0
:103A50000B0613402B64607FE76A431E9841830185
:103A60000093A37C07205A1E9341227C9B02019362
:103A7000531E9A411302627C0293531E9A415302D1
:103A8000F02203937B1E12031B041340627B013A56
:103A900002401343A27B2930120102401A43009BCB
:103AA0001A43019B1A43029B1A43039B1A43AA64BD
:103AB000207B431E9841E37B0002002B00D08AE06C
:103AC00002394B4259414B02A268511E0F2211404C
:103AD0000143C020194380002950FF21A369090434
:103AE0001B040B406169C9B20B43C42189006B50B0
:103AF0002B581A400332974201D3102F00D901BE30
:103B00000021E37F22788B4203D0531E59424B4160
:103B1000190207203027637B013A013B0340A07B59
:103B20000001384003430B436B64237B0F20591E75
:103B30008B411902A368013B03400B4351424A41A8
:103B4000120413438022FF219200AB50236B0532F5
:103B50000B40FF32AB50631CDB7F5F1EBB415F0637
:103B6000A31CDB7F013B5842434118062300283346
:103B70001B78013B5A4253411A04636A0B403B4392
:103B8000034313432B65A36B626B194081239B0096
:103B9000E950154B30001340144AAB50E36B144A04
:103BA0001340144AAB5000239E4209D01800124A19
:103BB0007360B3603360F36033623363F3627263E4
:103BC00005B0F0BD0023A27F9A4200D1E6E663680B
:103BD0005A1E0623DFE680239B0075E70748EFE7C0
:103BE00092F4FFFF8CF8FFFF6D0B0000C80F000080
:103BF00073070000880F0000EFCDAB000160AA0042
:103C0000114B08220360C0210F3B03640023FF32E5
:103C1000890083644250043143500C3143501139C0
:103C2000FF3943644250FD328350084A0365835094
:103C3000074A8350074A8350074A8350074A8350F4
:103C4000074A83507047C0460F000003C80E0000AB
:103C5000880E0000C80F0000880F0000080F000049
:103C6000480F000003685B005B080360002904D074
:103C700000234B600B600B62CB627047036810B58A
:103C80000400002B07D0012001F016FD2368013B42
:103C90002360002B01D0002010BD0148FCE7C04686
:103CA0000200B200030A08704B70030C000E8B7008
:103CB000C870704710B5002835D0002933D0002BCC
:103CC00031D05A62F9220324D2008358A34383508F
:103CD0000B68DBB2012B00D901BE8B68DBB2032B72
:103CE00000D901BE4B68072B00D901BECB68DBB2FF
:103CF000012B00D901BEC022E0248B6892011B0376
:103D000013404A68E40212042240134301220C6863
:103D100022401343CA688021120649040A40134313
:103D20000360002010BD0148FCE7C0460400B2005B
:103D30000300481E10B5C4B2012C04D904291ED0BA
:103D4000082920D001BE032A00D901BE072813D8B4
:103D500004F0A8FB041312171212121B8021090190
:103D60005818002808D0C0211204890203680A40AC
:103D700007490B401A43026010BD8821EFE7032A70
:103D8000E3D89021EBE7032ADFD89821E7E7C04684
:103D9000FFFFFCFFF0B585B001930AAB070001CB34
:103DA000151F0090EDB20CA804781B780E98FA2D20
:103DB00000D801BE1D1FEDB2FA2D00D801BE651E50
:103DC000012D04D9FB26251F354200D001BE240257
:103DD000A446F0240D9D2401EE07009D1204002D41
:103DE00038D0019D002D00D101BEFF2B00D101BEB6
:103DF0006546406A25400390C02029432C000025D9
:103E0000800202401143360C29430025C0222800BD
:103E10001B049202134039651C43009B9D4202D251
:103E2000134B984201D105B0F0BD07227B6C1340C3
:103E3000032B0BD8019B00995B5D013523433200B6
:103E40008D4200D2002213433B65EDB203A8FFF779
:103E500015FFE2E7654625402C00C025406AAD020B
:103E60002A402143350C039011432E00CCE7C04675
:103E70000200B200F0B51D1FEDB2069CFA2D00D86D
:103E800001BE144E551EB54200D901BE0727466C2F
:103E90003E40032E1BD8C0261B04B60233408026AA
:103EA000ADB2F60235432B4303650B1E0DD0059BC7
:103EB00021606260A260E361F9220223D200A36163
:103EC0008158013B0B43835000231800F0BD024B87
:103ED000FBE7C046FFFF00000100B20070B51D1FE8
:103EE000EDB2059CFA2D00D801BE002A21D007268C
:103EF000456C3540032D1ED88025561EB6B22D03C5
:103F00003543C0261B04B60233402B4303650B1E0A
:103F10000DD0049BE160226162612362F9220423D7
:103F2000D200A3618158023B0B4383500023180049
:103F300070BD024BFBE7024BF9E7C0460400B2003C
:103F40000100B200F0B50600181FC0B28FB0FA2809
:103F500000D801BE002A00D1AAE00724706C2040DE
:103F6000032800D9A6E08020541EA4B200032043F9
:103F7000C0241B04A402234003433365081E0ED053
:103F8000149B00205B6A07910393042309920C9011
:103F90000A930A9B042B02D1474B984201D10FB0E0
:103FA000F0BD099B079C00933300C43301931D6847
:103FB0000F231D40009B9D4200D91D00002D17D1ED
:103FC000009B07940993002B0CD1F92202210320B6
:103FD000D200B3588B43B3500A900C9B002B01D0F6
:103FE0000C9B9847009B03A80993FFF747FED0E777
:103FF000082D0AD13700D83738682100FFF752FE64
:104000003868211DFFF74EFE05E0012D09D1330070
:10401000D0331B682370009B64195B1B0093019BCA
:10402000C5E7022D06D13300D4331B6823701B0A69
:104030006370F0E7032D0AD13300D4331B6823707B
:104040001B0A63703300D0331B68A370E3E73700AB
:10405000D83738682100042DD4D0052D06D1FFF7BC
:1040600021FE3300D0331B682371D4E7062D08D11D
:10407000FFF718FE3300D4331B6823711B0A6371EA
:10408000C9E7072D0CD1FFF70DFE3300D4331B68B1
:1040900023711B0A63713300D0331B68A371BAE725
:1040A000FFF700FE3868211DFFF7FCFD0825B2E789
:1040B000024874E7024872E70200B2000400B2004E
:1040C0000100B20000290CD00722436C1340032BDF
:1040D00009D8C023013989B21B03194301650020A7
:1040E00070470248FCE70248FAE7C0460400B20005
:1040F0000100B2008869704700230B604B608B6041
:104100000B61CB604B618B61802302681B061343FC
:1041100003607047F0B5046843691D20042C2AD160
:104120001E381860012600204C78E406240F350064
:10413000270085402F40BD4206D001300528F6D12A
:10414000FF2200201A71F0BD0428F9D00C791470F8
:104150004C790532D4718C79D474CC790918D47720
:104160000A7940001A601D3000221A715A71EAE77C
:104170002328E5D002300A5CFF2AF9D01A60F3E761
:10418000F8B505000E0017000D4C39002800FFF7A8
:10419000B1FF864202D0013C002C0CD1390028002E
:1041A000FFF7A8FF301A43425841064B40421840DF
:1041B000054BC018F8BD012001F07EFAE5E7C046C6
:1041C000E9030000FEFF4DFF0200B200F0B500273A
:1041D0000C0087B00E9D060010000A79096804954E
:1041E000039702936379C9B20193032300930300F9
:1041F0003000FFF7CFFDB84216D121693000FFF73C
:1042000061FFB84210D1237D0C9A009001950D9961
:104210003000FFF763FEB84206D16C6A0A4BAA6908
:10422000032A01D0984201D107B0F0BD002084429A
:10423000F5D00130013C01F03FFA60426041024B91
:1042400040421840EAE7C0460200B200F7B5002538
:104250008C79C0B20134E40001942F000824844614
:10426000085D84450BD10E19F079FF2807D17078CD
:10427000B84204D3B678012E01D107002500019879
:1042800008348442ECD9002D0BD04919087990707C
:1042900048795070887910700020CA7892001A60AE
:1042A000FEBD0148FCE7C0468000B20030B58B6916
:1042B00087B0DB680C001500002B0FD019681A7945
:1042C000012303932378C9B20293FF2301930023B0
:1042D00004950093FFF75EFD07B030BD0048FBE793
:1042E0008000B20070B5160000220400080086B0FD
:1042F0000A9D039204951900037800920293FF230C
:10430000200001931300FFF745FD002806D10300AC
:104310000095012231002000FFF714FE06B070BDA9
:1043200030B50F24012385B08D696C442370AB6ACE
:10433000002B0BD01B680092DBB22200FFF7D2FFEC
:10434000002803D12378AA6B134023702078431EE2
:104350009841C0B205B030BDF0B51F008B6989B07F
:104360001C6A0500002C47D0002A47D0586A0E9ED0
:10437000B04243D34869C6B24869002800D10E78DC
:1043800021682079C9B20791109902960491002101
:104390000391617901911B68079900931300020052
:1043A0002800FFF7F7FC002824D1A1684B1C12D18C
:1043B0002169002904D02800FFF784FE002819D1C4
:1043C000109A237D01920F9A3900009228000E9ACC
:1043D000FFF750FD0EE0109B227B0493FF23039018
:1043E000019300900300C9B202962800FFF7D2FCA7
:1043F0000028DDD009B0F0BD0148FBE70148F9E72E
:104400008000B2000400B200F0B51F008B6989B0D3
:104410009C680500002C43D0002A43D04869C6B2EE
:104420004869002800D10E7821682079C9B2079127
:1044300010990296049100210391617901911B6802
:1044400007990093130002002800FFF7A3FC00283F
:1044500024D1A1684B1C12D12169002904D0280065
:10446000FFF730FE002819D1109A237D01920F9A90
:104470003900009228000E9AFFF730FD0EE0109BE5
:10448000227B0493FF230390019300900300C9B2A1
:1044900002962800FFF77EFC0028DDD009B0F0BDB1
:1044A0000148FBE70148F9E78000B2000400B200D0
:1044B000F0B58C46002800D101BE8369586890424F
:1044C00019D31D6D002D03D00020DF6C874201D170
:1044D0000A480DE08300EC582668B24209D3E3682D
:1044E00061684B439B199A4203D2634600201C60CB
:1044F000F0BD0130EAE70248FAE7C0460600B20024
:104500000400B200F0B58BB006900D0014000793C4
:10451000002900D101BE002C31D000222300AE6959
:10452000099231687769611899421FD109A9280059
:10453000FFF7BEFF002F20D03A79FF2A1DD0114B84
:1045400098421AD0002816D1099B9968079B0192BE
:104550000493012303932B78C9B20293336806981E
:1045600000932300FFF716FC0BB0F0BD1878120281
:1045700002430133D8E73968E8E70348F4E7014824
:10458000F2E7C0460400B2008000B200F0B5D5B03A
:1045900008900C0009921E00002900D101BE0023E2
:1045A00010AA1380937011AA1380937012AA13801B
:1045B0009370626B22AD06921A005A550133642B38
:1045C000FBD1320009990898FFF7B2FB069B002B3C
:1045D00003D16A4F380055B0F0BD5A9B0195029344
:1045E000382310AA00930699099B0898FFF7EEFD5F
:1045F000071EEFD1AB79062BEBD82B78532BE8D1E4
:104600006B78462BE5D1AB78442BE2D1EB78502B7D
:10461000DFD12B79052BDCD96B790A93012BD8D10B
:10462000002513AB11AA22A955481395FFF70EFEDA
:1046300014AB12AA22A953481495FFF707FE524B58
:10464000984201D1E5642565FF2015AB10AA22A987
:1046500000021595FFF7FAFD071EBBD1A368002BDA
:1046600000D101BEE368002B00D101BE2369002BFD
:1046700000D101BE6369002B00D101BEE369002BAC
:1046800000D101BE236A002B00D101BEA36A002B1A
:1046900000D101BE5A9B22AD0293159B10AA009334
:1046A0000699099B01950898FFF790FD0122079054
:1046B0001000297F16AB884017901000697F197091
:1046C000A97F8840E97F1A901973692108A8091801
:1046D0001000C97F88406A211D9008A80918C97F69
:1046E00019766B210918C97F23AB8A402092DA7FA3
:1046F0003D231B18DA77AB7800225B079B0F032B57
:1047000001D0224AD25C239B2260002B30DB013394
:10471000DB080122110063602CAB1B7804201B090D
:10472000994006236162E1680B6000230B712169E7
:104730000B7108600521A263A26A1371E36A11601C
:10474000002B00D101BE236B002B00D101BE002243
:10475000236B08A91A71A232521810784006400F34
:1047600005281BD8012203F09DFE13DFE5EBDFDFF8
:104770008022033B12061343CBE7C0460500B2007C
:1047800084FF000081FF00008000B200A4DD1D1046
:1047900001225242E2631A60E36A1A606022E3690E
:1047A0001F251A6000221A710F232B9A2C991A4088
:1047B000013250000A0E2A40013242434800BB4BEE
:1047C000800F4000C05A0F23424362640A0A15401A
:1047D0000B404022890400D4383A022001330135CD
:1047E0005B006B43534322AAA364A5689378864376
:1047F000012E00D1ABE02021194000D1C1E0537A55
:1048000068712B6000232B71137A5B0900D0B4E030
:10481000013BAB601F2222AB1B7A052613402B61A4
:1048200002232B752368042B00D0EEE131AB1B78FB
:104830005A0600D49E4F0120034229D09B0712D56F
:10484000E368002B0FD019681A795A9B03900493E0
:10485000099BC9B20293FF23019300230898009398
:10486000FFF798FA0700924B9F4201D0002F20D10A
:104870005A9B0022049301230393099B0092029305
:10488000FF23B721019308981300FFF783FA07006D
:10489000002F0ED15A9B11AA02933BAB0193139B9D
:1048A000069900930898099BFFF790FC071E00D11A
:1048B000A5E0012054AB1B18C93B1A780123934093
:1048C0001B38A36143080B930F232B9E002033401A
:1048D00001335B000793FA239B009C4618AD33001D
:1048E000C3401F211A090A405B0A1C390B407D3165
:1048F000022B06D06146032B03D01021012B00D0E0
:104900000F39079B01325A434A4307302A600C355E
:104910001C28E4D10B9B1038584354AB18180538A9
:10492000FF3883682364D9E00221E1631A60E36AF7
:10493000352232E74021E1631A60E36A05222CE761
:104940008022E263423A1A60E36A013225E71021CD
:10495000194033D0D37B6E712B6000232B71937B76
:104960005B0927D1013BAB601F2222AB9B7B032657
:1049700013402B6101232B7554E7FF232873AB6091
:1049800048E7FF265B0600D44CE7D37A29712B60F9
:104990006971937A5B090AD1013BAB601F2222AB9C
:1049A0009B7A042613402B6102232B753AE7AE60F5
:1049B0002973F3E7FF232E73AB60D5E7334015D09F
:1049C000537B29712B606971137B5B090AD1013B11
:1049D000AB601F2222AB1B7B022613402B610123FD
:1049E0002B751FE7FF232973AB60F2E703222A60D0
:1049F000043A2B716B71AA602B612B7512E7013E93
:104A00003B9B042E09D8300003F04CFD1D191511F5
:104A100003009B0601D5EC232B60236A3B9A042EEE
:104A200054D8300003F03EFDE2E2E2311300DB0631
:104A3000F3D56C23F0E71B07EFD5BC23ECE75B074E
:104A4000EBD53C23E8E79B07E7D50C23E4E780257B
:104A500001206D0015404042002D0AD03E22002169
:104A60001A603C3A19715A7198601A7319611A7573
:104A70002CE0802111401DD034221D711A605D711F
:104A800098601D731D61323AF1E7802101201140C9
:104A9000404200290ED034221A60002298601A7118
:104AA0005A711A731A610232E1E7C046A8DD1D107F
:104AB0008000B20040252A4000D18FE012221971F7
:104AC0001A605971986019731961197516AA3BA972
:104AD0002000FFF71FFB002800D0EBE6236D002B22
:104AE00000D177E55A9B12AA029322AB0193149B43
:104AF000069900930898099BFFF768FB071E00D0F2
:104B000068E50600149B3B900B93814B069007933E
:104B10000221069A22ABD25C0A4000D188E0079BB2
:104B2000002B51D1692208AB6831C918D2180698F8
:104B3000069B105CCB5CB04200D0CCE05A1CD2B2D9
:104B4000E264012A46D90025226D9B000B92069A49
:104B500009950432D3180C93069B08936821099B8E
:104B60005B190993089B04330893089A08AB5B18F8
:104B7000995C0F23194000230A9A0A4200D1B5E03C
:104B80006820089908AA12185258150A0D920A00AE
:104B900006990135521A0B99043A8E58099A2D023A
:104BA00032600C22534316AAD3181A785968B2609F
:104BB0009A6832618D4200D3A2E00123F5607360F0
:104BC000089B0C9A9342C9D1079B1A00504B9A42FA
:104BD00000D09BE00023E3642365FBE402211A710B
:104BE00019605A7198601A731A6140E740210A40AF
:104BF0004139002A06D012221A6000221A715A7115
:104C00009960F0E702201860F8E70222236A012188
:104C10001A60002249421A715A7199601A731A6116
:104C20001A7522A916AA2000FFF774FA079F52E707
:104C300006995B18D87859780C901F2007919B78BB
:104C400008A9401802709B090320012B05D0181EEB
:104C500003D00420022B00D02068069D0022AC4621
:104C60003BAB844490422ED15A9A09990492002277
:104C7000029100900392019207990898FFF78AF831
:104C80000790002815D11F2508ABED185A9B01226B
:104C90000093290003000898FFF754F907900028B3
:104CA00007D17600F3B20C9A2E781640721E964108
:104CB0001E43069B08330693069A0B9B934200D330
:104CC00026E7144F86E4654622A9AD1A4D19ED7802
:104CD0009D540132C6E7069802339B00C318069321
:104CE00006980B9B834200D321E7EAE70133520089
:104CF000DBB2D2B2052B00D03FE7064A07923FE76E
:104D0000F160280003F0D8FB706059E7079F61E469
:104D10000600B2000700B200F0B589B00290079219
:104D2000002800D111E1002900D10EE14B68059364
:104D3000002B00D109E1002A00D106E10B6806939F
:104D4000002B00D101E10023C02603930493B60297
:104D5000039B059A9B00D458002C00D1D9E02378FE
:104D60005A1E012A06D90422043B9343DBB2002BCE
:104D700000D001BE237A032B00D901BEA369002B0A
:104D800000D101BE2278501E072800D9DBE003F0D5
:104D900089FB04D1DAD4DADADAD78021029B09015F
:104DA0005D18237A29686A4F18043040394001435E
:104DB00029600421606808400DD00799029800918D
:104DC000A169FFF7E3FB002805D00823039A93406D
:104DD000049A1A430492A3691B68013B032B00D970
:104DE00001BE002800D094E063689B0700D490E0E7
:104DF0002169E06803F0E6FB002900D001BE2369C9
:104E0000544A934202D95A1E134200D001BEFF21D8
:104E10008C466746E168A069B9438268036AA96065
:104E200021694942B943E960016803200139014021
:104E30006069471EB841000201432962002A2DD053
:104E400010680021471C08D0674607408020117970
:104E500000060904314007433943296451799068B9
:104E60000904314069640021471C07D08027117B69
:104E7000C0B209043F063140384301430020A96411
:104E80001169814205D01F300139014080200006A0
:104E90000843E864127D120432402A65002B2CD0AE
:104EA00019680022481C07D080201A79C9B2120460
:104EB0000006324001430A432A665A79996812046F
:104EC00032406A660022481C07D080201A7BC9B293
:104ED00012040006324001430A430021AA661A69FF
:104EE0008A4205D01F31013A0A4080210906114348
:104EF000E9661B7D1B0433402B6702216268FF318A
:104F000011408022237A12061B0433400A431343C4
:104F10002B60039B01330393039A069B934200D0BB
:104F200016E70020049B002B02D0B2200004184397
:104F300009B0F0BD029B882131E7029B90212EE74A
:104F4000029B98212BE70448ECE70348F0E7C046B2
:104F5000FFFFFCFFFFFF00000400B200F7B50F00E9
:104F6000009015000193960800D101362C00B5423F
:104F700000D934002D1B0C4B20009C4200D9180096
:104F8000241A80B200F098FB002CF4D1019A390069
:104F90000098FFF7C5F9002803D0002DE6D103489B
:104FA000FEBD2000FCE7C046FFFF00000200B2008B
:104FB000F0B51F00002389B005900D00160007937F
:104FC000994200D101BE002F00D101BEAA690E9BFB
:104FD0005268F3181748934227D909B0F0BD8023CF
:104FE0000E9C5B029C4200D91C003100AB6907AAF1
:104FF0001B68013B9954090A002BFAD10F990193C0
:10500000029100943B0029000598FFF7FDF9002864
:10501000E3D10F9A03210598FFF7B2F80028DCD1FD
:105020000E9B36191B1B0E933F190E9B002BD6D1DE
:10503000D3E7C0460400B200F0B51F00002389B0DA
:1050400004900C0015000793994200D101BE002F77
:1050500000D101BEA2690E9B5168EB188B4243D868
:10506000536A224805930E9B002B01D109B0F0BD75
:105070000599280003F0A6FA0E9B059A5B180E9E70
:10508000934200D3561A0F9A21000498FFF70EF9A5
:105090000028EBD12900A36907AA1B68013B99549A
:1050A000090A002BFAD10F990193029100963B0057
:1050B00021000498FFF750F90028D7D10F9A012159
:1050C0000498FFF75DF80028D0D1A2690F9B926C7D
:1050D00021000498FFF742FF0028C7D10E9BBF199B
:1050E0009B1BAD190E93BEE70048BFE70400B2005A
:1050F000F0B58BB0039300230590019102920893C1
:105100000993002900D101BE019B029A9B6909A95C
:1051100004939F691B6C01980793FFF7C9F9041E5C
:1051200018D1099BDF685E681D687E43731906937A
:10513000039B002B00D1394C029B3900581B03F014
:1051400041FA002903D1354B9C4206D1334C200053
:105150000BB0F0BD00250695EAE7029B039A9E1866
:10516000069BB34209D9721E09A90198FFF7A0F95D
:10517000041E02D1099B1D68DF68701B390003F013
:1051800021FA0029E3D1254B9C42DFD0039B002B61
:10519000DDD0029A09A90198FFF78AF93500041EAB
:1051A0000AD1099BDF685D681A697D431B68079215
:1051B000ED18B54200D93500FA23079A9B005343F6
:1051C000069326E0109A01990598FFF76FF8041EE0
:1051D000DCD1049B029A1B68013B08A95A54120AAD
:1051E000002BF9D10A00109B01990598FFF78AF965
:1051F000041ECBD1109B069A01990598FFF7AEFECD
:10520000029B0400DB190293039BDB1B0393002822
:10521000BCD1029BAB42D5D3B8E7C0460400B20074
:10522000A6220549D2008B580220DB439B0702D0FF
:10523000012388581840704700002640074B01386A
:105240001B683B331B78834200D801BE8130044B7E
:10525000FF308000C058C00F7047C0463076070846
:105260000000264010B5FFF7DBFF0023022801D124
:10527000014B1B68180010BDAC7307080C4B1B6872
:105280003A331B78834200D801BED022094B8000FC
:105290009200C318985807221040042807D1C02252
:1052A000920098581F230340802040001843704705
:1052B000307607080000264010B51B4B1B683A33B8
:1052C0001B78834200D801BEFFF7D8FF02281CD00C
:1052D00005D8002814D0012814D0002011E0122392
:1052E000FF33984214D01423FF33984218D0033B65
:1052F0009842F2D10D4A0E4BD058C00FC00300E0C7
:105300000C4810BD0C4B1868FBE7FFF7ABFFF8E744
:105310000A4B186904231840F3D080200002F0E7FC
:10532000024A074BE8E7C0463076070800002640EF
:105330000C05000000127A00B07307080000274037
:105340003C05000010B5002800D101BEB023154A6D
:10535000DB00D3580F249903DB01DB0F890BC371EA
:10536000114B0160D358D904DB01DB0D0381B1235C
:10537000DB00D358C90C81801900214081721909C2
:105380002140C172D9029B009B0F8373074BC90C4C
:10539000D35881815A05DB01520FDB0D82710382E4
:1053A00010BDC04600002640840500008C050000AA
:1053B00010B5104B421E1B683B331B78934216D925
:1053C0007F221F248030FF300B4B8000C3581A40CF
:1053D0000A701A0C2240180A8A701A012040E24012
:1053E000487000209B009B0FCA700B7110BD0348D2
:1053F000FCE7C046307607080000264001004A005E
:10540000F0B5324D87B02B6804003A331B788342E5
:1054100000D801BE2000FFF74FFF0600002C38D156
:1054200001AD14222100280004F0D4FB2800FFF76E
:1054300089FFB023264ADB00D358002B03DAAC7B6C
:10544000023C631E9C41EA79019F531E9A41A88841
:105450000132002C1AD0002818D0002A16D00023C0
:10546000190003F0BFF900230C0005003A003000DA
:10547000190003F0B7F9E6076A0832436308801899
:1054800059412A00230003F08DF90600300007B0CF
:10549000F0BD2B683B331B78A342F7D301AD052247
:1054A0000021280004F096FB29002000FFF780FF70
:1054B0002000FFF7C3FE0024A04203D02C79023C59
:1054C000631E9C412F786878AA78C2E73076070877
:1054D0000000264070B5114D2B683C331B78984274
:1054E00000D301BEE02201240D4B8100C9189200B7
:1054F0008B589B069B0F9C402B683C331B78984233
:1055000000D301BE0F2388581840FFF779FF6308C6
:105510001818210002F0D0FF70BDC0463076070891
:1055200000002640174A30B513681C002834247840
:105530001F2C16D8820807241500A5432C1E0FD156
:1055400003342040A04081401B68920020339B1808
:105550000A00FF2181401C686240114061401960CF
:1055600030BD1B8F8B4200D101BE13681A68072320
:10557000184080231B06184380239B01C91889000B
:105580008850EDE7307607080A4B10B51B681A0003
:10559000283212781F2A03D8198FFFF7C3FF10BDD6
:1055A00080221B688900C91812028B585B005B08B7
:1055B0008B50F4E730760708084B10B59C68030061
:1055C000074A10339B00944205D1002900D101BE47
:1055D000D058D15010BD034AD058FBE700ED00E091
:1055E0000090010800001D10F8B506000D0000280D
:1055F0003ED04368032B00D901BE0023F05E002893
:1056000028DB7188FFF78EFF0024FF2203279446D2
:105610000023F05E716883B21F40FF006646BA4007
:1056200089013140D243B940002815DB114E83086F
:105630009B009B19C026B6009F593A4011439951CF
:105640000D4B9A680D4B9A4202D12900FFF7B4FF27
:105650002000F8BD0A4CD8E70F263340083B064E21
:105660009B089B009B19DE6932401143D961E7E733
:10567000034CEDE700E100E000ED00E000900108E0
:105680000100560070B5802504002D02AC4205D8FB
:10569000064B1868604302F0B7FE70BD044B1868F3
:1056A00002F0B2FE034BE418F0E7C046B4910108E3
:1056B000B09101080080FFFF10B5034B1B785843E1
:1056C00002F0A2FE10BDC046B8910108FEE700003E
:1056D00002680A4B10B5DA6142681A6282685A623F
:1056E000C2689A620269DA6242691A6382695A631D
:1056F000C2699A63FFF7EAFF10BDC0463097010800
:10570000B0235B059A89002A02D0988980B270473D
:1057100080204000FBE70000044A13682E331B780A
:10572000002B00D101BE1368186A70473076070855
:105730007FB50D00042800D901BE6B1E012B04D9D2
:10574000FB222B1F134200D001BE264B8600F458CB
:10575000042D01D0012D27D100200FE0A3682B429A
:105760000BD1E36829001A685B68029201930393E6
:1057700002A8236898471C4B1C606469002C0BD05E
:105780001A4B9842EAD1012DE8D1174B17481A68F5
:10579000174B9A5104B070BD012DFBD1134B9842A9
:1057A000F3D0134B9C51F5E7022D06D10E4B1B682D
:1057B000181EEFD01C6903E01C006369002BFBD1AD
:1057C0000020002CE6D0A3682B4209D1E368290011
:1057D0001A685B6802920193039302A823689847B2
:1057E0002469EEE7F4730708F0730708FF0042002E
:1057F000DC730708002800D101BE1A4B1B68190092
:1058000004C9C96F51180968016219000831C96FCC
:105810005218126842621A0042321278002A1FD0CF
:105820009A68E0321268D2061AD5F222DB68D201F9
:105830009A580260F022D2019A5842600A4A9A5855
:1058400082600A4A9A58C260094A9A580261094A13
:105850009A584261084A9A588261084A9B58C36123
:105860007047C046307607080478000008780000CA
:105870000C78000010780000147800001878000000
:10588000002800D101BE1A4B1B681A1D1968D26F7F
:105890008A18016A11601A0008321968D26F8A18D2
:1058A000416A11601A0042321278002A1ED09A68AA
:1058B000E0321268D20619D5F0224168DB68D201C5
:1058C000995081680B4A9950C1680B4A99500169F7
:1058D0000A4A995041690A4A99508169094A99507E
:1058E000C169094A99500168E83299507047C04629
:1058F0003076070804780000087800000C78000073
:10590000107800001478000018780000B023F7B574
:105910005B055A7807002126002A01D05E78F6B28E
:10592000012F00D901BE624D6B68002B00D07CE0D6
:1059300002F073FD6B680090002B00D088E05D4C96
:1059400022681300AC33198807234B43126A9B1853
:105950001A68002AFCDADB68DA0020D51B0F1B0767
:1059600055480193FFF746FF5449212E00D074E0BB
:10597000902022680001131DDC6F13681C19236836
:105980000B4003432360130008331268DB6FD31806
:105990001A68114008431860474B019A134380224C
:1059A000444E9205316813430A00AC321088072236
:1059B00000244243096A5218D36054605368FFF7C9
:1059C0009FFE80235B0098425CD1380007F0DCFB2F
:1059D00032681300AC33198807234B43126A9B18B3
:1059E0001A68002AFCDADF68FB0003D538010009D9
:1059F000FFF746FF324B32681F401300AC33198863
:105A000007234B43126A00989B180022DF605A60FC
:105A100002F007FD002C0FD16B68002B03D008218A
:105A20000120FFF785FE2000FEBD01210800FFF7E1
:105A30007FFE041E00D17BE76B68002B03D00221A0
:105A40000120FFF775FE1F4B9C42ECD01E4CEAE78D
:105A500004210120FFF76CFE71E7802220685200CC
:105A6000031DDC6F03681C1923680B40134323607C
:105A7000030008330068DB6FC318186801400A434D
:105A80001A6089E7FFF748FE3368B0331B68C01817
:105A90000368002B0ADB04230C4A11690B431361D2
:105AA000012F01D030BF93E720BF91E7054C8FE76E
:105AB000F473070830760708B4730708FF00FFFF88
:105AC000FFFFFFDF05004200FF00420000ED00E0A5
:105AD000C022C0230349520088581B0603438B5041
