:02000004100DDD
:1000000000C00208CB9E0D100D000000299F0D10AE
:1000100000000000000000000000000000000000E0
:10002000000000000000000000000000259F0D10EF
:100030000000000000000000259F0D10259F0D10FE
:10004000259F0D10259F0D10259F0D10259F0D102C
:10005000259F0D10259F0D10259F0D10259F0D101C
:10006000259F0D10259F0D10259F0D10259F0D100C
:10007000259F0D10259F0D10259F0D10259F0D10FC
:10008000259F0D10259F0D10259F0D10259F0D10EC
:10009000259F0D10259F0D10259F0D10259F0D10DC
:1000A000259F0D10259F0D10259F0D10259F0D10CC
:1000B000259F0D10259F0D10259F0D10259F0D10BC
:1000C00010B5064C2378002B07D1054B002B02D02E
:1000D000044800E000BF0123237010BD68A700089A
:1000E0000000000018CA0D10044B10B5002B03D0FF
:1000F0000349044800E000BF10BDC04600000000F6
:100100006CA7000818CA0D10F7B5684D2B6840336E
:100110001B78002B00D101BEE0220120644992002F
:100120008B589B069B0F98402B68019040331B789F
:10013000002B00D101BE0F238A5813402A683E329B
:100140001278934200D301BE2A683E32127893425D
:1001500000D301BE2A683E321278934200D301BE1A
:10016000534A9C00A418D02207209200A2580240B3
:10017000042A07D1C0229200A258183010408022D1
:10018000520002438820400082425CD00CD8002AF2
:1001900014D0022A64D1A620C0000A580026D243F7
:1001A00092070CD00A580AE01220FF3082424FD04A
:1001B0001420FF30824253D13E4A45E03E4E002B90
:1001C00050D1B0248020E4000A5940049703024033
:1001D00094463A4A3A4D885804328A584D590C5937
:1001E000C004BF0BC00C1900002C04DA9100890F69
:1001F00002394C1EA1416246531E9A410132002928
:100200001AD0002818D0002A16D0002319000BF0AD
:1002100007F800230C0005003A00300019000AF02E
:10022000FFFFE6076A0832436308801859412A0035
:1002300023000AF0D5FF0600019B58088019190019
:100240000AF042FFFEBD1F4A8E58F60FF603B6E7CE
:1002500004201D4A16690640B1D080263602AEE75A
:100260000026ACE72A683F3212789342E4D8013B7B
:10027000164D9A4213D97F271F226159080A0B0C89
:100280000F4089001040890F1A40002364599C4296
:1002900003DA02390B00591E8B411900AFE701BE8A
:1002A00000210A0008000F00EFE7C04684A70008FD
:1002B000000026403C05000000127A008405000082
:1002C0008C0500000C05000000002740FC05000024
:1002D000074B5B68DB681A68002A06D05B68186801
:1002E00001231840034BC01870470348FCE7C04681
:1002F00084A700080001880004018A00437802787E
:100300001B021A438378C0781B041343000618436A
:100310007047104B30B51B681A00180075321478FE
:100320007630013A007812789968773382401878ED
:1003300003231D008540280010438022120602433B
:1003400001200340A34013438022D2008B500020A1
:100350008B5830BD84A70008084B00201B681A008A
:10036000996801237532127893401A008023DB05C7
:1003700013438022D2008B507047C04684A70008E8
:10038000F7B500258C79C0B20134E40001942F0048
:1003900008248446085D84450BD10E19F079FF28A6
:1003A00007D17078B84204D3B678012E01D1070086
:1003B0002500019808348442ECD9002D0BD049194E
:1003C0000879907048795070887910700020CA7848
:1003D00092001A60FEBD0148FCE7C0468000B200F2
:1003E00010B5002800D101BE0B78032B00D901BE47
:1003F0004B78032B00D901BE184B1B6830331B7898
:100400001F2B27D88A887F2314009C4324D10724DC
:100410000B78520223401343CA78313492071343B6
:100420004A788978D2002240134301224A4092013F
:10043000134319000A4A11408B420DD14362406AAE
:100440001040181A43425841064B40421840064B90
:10045000C01810BD0548FCE70548FAE784A7000866
:10046000DBFEFFE0FDFF3DFF0300C2000200C20013
:100470000100C200074A136833331B78834200D857
:1004800001BE13681A00BA3212881B6A5043C018A2
:100490007047C04684A7000870B504000020FFF72D
:1004A000E9FF144B14491B68BC331A6800238218F7
:1004B0000568002D06DB8B4202D18420404270BDCE
:1004C0000133F5E78B42F8D00123C4608360002339
:1004D0000A491068002803DA8B42EED00133F8E7AE
:1004E0008B42EAD0A0222368120600209342E6D075
:1004F0001800E4E784A70008983A000000943577D4
:100500001FB5084B002402936B4602A8039301AB6E
:1005100001940093FFF7C0FFA04200D0019401981E
:1005200004B010BD001B0035002803D00378013B48
:100530001F2B00D970470130F6E7002210B50400E8
:100540001000A15C0B00303B092B09D8303808188B
:10055000531C032A03D000011A00042BF1D110BD53
:100560000B00413B052B01D83738F0E70B00613B0E
:10057000052B01D85738EAE70020F0E7F0B50B78F3
:1005800085B0039017004D1C222B17D0116000205E
:100590002AE05C2A07D1019A5278002AF7D0019A02
:1005A000013301320192019A01320192019A1278CB
:1005B000222A00D1A7E0002AEBD1E8E70195002329
:1005C000F4E72B785C2B11D0237001350134019BAB
:1005D0009D42F6D30023039A23700833D36013009F
:1005E0000198029A01301A6105B0F0BD6B78662B54
:1005F00063D014D82F2B61D007D8222B5ED0484B64
:100600003D605B6802989847C1E75C2B56D0622B2F
:10061000F5D1082323700134063BED18D7E7722B80
:1006200050D006D86E2BEAD10A2323700134083B40
:10063000F3E7742B48D0752BE1D1019B5B1B052B95
:10064000DDDDA81CFFF779FF364B374AC3180600DB
:100650009342D4D90028D2D0344B334AC3189342A2
:1006600034D8019AAB1DD31A052BC8DDAB795C2BAE
:10067000C5D1EB79752BC2D128000830FFF75DFF9B
:10068000284B294AC3189342B9D8294BB6021E40B9
:1006900080238005800D5B020643F6180C23254A53
:1006A00096421FD9244A9642A9D83F20304080263E
:1006B00076420643E670042212E00C2323700134D4
:1006C0000223AAE70D23F9E70923F7E77F2804D9D6
:1006D0001A4B98420ED90623E1E706230122207027
:1006E000A4189AE73F203040802676420643A67041
:1006F0000322F5E73F20802306405B421E436670DD
:1007000086330222ECE7019A501AC01A044B0430D7
:100710001B6898470290041E00D058E737E7C04690
:10072000C0A000080024FFFFFF0300000028FFFF17
:1007300000FC0F00FFFF0000FFFF1000FF0700009C
:10074000F8B5802604007600002C00D1F8BDE368DF
:100750002768334204D1A068002801D0FFF7F0FFDA
:10076000E3680B4D334204D12069002801D06B6847
:1007700098478022E3689200134204D1206A00283F
:1007800001D06B68984720006B6898473C00DBE716
:10079000C0A0000870B5056804000020FFF76AFEDD
:1007A000002316490268002A05DB8B4201D1FF2095
:1007B00070BD0133F6E78B42F9D0012223002A40B5
:1007C00000D023680E4C2468BC342468C360012325
:1007D0008360002305192D68002D03DA8B42E6D0D3
:1007E0000133F7E78B42E2D0C068002A00D10068ED
:1007F000A0231B069842DBD10020D9E7983A0000DD
:1008000084A70008002210B5094B86B0019303901D
:1008100003AB040001A8029304920591FFF7BAFF0D
:100820004342584140420440200006B010BDC0463B
:1008300000220035034B1B68BC331B68C0180068DE
:10084000C00F704784A70008DC23F0B5002487B0F0
:100850009B05049304AE02AB7360029020000394E6
:1008600001911700FFF706FE05002300144C2A68CB
:10087000002A07DBA34203D10120404207B0F0BDAC
:100880000133F4E7A342F7D00123EE600026AB600A
:100890002800FFF7CFFF002803D0A642ECD0013696
:1008A000F6E7A642E8D0A023049A1B069A4201D09C
:1008B0000498E3E7029B019A3B60039B1360DDE72A
:1008C000983A000070B5FFF71FFC002822D0124BA9
:1008D0001B681A00883212681B689B1819681C680C
:1008E000090E0131240A0AF0EFFBE1B201310AF0EE
:1008F000EBFB451E094928000AF0E6FBFA21084CEB
:1009000001302072890028000AF0DEFB0130E0602F
:10091000C003206170BDC04684A7000840420F009C
:10092000C0A00008184A30B513681C002C34247885
:100930001F2C16D8820807241500A5432C1E0FD1A2
:1009400003342040A04081401B68920020339B1854
:100950000A00FF2181401C6862401140614019601B
:1009600030BD9B8FDBB28B4200D101BE13681A6889
:100970000723184080231B06184380239B01C918B6
:1009800089008850ECE7C04684A70008F8B54368A2
:1009900005000C00032B00D901BE0023E85E0028EF
:1009A0002CDBA978FFF7BEFF0020FF2703263900C4
:1009B0000023EA5E6D6893B21E40F600B140AD01BF
:1009C0003D40C943B540002A1ADB134E93089B00F3
:1009D0009B19C026B6009F5939400D439D510F49C0
:1009E0000F4B8D689D4208D189688B4205D1002C40
:1009F00000D101BE103292009C50F8BD0948D4E7E6
:100A00000F263340083B054E9B089B009B19DE696F
:100A100031400D43DD61E2E700E100E000ED00E080
:100A200000A000080100560010B5FFF76DFB074B52
:100A30001B681A00883212681B689B181968090E17
:100A400001314B0818180AF03FFB10BD84A70008BD
:100A500010B5FFF7E9FF084B1B681A0088321268CF
:100A60001B689B181968090AC9B201314B0818188C
:100A70000AF02AFB10BDC04684A70008F0B58C46DA
:100A8000002800D101BE83695868904219D91D6DB4
:100A9000002D03D00020DF6C874201D10A480DE011
:100AA0008300EC582668B24209D3E36861684B437F
:100AB0009B199A4203D2634600201C60F0BD0130AE
:100AC000EAE70248FAE7C0460600B2000400B200B6
:100AD00000290CD00722436C1340032B09D8C023F4
:100AE000013989B21B031943016500207047024890
:100AF000FCE70248FAE7C0460400B2000100B20079
:100B0000F7B50200C4324C690D00CB680192116840
:100B10000F220A40A24200D9220007000100D43768
:100B2000D8310097002A12D1EB606C61002C0CD1F7
:100B3000F9220221D20083588B4383500320A861FD
:100B40002B6A002B01D02B6A98476C61F7BD082AED
:100B500019D10E68370A1E705F70370C360E9F7001
:100B6000DE700E68370A1E715F71370C360E9F718A
:100B7000DE710F269B18A41A019A12683240A24215
:100B8000D0D92200CEE7012A04D10600D03636683B
:100B90001E70EEE7022A05D1009E36681E70360AE6
:100BA0005E70E6E7032A09D1009E36681E70360A99
:100BB0005E700600D03636689E70DAE7042A08D1E7
:100BC0000E68370A1E705F70370C360E9F70DE702D
:100BD000CFE7052A0CD10E68370A1E705F70370CFC
:100BE000360EDE7006009F70D03636681E71C0E784
:100BF000062A0DD10E68370A1E705F70370C360E4C
:100C0000DE70009E9F7036681E71360A5E71B0E716
:100C1000072A11D10E68370A1E705F70370C360E26
:100C2000DE70009E9F7036681E71360A5E71060087
:100C3000D03636689E719CE70A68160A1A705E7094
:100C4000160C120E9E70DA700A68160A1A715E711E
:100C5000160C120EDA719E7108228AE7F0B58B68C5
:100C600085B00193030008330D680393DC6F0F23F5
:100C70001C40073B1C1B019B00900F009C4200D9AD
:100C80001C00009B009E943398360293002C14D1D4
:100C9000019B3D60BB60002B0DD1F9220120009B20
:100CA000D2009B58009983438B50B861FB69002B9D
:100CB00001D0FB69984705B0F0BD082C16D128007B
:100CC000FFF71CFB3060281DFFF718FB3060019B0D
:100CD0002D191B1B0193039BDC6F0F231C40073B4B
:100CE0001C1B019B9C42D1D91C00CFE7012C04D1D5
:100CF0002A78009B90331A60E9E7022C06D12A7803
:100D00006B781B021343029A1360E0E7032C07D1B0
:100D10006B782A781B021343029A1360AA78E8E7DB
:100D20002800FFF7EBFA042CD0D03060052C01D15D
:100D30002A79DEE7062C02D12A796B79E1E7072CC4
:100D400007D16B792A791B021343029A1360AA799F
:100D5000CFE7281DFFF7D2FA08243060B7E710B5B7
:100D6000002800D101BE0B78032B00D901BE4B78BF
:100D7000032B00D901BE194B1B6830331B781F2B86
:100D800027D88A887F2314009C4324D107240B781A
:100D9000520223401343CA783134920713434A78EE
:100DA0008978D2002240134301224A409201134322
:100DB00019000B4A11408B420DD14360406810402E
:100DC000181A43425841074B40421840064BC0187E
:100DD00010BD0648FCE70648FAE7C04684A70008AD
:100DE000DBFEFFE0FDFF3DFF0300C2000200C2008A
:100DF0000100C200002800D101BE094B1B6830333E
:100E00001B781F2B0AD8802342681B0613434360BC
:100E10004068044BC00F0138184070470248FCE797
:100E200084A700080300C2000200C200002800D10D
:100E300001BE094B1B6830331B781F2B0AD8802357
:100E4000426A1B0613434362406A044BC00F0138D9
:100E5000184070470248FCE784A700080300C2005E
:100E60000200C20010B5002800D101BE02238A7919
:100E70009A43012A00D001BECA799A43012A00D0C0
:100E800001BE194B1B6830331B781F2B27D84A89AA
:100E90007F2314009C4324D107248B7952022340E2
:100EA00013434A7A313492071343CA79097AD2003C
:100EB0002240134301224A409201134319000B4A76
:100EC00011408B420DD14362406A1040181A4342D0
:100ED0005841074B40421840064BC01810BD064809
:100EE000FCE70648FAE7C04684A70008DBFEFFE0FF
:100EF000FDFF3DFF0300C2000200C2000100C2006E
:100F000010B5002800D101BE4B89DB0B00D001BE1B
:100F100002238A799A43012A00D001BECA799A43F2
:100F2000012A00D001BE4A897F2314009C4322D1AC
:100F300007248B795202234013434A7A31349207B3
:100F40001343CA79097AD2002240134301224A404E
:100F5000920113431A0009490A409A420BD1426296
:100F6000406A0840801A43425841054B40421840AD
:100F7000044BC01810BD0448FCE7C046DBFEFFE090
:100F8000FDFF3DFF0300C2000100C200F8B51E4D89
:100F90001700EA680E00002A00D101BE2C24FF21B0
:100FA00044431800EA68084014191A0A0A401B0C46
:100FB000A36020606260FFF75DFA2B682061343324
:100FC00061681B78994200D301BE0F4B1B681A6AF7
:100FD0000B0080335B01D3186361A368180C01D048
:100FE00001BE01BE49011B0452180849180C0343F5
:100FF000521813600023A361069BE7612662002B51
:1010000001D01B88A381F8BD84A700080810000048
:1010100070B504000D00FFF70DFC002802D0002081
:10102000656070BD0048FCE701008A00F8B5264BFA
:10103000DA68002A00D101BEDC68002C00D101BEB4
:101040002369002B00D101BE6369002B00D101BED2
:10105000236A002B00D101BE6269D5682B0C1ED01B
:101060001B04136020691368FFF7E4FB002816D007
:1010700027693800FFF7DEFB061E0CD0F868E2692E
:1010800003681E0CDBB2934205D2226A9B009B5878
:10109000002B00D0984731002069FFF7B9FFADB2AF
:1010A000002D09D063691D6000251B68636AAB428F
:1010B00005D098476562A56163691B68F8BDA36A9E
:1010C000002BF8D09847F6E784A7000810B5072949
:1010D00000D901BE1F2314009C4300D001BE0E4B5B
:1010E0001B689C695B69001BC0090001C0181F23B5
:1010F0001A40032907D8C9008B408A4004689C43E2
:101100002243026010BD0439C9008B408A40446804
:101110009C4322434260F5E784A70008F0B506002F
:1011200085B00D001400002800D1F2E0072900D995
:1011300001BE2368012B00D901BE0F2362689A43C8
:1011400000D001BE1F22237A934300D001BEE36882
:10115000032B00D901BE2369012B00D901BE6369AD
:10116000012B00D901BE236A012B00D901BE636A9D
:10117000012B00D901BEA36A012B00D901BEE36A8D
:10118000032B00D901BE236B072B00D901BEE369F5
:10119000032B00D901BEA369012B00D901BE012395
:1011A0001A00AA405C4F01926A00029210329446E3
:1011B0003A68E16983321078801902680292A26964
:1011C0001340AB4003220393634611409940039BB5
:1011D0000B4361468A4001990A43029991430B43AC
:1011E00003606368072D00D901BE0F2219009143E7
:1011F00000D001BE0F20AA0002923A680700813297
:1012000012780340B2181168A8008C46A9008F40DC
:1012100061468340B9430B431360227A29003000B2
:10122000FFF754FFE368082D00D901BE032B00D956
:1012300001BE0320384A070012680340803212784A
:101240006800B218116883408C4669008F4061467F
:10125000B9430B4313602369082D00D901BE012B4C
:1012600000D901BE0199B269CF4301210B40AB40C7
:101270003A401343B3616269072D00D901BE012AC8
:1012800000D901BE244B19680B00823318788431D1
:1012900030180368029301231A40AA409C46029B1F
:1012A0001F401743022207600427636A09785B0026
:1012B0001340A26A711892003A4067461343226AAB
:1012C00008681740E26A3B43D70018223A40FF27DC
:1012D0001A43236BB8435B013B401343FE229C46F9
:1012E0009200AB0013401A00634693401843086015
:1012F0002068072D00D901BE012804D901BE019B39
:101300000020B36003E00028F9D1019B736005B0B1
:10131000F0BD0248FBE7C04684A7000801005A0060
:1013200010B50020FFF7A6F8FFF784FA002844D193
:10133000234A244913698B420FD010D8402B36D052
:1013400005D8002B37D0102B2FD01F481FE0802B43
:101350002FD0802149008B42F7D11A4817E01B4952
:101360008B421CD009D8A02109068B4223D01849F2
:10137000A0208B42E9D1C00309E016498B4210D06E
:1013800015498B420FD015498B42DED114481368A2
:1013900001225B689A609A68002AFCD110BDA420E3
:1013A000E9E71048F3E71048F1E71048EFE7104885
:1013B000EDE71048EBE70020E9E70D48EEE7C0460F
:1013C00084A7000806005200FF005200010000F050
:1013D000090000A0040000F0050000F0030000F088
:1013E00001005200020052000300520001005000B0
:1013F0000200500005005200024B80001B6A5B682F
:10140000C058704784A70008034A5369591C01DA81
:10141000013B53617047C046C0A0000810B5144C92
:1014200063695A1C23D0002B1ED1200011491830AB
:10143000FFF7ACFA1822A35E002B06DB1F22134035
:101440001E3A9A4013000C4A136000220B4B5A625A
:101450009A62DA625A631A639A63DA638023084AEB
:101460001B0611680B43136063690133636110BD90
:10147000C0A0000885140D1000E100E084A700085A
:101480000000424070B501251B4C1C4BE3582B4219
:1014900009D01B4920002431FFF7E0FBF823DB00D3
:1014A000E550E35870BD02252B4205D014492000B9
:1014B0002431FFF725FBF1E70422134206D0052172
:1014C0000F4BD963F823DB00E250EAE7082213420E
:1014D00002D00B4B0621F4E710210B4206D0072265
:1014E000074BDA63F823DB00E150DAE720210B42F7
:1014F000D8D0034BF5E7C04600004240CC070000BF
:1015000084A7000810B5002804D043787F2B01D9A8
:10151000FFF77AFF10BD10B50B4A1368002B02D1FC
:101520000124644205E01C7804328442F5D1002491
:101530000B600B68002B04D05B787F2B01D9FFF781
:101540006DFF200010BDC04670B50D1002230028AD
:1015500003D00433012800D0F93318007047F7B5E1
:10156000284E05003300FF335F7E0123002F03D098
:10157000FE33012F00D1FA3BAB420ED15820784305
:1015800033185B6A283001931F4B36181F68002FF1
:1015900010D1012464422000FEBD3800FFF7D6FFC1
:1015A00001248542F7D15820784333181B6D5430FD
:1015B0000193E9E73A7804339542E7D17B78BC6838
:1015C0007E2B02D98025AD0001E0002401252819D9
:1015D0000138290009F078FD0300D020C0008342C3
:1015E00000D96D0000237968019A002C03D1834251
:1015F000CFD83360CFE7116055604919641B0133C0
:101600000832F2E75C64020870B50D1010B50200F4
:1016100001290DD00320022909D00438002906D160
:101620000120002A03D00430012A00D0FA3010BD76
:10163000FFF78CFFFBE70378042219000020914399
:10164000012905D00130022B02D0062B00D0023830
:101650007047037800205A1E012A05D90130052B56
:1016600002D0062B00D00238704770B50400080085
:10167000FFF7EFFF00282ADB602319004143154ADA
:1016800051188D6BC96BA54202D84919A14208D8DF
:1016900058431018026C436CD318944217D39C42E1
:1016A00015D2F0230C4A1B06E318002093420DD9F3
:1016B0000A4B9C420BD9C022094B52055B6A1B683E
:1016C0009B695B689B189C424041404270BD012071
:1016D000FBE7C04614600208FFFF0C00FFFFFF1786
:1016E000C0A00008F0B580258224802640272D0167
:1016F000A400094B1A68944661463200294200D181
:101700003A001B59DB05DB0D9342F2D09023024ACD
:101710009B00D050F0BDC0460000664010B50400EC
:101720002422002108F051FC200010BD70B590B0BB
:1017300007AE050030000C00FFF7F0FF80230D4AD4
:101740009B004E32039210220A930B4B1C340B93D6
:101750000A4B01A807930A4B0496019303AB02932B
:1017600005940692FEF798FE002801D101232B76FE
:1017700010B070BD84A700080100C00400248000E0
:101780000009003510B50A780478012394420BD87B
:101790000CD344784A78944206D807D340884A88C4
:1017A000904201D890429B41180010BD01235B423A
:1017B000FAE710B50400FFF785F80D4B0D4A1A61E2
:1017C00000225C619A61DA611B6854331878904298
:1017D0000BD0FFF73DF9FA21890009F075FC0100F3
:1017E000054809F071FC054BC01809F0B1FE10BDA9
:1017F00084A700080001001C60F590009808000014
:10180000064B10B51B6828209847041E03D02822D9
:10181000002108F0DAFB200010BDC046C0A000087F
:10182000F0B5354B354C85B02360FFF74BF880237E
:10183000334D03202B602B0008336B60FEF71AFE3C
:1018400006002B686060DA080021686808F0BDFBBC
:1018500000213000FFF7DCFB3368002B05DA0021A4
:10186000F5603000B160FFF7D3FBE368002B01D1D6
:10187000244BE36001261C23210002AFBB703E8095
:101880005431214B0822002000970396FFF77EFB7E
:1018900000211E4B0A0000913000FFF777FB1C4926
:1018A0003800FFF773F80022BB5E002B04DB1F2219
:1018B00013409E40174B1E602B0018332365164BB8
:1018C000AB6123681A0050321278002A12D05133CB
:1018D0001B78002B0ED0E368002B00D101BEE3681B
:1018E0001A6A002A00D101BEDA69022A02D91B6AEB
:1018F0000A4A9A6005B0F0BDBCB90D1084A7000873
:1019000000000008B4AA0008050360000604600097
:101910002D100D1000E100E002FF00002DA50008D1
:10192000F7B5184C07002300FF33587E3900FFF746
:101930006DFE01A9C0B2FFF7EEFD051E03D0012523
:101940006D422800FEBD019843787F2B05D05BB225
:10195000FF26002B02DB06F0A5FC2E00FFF7D2FDD0
:1019600023005820FF335B7E58432C235F43C0196C
:101970002018031D9842E4D00130421E1278B24272
:10198000F8D0DCE75C64020810B543787F2B05D003
:101990005BB2FF20002B02DB06F084FC00200B0072
:1019A0001C78844205D101335C1AA242F8D8012088
:1019B00010BD0020FCE710B5010004000A4808F043
:1019C000BFFD002398420DD02100084808F0B8FD63
:1019D0000123002806D02100054808F0B1FD43424C
:1019E00043415B00180010BDD0BB0D10D9BB0D10DA
:1019F000E5BB0D1010B5010004000B4808F0A0FD78
:101A0000002398420DD02100084808F099FD0123D9
:101A1000002806D02100064808F092FD43424341C9
:101A20005B00180010BDC046EABB0D10F3BB0D10E3
:101A3000FBBB0D10F0B507000D00002491B001AE06
:101A4000002D02D1280011B0F0BD296A002904D070
:101A5000380008F075FD0028F4D0AB68002B06D0E4
:101A60000E2C12D8A200955101341D00E8E72B6816
:101A7000002BFAD1002C0AD0013CA3009B591B6813
:101A8000002BF2D1002CF7D1EFE70025DAE7250093
:101A9000D8E710B5FFF7CEFF0124002809D08168F0
:101AA000002906D00448FFF7C5FF002801D0C4680C
:101AB000E4B2200010BDC04603BC0D10F0B50026F6
:101AC00085B00093150003003400029003911F7845
:101AD0005A1C0192002F08D0039B002B0FDB130030
:101AE000029A9B1A039A9A4209DA009BA34261D98F
:101AF000002D01D000232B55200005B0F0BD3B0088
:101B0000093B042B34D9202F32D02C4839002E30F9
:101B100009F0B3FA031E05D12D2F0AD05F2F49D14A
:101B2000264B6D33032E23D8300009F08FFC0510AF
:101B30002335224B6C33F5E7002D06D0009A9442F2
:101B400038D21F4A9B1A9B002B55012610E0621CBD
:101B5000002D0BD0009991422CD919492C195B1AF0
:101B60002178181101431B012170AB541400022687
:101B7000019BACE7621C002D0BD00099914219D952
:101B80000F492C195B1A2178981001439B01217091
:101B9000AB5414000326EBE7002D08D0009AA242B4
:101BA00008D907492A195B1A11780B4313700134BD
:101BB0000026DDE7012464429EE7C04670B50D10A3
:101BC0009EB50D10F8B50E002E21170009F055FA3C
:101BD000041E0CD0451C2E21280009F04EFA0028C6
:101BE00005D0001B0138386000203560F8BD162094
:101BF0004042FBE7F0B5040085B00F001600002955
:101C000001D1002013E004226F49380009F04BFA9B
:101C1000002803D10223E360381D08E005226B4948
:101C2000380009F040FA002803D1E060781D05B0C3
:101C3000F0BD04226649380009F035FA002806D1C3
:101C400001230122E3600023A261E361E4E73B7822
:101C5000222B05D1320039002000FEF78FFCE6E789
:101C60002D2B03D01A00303A092A24D800250A2245
:101C700003A93800039508F019FD03000398874273
:101C8000BFD05A1C0AD1534A914211D10122514B63
:101C90005242A261E3610423E360C8E7002B07D14D
:101CA00080221206914203D1802300221B06F0E716
:101CB000A361E161EFE75B2B35D1781CFEF734FCC3
:101CC000037805005D2B26D00023013D019300938E
:101CD000FFF796FD009B071E6FD0002B19D0019BCC
:101CE00018604360681CFEF71FFC320001003800DA
:101CF000FFF780FFFEF718FC051E06D0037801975A
:101D00002C2BE5D05D2B08D030600098FEF718FD35
:101D100077E70090E6E7002300931023E360009B41
:101D2000681CA36083E77B2B4BD1781CFEF7FCFB80
:101D3000037807007D2B38D00023013F01930093E7
:101D4000FFF75EFD009B051E37D0002B17D0019BCF
:101D500018604360781CFEF7E7FB320001002800A2
:101D6000FEF70CFCFEF7E0FB0028CED02B692B62BF
:101D700000232B6103783A2B03D03060C5E7009035
:101D8000E8E70130FEF7D0FB320001002800FFF742
:101D900031FFFEF7C9FB071EB7D0037801952C2B46
:101DA000CED07D2B03D03060AFE7002300932023FB
:101DB000E360009B781CA36039E7002B00D120E78B
:101DC000A3E737601DE7C0460BBC0D10ACBB0D1080
:101DD00010BC0D10FFFFFF7F70B50600FFF710FD70
:101DE00000230B4D04006B6798420ED03000FEF7C5
:101DF0009BFB2A00010074322000FFF7FBFE051E4A
:101E000003D12000FEF79CFC2C00200070BDC046D2
:101E100084A7000810B5034B1B7A584308F044F818
:101E200010BDC046C0A00008F0B585B002930AAB53
:101E3000070001CB0E9D01900CA80478101FC0B2C2
:101E40001B78FA2800D801BE181FC0B2FA2800D8A3
:101E500001BE601E012804D9FB26201F304200D09D
:101E600001BE2602F0240D982401C00303900198BE
:101E70001204002840D00298002800D101BEC020E2
:101E80008002FF2B00D101BE0240002034402143DC
:101E90006E6A0A43002502433A65C02228001B04EB
:101EA000920213401C43019B9D4202D2174B984261
:101EB00001D105B0F0BD07227B6C1340032B0BD87A
:101EC000029B01995B5D01352343039A8D4200D249
:101ED000002213433B65EDB200208642E3D001307F
:101EE000013EFFF797FF3000431E9841084B4042E8
:101EF0001840064BC018D6E7C0203440800202408C
:101F000021436E6A0A430398C4E7C0460200B20048
:101F1000FEFF4DFF30B58B6987B0DB680C00150004
:101F2000002B0FD019681A79012303932378C9B2C3
:101F30000293FF230193002304950093FFF774FF9E
:101F400007B030BD0048FBE78000B200F0B587B0B5
:101F500002930B6805000E0010000A79D9B2242301
:101F60009C462B4C0C9FA44463460493002303938C
:101F7000737901930323009303002800FFF754FFB4
:101F8000002832D131692800FEF7A2FD00282CD1AB
:101F9000337D1A1FD2B2FA2A00D801BE002F33D0E7
:101FA00007216A6C0A40032A30D88022791E89B240
:101FB00012030A43C0211B0489020B4013432B6503
:101FC0000D9B00202363F9220423A763D2006064E1
:101FD000E363A958023B0B43AB50A56C67630D4B01
:101FE000E26B032A01D0984201D107B0F0BD002076
:101FF0008542F5D00130013DFFF70CFF6842684192
:10200000044B40421840EAE70348EEE70348ECE798
:1020100084A700080200B2000400B2000100B20070
:10202000F0B50500181FC0B28BB0FA2800D801BE69
:102030000724686C2040032801D9174C19E0C02000
:102040001B04800203408020541E000320430343EE
:102050002B650C1E0DD0109B00245E6A0423039197
:10206000059208940693069B042B02D10B4FBC42A9
:1020700002D120000BB0F0BD002469462800FEF715
:102080003FFDA642EFD00120013EFFF7C3FEA6426E
:10209000E9D13C00E7E7C0460100B2000200B2000F
:1020A000F0B5D5B008900C0009921E00002900D1AF
:1020B00001BE0023190010AA1380937011AA138087
:1020C000937012AA13809370626B079222AA99549C
:1020D0000133642BFBD1099B581EC3B2012B08D9D5
:1020E000099B042B00D1CCE3082B01D100F0CFFBDE
:1020F00001BE032E00D901BE072818D809F0B0F997
:1021000008001D001700C403170017001700CB03B9
:102110008022089B12019A18002A08D0C02033049C
:10212000800211680340714801400B431360079B14
:10213000002B05D16E4B069307E3089B8822E9E745
:10214000382322AD00930195099B10AA079908989E
:10215000FFF7FCFE0690002800D0F6E2AB79062BD4
:10216000E8D82B78532BE5D16B78462BE2D1AB78AE
:10217000442BDFD1EB78502BDCD12B79052BD9D92F
:102180006B790B93012BD5D1139013AB11AA2900B6
:102190005848FEF7F5F8069B12AA1493290014ABD1
:1021A0005548FEF7EDF8554A069B904201D1E3648D
:1021B0002365FF20159310AA15AB22A90002FEF794
:1021C000DFF80690002800D0BFE2A368002B00D102
:1021D00001BEE368002B00D101BE2369002B00D1B2
:1021E00001BE6369002B00D101BEE369002B00D161
:1021F00001BE236A002B00D101BEA36A002B00D1CF
:1022000001BE159B22AD009310AA099B0799019569
:102210000898FFF79BFE01220A901000297F16AB59
:10222000884017901000697F1970A97F8840E97F66
:102230001A901973692108A809181000C97F8840ED
:102240006A211D9008A80918C97F19766B21091801
:10225000C97F23AB8A402092DA7F3D231B18DA77AF
:10226000AB7800225B079B0F032B02D0244A6D3210
:10227000D25C226023A8FEF741F8002830DB013051
:10228000C008012211002CAB1B7860601B0999402B
:1022900006236162E16804200B6000230B71216951
:1022A0000B7108600521A263A26A1371E36A1160D1
:1022B000002B00D101BE236B002B00D101BE0022F8
:1022C000236B08A91A71A232521810784006400FE9
:1022D00005281DD8012209F0B9F815E7EDF3E7E765
:1022E000802303381B061843CBE7C046FFFFFCFFE3
:1022F0000500B20084FF000081FF00008000B200F2
:1023000070B50D1001225242E2631A60E36A1A604E
:102310006022E3691F271A6000221A710F232B9A8B
:102320002C991A40013250000A0E3A4001324243C1
:10233000BE4D4800800F40007035405B0B4042436B
:1023400062640A0A17404022890400D4383A022005
:1023500001335B0001377B43534322AAA364A56882
:1023600093788643012E00D1B1E02021194000D19D
:10237000C7E0537A68712B6000232B71137A5B09D5
:1023800000D0BAE0013BAB601F2222AB1B7A0526CE
:1023900013402B6102232B752368042B00D0EEE140
:1023A00031AB1B785A0601D4A14A069201200342A0
:1023B0002DD09B0713D5E368002B10D019681A792C
:1023C0009C4B039024330493099BC9B20293FF23CF
:1023D0000193002308980093FFF726FD0690069BC3
:1023E0001A00934B9A4201D0002A21D1914B00222E
:1023F0002433049301230393099B00920293FF2348
:10240000B721019308981300FFF70EFD0690069B75
:10241000002B0DD13BAB0193139B11AA009307999D
:10242000099B0898FFF792FD0690002800D1A6E0CE
:10243000012054AB1B18C93B1A78012393401B3869
:10244000A36143080C930F232B9E002033400133DC
:102450005B000A93FA239B0080279C4618AD33004B
:10246000C3401F211A090A405B0A1C390B4039007E
:10247000022B06D06146032B03D01021012B00D084
:102480000F390A9B01325A434A4307302A600C3500
:102490001C28E4D10C9B1038584354AB181805384D
:1024A000FF3883682364DBE00221E1631A60E36A9A
:1024B00035222CE74021E1631A60E36A052226E712
:1024C0008022E263423A1A60E36A01321FE7102178
:1024D000194033D0D37B6E712B6000232B71937B1B
:1024E0005B0927D1013BAB601F2222AB9B7B0326FC
:1024F00013402B6101232B754EE7FF232873AB603C
:1025000042E7FF265B0600D446E7D37A29712B60A9
:102510006971937A5B090AD1013BAB601F2222AB40
:102520009B7A042613402B6102232B7534E7AE609F
:102530002973F3E7FF232E73AB60D5E7334015D043
:10254000537B29712B606971137B5B090AD1013BB5
:10255000AB601F2222AB1B7B022613402B610123A1
:102560002B7519E7FF232973AB60F2E703222A607A
:10257000043A2B716B71AA602B612B750CE7013E3D
:102580003B9B042E09D8300008F060FF1D1915117F
:1025900003009B0601D5EC232B60236A3B9A042E93
:1025A00056D8300008F052FFDCDCDC311300DB06CB
:1025B000F3D56C23F0E71B07EFD5BC23ECE75B07F3
:1025C000EBD53C23E8E79B07E7D50C23E4E7802520
:1025D00001206D0015404042002D0AD03E2200210E
:1025E0001A603C3A19715A7198601A7319611A7518
:1025F0002EE0802111401FD034221D711A605D71C0
:1026000098601D731D61323AF1E78021012011406D
:102610004042002910D034221A60002298601A71BA
:102620005A711A731A610232E1E7C04670B50D1093
:102630008000B20084A7000840252A4000D187E02E
:10264000122219711A6059719860197319611975FC
:1026500016AA3BA9200005F05DFD002800D0E8E6A1
:10266000236D002B71D022AB0193149B12AA00930F
:102670000799099B0898FFF769FC0690002864D128
:102680000700149B3B900C93844B07900A93022104
:10269000079A22ABD25C0A4000D184E00A9B002B4F
:1026A0004AD1692208AB6831C918D2180798079B2C
:1026B000105CCB5CB84200D0C6E05A1CD2B2E264D7
:1026C000012A3FD90025226D9B000992079A079F96
:1026D00004329B180C9308956822089B04375B19F9
:1026E000089308AB9B18D95D0F23194000230B9A60
:1026F0000A4200D1B3E0682108AA5218D2590999B8
:10270000150A0D92079A0135BA1A043A8E58089A9A
:102710002D0232600C22534316AAD3181A78596836
:10272000B2609A6832618D4200D3A2E00123F56065
:1027300073600C9B9F42CFD10A9B1A00574B9A4261
:1027400000D09CE00023E3642365069855B0F0BDFB
:1027500002211A7119605A7198601A731A6146E75A
:1027600040210A404139002A06D012221A60002274
:102770001A715A719960F0E702201860F8E7022296
:10278000236A01211A60002249421A715A71996024
:102790001A731A611A7522A916AA200005F0BAFC4C
:1027A0000A9B069359E707995B18D87859780D90DA
:1027B0001F208C469B7808A9401802709B090320B3
:1027C000012B05D0181E03D00420022B00D0206856
:1027D0000022079D3BAB2E1890422ED10022304D97
:1027E0000999243502910090049503920192614663
:1027F0000898FFF719FB0A90002814D11F2608AB90
:10280000F61800950300012231000898FFF708FC34
:102810000A90002807D17F00FBB20D9A3778174045
:102820007A1E97411F43079B08330793079A0C9B17
:10283000934200D32BE71B4B7DE4B51A22A94D1917
:10284000ED789D540132C7E7079802339B00C31807
:10285000079307980C9B834200D327E7EBE70133EC
:102860005200DBB2D2B2052B00D041E70D4A0A92EA
:1028700041E7F160280008F027FC706059E70A9BE7
:1028800059E4032E00D936E4089B902242E4032E3B
:1028900001D9FFF730FC089B98223BE40600B20008
:1028A00084A700080700B200F0B58DB009932D4B46
:1028B00007900891150096089E424DD8002E00D131
:1028C00001362C00B54200D93400A54246D92D1B53
:1028D000254B20009C4200D91800844240D9241A7C
:1028E00080B2FFF797FA002CF2D11F2704ABFF1834
:1028F00001233B70089B9B6906939B6A002B26D0A3
:102900001968099B03940493089BC9B21B782200A1
:102910000293FF230094019307982300FFF784FAA2
:1029200000280ED1099B012200933900230007984B
:10293000FFF776FB002804D1069B9A6B3B78134087
:102940003B701F2304AA9B181878002802D0002D82
:10295000B7D106480DB0F0BD1E00B2E70025B7E7BD
:102960000024BDE740420F00FFFF00000200B2005C
:1029700070B588B006ADE870002029712880A87075
:10298000FEF73AFD104C06002434010022000F48E7
:10299000FFF7C0FA002815D101230494039333787C
:1029A0000200029305230190009371212B00074838
:1029B000FFF73AFA002805D12300054A3100034801
:1029C000FFF772FF08B070BD84A700080000424006
:1029D00020A10700F0B500248BB009AEF0702000F4
:1029E00007913480B470FEF707FD124F039424372B
:1029F00004970378104D029304230194009322005E
:102A0000330065212800FFF70FFAA0420DD10722FD
:102A10006B6C1340032B0AD8084B063A2B650799B9
:102A2000030000972800FFF7FBFA0BB0F0BD044845
:102A3000FBE7C04684A700080000424007000C00E6
:102A40000100B20070B504000D0086B00021142210
:102A500001A807F0BAFA29002000FEF7EBFF0400F6
:102A6000002C18D021001C48FEF7E4FF0028F7D006
:102A70000569002D0AD0194E2900300007F060FDCD
:102A800000280BD1310001A808F005FB210001A8A6
:102A9000FEF7D0FF0400200006B070BD104E2900E4
:102AA000300007F04DFD0028ECD029000D4807F05C
:102AB00047FD0028E6D00C4E2900300007F040FD0D
:102AC0000028DFD02900094807F03AFD0028DDD1B1
:102AD00021000748C1E7C04615BC0D101ABC0D10F7
:102AE00021BC0D1028BC0D1030BC0D1038BC0D10D1
:102AF0003EBC0D100FB4F0B58FB014AA08CA0192F5
:102B00001878002871D05C1C252803D0FEF7EAFD58
:102B10002300F5E75A786C2A00D19C1C2378732B8C
:102B20000CD1019B1A1D1D6801922878002801D143
:102B30000134EDE7FEF7D6FD0135F6E7642B01D051
:102B4000752B21D10025019B1A1D1F6801920135AB
:102B5000AE0002AB3800043E0A219E1908F03AFB91
:102B6000380031600A2108F0AFFA071EEFD16A463B
:102B70000821013D5218AB00D3581E4AD05CFEF725
:102B8000B1FD002DF3D1D3E7632B07D1019B18686A
:102B90001A1DC0B20192FEF7A5FDC9E7782B22D11C
:102BA000019B02AE1A1D019200221B680F27551CC3
:102BB000A9001F40081F37501B090DD1E8070DD58C
:102BC0008B51951C013DAB00F3580A4AD05CFEF7CF
:102BD00089FD002DF6D1ABE72A00E7E7012DF1D101
:102BE00073600135EEE7002B92D10FB0F0BC08BC4A
:102BF00004B01847A4C80D10704AF0B5130069332B
:102C00001B788FB0002B03D1537A002B00D131E217
:102C1000042B00D92EE26A4C626A1268032B00D1A1
:102C20009BE0042B00D19BE00121022B00D095E01A
:102C300013700C21013B5943624A53189D6FDE6F9C
:102C40001300220078335B181F7A303231002800DD
:102C50001772FEF763FA3A0028003100FEF736FAE1
:102C6000594D03212A0059482832FEF757FA1122FC
:102C700003215648FEF72AFA2A0004215C32534801
:102C8000FEF74CFA112204215048FEF71FFA504D6E
:102C900005212A004D481032FEF740FA1122052185
:102CA0004A48FEF713FA2A00062144324748FEF745
:102CB00035FA112206214548FEF708FA2A000721B5
:102CC00078324248FEF72AFA112207213F48FEF7E0
:102CD000FDF9404F3B6840331B78022B12D9E223A9
:102CE0000F203D4A9B00D1588143D150D15821300B
:102CF0008143080020210143D1508021D05809068A
:102D00000143D150FA23F9220321344D9B00BB64C7
:102D1000D200AB5800268B43AB5088235B022B605C
:102D20006661FEF77BFB230020333B62636A0695F6
:102D30000893B34216D1FEF767FB294C0122204BC2
:102D400052425A61251E274900D17FE122002648C0
:102D5000FFF7D0FE28000FB0F0BD0421117068E726
:102D60000821FBE7236A0993002BE4D00796079B11
:102D7000089A9B00D558002D00D1FEE02B785A1EF2
:102D8000012A04D9FB22043B134200D001BE2B7A56
:102D9000032B00D901BEAB69002B00D101BE2A78FC
:102DA000501E072800D968E108F05AFB20000F01E7
:102DB00067011101670167016701130114600208CF
:102DC000C0A0000870B50D10F0B50D1080053240A0
:102DD00070B60D1084A70008000026400000424095
:102DE0000400B2004CBC0D1053BC0D10C94CC027E0
:102DF0002B7ABF02190420683940C74F384001437D
:102E0000042021606968084009D0A969C348FFF718
:102E100047F9002803D00823079A93401E43AB6963
:102E20001B68013B032B00D901BE002800D0A4E0A1
:102E30006B689B0700D4A0E02969E86808F0CAF92C
:102E4000002900D001BE2B69B54A934202D95A1E0F
:102E5000134200D001BEFF218C466746E968A8698D
:102E6000B9438268036AA16029694942B943E160B4
:102E700001680320013901406869471EB84100021A
:102E800001432162002A35D010680021471C0AD076
:102E9000C0271179BF0209043940674607408020E6
:102EA000000607433943C02721645179BF02090452
:102EB0009068394061640021471C09D0C027117B0C
:102EC000BF02090439408027C0B23F06384301439E
:102ED0000020A1641169814205D01F3001390140F1
:102EE000802000060843C021E064127D890212049C
:102EF0000A402265002B32D019680022481C09D0F4
:102F0000C0201A798002120402408020C9B2000653
:102F100001430A43C02022665A798002120499684C
:102F20000240626600224F1C07D01A7BC9B212040D
:102F300002408020000601430A430021A2661A696C
:102F40008A4205D01F31013A0A4080210906114307
:102F5000C022E1661B7D92021B0413402367C0223E
:102F600002212B7A92021B0413406A68FF31114040
:102F7000802212060A4313432360079B0133079301
:102F8000079A099B934200D0F1E6002E78D13000D9
:102F9000FEF732FA634D03962B0024330493037833
:102FA000320002930196009633009F215B48FEF7A2
:102FB0003BFF041E67D10721069B5A6C0A40032A77
:102FC00009D9FEF721FA584CB8E6584C0FE7584C8F
:102FD0000DE7584C0BE7584B069A1365069B5B6C44
:102FE0000B40032BEDD8069A544B0CAF1365062308
:102FF000F9222F636B63AB63023B6E64EB63069B4A
:10300000D200995802230B4306994D4E8B50EB6B1F
:10301000032B02D0013E002E06D1EB6B032B07D011
:10302000FEF7F2F9474C89E60120FEF7F3FEEEE7E2
:103030003B78342B07D17B782A3B012B03D8BB7814
:10304000193B022B25D9FEF7DFF900253E497DE625
:103050008023032019432970FFF78AFC041E12D134
:1030600040E0194304202970FFF782FC002843D078
:10307000040008E001256D426CE6002E00D15AE6FE
:10308000B224240434430025FEF7BEF9AC42DDD05F
:1030900054E6FB780F2BD6D13E79032ED3D17B7922
:1030A000902BD0D10020FEF7A7F901230022243570
:1030B000049503930378B7210293019200921300C1
:1030C0001648FEF7B1FE041EDDD11F2504ABED1836
:1030D00029003000FFF77EFC041ED4D129784BB2C2
:1030E000002BB5DA29000420FFF774FC041ECAD1B6
:1030F00008212B780B42B4D00020FEF77DF9802206
:10310000D8218369D2029A615A6911600F4A1A6400
:10311000B9E7C04600084240FFFFFCFF0000424004
:10312000FFFF000084A700080100B20080084240B1
:1031300000094240800942403F000C0005000800A1
:10314000E90300000200B20044BC0D10701700003B
:10315000FEE7FDE7FCE7FBE7FAE7F9E7F8E7F7E763
:10316000F6E77047F0B5D5B006910100CD48FEF7FF
:1031700061FC002801D100F001FC836802930393F5
:1031800000231F0005930193039B002B00D098E0C0
:10319000029BDB680193202B00D0F0E3029C21000E
:1031A000C148FEF747FC051E00D176E1037E069A72
:1031B0009A4200D071E10100BC48FEF73BFCBC4CD8
:1031C000002800D163E18269BA4B3C925B6E3CA956
:1031D00053403EAE082220A83D9307F05EFD082232
:1031E00020A9300007F059FD230006CE06C32900B0
:1031F000B148FEF71FFC1423002800D08369E36068
:103200002900AE48FEF716FC0123002802D0C3684F
:103210005A1E934123742900A948FEF70BFC00288D
:1032200000D137E1836926006361002335363370AE
:103230002900A448FEF7FEFB002807D00169A24838
:1032400007F07EF9002801D10123337023003533C4
:103250001B7895342370029E002F00D08FE331003D
:103260009148FEF7E7FB002800D141E18369904CCB
:103270001CADDFB222002B0003CA03C308222900C1
:103280001EA807F00AFD8B4B1E9A1F995B6E4B40E0
:103290009A4201D0FFF75CFF2B689F4200D027E1E4
:1032A00031008A48FEF7C6FB002800D119E26023EE
:1032B0008269571E7B43E41802233434227003933F
:1032C0001DE103998248FEF7B5FB002802D086680D
:1032D000002E03D1039B1B68039355E731007D4803
:1032E000FEF7A8FB002800D1AEE0002503697A4C68
:1032F00004932C34AB001959049807F021F90028E5
:1033000000D13FE30135042DF4D10024724F3C3746
:103310000797079AA3009958049807F011F9071E18
:1033200005D00134172CF4D10527183C7F42310019
:103330006A48FEF77FFB002801D0836905933100BE
:103340006748FEF777FB002813D000218369C26924
:103350000191019901310191002A01D1AB4205D9B6
:1033600001996D001D29F4D11F230193631C05D120
:103370006AE0631C68D0019B002B65D04C4B220196
:103380009B18B62246AD92009B182A0003CB03C2BD
:103390000822290048A807F080FC464B489A499922
:1033A0005B6E4B409A4201D0FFF7D2FE2B68012B97
:1033B00018D1059B059A4E933E4B4EA95B6E4CADC2
:1033C000534044A808224F9307F067FC082244A901
:1033D000280007F062FC2200354B0D3212019B18C9
:1033E00006CD06C32200324B2E3240AD12019B188F
:1033F0002A0003CB03C20822290042A807F04DFC93
:103400002C4B429A43995B6E4B409A4201D0FFF796
:103410009FFE2B68012B17D1019B019A5293254BDC
:1034200052A95B6E50AD53404AA80822539307F04F
:1034300034FC082228004AA907F02FFC1C4B240169
:103440001C19D8340CCD0CC4366841E725490498C2
:1034500007F076F80028F7D131002048FEF7EAFAA5
:10346000002807D0124B204A9A5C012A02D18269B7
:10347000C8331A6031001A48FEF7DCFA0028E3D09E
:103480000B4B1A4A9A5C012ADED1CC339EE201270B
:103490007F42ACE6FA231B01C5E62468002C00D06D
:1034A0007DE6D8E6D0BB0D102BBD0D10AABC0D10CB
:1034B00014600208C0A00008B1BC0D10B9BC0D100A
:1034C000C4BC0D10D0BC0D10DDBC0D10E2BC0D1045
:1034D0008BBC0D1015BC0D10F0B60D1095BC0D1069
:1034E0009DBC0D10A2BC0D10CA020000CB02000052
:1034F0003668002E00D0B2E6012337000393002E79
:1035000000D0F2E03100CD48FEF794FA0190002897
:1035100000D05CE13100CA48FEF78CFAC94C0028A3
:103520000FD0442392227B439200E3189B181B7810
:10353000012B06D1C2685F33511E8A417B43E318D9
:103540001A723100C048FEF775FA0190002839D090
:1035500044237B43E418932312AD9B00E4182B0013
:1035600014A806CC06C30822290007F096FBB74C26
:10357000149A1599636E4B409A4201D0FFF7E8FD0B
:103580002B68012B1ED1019B34A9DB6810A85A1EA1
:103590009341AF4A5B421340AE4A9B183493626E2C
:1035A00036AC53400822359307F077FB082210A968
:1035B000200007F072FB60227A43A24B9B1818335D
:1035C00006CC06C33100A448FEF734FA0190002867
:1035D00033D044237B439B4A0CACD31895229200F2
:1035E0009B18220003CB03C2082221000EA807F07B
:1035F00054FB964D0E9A0F996B6E4B409A4201D038
:10360000FFF7A6FD2368012B17D1019B30A99B6909
:1036100032AC30936A6E0AA853400822319307F007
:103620003CFB08220AA9200007F037FB60237B43FC
:10363000844AD318243306CC06C331008748FEF7EA
:10364000F9F9002800D11BE1C368102B00D017E165
:10365000002385680193002D00D111E14422019BD4
:103660007A430533DB009A18764B22AC9B189022E4
:1036700092009B18220003CB03C20822210024A839
:1036800007F00BFB714B249A25995B6E4B409A42D5
:1036900001D0FFF75DFD2368012B1AD1AB696B4A9E
:1036A0002C93526E2CA953402EAC082226A82D93A1
:1036B00007F0F3FA082226A9200007F0EEFA0C23FF
:1036C0007B43019A9B1809335E4ADB00D31806CC72
:1036D00006C3019B01330193032B00D1D0E02D6879
:1036E000B9E701230700039309E731005C48FEF7BF
:1036F000A1F9002800D105E78468002C00D101E77A
:1037000021005848FEF796F900282FD00569564940
:10371000280006F015FF00282AD121005348FEF7A3
:1037200089F900280ED0442399217B43454A89001A
:10373000D3185B181B78012B04D15F337B43D2185D
:103740008369936321004A48FEF774F900280DD07D
:1037500044237B433B4A4749D3185B181B78012B12
:1037600004D15F337B43D2188369D3632468C4E7F1
:103770004149280006F0E4FE0028F7D121003B482B
:10378000FEF758F900280DD044237B432D4A3B49CE
:10379000D3185B181B78012B04D15F337B43D218FD
:1037A0008369136421003248FEF744F90028DDD014
:1037B00044237B43234A3149D3185B181B78012BE0
:1037C000D4D15F337B43D21883695364CEE744235B
:1037D0007B431C4A18ACD318972292009B182200F6
:1037E00003CB03C2082221001AA807F056FA174D8E
:1037F0001A9A1B996B6E4B409A4201D0FFF7A8FCB6
:103800002368012B00D085E6019B38A99B693AAC5F
:1038100038936A6E16A853400822399307F03DFA90
:10382000082216A9200007F038FA60237B43054AD6
:10383000D3182C3306CC06C36CE6C046EEBC0D1084
:10384000AFC30D101460020805BD0D10C0A0000824
:1038500055555505555555150DBD0D101CBD0D1073
:103860008BBC0D1015BC0D10F8BC0D1095BC0D10C7
:103870009DBC0D1065020000FDBC0D10660200002D
:1038800031005448FEF7D6F860237B43524CE318CE
:10389000002866D082695A7231005048FEF7CAF893
:1038A00060237B43E31801330122002804D0C1695F
:1038B00082690A43511E8A41DA77002F1CD13100F8
:1038C0004748FEF7B7F81423002800D08369E36661
:1038D00031004448FEF7AEF8002844D0C3685A1EB1
:1038E000934122007032137031003F48FEF7A2F876
:1038F00000283CD083696367039B022B3ED1029B67
:10390000029EDB680193202B29D131003748FEF756
:1039100091F800282ED08269D3B2022B2AD1571EEB
:1039200060227A43A41822003432137031003048E8
:10393000FEF780F8002812D082692E4B28925B6E29
:1039400028A953402AAD082208A8299307F0A5F911
:103950000822280008A907F0A0F90CCD0CC4012307
:10396000ADE4587298E7230070331870BCE7FA236F
:103970001B01C0E73668002EC7D1F0E700273800EA
:1039800055B0F0BD1C49049806F0DAFD002800D0BF
:103990005CE531001948FEF74DF8002808D0B22246
:1039A0000D4B92009A5C012A02D18269C0331A60E1
:1039B00031001348FEF73EF8002800D144E5064BDD
:1039C000104A9A5CC433012A00D03DE582691A602E
:1039D0003AE5C04626BD0D10146002082EBD0D103C
:1039E000B1BC0D10B9BC0D10C4BC0D10E2BC0D1063
:1039F0002BBD0D10C0A0000839BD0D1095BC0D10D9
:103A00009DBC0D10C9020000F0B58BB001900D00F7
:103A100016000C00002A01D0541E641806A90A00E2
:103A20002D4BD03381CB81C2082208A807F035F98D
:103A30002A4B089A09995B6E4B409A4201D0FFF7D6
:103A400087FB02AB9C466246234B069FD83303CBD1
:103A500003C20822614604A807F01FF91F4B049A0D
:103A600005995B6E4B409A4201D0FFF771FB012331
:103A7000029A01329340DB19BD4225D39D42924107
:103A8000A74203D8A34201D901225242BD4201D824
:103A9000A74216D39D4201D2A34212D3002A10D1CD
:103AA00001992800FDF7E1FD002806D1002E04D081
:103AB000701E40190199FDF7D8FD0BB0F0BD002232
:103AC000E6E701204042F8E7A742F8D80022A342E7
:103AD000DCD901225242DBE714600208C0A00008D2
:103AE000F0B5836893B007001600934205D2E12138
:103AF0008D4A8E4B1832490006E08B4207D8C4210C
:103B0000894A8B4B1832FF318A4806F01BFA446809
:103B100052181B199A4204D3834A874B1832E22168
:103B2000E9E7641832002100FFF76EFF051E49D156
:103B30007B787F2B17D13619670A760A7F027602C7
:103B4000B74204D13800FDF734FE13B0F0BD0120B8
:103B5000F51B6D0A4042002DF7D0013D6802C019E7
:103B6000FDF727FEF7E75BB2002B2BDAFDF744FCED
:103B7000836906000A939B690F950893E8231B0647
:103B8000E418089B109559422140013B5B180993AA
:103B90000A9B07915B680693069A099B934211D290
:103BA0000A9B0A001B6C10A90B93FCF767FF041E0D
:103BB00000D0B1E0109BDA681D685F68089B069230
:103BC000934202D201204042BFE7069B5F436B1E37
:103BD000FF18079B0699581B07F0FCFA0029F1D142
:103BE000099BBB420AD21A0010A93000FCF746FF1D
:103BF000041E12D1109B1D68DB680693099B069971
:103C0000581C401B07F0E6FA0029DBD1089B002B6B
:103C100007D1601E8441604297E7484B9842D1D05B
:103C2000ECE7079A10A93000FCF728FF099F041E53
:103C30000ED1109B1A695F680B92DA6806921A68B7
:103C4000069B013A5F43099BD7199F4200D91F0089
:103C5000FA230B9A9B0053430C9335E01202110098
:103C60001A5C013311430A0049E02A79FF2A4FD038
:103C7000324B98424CD000284CD1119B99680123BB
:103C80002F4D0393243504953378019202932368D2
:103C9000C9B200932B480FABFEF7C6F8041EB5D18E
:103CA0002B000C9A31002748FEF7FEFD089B069A70
:103CB00004009342ADD99446079B63440793089B45
:103CC0009B1A08930028A1D1079BBB429ED21C4A95
:103CD000310024321B48FEF71DF9041E96D10A9BC1
:103CE000079A1B680FA9013B5A54120A002BFAD1FC
:103CF000B4691193226865690D921A000FA80D9995
:103D00009942ABD111A93000FCF7B8FE002DACD11F
:103D10000D4C7BE72968B2E7084B984200D151E788
:103D2000089B2F00069354E770B70D104ABD0D1085
:103D300064BD0D10B2BB0D107DBD0D100400B200AE
:103D400084A70008000042408000B200F0B545683A
:103D50008FB0099007921C008D4207D8AD21524ABE
:103D6000524B29324900524806F0ECF80B199D429B
:103D700005D85C214C4A4F4B2932FF31F3E76D18CF
:103D8000220029000998FFF73FFE061E02D00124F9
:103D9000644209E0099B58787F2808D12200290055
:103DA000079806F07AFF340020000FB0F0BD43B250
:103DB000002B6EDA7F231840FDF71EFBE8231B065D
:103DC000EB18071E08930D9600D101BE079B002B30
:103DD00000D101BEBA69089B5168E3188B4258D8DC
:103DE00096683548002C02D10028DDD051E0BB692F
:103DF000089A18680DAB0500013DEA54120A002D1F
:103E0000FAD132790B9232680395D1B22B4A24321F
:103E100004920A923A7802927279009001922848AC
:103E20000B9AFEF701F8002833D1B1684B1C20D162
:103E30003169002904D02248FCF74AFE002828D125
:103E4000802325005B029C4200D91D001B4A337D64
:103E50002432009207992A001948FEF7E1F8002859
:103E600017D1089B641B5B190893079B5B19079389
:103E7000B8E70A9B327B049303953B78C9B202935F
:103E8000FF23009501930E482B00FDF7CDFF00287E
:103E9000CED0099B5B78002B00D178E7012109483F
:103EA0004942FEF727FE72E770B70D10A9BD0D104D
:103EB000B2BB0D10C1BD0D100400B20084A70008F4
:103EC00000004240DFBD0D10F7B500250127144B5F
:103ED0002900FF335C7E3E002000FDF797FB01A91F
:103EE000C0B2FDF718FB011E0DD1582262432C24ED
:103EF0006C430B4B1219D21801982023FFF726FFB1
:103F00000600701E86410198FDF7FCFA002E03D0D2
:103F10003E006E403000FEBD012DFBD03D00D6E7D7
:103F20005C64020870B50C0001231100220005003A
:103F3000FFF70CFF012200280FDB002C06D0210028
:103F40002800FDF721FD0323002804D12378013B3D
:103F50005A1E9341013300222370100070BDF0B54A
:103F600087B00D00C0B201A9FDF7D5FA01260028DF
:103F700021D1019C1023A16802AA10392000FFF76B
:103F8000E5FE002814DB102202A92000FDF7FCFC4E
:103F9000002813D003232B706B46A168DF1C28393F
:103FA00001233A002000FFF7D1FE002811DA012694
:103FB0000198FDF7A7FA300007B0F0BD16491022AE
:103FC0003C3102A807F04AF8431E9841013028709E
:103FD000E2E70F263B7801221E401B096E702B7111
:103FE00039002000FDF7D0FC002801D1042E03D9B0
:103FF00001236B7000232B71A268A91C203A2000BA
:10400000FFF790FF0028D2D1A268E91C183A2000DF
:10401000FFF788FF0600CBE770B70D10F0B51E0064
:10402000036885B0040000910192002B02D0436820
:10403000002B1CD10120404237E06A882189171DDE
:10404000BC461B4FB94202D02D888D420DD1002EA7
:1040500002D003A909883180009904330B60019BC9
:104060001A802369634423611FE06344236122694A
:1040700063699A4218D223685B89002B04D0E368F5
:10408000934201D10433236103AD04232A00216943
:104090006068FFF75BFE0028CCD1A27A2369002A72
:1040A000CBD0E2689A42C8D8012005B0F0BDC04626
:1040B000FFFF0000F0B587B002930CAB1B78040043
:1040C0000D0000920393002A05D101235B42019366
:1040D000019807B0F0BDCB680F8905AEFF1832001C
:1040E000042339000098FFF731FE01900028ECD13D
:1040F000144A31886B89914221D171889942E4D167
:10410000C919042332000098FFF720FE0028DCD1F3
:1041100005AA0D4B11889942D7D1009B2560636099
:104120006B461B8923816B461B7BA3726B89DB1952
:10413000E3605288D31863613B1D2361C8E7002BFD
:10414000E6D0C2E7086900000769000030B5154CE9
:104150008BB006A923000A00683321CB21C20822B4
:1041600008A806F09AFD089A099B616E4B409A4296
:1041700001D0FEF7EDFF6D46069B04A9013B0493B9
:10418000626E02A853400822059306F086FD0822BD
:1041900002A9280006F081FD68340CCD0CC40BB0D8
:1041A00030BDC046C0A00008F0B5584B584D89B08E
:1041B0000600029503A8703390CB90C018230C0022
:1041C0005A438B180193236805A9059323796269E3
:1041D0000B7163794B71A3798B71E379CB71237A7E
:1041E0000B72637A4B7263894B81002A00D101BE46
:1041F0008B79032B00D901BECB79032B00D901BEEB
:104200000B79073B182B00D901BE424B1B6830339A
:104210001B781F2B00D972E048897F270300BB431E
:1042200000D06EE08B79783F3B4040020343487AF0
:10423000313780070343C879C00038400343012069
:104240000F7A7840F8278001034308797F0500063C
:10425000384003431800304F3840834251D1FF208B
:104260000F68874348795360384310601768B84235
:1042700049D15268284F1740DB1B5F427B41274FD3
:104280005B42234A3B409B180293029B002B25D1A3
:10429000227B60698A71627B4B72CA71A27B029534
:1042A0000A72228A4A81FCF7DDFD0290029B002BF4
:1042B00014D160690295FCF79DFD0290029B002BD2
:1042C0000CD160690295FCF7B1FD0290029B002BB6
:1042D00004D1019B18349C4200D074E7029B03ACCC
:1042E000002B04D12200094B783303CB03C2FFF724
:1042F0002DFF3300300006CC06C309B0F0BD084BDB
:10430000C2E7084BC0E7024BBEE7C046C0A00008AA
:104310000300C20084A70008DBFEFFFFFDFF3DFF96
:104320000200C2000100C200F0B58BB003AD94469C
:10433000070028000C00624E62490093029670311B
:104340000CC90CC0634607936B461B7807A90B7119
:104350006378A0684B71A3788B71E378CB71237974
:104360000B7263794B72E38800964B81002800D171
:1043700001BE4B89DB0B00D001BE8B79072B00D926
:1043800001BECB79072B00D901BE0B79073B182B57
:1043900000D901BE4B897F221E009643321E00D0F9
:1043A00087E0079EFF32964332004E795B02164348
:1043B00001968A799446072266463240382613438E
:1043C0004A7A92071343CA79D200324013430A7AD9
:1043D000944601226646724092011A430B79F821F5
:1043E0001B0649050B401343019A436002600268B3
:1043F000019991425FD1426833490A409B1A5A425F
:104400005341324A5B4213402D4A9B180293029B50
:10441000002B0DD1009A07A90292227BA0688A7115
:10442000627BCA71E2894B724A81FCF769FD029096
:10443000029B002B11D1009B0293A368002B00D19B
:1044400001BE8022596812060A435A605B681F4AFF
:10445000DB1713401A4A9B180293029B002B11D1C1
:10446000009B0293A368002B00D101BE8022596AF1
:1044700012060A435A625B6A144ADB171340104A59
:104480009B180293029B002B0BD102990D4B05AA9E
:10449000002912D07033110011CB11C12B0003CAB7
:1044A00003C3FFF753FE3B00380006CD06C30BB035
:1044B000F0BD074BAAE7024BA8E77833EBE7C0460D
:1044C0000300C200C0A00008FFFEFFFFFDFF3DFF8C
:1044D0000100C200F0B5314C9BB003932300029061
:1044E0001600703306AA0F0003CB03C200230C93FF
:1044F0000593636E08220CA908AD0AA80D9306F077
:10450000CCFB08220AA9280006F0C7FB039B06CDB6
:1045100006C3002E39D07B89002B36D00123320010
:10452000009339004F3314A8FFF7C4FD031E2CD1AC
:1045300010AD2A0012A914A8FFF770FD002824D19D
:104540002B88042B21D105AA12993000FFF7FEFB1E
:1045500000281AD1059A14A91492636E12A8534028
:104560000822159306F099FB082212A9280006F0EC
:1045700094FB039B783406CD06C30EA90B0005CC33
:1045800005C3082206A806F088FBFFF7DFFD029AA4
:1045900006AB03CB03C202981BB0F0BDC0A000085D
:1045A00073B56C4622000C4B0500703341CB41C201
:1045B0000800FDF74EF8012807D860234343074859
:1045C000C0182300183006C806C3FFF7BFFD2B0034
:1045D000280006CC06C376BDC0A0000814600208FF
:1045E00073B56C4622000B4B0500703341CB41C2C2
:1045F000012907D860234B430749C91823002C31F0
:1046000005C905C3FFF7A2FD2B00280006CC06C391
:1046100076BDC046C0A000081460020870B58AB01C
:104620006B460090596006A90A0011CB11C20822FE
:1046300008A806F032FB114D089A099B696E4B40A1
:104640009A4201D0FEF784FD02A92B000A006833CC
:10465000069C41CB41C2082204A806F01EFB049A26
:10466000059B696E4B409A4201D0FEF771FD029B9B
:10467000A34201D0FEF76CFD0AB070BDC0A00008D7
:10468000F0B58DB06D46194C2A0023006833070041
:1046900003CB03C20822290008A806F0FEFA08226C
:1046A00008A90AA806F0F9FA0A9A0B9B616E4B401A
:1046B0009A4201D0FEF74CFD089B06A901330693F0
:1046C000626E02AE534004A808220793683406F0D5
:1046D000E4FA082204A9300006F0DFFA0CCE0CC47C
:1046E0003B00380006CD06C30DB0F0BDC0A00008E9
:1046F000F0B5884C884EA54406933300029005918E
:10470000170070330FAA03CB03C211AC3300220091
:10471000703303CB03C22DA8FFF7B2FF3300220092
:1047200008AD703303CB03C239002800FFF738FF10
:10473000230006CD06C32D982E99FFF76FFF25ADF8
:104740002B0006CC06C323AC33002200703303CB0E
:1047500003C229AB9C461A00290009C909C2634655
:10476000299A5B68716E4B409A4201D0FEF7F0FCCB
:1047700027AB1A0003CC03C2279A289B716E4B40CB
:104780009A4201D0FEF7E4FC259A239B9A4209D174
:104790006A68249B9A4205D16048FEF7ABF9012470
:1047A00064421EE23800FCF746FF041E00DA18E2FD
:1047B000039018206043029B1B1804931B78002B66
:1047C00000D015E200933A003233059937A8FFF77D
:1047D00071FC031EE3D1122506AAAD182A000CA90C
:1047E00037A8FFF71BFC002800D003E22B88902B92
:1047F000D5D94CAA0C993800FFF7A8FA0028CED1D9
:104800002BA8FFF73DFF444E0FAD33002A00703355
:1048100003CB03C233002FAA703303CB03C238008B
:10482000FCF717FF012807D8602343433C48C01812
:1048300024302FAB06C806C3FFF788FC2A002FAB35
:1048400003CB03C22B982C99FFF7E8FE1FAB1A008D
:10485000290081C981C221AA110081CB81C121997E
:10486000229B726E5340994201D0FEF771FC1F9B50
:104870001BAB1A00290081C981C21DAA110081CB7E
:1048800081C11D991E9B726E5340994201D0FEF763
:104890005FFC1B9B002B00DC81E717AB1A00290093
:1048A00081C981C219AA110081CB81C119991A9BB2
:1048B000726E5340994201D0FEF74AFC179FFBF7F6
:1048C0001FFE874200DD6AE713AB1A0003CD03C267
:1048D00015AA110021CB21C11599169B726E534068
:1048E000994201D0FEF734FC12230E4906AA9B1808
:1048F0004C31102233A843AE1D88139F06F0CDF92A
:104900003000FCF70BFF50230D93012C0CDD8724A6
:1049100046E7C046A4FDFFFFC0A0000806BE0D107C
:104920001460020870B70D10912DF0D1B24B71AD2B
:1049300071973DA80BAF3D933E956F60FBF7ACFDC3
:10494000041E00D04DE13B88AC4A3DA83D923E9507
:10495000719302966E60FBF79FFD041E00D040E14C
:104960008C2206AB52009B181B78042BCFD1CF2290
:10497000029B12021B8813408222D2019342C6D1AD
:10498000029B0E905B880EAE05939D4B3DA83D9318
:104990009C4B3E952E606B60FBF77EFD041E00D0A5
:1049A0001FE18A22984BFF323D93984B3DA86B60E4
:1049B00006ABD21820233E952E60AA60EB60FBF771
:1049C0006BFD041E00D00CE18F4B3DA83D93904B36
:1049D0003E956B6033ABAB6010232E60EB60FBF752
:1049E0005BFD041E00D0FCE08A4A3B883D92022217
:1049F000AB604CABEB60059BFF320733DB085B0021
:104A000001333DA83E952E606A602B61FBF744FDA3
:104A1000041E00D0E5E0804B3DAD319371AB6B607F
:104A20000D9B31A832953D96AB60FBF735FD041E1A
:104A300000D0D6E00E9043A8FCF770FE80231B0147
:104A40004693F421882306AA52185B011380734B06
:104A500006AA319316239B183D93029B704E6B6000
:104A600075ABAB60202331A847963295EB60FBF71E
:104A700013FD041E00D0B4E006ABDB8A694A0EAF1A
:104A800031A8319232952F606B60AE60FBF704FD68
:104A9000041E00D0A5E0644B102631937A2306AAA9
:104AA000FF339B1831A832952F606B60AE60FBF727
:104AB000F3FC041E00D094E05C4B06AA31935A2309
:104AC000FF339B186B60202331A832952F60AB60B9
:104AD000FBF7E2FC041E00D083E006ABDB8A544FF8
:104AE00031A8319732952B60FBF7D6FC0797041E4F
:104AF00077D143A8FCF712FE80239B0046934D4BD1
:104B000031A847934C4B32954393444BEE6031931D
:104B10004A4B4C330593039B5F00059BDB192B60CD
:104B2000029B6B6071ABAB60FBF7B6FC041E58D107
:104B3000059B434AFB5A434F6B603E4BBF1931A85C
:104B4000319232952F60AB60FBF7A6FC041E48D172
:104B50003D4B31A831937DAB32952F606B60AE60D9
:104B6000FBF79AFC041E3CD1384B06AA31937A23FA
:104B7000FF339B186B60039B069A1B010C33D31801
:104B8000EB6031A80DAB6B6132952F60AE602E618A
:104B9000FBF782FC0D9B0400B34227D1002820D1F3
:104BA0002B4B3E9031933F900DAB3DAD31A83295EC
:104BB0003D974093FBF770FC041E12D11F4A039BE4
:104BC0004C325B009B5A079A31A8319232953D9343
:104BD000FBF762FC040004983200013081A906F062
:104BE0005CF8200097239B009D44F0BD8424D7E50A
:104BF0000124F6E70400F4E7001600350002003552
:104C0000001D0035090120300004003502020000BB
:104C100003020000000600350007003500090035DA
:104C200009008002001E0035001F003500200035FD
:104C3000000A00350100C0040024800084A7000899
:104C4000000B003504A80008000C0035000D0035ED
:104C5000000E00350023F0B5AFB004937A4B0090FE
:104C6000019106AA703303CB03C2082006F0E2F9D3
:104C7000009B06000120002B03D00430012B00D044
:104C8000FA3004A9FCF747FC0124002847D110A8FA
:104C9000FFF7F6FC6C4C06AD23002A00703303CB03
:104CA00003C202AF019938003300049AFFF712FCE7
:104CB0002B003A0003CA03C310981199FFF7AEFC0A
:104CC000082229000AA805F0E8FF08AD23002A0001
:104CD000783303CB03C208220AA90EA805F0DDFF32
:104CE0000E9A0F9B616E4B409A4201D0FEF730FA4C
:104CF000082229000CA805F0D0FF0C9A0D9B616ECC
:104D00004B409A4201D0FEF723FA0A9A089B9A4236
:104D10000ED00B9A099B9A420AD0012464423000BB
:104D200006F092F90498FCF7EDFB20002FB0F0BDDF
:104D30003100082212A805F0B0FF14AD23002A00AC
:104D4000703303CB03C22AA8FFF79AFC23002A0082
:104D5000703303CB03C238000099FFF741FC2B00EE
:104D600006CF06C32A982B99FFF758FC0822290082
:104D700026A805F092FF082226A928A805F08DFF95
:104D8000289A299B616E4B409A4201D0FEF7E0F9C8
:104D9000269B102BC1D80822290022A805F07DFFF0
:104DA000082222A924A805F078FF249A259B616E89
:104DB0004B409A4201D0FEF7CBF9082212A91EA857
:104DC000229B05F06AFF08221EA920A805F065FFB6
:104DD000209A2199636E4B409A4201D0FEF7B8F9B0
:104DE000082229001AA81E9B05F057FF08221AA9BD
:104DF0001CA805F052FF1C9A1D9B616E4B409A4205
:104E000001D0FEF7A5F9082212A916A81A9D05F0EF
:104E100044FF082216A918A805F03FFF189A19990F
:104E2000636E4B409A4201D0FEF792F9074A169BF7
:104E30002D04AD182CA805AA2C952D920593FBF7EF
:104E4000A9FC04006BE7C046C0A0000800010036C2
:104E5000F0B5DC4CA544DC4C039023000BAA703366
:104E600003CB03C249A8FFF70BFC23000BAA703346
:104E700003CB03C223008027D4494BAA0791703388
:104E800021CB21C2D24D00913F062B78A1AE3370C9
:104E90006B7831007370AB78E868B370EB78F370BF
:104EA000AB88B380FBF75BFF0790079B002B3FD1DC
:104EB000009A31000792AA79E8683270EA79F370B3
:104EC00072702A7AB2706A89B280FBF789FA079009
:104ED000079B002B2CD1009BEA680793BD4B1B68F6
:104EE000303319781F2900D9AEE35368BA483B43E1
:104EF00053605368DB170340B4481B180793079BA4
:104F0000002B15D1009B07931F2900D99EE3536AFC
:104F10003B435362536AB04ADB171340AB4A9B18BA
:104F20000793079B002B03D1AC4B10359D42ACD1AE
:104F3000079B4BAD002B04D123002A00783303CB11
:104F400003C2FFF703F90BAB06CD06C349984A9994
:104F5000FFF764FB37AE33000BAA03CA03C335ADBA
:104F600023002A00783303CB03C23BAB1A00310085
:104F700081C981C23B9A3C9B616E4B409A4201D0F1
:104F8000FEF7E6F839AB1A00290081C981C2399AC7
:104F90003A9B616E4B409A4201D0FEF7D9F8379A9E
:104FA000359B9A4268D172686B689A4264D123003B
:104FB0000BAA703303CB03C247A8FFF761FB2300A2
:104FC0000BAA703303CB03C2009B854F08932300C9
:104FD0003D004DAA703303CB03C26035A0372B7858
:104FE000A1AE33706B7831007370AB78E868B37042
:104FF000EB78F370AB88B380FBF7B1FE0890089BA9
:10500000002B27D1009A31000892AA79E868327003
:10501000EA79F37072702A7AB2706A89B280FBF70B
:10502000DFF90890089B002B14D1009BE8680893D7
:10503000FBF7E0FE0890089B002B0BD1009BE86873
:105040000893FBF7F3FE0890089B002B02D1103564
:10505000BD42C4D1089B4DAD002B04D123002A00D2
:10506000783303CB03C2FFF771F80BAB06CD06C351
:1050700047984899FFF7D2FA2FAE33000BAA03CA1C
:1050800003C32DAD23002A00783303CB03C233AB17
:105090001A00310081C981C2339A349B616E4B4042
:1050A0009A4201D0FEF754F831AB1A00290081C9A9
:1050B00081C2319A329B616E4B409A4201D0FEF719
:1050C00047F82F9A2D9B9A421ED172686B689A42BC
:1050D0001AD123000BAA703303CB03C245A8FFF7F4
:1050E000CFFA23000BAA703303CB03C23D4904ADB2
:1050F000042220312800FFF757F80BAB06CD06C37A
:1051000045984699FFF78AFA27AE33000BAA03CADF
:1051100003C325AD23002A00783303CB03C22BAB96
:105120001A00310081C981C22B9A2C9B616E4B40C1
:105130009A4201D0FEF70CF829AB1A00290081C968
:1051400081C2299A2A9B616E4B409A4201D0FDF799
:10515000FFFF279A259B9A4200D0CFE072686B68C8
:105160009A4200D0CAE023000BAA703303CB03C2DB
:1051700043A8FFF785FA23000BAA703303CB03C2C1
:1051800023004FAA703303CB03C2174F73AA739740
:10519000636E7B4074936BAB190021CA21C151A887
:1051A000020022CB22C2114B114A59690197114BBF
:1051B000114232D0FE21104A779351710F4991610B
:1051C000616E1DE06CFDFFFFC0A000080300C2007F
:1051D0001CBB0D1084A70008FDFF3DFFACBB0D10EC
:1051E00070B70D10F0B70D10217B3A9804A8000895
:1051F000FF00FF009C51A61740A1000800003240AC
:1052000077AA5940789169A90D00C0CAC0C575AA8E
:105210001500C0C9C0C522CA22C0DC4A527D002A7E
:1052200014D0BF21DA4A7B935171DA499161616EE2
:105230007BAA59407C9167A9080060CA60C079AA1E
:10524000100060C960C051A921CA21C17D93626E5E
:105250007DA9534065AA7E93130021C921C36FAB7A
:10526000190021CA21C15FAD290051AA41CA41C11B
:105270005DAE320003CB03C263AB1A00290081C9C3
:1052800081C2639A649B616E4B409A4201D0FDF7E4
:105290005FFF61AB1A0003CE03C2619A629B616E2D
:1052A0004B409A4201D0FDF753FF5F9A5D9B9A42B3
:1052B00000D0CDE16A685E9B9A4200D0C8E16DA83B
:1052C000FFF7DEF94FAD23002A0004AE703303CBA5
:1052D00003C202223000AE49FEF766FF0CCE0CC5B9
:1052E0006D986E99FFF79AF9FEF730FF4FAB0BAA56
:1052F00003CB03C243984499FFF790F91FAE3300E4
:105300000BAA03CA03C31DAD23002A00783303CBC5
:1053100003C223AB1A00310081C981C2239A249BA6
:10532000616E4B409A4201D0FDF712FF21AB1A008B
:10533000290081C981C2219A229B616E4B409A4209
:1053400001D0FDF705FF1F9A1D9B9A423CD1726860
:105350006B689A4238D123000BAA703303CB03C287
:1053600041A8FFF78DF923000BAA703303CB03C2CA
:105370002300894A7033099283A9A1AE21CB21C1B0
:105380003100864BA1CBA1C100250192844AAB011B
:105390009B181B68002B00DB9FE10135102DF5D118
:1053A000099A019983AB8A4200D0ADE189AA102DF8
:1053B00000D1BBE1FEF7CAFE0BAB83AA03CA03C34D
:1053C00041984299FFF72AF917AE33000BAA03CA96
:1053D00003C315AD23002A00783303CB03C21BABF4
:1053E0001A00310081C981C21B9A1C9B616E4B401F
:1053F0009A4201D0FDF7ACFE19AB1A00290081C911
:1054000081C2199A1A9B616E4B409A4201D0FDF7F6
:105410009FFE179A159B9A4200D08FE072686B68C6
:105420009A4200D08AE023000BAA703303CB03C258
:105430003FA8FFF725F923000BAA703303CB03C263
:1054400070348BAB06CC06C300230193A022554BCE
:10545000D2009B580199544A8A1802921578032B5E
:1054600001D0092D5BD92B0095AC22004F4F0D3395
:105470001B01FB1803CB03C297AB1A00210041C9E3
:1054800041C24B4E979A9899736E4B409A4201D005
:10549000FDF75EFE2368002B41D02B000D3391AC4D
:1054A0001B01FF18230006CF06C393AB1A0021008F
:1054B00081C981C2939A9499736E4B409A4201D0EC
:1054C000FDF746FE2B01394D27688DACED18230002
:1054D000D83506CD06C38FAB1A00210021C921C2E1
:1054E0008F9A9099736E4B409A4201D0FDF730FE2F
:1054F000266899A88BACFFF7C3F822002C4B04ADAB
:10550000703303CB03C233003A0002992800FEF740
:105510000BFF0CCD0CC499989A99FFF77FF8019B6B
:1055200010330193A02B91D1FEF710FE8BAB0BAA89
:1055300003CB03C23F984099FFF770F80FAE3300DA
:105540001B4C0BAA03CA03C30DAD23002A007833FA
:1055500003CB03C213AB1A00310081C981C2139A75
:10556000149B616E4B409A4201D0FDF7F1FD11ABE7
:105570001A00290081C981C2119A129B616E4B40A9
:105580009A4217D0FDF7E4FD14E0C04604A80008D5
:1055900040A10008000632400400C20070B80D109F
:1055A00024400140000021407CBA0D101460020824
:1055B000C0A000080F9A0D9B9A423AD172686B689E
:1055C0009A4236D123000BAA703303CB03C23DA805
:1055D000FFF756F823000BAA703303CB03C29BAD31
:1055E000230029006E4A70330A9241CB41C1002644
:1055F00001926C4AB3019B186B491A68B3015B189E
:105600001B68002A00DB94E00136102EF1D10A9BC2
:10561000019A934200D0AFE09DAB102E00D1BDE0C7
:10562000FEF794FD0BAB06CD06C33D983E99FEF701
:10563000F5FFFEF78BFD039B0BAA03CA03C3039878
:10564000A5239B009D44F0BD584B57E4574B67E49E
:10565000019A019F7F92626E7FAB57405BAA110057
:10566000809721CB21C171AB190021CA21C155AD51
:10567000290051AA41CA41C153AE320003CB03C233
:1056800059AB1A00290081C981C2599A5A9B616E8F
:105690004B409A4201D0FDF75BFD57AB1A0003CE99
:1056A00003C2579A589B616E4B409A4201D0FDF756
:1056B0004FFD559A539B9A4200D015E66A68549B59
:1056C0009A4200D010E681AB22001900783221CA3C
:1056D00021C14FAA03CB03C206E6354B3100EF18B8
:1056E000BF013800FBF7BEFB0990099B002B00D0DF
:1056F00056E6009B38000993FBF798FB0990099B3D
:10570000002B00D149E64BE6099A00998A4208D15C
:10571000210087AA7031100060C960C003CA03C3AA
:1057200048E6099A002A00D044E685AA210078318B
:10573000F1E7002B00DA67E71E4B1F49F718BF019E
:105740000C313800FBF7DCFB0A900A9B002B00D0E1
:105750005DE78022009B12060A937B6A13437B62FB
:105760007B6A164ADB171340154A9B180A930A9B5B
:10577000002B00D148E74AE70A9B009A934208D1E0
:105780009FAB70341A0003CC03C22A0003CB03C2C0
:1057900046E70A9B002B00D042E7A1AB7834F1E743
:1057A0000400C20004202440242024400200C2003F
:1057B000000500018090000170B80D10FDFF3DFF55
:1057C0000300C200F0B5A5B004AC04906160029281
:1057D00003932AAB1B782B9A0193644B02AF9A4236
:1057E00000D0C1E0624B634D12936A6E12A9534020
:1057F00010A8082213930AAE05F04FFA082210A948
:1058000006A805F04AFA330008A806CF06C3082206
:1058100006A905F042FA082231000CA805F03DFA6D
:105820000C9A0D9B696E4B409A4201D0FDF790FC9B
:10583000082208A90EA805F030FA0E9A0F9B696E8F
:105840004B409A4201D0FDF783FC0A9A089B9A428A
:1058500009D17268099B9A4205D1474B1B68002BFE
:1058600001DA02F029FC019B002B0BD002F040FC76
:1058700002F030FCC022C0234049520088581B0669
:1058800003438B5020A90B00220041CA41C30822C8
:1058900022A805F002FA229A23996B6E4B409A4295
:1058A00001D0FDF755FCAC232099354A9B00D1501F
:1058B0001CA90B00220041CA41C308221EA805F002
:1058C000ECF91E9A1F996B6E4B409A4201D0FDF77E
:1058D0003FFC1C9A2B4B18A99A600B00220041CA6E
:1058E00041C308221AA805F0D8F91A9A1B996B6EC1
:1058F0004B409A4201D0FDF72BFC189B14A91E685F
:105900000B0005CC05C3082216A805F0C6F9169AA7
:1059100017996B6E4B409A4201D0FDF719FC1A485B
:105920001A49149B091A5C68FAF76CFF184D19495B
:105930002800491BFAF766FF174B5C659E6585F3E7
:10594000088816481649091AFAF75CFF86F3088892
:1059500014481549091AFAF755FFFBF761FF0020B3
:1059600002F012FDA047FEE7FEE7C046186EA971DF
:105970009B71CA27C0A000080001264000002640F5
:105980000000214000ED00E0C0A00008D0A3000806
:10599000002000080024000804A8000800B0020845
:1059A00000C0020868A7000888650208F0B58DB03D
:1059B00002A90A00344B783311CB11C2082204A883
:1059C00005F06BF9314E049A059B716E4B409A427B
:1059D00001D0FDF7BDFB6A46029B2D4CDBB2D370B4
:1059E000E3682C480193D71CFDF784F82A482B4A1A
:1059F0000021121A04F0E9FA29482A4A0021121A51
:105A000004F0E3FA284D294A0021521B280004F033
:105A1000DCFA3B7806A9DBB20693726E08A8534005
:105A20000AAE0822079305F038F9082208A93000C9
:105A300005F033F9144B783306CE06C3019BE360BF
:105A400085F308881A4D1B4800212A1A04F0BDFA74
:105A500085F30888012002F097FCFBF7E1FEE0687F
:105A600002F030FC144B0100984202D01348FDF7BD
:105A700041F8134802F0DCFB124B1B68002B01DAE3
:105A800002F01AFB05F05CFD84A70008C0A0000826
:105A9000146002083FBE0D10C0A00008D0A300088B
:105AA00068A7000888650208002000080024000894
:105AB00000C0020800B002084BE6AC8587BE0D109E
:105AC000004000160001264010B5002801D1FFF764
:105AD0006DFF10BDF0B505008BB0080014001F006D
